0089601400999991958010112004+34033-004983FM-12+041499999V0202601N00721004201CN0400001N9+01221+00501101821ADDAY121999GA1031+006009089GA2071+012009059GF107991071071004501999999MD1810071+9999MW1031
0057601400999991958010212004+34033-004983FM-12+041499999V0202601N00721012001CN0150001N9+01111+01001101831ADDAY181999GF107991051081008001041999MD1010011+9999MW1611
0057601400999991958010312004+34033-004983FM-12+041499999V0200401N00101220001CN0500001N9+01221+00781102071ADDAY121999GF106991001001999999001061MD1810061+9999MW1021
0057601400999991958010412004+34033-004983FM-12+041499999V0200601N00211090001CN0500001N9+01221+00611102031ADDAY111999GF106991011001999999031021MD1810061+9999MW1021
0057601400999991958010512004+34033-004983FM-12+041499999V0200401N00311220001CN0500001N9+01111+00721102551ADDAY101999GF101991001001999999001021MD1010021+9999MW1021
0057601400999991958010612004+34033-004983FM-12+041499999V0201001N00101220001CN0600001N9+01501+00611102651ADDAY101999GF100991001001999999001001MD1010141+9999MW1021
0057601400999991958010712004+34033-004983FM-12+041499999V0200401N00101090001CN0400001N9+01501+01111102421ADDAY121999GF106991031001999999081021MD1810061+9999MW1031
0057601400999991958010912004+34033-004983FM-12+041499999V0202601N00101012001CN0200001N9+01111+00891102511ADDAY111999GF107991071051012501999999MD1010021+9999MW1021
0057601400999991958011012004+34033-004983FM-12+041499999V0202801N00311036001CN0150001N9+01281+00891102721ADDAY121999GF107991041081008001031999MD1810021+9999MW1031
0057601400999991958011112004+34033-004983FM-12+041499999V0202601N00931009001CN0300001N9+01391+00781101951ADDAY121999GF107991071081004501999999MD1810181+9999MW1031
0057601400999991958011212004+34033-004983FM-12+041499999V0201601N00511004201CN0100001N9+01221+01001103071ADDAY121999GF108991081051004501999999MD1810061+9999MW1021
0057601400999991958011312004+34033-004983FM-12+041499999V0202601N00411015001CN0300001N9+01221+00721101881ADDAY121999GF107991071081012501999999MD1810091+9999MW1021
0057601400999991958011412004+34033-004983FM-12+041499999V0200801N00211220001CN0100001N9+01001+00611101731ADDAY101999GF103991031021008001001001MD1810061+9999MW1031
0057601400999991958011512004+34033-004983FM-12+041499999V0200401N00621090001CN0200001N9+01001+00281101971ADDAY121999GF105991021051012501031021MD1010021+9999MW1011
0049601400999991958011606004+34033-004983FM-12+041499999V0202401N00101220001CN0150001N9+00721+00111102251ADDGF103991031051012501001001MD1710031+9999MW1001
0057601400999991958011612004+34033-004983FM-12+041499999V0202601N00311036001CN0100001N9+00721+00501102321ADDAY121999GF107991041051012501031999MD1810011+9999MW1021
0057601400999991958011712004+34033-004983FM-12+041499999V0203201N00211036001CN0200001N9+01111+00391102291ADDAY121999GF107991031021008001031021MD1010001+9999MW1031
0057601400999991958011812004+34033-004983FM-12+041499999V0200201N00411220001CN0350001N9+01111+00501102301ADDAY101999GF100991001001999999001001MD1810041+9999MW1021
0057601400999991958011912004+34033-004983FM-12+041499999V0200201N00101090001CN0400001N9+01111+00391102411ADDAY111999GF106991011001999999031021MD1010011+9999MW1011
0057601400999991958012012004+34033-004983FM-12+041499999V0203601N00101220001CN0400001N9+01221+00501101961ADDAY101999GF101991011001999999041001MD1810051+9999MW1021
0057601400999991958012112004+34033-004983FM-12+041499999V0202801N00311012001CN0100001N9+01111+00721101421ADDAY121999GF107991061081008001071999MD1810041+9999MW1021
0057601400999991958012212004+34033-004983FM-12+041499999V0202801N00211006001CN0080001N9+00781+00721102011ADDAY161999GF108991081081002501999999MD1010091+9999MW1211
0057601400999991958012312004+34033-004983FM-12+041499999V0200401N00211036001CN0350001N9+01001+00611102141ADDAY121999GF107991011011012501041051MD1010001+9999MW1021
0057601400999991958012412004+34033-004983FM-12+041499999V0200601N00411090001CN0400001N9+01221+00501101941ADDAY111999GF105991011001999999041021MD1010021+9999MW1031
0057601400999991958012512004+34033-004983FM-12+041499999V0200401N00211090001CN0500001N9+01281+00501102241ADDAY111999GF107991021001999999041021MD1810011+9999MW1021
0057601400999991958012612004+34033-004983FM-12+041499999V0200401N00511090001CN0400001N9+01221+00721102241ADDAY121999GF106991031001999999031021MD1810081+9999MW1031
0057601400999991958012712004+34033-004983FM-12+041499999V0200401N00411090001CN0500001N9+01721+00781102101ADDAY111999GF106991001001999999001021MD1810141+9999MW1011
0057601400999991958012812004+34033-004983FM-12+041499999V0209991C00001002101CN0080001N9+01281+01281102211ADDAY161999GF108991051071002501071999MD1810051+9999MW1611
0057601400999991958012912004+34033-004983FM-12+041499999V0202801N00411002101CN0060001N9+01391+01281102151ADDAY161999GF107991071021002501999999MD1310041+9999MW1251
0057601400999991958013012004+34033-004983FM-12+041499999V0200201N00101009001CN0150001N9+01111+00781102301ADDAY121999GF107991071081004501999999MD1810061+9999MW1031
0057601400999991958013112004+34033-004983FM-12+041499999V0200401N00721220001CN0400001N9+01391+00611101871ADDAY101999GF102991011011012501001021MD1810111+9999MW1021
0057601400999991958020112004+34033-004983FM-12+041499999V0200601N00621220001CN0500001N9+01501+00781102001ADDAY101999GF103991001001999999001021MD1810041+9999MW1031
0057601400999991958020212004+34033-004983FM-12+041499999V0200601N00621220001CN0400001N9+01501+00891102161ADDAY111999GF104991041001999999081021MD1710011+9999MW1021
0057601400999991958020312004+34033-004983FM-12+041499999V0200401N00621090001CN0450001N9+01611+01001102191ADDAY121999GF106991031001999999041021MD1010001+9999MW1021
0057601400999991958020412004+34033-004983FM-12+041499999V0200601N00411090001CN0400001N9+01721+00891102461ADDAY111999GF105991001001999999001021MD1810011+9999MW1021
0057601400999991958020512004+34033-004983FM-12+041499999V0200601N00151090001CN0300001N9+01501+01111102481ADDAY121999GF107991011001999999041021MD1710071+9999MW1031
0057601400999991958020612004+34033-004983FM-12+041499999V0209991C00001036001CN0250001N9+01611+01221102231ADDAY121999GF107991051001999999051061MD1010041+9999MW1021
0057601400999991958020712004+34033-004983FM-12+041499999V0200201N00101012001CN0150001N9+01281+01111101941ADDAY161999GF107991061081008001071999MD1810051+9999MW1031
0057601400999991958020812004+34033-004983FM-12+041499999V0209991C00001090001CN0150001N9+01721+01391101801ADDAY121999GF107991021051012501001081MD1410001+9999MW1021
0057601400999991958020912004+34033-004983FM-12+041499999V0200401N00311220001CN0250001N9+01611+01111101791ADDAY101999GF102991001001999999001011MD1810021+9999MW1031
0057601400999991958021012004+34033-004983FM-12+041499999V0202801N00101090001CN0200001N9+01891+01221101611ADDAY111999GF107991021001999999031021MD1110091+9999MW1021
0057601400999991958021112004+34033-004983FM-12+041499999V0200401N00311220001CN0150001N9+01721+01221101961ADDAY111999GF103991011021017501001051MD1810061+9999MW1031
0057601400999991958021212004+34033-004983FM-12+041499999V0200401N00411036001CN0150001N9+01891+01111101771ADDAY121999GF107991011081012501081021MD1810041+9999MW1021
0057601400999991958021312004+34033-004983FM-12+041499999V0200801N00211036001CN0200001N9+01891+01221102161ADDAY121999GF107991041051012501071999MD1010001+9999MW1011
0057601400999991958021412004+34033-004983FM-12+041499999V0200401N00311090001CN0400001N9+02111+01001102371ADDAY111999GF107991001001999999001021MD1710051+9999MW1021
0057601400999991958021512004+34033-004983FM-12+041499999V0200401N00621220001CN0350001N9+02111+00781102501ADDAY101999GF102991001001999999001021MD1810091+9999MW1021
0057601400999991958021612004+34033-004983FM-12+041499999V0200401N00311090001CN0400001N9+01891+01001102571ADDAY111999GF105991011001999999041021MD1110011+9999MW1031
0057601400999991958021712004+34033-004983FM-12+041499999V0200601N00211220001CN0200001N9+01891+01221102221ADDAY111999GF103991011021012501081021MD1710081+9999MW1011
0057601400999991958021812004+34033-004983FM-12+041499999V0203001N00211009001CN0060001N9+01501+01221102051ADDAY151999GF107991071081004501999999MD1010001+9999MW1021
0057601400999991958021912004+34033-004983FM-12+041499999V0202601N00511009001CN0100001N9+01391+00721102071ADDAY161999GF107991071081004501999999MD1010011+9999MW1031
0057601400999991958022012004+34033-004983FM-12+041499999V0200601N00411090001CN0500001N9+01501+00781101871ADDAY111999GF106991001001999999001021MD1710121+9999MW1011
0057601400999991958022112004+34033-004983FM-12+041499999V0200601N00721036001CN0150001N9+01501+00891101461ADDAY111999GF107991031051012501081999MD1610031+9999MW1031
0057601400999991958022212004+34033-004983FM-12+041499999V0200401N00411220001CN0150001N9+01501+00781101811ADDAY111999GF104991041081008001001001MD1010001+9999MW1031
0057601400999991958022312004+34033-004983FM-12+041499999V0209991C00001220001CN0300001N9+01501+00891102131ADDAY101999GF100991001001999999001001MD1010001+9999MW1021
0043601400999991958022412004+34033-004983FM-12+041499999V0209991C00001090001CN0300001N9+01501+00891102331ADDAY121999GF107991001001999999001021MW1021
0057601400999991958022512004+34033-004983FM-12+041499999V0202801N00621009001CN0100001N9+01501+01001102131ADDAY121999GF107991051081004501041021MD1010001+9999MW1011
0057601400999991958022612004+34033-004983FM-12+041499999V0202801N00721001201CN0070001N9+01111+01001102071ADDAY161999GF108991081071001501999999MD1810011+9999MW1611
0057601400999991958022712004+34033-004983FM-12+041499999V0202801N00511220001CN0300001N9+01111+00281102681ADDAY111999GF102991021021012501001001MD1010071+9999MW1031
0057601400999991958022812004+34033-004983FM-12+041499999V0202601N00101220001CN0500001N9+01281+00221102661ADDAY101999GF103991001001999999001021MD1810091+9999MW1021
0057601400999991958030112004+34033-004983FM-12+041499999V0203201N00101220001CN0600001N9+01281+00391102421ADDAY101999GF101991001001999999001021MD1810041+9999MW1021
0057601400999991958030212004+34033-004983FM-12+041499999V0203201N00411007501CN0300001N9+01391+00721101911ADDAY111999GF107991061021008001001021MD1810101+9999MW1031
0057601400999991958030312004+34033-004983FM-12+041499999V0202801N00211012001CN0300001N9+01391+00391101891ADDAY111999GF106991061021012501001001MD1010001+9999MW1011
0073601400999991958030412004+34033-004983FM-12+041499999V0200601N00311220001CN0400001N9+01501+00281101571ADDAY101999GA1021+999999009GF102991001001999999001021MD1810031+9999MW1031
0057601400999991958030512004+34033-004983FM-12+041499999V0209999999999220001CN0300001N9+01501+00281101881ADDAY101999GF101991011011012501001001MD1110031+9999MW1021
0057601400999991958030612004+34033-004983FM-12+041499999V0200601N00411220001CN0300001N9+01391+00281102271ADDAY101999GF101991011011012501001001MD1810021+9999MW1021
0057601400999991958030712004+34033-004983FM-12+041499999V0209991C00001220001CN0300001N9+01721+00501102331ADDAY101999GF101991011011012501001001MD1810051+9999MW1031
0057601400999991958030812004+34033-004983FM-12+041499999V0202801N00511009001CN0100001N9+01501+00501102341ADDAY121999GF106991061081004501001011MD1810081+9999MW1021
0057601400999991958030912004+34033-004983FM-12+041499999V0202801N00621015001CN0300001N9+01501+00721101981ADDAY121999GF107991071081012501999999MD1810141+9999MW1031
0057601400999991958031012004+34033-004983FM-12+041499999V0202801N00721036001CN0200001N9+01221-00111101781ADDAY121999GF107991031071004501031001MD1810011+9999MW1041
0057601400999991958031112004+34033-004983FM-12+041499999V0209991C00001009001CN0100001N9+01001+00781101981ADDAY161999GF107991071081004501999999MD1010041+9999MW1211
0057601400999991958031212004+34033-004983FM-12+041499999V0201801N00101009001CN0150001N9+01391+00781102421ADDAY121999GF106991061081004501999999MD1010041+9999MW1011
0057601400999991958031312004+34033-004983FM-12+041499999V0201401N00101220001CN0600001N9+01611+00781102651ADDAY101999GF100991001001999999001001MD1810021+9999MW1021
0057601400999991958031412004+34033-004983FM-12+041499999V0200401N00211220001CN0500001N9+01781+00781102371ADDAY101999GF100991001001999999001001MD1810101+9999MW1021
0057601400999991958031512004+34033-004983FM-12+041499999V0200401N002119999999N0600001N9+02111+00891101791ADDAY111999GF199999001001999999001021MD1810121+9999MW1021
0057601400999991958031612004+34033-004983FM-12+041499999V0200201N00101220001CN0400001N9+02501+00891101411ADDAY101999GF104991011001999999041011MD1810021+9999MW1021
0057601400999991958031712004+34033-004983FM-12+041499999V0200201N00101009001CN0300001N9+01721+01111101871ADDAY121999GF107991071081004501001021MD1810041+9999MW1031
0057601400999991958031812004+34033-004983FM-12+041499999V0202801N00101007501CN0200001N9+01611+00891101951ADDAY111999GF106991051051008001001011MD1810061+9999MW1031
0057601400999991958031912004+34033-004983FM-12+041499999V0200401N00101220001CN0500001N9+01501+00611102061ADDAY111999GF104991001001999999001021MD1810021+9999MW1011
0057601400999991958032012004+34033-004983FM-12+041499999V0200601N00101090001CN0500001N9+01611+01001102031ADDAY121999GF107991011001999999041021MD1010041+9999MW1021
0043601400999991958032112004+34033-004983FM-12+041499999V0200401N00211220001CN0600001N9+01891+01781101731ADDAY101999GF101991001001999999001021MW1011
0057601400999991958032212004+34033-004983FM-12+041499999V0209991C00001090001CN0400001N9+02281+01111101041ADDAY121999GF107991031001999999081021MD1810041+9999MW1031
0057601400999991958032312004+34033-004983FM-12+041499999V0202801N00101009001CN0100001N9+01891+01221101061ADDAY121999GF107991071081004501999999MD1810051+9999MW1021
0057601400999991958032412004+34033-004983FM-12+041499999V0202601N00821009001CN0200001N9+02001+01391100871ADDAY161999GF107991061081004501041001MD1810051+9999MW1031
0057601400999991958032512004+34033-004983FM-12+041499999V0202601N00721036001CN0100001N9+01781+01111101451ADDAY161999GF107991041021004501041021MD1210161+9999MW1011
0057601400999991958032612004+34033-004983FM-12+041499999V0202601N00311007501CN0300001N9+02001+01281101381ADDAY111999GF106991051021008001001011MD1810021+9999MW1031
0057601400999991958032712004+34033-004983FM-12+041499999V0202801N00621036001CN0500001N9+02221+01221101311ADDAY121999GF107991031021008001031021MD1010001+9999MW1031
0057601400999991958032812004+34033-004983FM-12+041499999V0203201N00211006001CN0080001N9+01781+01281101231ADDAY121999GF107991071081002501999999MD1610061+9999MW1011
0057601400999991958032912004+34033-004983FM-12+041499999V0202601N00721004201CN0080001N9+01001+00781101461ADDAY181999GF108991081031004501999999MD1310081+9999MW1631
0057601400999991958033012004+34033-004983FM-12+041499999V0202601N00511009001CN0200001N9+01501+00891102051ADDAY161999GF106991061081004501041001MD1810041+9999MW1031
0057601400999991958033112004+34033-004983FM-12+041499999V0203001N00311036001CN0300001N9+01781+01111102211ADDAY121999GF107991041081008001051021MD1810011+9999MW1031
0057601400999991958040112004+34033-004983FM-12+041499999V0202801N00511007501CN0400001N9+01781+01391102281ADDAY121999GF105991051021008001001021MD1210081+9999MW1031
0057601400999991958040212004+34033-004983FM-12+041499999V0202001N01031090001CN0500001N9+02001+01391101631ADDAY121999GF107991011021008001001021MD1010011+9999MW1021
0057601400999991958040312004+34033-004983FM-12+041499999V0202801N00211009001CN0060001N9+01391+01111101851ADDAY161999GF108991081081004501999999MD1110041+9999MW1021
0057601400999991958040412004+34033-004983FM-12+041499999V0202601N00511009001CN0300001N9+01611+00721101911ADDAY121999GF107991051081004501001021MD1810041+9999MW1031
0057601400999991958040512004+34033-004983FM-12+041499999V0209999999999090001CN0400001N9+01611+00611102211ADDAY111999GF107991041021008001001061MD1810111+9999MW1021
0057601400999991958040612004+34033-004983FM-12+041499999V0202801N00311007501CN0500001N9+01611+00781102121ADDAY111999GF105991051021008001001021MD1810081+9999MW1021
0057601400999991958040712004+34033-004983FM-12+041499999V0202401N00101220001CN0400001N9+01721+00721102091ADDAY111999GF104991011011012501001021MD1810031+9999MW1011
0057601400999991958040812004+34033-004983FM-12+041499999V0200201N00211009001CN0200001N9+01501+01001101871ADDAY121999GF107991071081004501999999MD1710061+9999MW1031
0057601400999991958040912004+34033-004983FM-12+041499999V0200401N00621220001CN0500001N9+02001+00891101451ADDAY101999GF101991001001999999001021MD1810121+9999MW1021
0057601400999991958041012004+34033-004983FM-12+041499999V0200801N00931220001CN0400001N9+02001+00721101281ADDAY121999GF104991011011012501001011MD1810021+9999MW1031
0057601400999991958041112004+34033-004983FM-12+041499999V0200601N00411036001CN0200001N9+01721+01111100781ADDAY161999GF107991021051017501081021MD1810081+9999MW1011
0057601400999991958041212004+34033-004983FM-12+041499999V0202801N00621004201CN0080001N9+01611+01111100211ADDAY161999GF107991061021004501071999MD1010071+9999MW1031
0057601400999991958041312004+34033-004983FM-12+041499999V0202801N01031004201CN0060001N9+00611+00501100811ADDAY181999GF108991081071004501999999MD1310031+9999MW1631
0057601400999991958041412004+34033-004983FM-12+041499999V0202601N00511004201CN0150001N9+01001+00611101771ADDAY181999GF107991071021004501999999MD1010061+9999MW1611
0057601400999991958041512004+34033-004983FM-12+041499999V0202801N00101090001CN0300001N9+01391+00611102061ADDAY111999GF106991041021008001001021MD1010001+9999MW1031
0057601400999991958041612004+34033-004983FM-12+041499999V0202801N00311007501CN0300001N9+01391+00721101901ADDAY111999GF106991061021008001001001MD1810031+9999MW1021
0057601400999991958041712004+34033-004983FM-12+041499999V0202601N00721004201CN0080001N9+01281+00781102081ADDAY161999GF107991071031004501999999MD1110121+9999MW1251
0057601400999991958041812004+34033-004983FM-12+041499999V0200401N00211220001CN0600001N9+01391+00281101541ADDAY101999GF100991001001999999001001MD1010001+9999MW1021
0057601400999991958041912004+34033-004983FM-12+041499999V0200601N00411220001CN0600001N9+02001+01111102101ADDAY101999GF100991001001999999001001MD1810071+9999MW1021
0057601400999991958042012004+34033-004983FM-12+041499999V0200401N00311090001CN0500001N9+02391+01001101481ADDAY111999GF106991001001999999001021MD1710121+9999MW1011
0057601400999991958042112004+34033-004983FM-12+041499999V0203201N00311036001CN0100001N9+01891+01221101301ADDAY111999GF107991041021012501081061MD1810041+9999MW1021
0057601400999991958042212004+34033-004983FM-12+041499999V0202801N00311009001CN0080001N9+01221+01001101611ADDAY161999GF108991081081004501999999MD1110121+9999MW1211
0057601400999991958042312004+34033-004983FM-12+041499999V0202601N00101090001CN0300001N9+01781+01111101881ADDAY111999GF106991021021012501001021MD1810031+9999MW1031
0057601400999991958042412004+34033-004983FM-12+041499999V0203601N00101004201CN0100001N9+01781+01221102141ADDAY121999GF107991071021004501999999MD1010021+9999MW1021
0057601400999991958042512004+34033-004983FM-12+041499999V0209991C00001220001CN0200001N9+02001+01391102411ADDAY101999GF101991011011008001001001MD1810081+9999MW1031
0057601400999991958042612004+34033-004983FM-12+041499999V0200401N00411220001CN0400001N9+02221+01111102101ADDAY101999GF101991011011012501001021MD1810081+9999MW1031
0057601400999991958042712004+34033-004983FM-12+041499999V0200401N00211220001CN0400001N9+02281+01111101881ADDAY101999GF101991011011012501001001MD1810071+9999MW1031
0057601400999991958042812004+34033-004983FM-12+041499999V0200401N00311220001CN0500001N9+02501+01111101681ADDAY101999GF101991011011012501081021MD1810041+9999MW1021
0057601400999991958042912004+34033-004983FM-12+041499999V0200601N00411090001CN0300001N9+02501+01221101581ADDAY121999GF105991021091017501001021MD1810051+9999MW1031
0057601400999991958043012004+34033-004983FM-12+041499999V0200601N00511090001CN0500001N9+02721+01281101151ADDAY111999GF105991011011012501081021MD1810111+9999MW1031
0057601400999991958050112004+34033-004983FM-12+041499999V0200601N00511090001CN0300001N9+02221+01281101601ADDAY121999GF106991021021017501001021MD1010021+9999MW1031
0057601400999991958050212004+34033-004983FM-12+041499999V0200601N00511220001CN0300001N9+02391+01391101571ADDAY111999GF101991011041012501001001MD1810061+9999MW1011
0057601400999991958050412004+34033-004983FM-12+041499999V0203201N00311036001CN0300001N9+02781+01501102151ADDAY111999GF107991011021012501081021MD1110031+9999MW1031
0057601400999991958050512004+34033-004983FM-12+041499999V0200401N00101220001CN0400001N9+02501+01721102261ADDAY111999GF103991011021012501031001MD1810091+9999MW1031
0057601400999991958050712004+34033-004983FM-12+041499999V0200401N00311220001CN0400001N9+02891+01501999999ADDAY101999GF102991011021008001001021MD1710091+9999MW1031
0057601400999991958050812004+34033-004983FM-12+041499999V0203201N00101036001CN0400001N9+03221+01611101771ADDAY121999GF107991011091012501081021MD1810031+9999MW1171
0057601400999991958050912004+34033-004983FM-12+041499999V0200601N00511090001CN0400001N9+03391+01281101581ADDAY111999GF105991011021012501081021MD1710161+9999MW1031
0057601400999991958051012004+34033-004983FM-12+041499999V0202601N00411220001CN0500001N9+03611+01221101031ADDAY101999GF100991001001999999001001MD1810161+9999MW1021
0057601400999991958051112004+34033-004983FM-12+041499999V0202801N00411004201CN0100001N9+01781+01391101231ADDAY121999GF108991081021004501999999MD1810141+9999MW1021
0057601400999991958051212004+34033-004983FM-12+041499999V0202601N00411009001CN0100001N9+01721+00781101671ADDAY161999GF107991071081004501001999MD1810071+9999MW1021
0057601400999991958051312004+34033-004983FM-12+041499999V0202801N00311009001CN0200001N9+01611+01111101771ADDAY161999GF107991071081004501999999MD1810021+9999MW1031
0057601400999991958051412004+34033-004983FM-12+041499999V0202801N00311012001CN0300001N9+02001+01001101931ADDAY121999GF106991061021012501001001MD1810071+9999MW1021
0076601400999991958051512004+34033-004983FM-12+041499999V0201101N00101220001CN0400001N9+01891+01221102191ADDAY111999GF102991999011012501001001MD1810051+9999MW1011EQDQ01+000012SCOTLC
0043601400999991958051612004+34033-004983FM-12+041499999V0202801N00211090001CN0300001N9+02391+01221102111ADDAY141999GF107991001001999999001021MW1021
0057601400999991958051712004+34033-004983FM-12+041499999V0203601N00101220001CN0500001N9+02611+01611101791ADDAY111999GF104991001001999999001021MD1810091+9999MW1021
0057601400999991958051812004+34033-004983FM-12+041499999V0200601N00511220001CN0300001N9+03111+00721101631ADDAY101999GF100991001001999999001001MD1810031+9999MW1021
0057601400999991958051912004+34033-004983FM-12+041499999V0200401N00211220001CN0400001N9+03001+01721101671ADDAY101999GF103991001001999999001021MD1710081+9999MW1031
0057601400999991958052012004+34033-004983FM-12+041499999V0202801N00101090001CN0400001N9+02391+01611101681ADDAY141999GF108991011001999999051021MD1810041+9999MW1021
0057601400999991958052112004+34033-004983FM-12+041499999V0203601N00211220001CN0200001N9+02281+01281101791ADDAY151999GF102991021011012501001001MD1810041+9999MW1011
0057601400999991958052212004+34033-004983FM-12+041499999V0200601N00411220001CN0600001N9+02611+01501101451ADDAY101999GF101991001001999999001011MD1710121+9999MW1021
0057601400999991958052312004+34033-004983FM-12+041499999V0202801N00311220001CN0300001N9+02721+01391101181ADDAY111999GF102991001001999999001021MD1710041+9999MW1011
0057601400999991958052412004+34033-004983FM-12+041499999V0202601N00311220001CN0300001N9+02111+01221101501ADDAY111999GF103991011011012501001021MD1810101+9999MW1021
0057601400999991958052512004+34033-004983FM-12+041499999V0203401N00411009001CN0200001N9+01721+01111101881ADDAY121999GF107991071081004501999999MD1010081+9999MW1031
0057601400999991958052612004+34033-004983FM-12+041499999V0202801N00411036001CN0300001N9+01891+00721101871ADDAY121999GF107991011011012501081021MD1810091+9999MW1031
0057601400999991958052712004+34033-004983FM-12+041499999V0202601N00311220001CN0200001N9+01781+00721102321ADDAY121999GF102991021081012501001001MD1810041+9999MW1031
0057601400999991958052812004+34033-004983FM-12+041499999V0200601N00211090001CN0500001N9+02221+00281101771ADDAY111999GF106991011011012501001021MD1810151+9999MW1031
0057601400999991958052912004+34033-004983FM-12+041499999V0203201N00211036001CN0300001N9+02001+00891101781ADDAY121999GF107991021011012501081021MD1710041+9999MW1021
0057601400999991958053012004+34033-004983FM-12+041499999V0200801N00211220001CN0500001N9+02001+00891101961ADDAY111999GF102991011011012501001021MD1810091+9999MW1011
0057601400999991958053112004+34033-004983FM-12+041499999V0202601N00211090001CN0300001N9+01891+00891101611ADDAY121999GF107991031001999999081081MD1610021+9999MW1021
0057601400999991958060112004+34033-004983FM-12+041499999V0203201N00311220001CN0400001N9+02281+01111101561ADDAY101999GF101991011021012501001001MD1810041+9999MW1031
0057601400999991958060212004+34033-004983FM-12+041499999V0202201N00211090001CN0400001N9+02281+01111101991ADDAY111999GF107991021011012501001021MD1810031+9999MW1031
0057601400999991958060312004+34033-004983FM-12+041499999V0200601N00211036001CN0500001N9+02281+00891102191ADDAY111999GF106991011011012501031021MD1810101+9999MW1031
0057601400999991958060412004+34033-004983FM-12+041499999V0200201N00101220001CN0300001N9+02501+00891101881ADDAY101999GF101991011011017501001021MD1710161+9999MW1031
0057601400999991958060512004+34033-004983FM-12+041499999V0202801N00311090001CN0400001N9+03001+01281101521ADDAY121999GF105991001001999999001021MD1810041+9999MW1021
0057601400999991958060612004+34033-004983FM-12+041499999V0203401N00311090001CN0400001N9+02611+01111101731ADDAY121999GF107991031001999999081021MD1810051+9999MW1031
0057601400999991958060712004+34033-004983FM-12+041499999V0200601N00211036001CN0300001N9+02781+01611101211ADDAY111999GF107991061001999999081021MD1710191+9999MW1031
0076601400999991958060812004+34033-004983FM-12+041499999V0202601N00311220001CN0300001N9+02891+01391101491ADDAY101999GF102991999001999999021001MD1010001+9999MW1031EQDQ01+000002SCOTLC
0057601400999991958060912004+34033-004983FM-12+041499999V0201001N00511220001CN0150001N9+02891+01611101341ADDAY101999GF103991011011012501001011MD1710191+9999MW1021
0057601400999991958061012004+34033-004983FM-12+041499999V0202601N00311220001CN0300001N9+02281+00891101911ADDAY111999GF104991001001999999021021MD1810081+9999MW1031
0057601400999991958061112004+34033-004983FM-12+041499999V0209991C00001220001CN0300001N9+01001+00781101971ADDAY101999GF100991001001999999001001MD1610031+9999MW1001
0057601400999991958061212004+34033-004983FM-12+041499999V0200201N00211090001CN0300001N9+01721+01391101301ADDAY111999GF106991021001999999081021MD1710161+9999MW1031
0057601400999991958061312004+34033-004983FM-12+041499999V0200201N00411220001CN0300001N9+03001+01221100841ADDAY101999GF101991011021008001001001MD1810151+9999MW1031
0057601400999991958061412004+34033-004983FM-12+041499999V0200601N00721220001CN0300001N9+02891+00891101051ADDAY101999GF101991011011017501001001MD1710051+9999MW1021
0057601400999991958061512004+34033-004983FM-12+041499999V0200601N00311220001CN0200001N9+02781+01221101441ADDAY101999GF101991011011012501001001MD1410001+9999MW1031
0057601400999991958061612004+34033-004983FM-12+041499999V0200601N00101220001CN0150001N9+02721+01501101681ADDAY101999GF101991011011017501001021MD1710081+9999MW1031
0057601400999991958061712004+34033-004983FM-12+041499999V0202801N00411220001CN0150001N9+02391+01611101311ADDAY101999GF101991011021012501001001MD1810121+9999MW1031
0057601400999991958061812004+34033-004983FM-12+041499999V0203201N00311007501CN0100001N9+02001+01391101131ADDAY151999GF107991071051008001999999MD1210041+9999MW1021
0057601400999991958061912004+34033-004983FM-12+041499999V0200401N00511012001CN0150001N9+02281+01391101031ADDAY191999GF107991061081008001001021MD1810091+9999MW1021
0057601400999991958062012004+34033-004983FM-12+041499999V0203201N00101090001CN0200001N9+02611+01721101031ADDAY121999GF106991011011008001001021MD1710031+9999MW1021
0057601400999991958062112004+34033-004983FM-12+041499999V0203001N00211012001CN0100001N9+02501+01611101471ADDAY121999GF107991071081008001999999MD1810021+9999MW1021
0057601400999991958062212004+34033-004983FM-12+041499999V0202801N00211090001CN0150001N9+02281+01501101601ADDAY151999GF107991031081008001001031MD1810021+9999MW1011
0057601400999991958062312004+34033-004983FM-12+041499999V0202601N00101220001CN0300001N9+02501+01501101761ADDAY111999GF103991031011008001001001MD1810111+9999MW1011
0057601400999991958062412004+34033-004983FM-12+041499999V0203601N00101220001CN0200001N9+02501+01501101841ADDAY111999GF101991011011017501001001MD1710131+9999MW1031
0057601400999991958062512004+34033-004983FM-12+041499999V0203401N00101220001CN0500001N9+02781+01611101731ADDAY101999GF101991011021012501001001MD1810261+9999MW1021
0057601400999991958062612004+34033-004983FM-12+041499999V0203201N00101220001CN0200001N9+02781+01111101861ADDAY101999GF100991001001999999001001MD1010111+9999MW1021
0057601400999991958062712004+34033-004983FM-12+041499999V0202801N00411220001CN0300001N9+02611+01501101791ADDAY111999GF103991031011008001001001MD1810091+9999MW1011
0057601400999991958062812004+34033-004983FM-12+041499999V0203201N00211220001CN0600001N9+02001+01391101431ADDAY101999GF100991001001999999001001MD1710081+9999MW1021
0057601400999991958062912004+34033-004983FM-12+041499999V0203201N00411220001CN0300001N9+02501+01391101621ADDAY111999GF103991001001999999001021MD1810091+9999MW1031
0057601400999991958063012004+34033-004983FM-12+041499999V0200201N00101220001CN0600001N9+02391+01391101731ADDAY111999GF101991011011012501001001MD1710111+9999MW1011
0057601400999991958070112004+34033-004983FM-12+041499999V0203201N00101220001CN0600001N9+02501+01111101521ADDAY101999GF100991001001999999001001MD1810081+9999MW1021
0057601400999991958070212004+34033-004983FM-12+041499999V0203501N00311015001CN0150001N9+02781+01501100911ADDAY111999GF106991061081012501001001MD1810041+9999MW1031
0057601400999991958070412004+34033-004983FM-12+041499999V0200401N00211220001CN0500001N9+02611+00781101741ADDAY101999GF100991001001999999001001MD1710051+9999MW1021
0057601400999991958070612004+34033-004983FM-12+041499999V0203001N00211220001CN0150001N9+02501+01001101661ADDAY111999GF100991001001999999001001MD1810011+9999MW1021
0043601400999991958070812004+34033-004983FM-12+041499999V0200601N00621220001CN0400001N9+03001+01221101501ADDAY101999GF100991001001999999001001MW1021
0057601400999991958071012004+34033-004983FM-12+041499999V0202801N00211220001CN0300001N9+03391+01391100931ADDAY101999GF100991001001999999001001MD1710101+9999MW1021
0057601400999991958071112004+34033-004983FM-12+041499999V0202801N00101012001CN0100001N9+02391+01501101481ADDAY121999GF106991061081008001999999MD1110031+9999MW1031
0057601400999991958071212004+34033-004983FM-12+041499999V0203401N00101220001CN0150001N9+02611+01501101461ADDAY101999GF100991001001999999001001MD1610081+9999MW1021
0057601400999991958071312004+34033-004983FM-12+041499999V0202801N00101220001CN0100001N9+02781+01721101651ADDAY101999GF100991001001999999001001MD1810061+9999MW1021
0057601400999991958071412004+34033-004983FM-12+041499999V0202801N00211220001CN0150001N9+03001+01781101311ADDAY101999GF100991001001999999001001MD1810041+9999MW1021
0057601400999991958071512004+34033-004983FM-12+041499999V0202801N00211220001CN0100001N9+02501+01501101741ADDAY111999GF100991001001999999001001MD1810041+9999MW1021
0057601400999991958071612004+34033-004983FM-12+041499999V0203201N00311220001CN0700001N9+02611+01281102231ADDAY101999GF100991001001999999001001MD1810101+9999MW1021
0073601400999991958071712004+34033-004983FM-12+041499999V0200801N00621220001CN0400001N9+01281+00611101421ADDAY101999GA1011+015009089GF101991011011017501001001MD1710121+9999MW1031
0057601400999991958071912004+34033-004983FM-12+041499999V0202801N00101220001CN0150001N9+02111+01721101371ADDAY101999GF101991011021012501001001MD1010001+9999MW1021
0057601400999991958072012004+34033-004983FM-12+041499999V0203201N00211220001CN0150001N9+03111+02001101741ADDAY101999GF101991011011012501001001MD1710121+9999MW1031
0057601400999991958072112004+34033-004983FM-12+041499999V0202201N00511220001CN0300001N9+03111+01111101511ADDAY101999GF101991011021012501001001MD1810081+9999MW1031
0057601400999991958072312004+34033-004983FM-12+041499999V0200401N00311220001CN0400001N9+03001+01501101371ADDAY101999GF100991001001999999001001MD1810061+9999MW1021
0057601400999991958072512004+34033-004983FM-12+041499999V0203401N00101220001CN0150001N9+03281+01391101601ADDAY101999GF100991001001999999001001MD1810071+9999MW1021
0057601400999991958072612004+34033-004983FM-12+041499999V0203401N00211220001CN0200001N9+03221+01221101691ADDAY101999GF100991001001999999001001MD1710151+9999MW1021
0057601400999991958072712004+34033-004983FM-12+041499999V0200201N00211220001CN0400001N9+03281+01221101481ADDAY101999GF100991001001999999001001MD1810111+9999MW1021
0057601400999991958072812004+34033-004983FM-12+041499999V0200201N00101220001CN0600001N9+03501+01221101271ADDAY101999GF100991001001999999001001MD1810011+9999MW1021
0057601400999991958072912004+34033-004983FM-12+041499999V0200501N00311220001CN0300001N9+03501+01721101261ADDAY101999GF101991011011012501001001MD1810081+9999MW1031
0057601400999991958073012004+34033-004983FM-12+041499999V0200601N00621220001CN0400001N9+04111+00221101091ADDAY101999GF101991011011017501001001MD1710111+9999MW1021
0057601400999991958073112004+34033-004983FM-12+041499999V0200401N00621220001CN0200001N9+03781+01001101021ADDAY101999GF101991011021017501001001MD1810111+9999MW1031
0057601400999991958080112004+34033-004983FM-12+041499999V0203401N00211220001CN0200001N9+03781+01221101211ADDAY101999GF102991021001999999081021MD1810101+9999MW1031
0057601400999991958080212004+34033-004983FM-12+041499999V0203201N00211220001CN0300001N9+03501+01001101601ADDAY101999GF102991011031017501001021MD1810041+9999MW1031
0057601400999991958080312004+34033-004983FM-12+041499999V0200601N00311220001CN0150001N9+03111+01721101531ADDAY101999GF101991011091012501001001MD1810091+9999MW1021
0057601400999991958080412004+34033-004983FM-12+041499999V0200601N00621220001CN0200001N9+03501+01501101311ADDAY101999GF103991011031017501081021MD1810081+9999MW1031
0057601400999991958080512004+34033-004983FM-12+041499999V0200601N00511036001CN0400001N9+03501+01391101421ADDAY111999GF107991011091017501081021MD1810101+9999MW1031
0057601400999991958080612004+34033-004983FM-12+041499999V0203601N00101220001CN0200001N9+03781+01111101211ADDAY101999GF101991011021012501001001MD1810121+9999MW1021
0057601400999991958080712004+34033-004983FM-12+041499999V0203401N00311220001CN0200001N9+03721+01281101061ADDAY101999GF101991011021012501001001MD1710171+9999MW1031
0057601400999991958080812004+34033-004983FM-12+041499999V0200401N00311220001CN0200001N9+03501+01111101111ADDAY101999GF102991021091017501081031MD1810111+9999MW1031
0057601400999991958080912004+34033-004983FM-12+041499999V0203001N00311090001CN0200001N9+03001+01781101561ADDAY111999GF106991011091012501001021MD1810021+9999MW1031
0057601400999991958081012004+34033-004983FM-12+041499999V0203201N00101220001CN0300001N9+03111+01781101691ADDAY101999GF101991011011017501001001MD1710141+9999MW1031
0057601400999991958081112004+34033-004983FM-12+041499999V0202801N00511220001CN0300001N9+03111+01611101651ADDAY101999GF101991011021012501001001MD1610101+9999MW1031
0057601400999991958081212004+34033-004983FM-12+041499999V0200801N00101220001CN0300001N9+03001+01391999999ADDAY101999GF101991011011012501001001MD1710131+9999MW1021
0057601400999991958081312004+34033-004983FM-12+041499999V0200401N00211220001CN0300001N9+03281+01501101371ADDAY101999GF101991011001999999031001MD1810061+9999MW1021
0057601400999991958081412004+34033-004983FM-12+041499999V0200401N00311220001CN0400001N9+03501+01281101391ADDAY101999GF100991001001999999001001MD1710091+9999MW1021
0057601400999991958081512004+34033-004983FM-12+041499999V0200801N00211220001CN0400001N9+03611+01001101401ADDAY101999GF100991001001999999001001MD1810051+9999MW1021
0057601400999991958081612004+34033-004983FM-12+041499999V0200601N00311220001CN0400001N9+03891+00721101211ADDAY101999GF101991011011017501001021MD1810011+9999MW1021
0057601400999991958081712004+34033-004983FM-12+041499999V0200401N00211220001CN0400001N9+03721+00721101161ADDAY101999GF103991031001999999081021MD1810061+9999MW1031
0057601400999991958081812004+34033-004983FM-12+041499999V0202401N00721220001CN0200001N9+03391+01281101181ADDAY111999GF102991011021012501001021MD1710061+9999MW1031
0057601400999991958081912004+34033-004983FM-12+041499999V0203201N00211220001CN0200001N9+02501+01501101751ADDAY111999GF102991011021008001001021MD1810051+9999MW1011
0057601400999991958082012004+34033-004983FM-12+041499999V0202801N00211220001CN0300001N9+02721+01501101481ADDAY101999GF100991001001999999001001MD1710161+9999MW1021
0057601400999991958082112004+34033-004983FM-12+041499999V0202801N00311220001CN0300001N9+02501+01221101491ADDAY111999GF104991001001999999001021MD1810061+9999MW1011
0057601400999991958082212004+34033-004983FM-12+041499999V0203401N00101220001CN0300001N9+02501+01501101491ADDAY111999GF103991031011008001001001MD1710041+9999MW1011
0057601400999991958082312004+34033-004983FM-12+041499999V0200201N00211220001CN0600001N9+02721+01281101421ADDAY101999GF100991001001999999001001MD1810061+9999MW1021
0057601400999991958082412004+34033-004983FM-12+041499999V0200601N00101220001CN0500001N9+03111+01281101401ADDAY101999GF101991011011017501001001MD1810081+9999MW1031
0057601400999991958082512004+34033-004983FM-12+041499999V0203201N00211220001CN0300001N9+03001+01611101391ADDAY101999GF101991011011017501001001MD1810161+9999MW1031
0057601400999991958082612004+34033-004983FM-12+041499999V0200601N00311220001CN0300001N9+03281+01221100961ADDAY101999GF101991001001999999001021MD1810171+9999MW1021
0057601400999991958082712004+34033-004983FM-12+041499999V0202801N00211036001CN0080001N9+02501+01891101171ADDAY121999GF107991011011004501031021MD1810031+9999MW1011
0057601400999991958082812004+34033-004983FM-12+041499999V0203201N00311012001CN0150001N9+02391+01721101151ADDAY121999GF106991061081008001001001MD1810021+9999MW1011
0057601400999991958082912004+34033-004983FM-12+041499999V0203601N00311015001CN0200001N9+02501+01501101421ADDAY121999GF107991051051017501081999MD1010011+9999MW1031
0057601400999991958083012004+34033-004983FM-12+041499999V0202201N00311220001CN0300001N9+02281+01501101731ADDAY121999GF104991041021012501001001MD1010021+9999MW1011
0057601400999991958083112004+34033-004983FM-12+041499999V0203401N00311220001CN0300001N9+02221+01391101671ADDAY111999GF103991011021012501081001MD1710101+9999MW1011
0057601400999991958090112004+34033-004983FM-12+041499999V0202801N00101036001CN0300001N9+02391+01221101511ADDAY111999GF106991051001999999051021MD1810101+9999MW1021
0057601400999991958090212004+34033-004983FM-12+041499999V0202601N00101220001CN0300001N9+02611+01611101291ADDAY101999GF101991011011012501001021MD1610121+9999MW1031
0057601400999991958090312004+34033-004983FM-12+041499999V0202801N00211220001CN0200001N9+02001+01781101201ADDAY111999GF101991011021012501001001MD1710091+9999MW1031
0057601400999991958090412004+34033-004983FM-12+041499999V0202801N00211220001CN0200001N9+02501+01781101421ADDAY111999GF101991011021012501081001MD1810081+9999MW1031
0057601400999991958090512004+34033-004983FM-12+041499999V0203201N00101220001CN0300001N9+02781+01891101781ADDAY101999GF101991011011012501001001MD1810011+9999MW1031
0057601400999991958090612004+34033-004983FM-12+041499999V0203201N00211220001CN0400001N9+02781+01781101881ADDAY101999GF101991001001999999001021MD1810071+9999MW1021
0057601400999991958090712004+34033-004983FM-12+041499999V0200401N00211220001CN0300001N9+02781+01891101681ADDAY111999GF101991011001022501081001MD1710161+9999MW1021
0057601400999991958090812004+34033-004983FM-12+041499999V0200401N00311036001CN0100001N9+03001+02001101541ADDAY111999GF106991011091012501081021MD1810121+9999MW1211
0089601400999991958090912004+34033-004983FM-12+041499999V0200401N00211220001CN0300001N9+03111+01721101411ADDAY111999GA1011+012909099GA2031+030009039GF104991011091012501081021MD1710171+9999MW1031
0057601400999991958091012004+34033-004983FM-12+041499999V0203201N00211220001CN0300001N9+03611+01781101041ADDAY111999GF103991011031012501081031MD1710111+9999MW1031
0057601400999991958091112004+34033-004983FM-12+041499999V0200201N00311220001CN0300001N9+03721+01221100951ADDAY101999GF103991011021017501081021MD1710101+9999MW1031
0057601400999991958091212004+34033-004983FM-12+041499999V0200201N00101220001CN0100001N9+02781+02001101551ADDAY101999GF101991011021012501001021MD1810041+9999MW1021
0057601400999991958091312004+34033-004983FM-12+041499999V0200601N00411220001CN0150001N9+03501+01501101551ADDAY161999GF103991011031012501081021MD1810061+9999MW1031
0057601400999991958091412004+34033-004983FM-12+041499999V0200201N00211090001CN0300001N9+03281+01721101661ADDAY121999GF105991021021012501031021MD1210061+9999MW1031
0057601400999991958091512004+34033-004983FM-12+041499999V0200601N00411090001CN0300001N9+03001+01501101471ADDAY121999GF107991021001999999081021MD1810061+9999MW1011
0057601400999991958091612004+34033-004983FM-12+041499999V0202801N00101090001CN0280001N9+02721+01611101721ADDAY111999GF107991011001999999041021MD1810091+9999MW1021
0043601400999991958091712004+34033-004983FM-12+041499999V0200201N00211220001CN0150001N9+02721+01391101771ADDAY111999GF102991001001999999001021MW1011
0057601400999991958091812004+34033-004983FM-12+041499999V0200401N00311220001CN0300001N9+02781+01501101761ADDAY101999GF101991001001999999001021MD1810121+9999MW1011
0057601400999991958091912004+34033-004983FM-12+041499999V0200401N00411220001CN0700001N9+03111+01001101481ADDAY101999GF100991001001999999001001MD1710121+9999MW1021
0057601400999991958092012004+34033-004983FM-12+041499999V0200601N00311220001CN0400001N9+03221+00721101431ADDAY101999GF101991011011017501001001MD1810111+9999MW1021
0057601400999991958092112004+34033-004983FM-12+041499999V0200201N00211220001CN0400001N9+03111+01391101751ADDAY101999GF100991001001999999001001MD1810051+9999MW1021
0057601400999991958092212004+34033-004983FM-12+041499999V0200401N00101220001CN0400001N9+03001+01501101771ADDAY101999GF100991001001999999001001MD1110181+9999MW1021
0057601400999991958092312004+34033-004983FM-12+041499999V02099999999999999999N0400001N9+03001+01281101701ADDAY101999GF199999011011012501041001MD1810091+9999MW1031
0057601400999991958092412004+34033-004983FM-12+041499999V0200401N00101220001CN0400001N9+03281+01391101731ADDAY101999GF102991011031017501081001MD1810101+9999MW1031
0057601400999991958092512004+34033-004983FM-12+041499999V0200201N00101220001CN0300001N9+03501+01501101681ADDAY101999GF101991011021012501001001MD1810131+9999MW1021
0057601400999991958092612004+34033-004983FM-12+041499999V0203601N00101220001CN0300001N9+02891+01721101771ADDAY101999GF102991011001999999041021MD1810091+9999MW1031
0057601400999991958092712004+34033-004983FM-12+041499999V0202801N00211220001CN0200001N9+02501+01721101671ADDAY141999GF101991001001999999001021MD1710101+9999MW1021
0078601400999991958092812004+34033-004983FM-12+041499999V0200201N00211220001CN0400001N9+02611+01221101531ADDAY101999GF101991011021012501001001MW1031EQDQ01+000042APCTENQ02+000112APC3  
0057601400999991958092912004+34033-004983FM-12+041499999V0200601N00101220001CN0400001N9+02781+01721101591ADDAY101999GF101991011021012501001021MD1810081+9999MW1031
0057601400999991958093012004+34033-004983FM-12+041499999V0200401N00101220001CN0300001N9+02721+01501101381ADDAY101999GF104991021061022501021001MD1810221+9999MW1031
0043601400999991958100112004+34033-004983FM-12+041499999V0203201N00411002101CN0080001N9+01781+01611101821ADDAY121999GF108991061051002501021999MW1511
0057601400999991958100212004+34033-004983FM-12+041499999V0200401N00101220001CN0300001N9+02281+01501101741ADDAY101999GF100991001001999999001001MD1810151+9999MW1021
0057601400999991958100312004+34033-004983FM-12+041499999V0203601N00211036001CN0200001N9+02281+00721101601ADDAY121999GF107991011051012501071021MD1110061+9999MW1021
0057601400999991958100412004+34033-004983FM-12+041499999V0203001N00411007501CN0200001N9+02501+01721102081ADDAY121999GF106991051021008001031021MD1810011+9999MW1031
0057601400999991958100512004+34033-004983FM-12+041499999V0202801N00211012001CN0100001N9+02111+01391102321ADDAY121999GF107991051051012501071999MD1810051+9999MW1011
0057601400999991958100612004+34033-004983FM-12+041499999V0203001N00411036001CN0300001N9+02221+01001101921ADDAY111999GF107991011011008001041021MD1810141+9999MW1031
0057601400999991958100712004+34033-004983FM-12+041499999V0203401N00311007501CN0300001N9+01891+01281102241ADDAY111999GF106991051021008001001021MD1010001+9999MW1021
0057601400999991958100912004+34033-004983FM-12+041499999V0200401N00101220001CN0500001N9+02221+00781101591ADDAY101999GF102991021001999999081021MD1810131+9999MW1021
0057601400999991958101012004+34033-004983FM-12+041499999V0200401N00211220001CN0400001N9+02391+01221101531ADDAY101999GF101991011011012501001001MD1810101+9999MW1021
0057601400999991958101112004+34033-004983FM-12+041499999V0200401N00101090001CN0300001N9+02501+01111101581ADDAY111999GF105991001001999999001021MD1210021+9999MW1031
0057601400999991958101212004+34033-004983FM-12+041499999V0200601N00211090001CN0200001N9+02391+01501101691ADDAY121999GF106991041001999999081021MD1810071+9999MW1021
0057601400999991958101312004+34033-004983FM-12+041499999V0200601N00721090001CN0300001N9+02781+01611101621ADDAY121999GF106991031001999999081021MD1810071+9999MW1021
0057601400999991958101412004+34033-004983FM-12+041499999V0200801N00511220001CN0200001N9+02781+01501101711ADDAY101999GF103991011021012501001021MD1810061+9999MW1011
0057601400999991958101512004+34033-004983FM-12+041499999V0200801N00211220001CN0300001N9+02891+01501102241ADDAY101999GF102991021001999999081021MD1010011+9999MW1021
0057601400999991958101612004+34033-004983FM-12+041499999V0200201N00101220001CN0300001N9+03001+01281102231ADDAY101999GF100991001001999999001001MD1810111+9999MW1021
0057601400999991958101712004+34033-004983FM-12+041499999V0203001N00311220001CN0400001N9+03111+00891101801ADDAY101999GF101991001001999999001021MD1810121+9999MW1021
0057601400999991958101718004+34033-004983FM-12+041499999V0203201N00411090001CN0300001N9+02611+01221101771ADDAY111999GF106991011001999999081031MD1310041+9999MW1021
0057601400999991958101812004+34033-004983FM-12+041499999V0200401N00101220001CN0400001N9+02611+01001101831ADDAY101999GF101991001001999999001021MD1810081+9999MW1021
0057601400999991958101912004+34033-004983FM-12+041499999V0200801N00511220001CN0300001N9+02501+01221101801ADDAY101999GF100991001001999999001001MD1810121+9999MW1021
0057601400999991958102012004+34033-004983FM-12+041499999V0200801N00821220001CN0300001N9+02281+00781101741ADDAY101999GF102991001001999999001021MD1810121+9999MW1021
0057601400999991958102112004+34033-004983FM-12+041499999V0200801N00721220001CN0300001N9+02281+00781101441ADDAY101999GF101991001001999999001021MD1610121+9999MW1021
0057601400999991958102118004+34033-004983FM-12+041499999V0200601N00411220001CN0400001N9+02111+01721101461ADDAY101999GF103991011021012501081021MD1310101+9999MW1021
0057601400999991958102212004+34033-004983FM-12+041499999V0200801N00511090001CN0300001N9+02281+00891101691ADDAY121999GF105991011021012501081021MD1810091+9999MW1011
0057601400999991958102312004+34033-004983FM-12+041499999V0200801N00511220001CN0300001N9+02501+01001101701ADDAY101999GF101991011021012501001001MD1810101+9999MW1031
0057601400999991958102412004+34033-004983FM-12+041499999V0200601N00621090001CN0200001N9+01891+00721101911ADDAY111999GF107991021001999999081021MD1810071+9999MW1021
0057601400999991958102512004+34033-004983FM-12+041499999V0200801N00621220001CN0300001N9+02001+00781101831ADDAY101999GF103991021021008001001021MD1810111+9999MW1021
0057601400999991958102518004+34033-004983FM-12+041499999V0200801N00511220001CN0500001N9+01781+00781999999ADDAY101999GF101991011021008001001001MD1310071+9999MW1011
0057601400999991958102612004+34033-004983FM-12+041499999V0200601N00211220001CN0400001N9+01891+00781101891ADDAY101999GF101991011021012501001021MD1810081+9999MW1021
0057601400999991958102712004+34033-004983FM-12+041499999V0200201N00101220001CN0500001N9+02001+00781101661ADDAY101999GF101991001001999999001021MD1610081+9999MW1021
0057601400999991958102812004+34033-004983FM-12+041499999V0209991C00001090001CN0600001N9+02221+00501101711ADDAY111999GF105991001001999999001021MD1810081+9999MW1031
0057601400999991958102912004+34033-004983FM-12+041499999V0200601N00211220001CN0400001N9+02281+00281101741ADDAY101999GF101991001001999999001021MD1810101+9999MW1021
0057601400999991958103012004+34033-004983FM-12+041499999V0203001N00211090001CN0120001N9+02611+00781101501ADDAY111999GF105991011011012501081021MD1810111+9999MW1031
0057601400999991958103112004+34033-004983FM-12+041499999V0203201N00311036001CN0400001N9+02781+01281101721ADDAY161999GF107991031091004501071031MD1810141+9999MW1031
0057601400999991958110112004+34033-004983FM-12+041499999V0200601N00621036001CN0300001N9+01781+01221101571ADDAY121999GF106991021021017501081021MD1810131+9999MW1031
0057601400999991958110212004+34033-004983FM-12+041499999V0200801N00821036001CN0300001N9+02001+01111101701ADDAY121999GF107991011021012501081021MD1510011+9999MW1021
0057601400999991958110218004+34033-004983FM-12+041499999V0200801N00821220001CN0300001N9+01891+01221101571ADDAY111999GF104991021001999999081021MD1310021+9999MW1011
0057601400999991958110312004+34033-004983FM-12+041499999V0200801N00721220001CN0300001N9+02221+01391101461ADDAY101999GF101991011021012501001001MD1810171+9999MW1021
0057601400999991958110412004+34033-004983FM-12+041499999V0200601N99999220001CN0300001N9+02111+00891101311ADDAY101999GF101991011021012501081001MD1810061+9999MW1031
0057601400999991958110512004+34033-004983FM-12+041499999V0200601N00101220001CN0150001N9+02111+01391101671ADDAY111999GF101991011021012501001001MD1810081+9999MW1021
0057601400999991958110612004+34033-004983FM-12+041499999V0202601N00101090001CN0150001N9+01891+01391101091ADDAY151999GF105991011021012501031021MD1810061+9999MW1031
0062601400999991958110618004+34033-004983FM-12+041499999V0203201N00101220001CN0300001N9+01891+01111101932ADDAY111999GF101991011001999999031021MW1011EQDQ01+101933APOSLP
0057601400999991958110712004+34033-004983FM-12+041499999V0200601N00211220001CN0300001N9+02111+01221101211ADDAY101999GF101991011021012501001001MD1810101+9999MW1031
0057601400999991958110812004+34033-004983FM-12+041499999V0200601N00101220001CN0400001N9+02111+01001101921ADDAY101999GF100991001001999999001001MD1810111+9999MW1021
0057601400999991958110912004+34033-004983FM-12+041499999V0200601N00101090001CN0300001N9+02001+01111101451ADDAY111999GF107991011001999999081021MD1810151+9999MW1021
0057601400999991958111012004+34033-004983FM-12+041499999V0202601N00101004201CN0100001N9+01391+01281101301ADDAY191999GF107991061091004501001031MD1010041+9999MW1251
0043601400999991958111112004+34033-004983FM-12+041499999V0202801N007219999999N0300001N9+01221+01001999999ADDAY111999GF105991999999999999999999MW1021
0057601400999991958111212004+34033-004983FM-12+041499999V0203001N00511220001CN0300001N9+01611+00721102061ADDAY111999GF104991041021012501041001MD1810081+9999MW1011
0057601400999991958111418004+34033-004983FM-12+041499999V0202601N00411007501CN0060001N9+01221+01111101581ADDAY181999GF107991051071008001021999MD1310041+9999MW1211
0057601400999991958111512004+34033-004983FM-12+041499999V0200801N00101220001CN0200001N9+01391+00611101731ADDAY101999GF103991031021008001001001MD1810091+9999MW1021
0057601400999991958111612004+34033-004983FM-12+041499999V0209991C00001220001CN0300001N9+02001+00611101671ADDAY101999GF101991011021008001041001MD1010021+9999MW1021
0057601400999991958111712004+34033-004983FM-12+041499999V0200601N00101220001CN0600001N9+01391+00611101731ADDAY101999GF101991011011012501001001MD1810041+9999MW1021
0057601400999991958111812004+34033-004983FM-12+041499999V0203001N00211220001CN0300001N9+01721+00611101521ADDAY111999GF102991011011012501001021MD1810111+9999MW1021
0057601400999991958111912004+34033-004983FM-12+041499999V0209991C00001220001CN0300001N9+01721+00781102291ADDAY111999GF103991031011008001001001MD1010031+9999MW1031
0057601400999991958112012004+34033-004983FM-12+041499999V0200801N00511220001CN0600001N9+01611+00611102381ADDAY101999GF100991001001999999001001MD1810041+9999MW1021
0057601400999991958112112004+34033-004983FM-12+041499999V0200801N00411090001CN0400001N9+01501+00501102081ADDAY111999GF107991001001999999001021MD1810121+9999MW1021
0073601400999991958112212004+34033-004983FM-12+041499999V0209991C00001036001CN9999999N9+01391+00611101851ADDAY191999GA1071+033009039GF108991071001999999071021MD1010001+9999MW1121
0057601400999991958112312004+34033-004983FM-12+041499999V0200601N00311036001CN0500001N9+01501+00721101621ADDAY111999GF107991011021012501031021MD1810081+9999MW1021
0057601400999991958112412004+34033-004983FM-12+041499999V0200801N00411036001CN0300001N9+01611+00891101451ADDAY121999GF106991011021012501071021MD1810071+9999MW1011
0057601400999991958112512004+34033-004983FM-12+041499999V0200401N00101036001CN0300001N9+01501+00891101541ADDAY121999GF106991021021008001031001MD1810031+9999MW1011
0057601400999991958112612004+34033-004983FM-12+041499999V0203001N00621007501CN0200001N9+01221+00891102011ADDAY121999GF107991071021008001999999MD1110111+9999MW1021
0057601400999991958112618004+34033-004983FM-12+041499999V0202801N00211007501CN0200001N9+01221+01001101971ADDAY181999GF108991071021008001999999MD1310121+9999MW1031
0057601400999991958112712004+34033-004983FM-12+041499999V0202801N00411007501CN0200001N9+01501+01001102161ADDAY121999GF107991051021008001031001MD1810011+9999MW1031
0057601400999991958112812004+34033-004983FM-12+041499999V0202801N00511007501CN0300001N9+01391+00891102231ADDAY181999GF106991061021008001001001MD1010041+9999MW1021
0057601400999991958112912004+34033-004983FM-12+041499999V0200801N00411036001CN0600001N9+01221+00611101771ADDAY111999GF107991051001999999031021MD1710151+9999MW1021
0057601400999991958113012004+34033-004983FM-12+041499999V0200801N00101090001CN0400001N9+01221+00611101521ADDAY111999GF107991031001999999041021MD1110011+9999MW1031
0057601400999991958113018004+34033-004983FM-12+041499999V0200601N00101090001CN0400001N9+01281+00721101431ADDAY121999GF106991031001999999031021MD1310021+9999MW1021
0057601400999991958120112004+34033-004983FM-12+041499999V0200401N00511090001CN0600001N9+01501+00721101051ADDAY111999GF107991021001999999011081MD1810081+9999MW1011
0057601400999991958120212004+34033-004983FM-12+041499999V0209999900211036001CN0300001N9+01721+01111100921ADDAY121999GF107991051001999999081021MD1810141+9999MW1021
0057601400999991958120312004+34033-004983FM-12+041499999V0200601N00261090001CN0300001N9+01611+01221101121ADDAY111999GF105991031081012501001021MD1810041+9999MW1031
0057601400999991958120412004+34033-004983FM-12+041499999V0200801N00211220001CN0300001N9+01721+01221101201ADDAY111999GF103991011021008001041001MD1810011+9999MW1011
0057601400999991958120512004+34033-004983FM-12+041499999V0202901N00311002101CN0100001N9+01391+01281101511ADDAY161999GF108991061021002501071999MD1010071+9999MW1211
0057601400999991958120612004+34033-004983FM-12+041499999V0202801N00821007501CN0200001N9+01501+00891101331ADDAY111999GF106991051021008001001021MD1810111+9999MW1031
0057601400999991958120712004+34033-004983FM-12+041499999V0202001N00621007501CN0100001N9+01221+01221101311ADDAY181999GF108991081021008001999999MD1110081+9999MW1811
0057601400999991958120718004+34033-004983FM-12+041499999V0202801N00211036001CN0100001N9+01111+01111101321ADDAY181999GF107991021021008001071999MD1210091+9999MW1611
0057601400999991958120812004+34033-004983FM-12+041499999V0202801N00211036001CN0100001N9+01111+00891101781ADDAY161999GF108991031021008001041999MD1010041+9999MW1601
0057601400999991958120912004+34033-004983FM-12+041499999V0202701N00311036001CN0100001N9+00891+00781101911ADDAY161999GF108991031021008001071999MD1110121+9999MW1631
0057601400999991958121012004+34033-004983FM-12+041499999V0209991C00001220001CN0700001N9+01111+00611102531ADDAY101999GF100991001001999999001001MD1010061+9999MW1021
0057601400999991958121112004+34033-004983FM-12+041499999V0203001N00101015001CN0300001N9+01281+00781102791ADDAY111999GF107991071051017501999999MD1010041+9999MW1021
0057601400999991958121212004+34033-004983FM-12+041499999V0203201N00101015001CN0300001N9+01501+01001102711ADDAY111999GF106991061051017501001001MD1810051+9999MW1021
0057601400999991958121312004+34033-004983FM-12+041499999V0202901N00511090001CN0300001N9+01611+00891101931ADDAY111999GF105991021011012501041021MD1710201+9999MW1031
0057601400999991958121412004+34033-004983FM-12+041499999V0203201N00511000601CN0060001N9+01221+01111101461ADDAY181999GF108991051021000751071999MD1010241+9999MW1611
0057601400999991958121506004+34033-004983FM-12+041499999V0202801N00721036001CN0300001N9+01721+01281101661ADDAY111999GF106991041081008001041001MD1010041+9999MW1021
0057601400999991958121512004+34033-004983FM-12+041499999V0202801N00721009001CN0300001N9+01721+01221101661ADDAY111999GF106991051081004501061001MD1010061+9999MW1021
0057601400999991958121612004+34033-004983FM-12+041499999V0202801N00821220001CN0300001N9+02001+01221101051ADDAY101999GF103991021021008001041001MD1610081+9999MW1031
0057601400999991958121712004+34033-004983FM-12+041499999V0202601N00931036001CN0100001N9+01001+00721101171ADDAY161999GF107991041021004501071999MD1010001+9999MW1601
0057601400999991958121806004+34033-004983FM-12+041499999V0202801N00101220001CN0100001N9+00781+00501101831ADDAY111999GF101991011021008001001001MD1210031+9999MW1011
0057601400999991958121812004+34033-004983FM-12+041499999V0200401N00211036001CN0400001N9+01281+00781101881ADDAY111999GF106991011051008001031021MD1810021+9999MW1021
0057601400999991958121912004+34033-004983FM-12+041499999V0203001N00511036001CN0500001N9+01891+01001100981ADDAY111999GF106991021051012501081021MD1710111+9999MW1011
0057601400999991958122012004+34033-004983FM-12+041499999V0202801N00621036001CN0200001N9+01721+01111101041ADDAY121999GF105991031021008001071021MD1810071+9999MW1011
0057601400999991958122112004+34033-004983FM-12+041499999V0209991C00001036001CN0300001N9+01391+01111101061ADDAY121999GF107991031081008001071021MD1810101+9999MW1021
0057601400999991958122206004+34033-004983FM-12+041499999V0202701N01031007501CN0200001N9+01111+00781100471ADDAY181999GF108991051021008001071999MD1210351+9999MW1611
0057601400999991958122212004+34033-004983FM-12+041499999V0202701N00721004201CN0060001N9+00781+00611101151ADDAY181999GF108991081091004501999999MD1110221+9999MW1801
0057601400999991958122312004+34033-004983FM-12+041499999V0202801N00931004201CN0100001N9+00891+00721102241ADDAY181999GF107991061021004501071999MD1010081+9999MW1011
0057601400999991958122412004+34033-004983FM-12+041499999V0203201N00101220001CN0200001N9+01111+00781102751ADDAY181999GF103991031021008001031001MD1810041+9999MW1021
0089601400999991958122506004+34033-004983FM-12+041499999V0202401N00101090001CN0100001N9+00501+00391102401ADDAA199000091GA1071+069009009GF107991001001999999001021KA1999N+00391MD1710131+9999MW1001
0057601400999991958122512004+34033-004983FM-12+041499999V0203001N00211036001CN0300001N9+00891+00721102471ADDAY121999GF108991041051008001071999MD1010031+9999MW1031
0057601400999991958122612004+34033-004983FM-12+041499999V0202801N00511004201CN0100001N9+01111+00781102551ADDAY161999GF107991061021004501071999MD1010051+9999MW1031
0081601400999991958122618004+34033-004983FM-12+041499999V0202801N00411004201CN0150001N9+01001+00781102601ADDAA199999929AY121999GF107991071021004501999999KA1999M+01221MD1310151+9999MW1021
0049601400999991958122706004+34033-004983FM-12+041499999V0202801N00211007501CN0200001N9+00721+00501102961ADDGF107991071021008001999999MD1510001+9999MW1001
0057601400999991958122712004+34033-004983FM-12+041499999V0203001N00101012001CN0400001N9+01281+00721102971ADDAY121999GF106991061021012501001001MD1810041+9999MW1021
0057601400999991958122718004+34033-004983FM-12+041499999V0200501N00101012001CN0400001N9+01111+00781103011ADDAY121999GF107991071051012501999999MD1310081+9999MW1021
0049601400999991958122806004+34033-004983FM-12+041499999V0209991C00001220001CN0300001N9+00281+00281103041ADDGF103991001001999999001021MD1510081+9999MW1001
0057601400999991958122812004+34033-004983FM-12+041499999V0200601N00211090001CN0300001N9+01111+00721103001ADDAY111999GF105991011001999999041021MD1010041+9999MW1031
0057601400999991958122912004+34033-004983FM-12+041499999V0200601N00211220001CN0700001N9+01111+00721102741ADDAY101999GF100991001001999999001001MD1010001+9999MW1021
0057601400999991958122918004+34033-004983FM-12+041499999V0209991C00001220001CN0700001N9+01391+01111102481ADDAY101999GF100991001001999999001001MD1610011+9999MW1021
0057601400999991958123012004+34033-004983FM-12+041499999V0200601N00411220001CN0700001N9+01391+00891102441ADDAY101999GF100991001001999999001001MD1810051+9999MW1021
0057601400999991958123018004+34033-004983FM-12+041499999V0209991C00001220001CN0700001N9+01501+01001102271ADDAY101999GF100991001001999999001001MD1310081+9999MW1021
0049601400999991958123106004+34033-004983FM-12+041499999V0209991C00001220001CN0200001N9+00281+00281102471ADDGF100991001001999999001001MD1510071+9999MW1001
0057601400999991958123112004+34033-004983FM-12+041499999V0200601N00211220001CN0600001N9+01221+00781102351ADDAY101999GF100991001001999999001001MD1810091+9999MW1021
