0057601400999991949010312004+34033-004983FM-12+041499999V0201701N00621012001CN0200001N9+00891+00501101641ADDAY121999GF107991061081008001061001MD1110201+9999MW1021
0057601400999991949011412004+34033-004983FM-12+041499999V0200701N00621220001CN0400001N9+01221+00001103021ADDAY101999GF100991001001999999001001MD1010071+9999MW1001
0057601400999991949011912004+34033-004983FM-12+041499999V0200701N00211220001CN0600001N9+01611+00781102301ADDAY101999GF100991001001999999001001MD1810011+9999MW1001
0078601400999991949012412004+34033-004983FM-12+041499999V0200901N00931220001CN0400001N9+01611+00781101941ADDAY111999GF100991001001999999001001MW1011EQDQ01+000012APCTENQ02+000002APC3  
0057601400999991949012712004+34033-004983FM-12+041499999V0201101N00931220001CN0400001N9+01501+00501101851ADDAY101999GF101991011011012501001001MD1810071+9999MW1031
0057601400999991949013112004+34033-004983FM-12+041499999V0200901N00311220001CN0200001N9+01391+00721102581ADDAY101999GF100991001001999999001001MD1010001+9999MW1001
0057601400999991949020312004+34033-004983FM-12+041499999V0200901N01131220001CN0200001N9+01501+00611102241ADDAY101999GF101991001001999999001041MD1010001+9999MW1021
0057601400999991949020412004+34033-004983FM-12+041499999V0200901N008219999999N0200001N9+01281+00281101451ADDAY111999GF106991001001999999051041MD1010081+9999MW1021
0057601400999991949021412004+34033-004983FM-12+041499999V0200501N00771220001CN0160001N9+01391+00781101661ADDAY101999GF102991011011012501041001MD1110041+9999MW1131
0076601400999991949021612004+34033-004983FM-12+041499999V0209991C000019999999N0400001N9+01111+00721101531ADDAY121999GF106991999051012501999999MD1010061+9999MW1021EQDQ01+000082SCOTLC
0057601400999991949021712004+34033-004983FM-12+041499999V0202701N00411012001CN0700001N9+01281+01001103021ADDAY121999GF107991071081008001001001MD1110071+9999MW1031
0057601400999991949021912004+34033-004983FM-12+041499999V0200901N00211220001CN0200001N9+01611+01111102701ADDAY111999GF101991001001999999001041MD1810021+9999MW1011
0057601400999991949022112004+34033-004983FM-12+041499999V0200901N00411220001CN0200001N9+01781+01001102381ADDAY101999GF101991001001999999001051MD1010031+9999MW1031
0057601400999991949022612004+34033-004983FM-12+041499999V0200901N00511220001CN0200001N9+01721+00721102121ADDAY111999GF103991011011012501081001MD1810091+9999MW1031
0057601400999991949030112004+34033-004983FM-12+041499999V0200901N00621036001CN0200001N9+01501+00781102481ADDAY121999GF106991011051012501011021MD1110021+9999MW1011
0057601400999991949030712004+34033-004983FM-12+041499999V0209991C00001012001CN0200001N9+01721+01281102031ADDAY121999GF106991061021012501001001MD1810081+9999MW1031
0057601400999991949030812004+34033-004983FM-12+041499999V0203101N00411004201CN0150001N9+01391+01001101211ADDAY151999GF108991081051004501999999MD1810051+9999MW1021
0057601400999991949030912004+34033-004983FM-12+041499999V0209991C00001007501CN0150001N9+01611+01221100621ADDAY121999GF108991081051008001999999MD1810091+9999MW1031
0057601400999991949031012004+34033-004983FM-12+041499999V0209991C00001220001CN0200001N9+01391+01221101051ADDAY181999GF104991041081012501001999MD1810021+9999MW1021
0057601400999991949032112004+34033-004983FM-12+041499999V0200901N00101220001CN0200001N9+01781+01221101451ADDAY101999GF101991011021012501001001MD1810071+9999MW1021
0057601400999991949032512004+34033-004983FM-12+041499999V0209991C00001012001CN0700001N9+01611+01001101211ADDAY121999GF107991071021012501021001MD1810021+9999MW1031
0057601400999991949032612004+34033-004983FM-12+041499999V0200901N00311220001CN0200001N9+01781+01111100861ADDAY111999GF103991031021012501001001MD1810101+9999MW1031
0057601400999991949032912004+34033-004983FM-12+041499999V0209991C00001220001CN0200001N9+02001+01611101611ADDAY101999GF103991021011012501001041MD1010031+9999MW1031
0057601400999991949033112004+34033-004983FM-12+041499999V0202701N00411036001CN0150001N9+01891+01111100531ADDAY121999GF108991021051008001071999MD1110031+9999MW1031
0057601400999991949040112004+34033-004983FM-12+041499999V0202701N00211220001CN0200001N9+02221+01501101611ADDAY101999GF102991021011012501001001MD1010061+9999MW1031
0057601400999991949040212004+34033-004983FM-12+041499999V0209991C00001220001CN0200001N9+02111+01501102061ADDAY101999GF100991001001999999001001MD1810011+9999MW1021
0057601400999991949040312004+34033-004983FM-12+041499999V0200901N00821220001CN0400001N9+02501+01281102101ADDAY101999GF100991001001999999001001MD1810101+9999MW1001
0057601400999991949040412004+34033-004983FM-12+041499999V0200901N00721220001CN0600001N9+02501+01001102211ADDAY101999GF100991001001999999001001MD1810081+9999MW1021
0057601400999991949040512004+34033-004983FM-12+041499999V0200901N00211220001CN0400001N9+02611+01281102261ADDAY101999GF100991001001999999001001MD1810031+9999MW1001
0057601400999991949040612004+34033-004983FM-12+041499999V0209991C00001220001CN0400001N9+02721+01391102081ADDAY101999GF100991001001999999001001MD1810031+9999MW1021
0057601400999991949040712004+34033-004983FM-12+041499999V0209991C00001220001CN0200001N9+02391+01221102031ADDAY111999GF101991001001999999001041MD1810071+9999MW1011
0057601400999991949040812004+34033-004983FM-12+041499999V0209991C00001220001CN0200001N9+02611+01391101611ADDAY101999GF100991001001999999001001MD1810151+9999MW1021
0076601400999991949040912004+34033-004983FM-12+041499999V0200901N00211220001CN0200001N9+02781+00721101311ADDAY101999GF101991999001999999081001MD1810081+9999MW1021EQDQ01+000002SCOTLC
0057601400999991949041012004+34033-004983FM-12+041499999V0200901N01541090001CN0200001N9+02611+01111101181ADDAY121999GF106991011011012501001021MD1810121+9999MW1031
0057601400999991949041112004+34033-004983FM-12+041499999V0200701N005119999999N0150001N9+02501+01111101211ADDAY121999GF108991001001999999081021MD1810021+9999MW1021
0057601400999991949041212004+34033-004983FM-12+041499999V0200901N010319999999N0100001N9+02221+01111101381ADDAY121999GF108991001001999999081021MD1210041+9999MW1031
0057601400999991949041312004+34033-004983FM-12+041499999V0200901N00821036001CN0150001N9+02111+01221101311ADDAY121999GF106991011011012501081001MD1010021+9999MW1031
0057601400999991949041412004+34033-004983FM-12+041499999V0209991C00001090001CN0150001N9+02111+01391101671ADDAY121999GF106991021021012501001021MD1810031+9999MW1031
0057601400999991949041512004+34033-004983FM-12+041499999V0209991C00001220001CN0200001N9+02281+01391101621ADDAY101999GF102991021021012501001001MD1810111+9999MW1031
0057601400999991949041612004+34033-004983FM-12+041499999V0209991C00001036001CN0150001N9+01721+01221101261ADDAY181999GF108991041021012501071999MD1810121+9999MW1031
0057601400999991949041712004+34033-004983FM-12+041499999V0200901N00311012001CN0400001N9+01891+01391101421ADDAY121999GF106991061021012501001001MD1010011+9999MW1021
0057601400999991949041812004+34033-004983FM-12+041499999V0209991C00001220001CN0200001N9+01891+01221101661ADDAY101999GF103991031021012501001001MD1810071+9999MW1031
0057601400999991949041912004+34033-004983FM-12+041499999V0200601N00211036001CN0150001N9+02221+01501101551ADDAY111999GF106991011021012501081001MD1810031+9999MW1031
0057601400999991949042012004+34033-004983FM-12+041499999V0200201N00211220001CN0150001N9+02001+01391101581ADDAY101999GF103991031021012501001001MD1810111+9999MW1021
0057601400999991949042112004+34033-004983FM-12+041499999V0209991C00001004201CN0100001N9+01611+01501101101ADDAY161999GF108991081071004501999999MD1810121+9999MW1251
0057601400999991949042212004+34033-004983FM-12+041499999V0209991C00001012001CN0200001N9+02001+01281100811ADDAY121999GF106991061021012501001001MD1010021+9999MW1031
0057601400999991949042312004+34033-004983FM-12+041499999V0202901N00311012001CN0200001N9+02001+01281100511ADDAY111999GF106991061081008001001001MD1010111+9999MW1031
0057601400999991949042412004+34033-004983FM-12+041499999V0209991C00001012001CN0100001N9+01611+01221100971ADDAY181999GF108991081021012501999999MD1010021+9999MW1801
0057601400999991949042512004+34033-004983FM-12+041499999V0209991C00001012001CN0150001N9+01891+01281101221ADDAY181999GF107991071021012501001001MD1810011+9999MW1031
0057601400999991949042612004+34033-004983FM-12+041499999V0203401N00211007501CN0150001N9+01891+01111101501ADDAY121999GF106991061021008001001001MD1810091+9999MW1021
0057601400999991949042712004+34033-004983FM-12+041499999V0201201N00411015001CN0200001N9+01721+01221101471ADDAY111999GF105991051021017501001001MD1810121+9999MW1021
0057601400999991949042812004+34033-004983FM-12+041499999V0209991C00001012001CN0150001N9+01721+00891101171ADDAY121999GF108991061021012501001021MD1810021+9999MW1011
0057601400999991949042912004+34033-004983FM-12+041499999V0200601N006219999999N0200001N9+01781+01001101031ADDAY121999GF105991001001999999081021MD1710071+9999MW1021
0078601400999991949043012004+34033-004983FM-12+041499999V0202701N00411007501CN0150001N9+01611+01111100861ADDAY181999GF106991061021008001001001MW1031EQDQ01+000022APCTENQ02+000002APC3  
0057601400999991949050112004+34033-004983FM-12+041499999V0203201N00931007501CN0200001N9+01391+01001100821ADDAY121999GF106991061021008001001001MD1210041+9999MW1021
0057601400999991949050212004+34033-004983FM-12+041499999V0202701N00621220001CN0200001N9+01501+00611101321ADDAY101999GF102991021011012501001001MD1810021+9999MW1031
0057601400999991949050312004+34033-004983FM-12+041499999V0203201N00211012001CN0150001N9+01611+00891101501ADDAY111999GF106991061021012501001001MD1010031+9999MW1031
0057601400999991949050412004+34033-004983FM-12+041499999V0202701N00311012001CN0150001N9+01721+01001101261ADDAY121999GF107991071021012501001001MD1810101+9999MW1031
0057601400999991949050512004+34033-004983FM-12+041499999V0203201N00211012001CN0150001N9+01721+01111100771ADDAY121999GF106991061021012501001001MD1810111+9999MW1031
0057601400999991949050612004+34033-004983FM-12+041499999V0202701N00511012001CN0100001N9+01721+01221100961ADDAY121999GF108991081021012501999999MD1110061+9999MW1031
0057601400999991949050712004+34033-004983FM-12+041499999V0200801N00821220001CN0200001N9+02111+01221101311ADDAY101999GF100991001001999999001001MD1810021+9999MW1001
0057601400999991949050812004+34033-004983FM-12+041499999V0200701N00721220001CN0200001N9+02221+01391101311ADDAY101999GF100991001001999999001001MD1810061+9999MW1021
0057601400999991949050912004+34033-004983FM-12+041499999V0200501N00211220001CN0200001N9+02281+01611101191ADDAY111999GF101991011021012501001001MD1810041+9999MW1031
0057601400999991949051012004+34033-004983FM-12+041499999V0209991C00001220001CN0200001N9+02281+01501101101ADDAY101999GF101991011011012501001001MD1710091+9999MW1031
0057601400999991949051112004+34033-004983FM-12+041499999V0209991C00001012001CN0150001N9+02111+01611101221ADDAY121999GF106991061021012501001001MD1210031+9999MW1031
0057601400999991949051212004+34033-004983FM-12+041499999V0200901N00411220001CN0200001N9+02391+01281101181ADDAY101999GF100991001001999999001001MD1710071+9999MW1021
0076601400999991949051312004+34033-004983FM-12+041499999V0209991C000019999999N0150001N9+02221+01611101191ADDAY121999GF105991999001999999081001MD1810051+9999MW1031EQDQ01+000002SCOTLC
0057601400999991949051412004+34033-004983FM-12+041499999V0202701N00311007501CN0150001N9+02001+01391101261ADDAY121999GF105991051021008001001001MD1810071+9999MW1021
0057601400999991949051512004+34033-004983FM-12+041499999V0202701N01341007501CN0200001N9+02221+01221101141ADDAY121999GF107991071021008001001001MD1810101+9999MW1021
0057601400999991949051612004+34033-004983FM-12+041499999V0202701N00411220001CN0200001N9+02001+01111101741ADDAY111999GF103991021051012501001021MD1810081+9999MW1011
0057601400999991949051712004+34033-004983FM-12+041499999V0202701N00311036001CN0200001N9+01611+00781101411ADDAY121999GF107991031051004501051001MD1210041+9999MW1021
0057601400999991949051812004+34033-004983FM-12+041499999V0202701N01031007501CN0200001N9+02001+01281101571ADDAY181999GF107991071021008001001001MD1810081+9999MW1021
0057601400999991949051912004+34033-004983FM-12+041499999V0209991C00001007501CN0150001N9+01891+01391101821ADDAY121999GF105991051011008001001001MD1810061+9999MW1011
0057601400999991949052012004+34033-004983FM-12+041499999V0200901N00311220001CN0150001N9+02111+01221101491ADDAY101999GF100991001001999999001001MD1710081+9999MW1001
0057601400999991949052112004+34033-004983FM-12+041499999V0200901N00411090001CN0150001N9+02391+01001101251ADDAY121999GF107991011021012501001021MD1710051+9999MW1031
0057601400999991949052212004+34033-004983FM-12+041499999V0209991C00001220001CN0150001N9+02501+01391101541ADDAY101999GF100991001001999999001001MD1810041+9999MW1001
0057601400999991949052312004+34033-004983FM-12+041499999V0209991C00001220001CN0160001N9+02281+01111101591ADDAY101999GF100991001001999999001001MD1810131+9999MW1001
0057601400999991949052412004+34033-004983FM-12+041499999V0202701N00211220001CN0200001N9+02501+01611101421ADDAY101999GF100991001001999999001001MD1710101+9999MW1001
0057601400999991949052512004+34033-004983FM-12+041499999V0200901N00311220001CN0200001N9+03001+01391100971ADDAY101999GF100991001001999999001001MD1710081+9999MW1001
0057601400999991949052612004+34033-004983FM-12+041499999V0209991C00001220001CN0200001N9+02781+01721101071ADDAY101999GF100991001001999999001001MD1810101+9999MW1001
0057601400999991949052712004+34033-004983FM-12+041499999V0203601N00311220001CN0160001N9+02721+01891100991ADDAY111999GF101991001001999999001031MD1810071+9999MW1011
0057601400999991949052812004+34033-004983FM-12+041499999V0209991C00001007501CN0150001N9+02111+01391101691ADDAY121999GF108991081051008001999999MD1210041+9999MW1021
0057601400999991949052912004+34033-004983FM-12+041499999V0209991C00001220001CN0160001N9+02221+01391101631ADDAY111999GF100991001001999999001001MD1810091+9999MW1001
0057601400999991949053012004+34033-004983FM-12+041499999V0202701N00311220001CN0200001N9+02221+00781101511ADDAY111999GF101991011051012501001001MD1810071+9999MW1011
0057601400999991949053112004+34033-004983FM-12+041499999V0202701N00411012001CN0200001N9+02221+01111101731ADDAY121999GF106991061021012501001001MD1810041+9999MW1031
0057601400999991949060112004+34033-004983FM-12+041499999V0202701N00311220001CN0200001N9+02221+01111101551ADDAY101999GF100991001001999999001001MD1810071+9999MW1021
0057601400999991949060212004+34033-004983FM-12+041499999V0209991C00001220001CN0200001N9+02221+01001102051ADDAY101999GF100991001001999999001001MD1810021+9999MW1001
0057601400999991949060312004+34033-004983FM-12+041499999V0200701N00211220001CN0600001N9+02891+01221101821ADDAY101999GF100991001001999999001001MD1810081+9999MW1021
0057601400999991949060412004+34033-004983FM-12+041499999V0209991C00001090001CN0200001N9+03281+01111101621ADDAY111999GF106991001001999999001021MD1810041+9999MW1021
0057601400999991949060512004+34033-004983FM-12+041499999V0200601N00621220001CN0200001N9+03391+01391101361ADDAY101999GF103991011021012501081001MD1710181+9999MW1031
0078601400999991949060612004+34033-004983FM-12+041499999V0203001N00211036001CN0200001N9+03501+01391101291ADDAY181999GF105991041021012501081001MW1031EQDQ01+000022APCTENQ02+000002APC3  
0057601400999991949060712004+34033-004983FM-12+041499999V0203401N00211220001CN0200001N9+03111+01611101131ADDAY111999GF104991021021012501001021MD1810071+9999MW1021
0057601400999991949060812004+34033-004983FM-12+041499999V0209991C00001004201CN0150001N9+02281+01721101511ADDAY121999GF107991071051004501001001MD1810031+9999MW1011
0057601400999991949061012004+34033-004983FM-12+041499999V0202701N00311220001CN0200001N9+02501+01391101561ADDAY101999GF100991001001999999001001MD1810091+9999MW1021
0057601400999991949061112004+34033-004983FM-12+041499999V0209991C00001036001CN0150001N9+01781+01721101381ADDAY181999GF107991021021012501051001MD1810101+9999MW1811
0057601400999991949061212004+34033-004983FM-12+041499999V0200901N01441220001CN0200001N9+02721+01111100901ADDAY101999GF100991001001999999001001MD1810121+9999MW1021
0057601400999991949061312004+34033-004983FM-12+041499999V0203401N00311004201CN0150001N9+02611+01781101181ADDAY111999GF105991051021004501001001MD1110041+9999MW1011
0057601400999991949061412004+34033-004983FM-12+041499999V0202701N00621220001CN0150001N9+02611+01721101481ADDAY101999GF102991021021008001001001MD1010001+9999MW1021
0057601400999991949061512004+34033-004983FM-12+041499999V0209991C00001220001CN0150001N9+02501+01781101521ADDAY111999GF102991021061004501001001MD1810021+9999MW1021
0057601400999991949061612004+34033-004983FM-12+041499999V0209991C00001220001CN0200001N9+02891+01721101461ADDAY101999GF100991001001999999001001MD1810071+9999MW1021
0057601400999991949061712004+34033-004983FM-12+041499999V0209991C00001220001CN0200001N9+02721+01721101631ADDAY111999GF104991001001999999001021MD1810081+9999MW1011
0057601400999991949061812004+34033-004983FM-12+041499999V0202701N00211220001CN0200001N9+02611+01721101461ADDAY101999GF100991001001999999001001MD1810041+9999MW1021
0057601400999991949061912004+34033-004983FM-12+041499999V0202701N00311220001CN0200001N9+02391+01501101701ADDAY111999GF100991001001999999001001MD1810061+9999MW1001
0057601400999991949062012004+34033-004983FM-12+041499999V0202201N00621220001CN0200001N9+02611+01611101441ADDAY101999GF100991001001999999001001MD1710081+9999MW1021
0057601400999991949062112004+34033-004983FM-12+041499999V0209991C00001220001CN0150001N9+02721+01781101341ADDAY111999GF100991001001999999001001MD1810081+9999MW1001
0057601400999991949062212004+34033-004983FM-12+041499999V0209991C00001220001CN0200001N9+02611+01891101461ADDAY111999GF100991001001999999001001MD1810081+9999MW1021
0057601400999991949062312004+34033-004983FM-12+041499999V0202501N00311220001CN0200001N9+02501+01501101531ADDAY101999GF100991001001999999001001MD1810071+9999MW1001
0057601400999991949062412004+34033-004983FM-12+041499999V0202701N00211220001CN0200001N9+02611+01221101451ADDAY111999GF100991001001999999001001MD1810151+9999MW1001
0057601400999991949062512004+34033-004983FM-12+041499999V0202701N00211220001CN0200001N9+02721+01391100981ADDAY101999GF100991001001999999001001MD1710121+9999MW1021
0057601400999991949062612004+34033-004983FM-12+041499999V0202701N00311006001CN0100001N9+01781+01721101571ADDAY181999GF108991081081002501999999MD1110141+9999MW1251
0057601400999991949062712004+34033-004983FM-12+041499999V0200201N00411220001CN0160001N9+02721+01611101421ADDAY101999GF100991001001999999001001MD1810071+9999MW1001
0057601400999991949062812004+34033-004983FM-12+041499999V0209991C00001220001CN0200001N9+03001+01721101391ADDAY101999GF100991001001999999001001MD1810081+9999MW1021
0057601400999991949062912004+34033-004983FM-12+041499999V0209991C00001220001CN0200001N9+03111+01721101151ADDAY101999GF101991001001999999001041MD1710101+9999MW1021
0057601400999991949063012004+34033-004983FM-12+041499999V0203201N00211220001CN0200001N9+03001+01611101251ADDAY111999GF104991001001999999001021MD1810071+9999MW1031
0057601400999991949070112004+34033-004983FM-12+041499999V0209991C00001220001CN0150001N9+03281+01001101161ADDAY111999GF104991001001999999081021MD1710071+9999MW1021
0057601400999991949070212004+34033-004983FM-12+041499999V0202701N003119999999N0100001N9+03221+01721100951ADDAY111999GF106991001001999999081021MD1510011+9999MW1031
0057601400999991949070312004+34033-004983FM-12+041499999V0202701N002119999999N0150001N9+03611+01611100951ADDAY111999GF106991001001999999081021MD1210011+9999MW1021
0057601400999991949070412004+34033-004983FM-12+041499999V0203201N003119999999N0150001N9+03611+01221101081ADDAY121999GF106991001001999999081021MD1810071+9999MW1021
0057601400999991949070512004+34033-004983FM-12+041499999V0209991C00001220001CN0150001N9+03001+01611101221ADDAY111999GF101991011021012501001001MD1810121+9999MW1031
0057601400999991949070612004+34033-004983FM-12+041499999V0203201N00411220001CN0150001N9+02721+01391101281ADDAY101999GF100991001001999999001001MD1810081+9999MW1021
0057601400999991949070712004+34033-004983FM-12+041499999V0209991C00001220001CN0150001N9+03721+01391101271ADDAY101999GF100991001001999999001001MD1810051+9999MW1001
0057601400999991949070812004+34033-004983FM-12+041499999V0202701N00211220001CN0150001N9+02891+01721101391ADDAY101999GF100991001001999999001001MD1810051+9999MW1021
0057601400999991949070912004+34033-004983FM-12+041499999V0209991C000019999999N0150001N9+02611+01721101551ADDAY121999GF106991001001999999081021MD1710041+9999MW1021
0057601400999991949071012004+34033-004983FM-12+041499999V0202701N00621220001CN0150001N9+02391+01501101101ADDAY101999GF102991001001999999081021MD1310081+9999MW1021
0057601400999991949071112004+34033-004983FM-12+041499999V0202701N00211220001CN0150001N9+02501+01611101191ADDAY111999GF104991041061008001001001MD1810081+9999MW1011
0057601400999991949071212004+34033-004983FM-12+041499999V0202701N00211220001CN0150001N9+02611+01501101481ADDAY101999GF100991001001999999001001MD1810081+9999MW1021
0057601400999991949071312004+34033-004983FM-12+041499999V0209991C00001220001CN0200001N9+02891+01281101381ADDAY101999GF100991001001999999001001MD1710071+9999MW1001
0057601400999991949071412004+34033-004983FM-12+041499999V0209991C00001220001CN0200001N9+03221+01391101461ADDAY101999GF100991001001999999001001MD1710091+9999MW1021
0076601400999991949071512004+34033-004983FM-12+041499999V0209991C00001220001CN0200001N9+03111+01501101691ADDAY121999GF102991999001999999081001MD1810051+9999MW1021EQDQ01+000002SCOTLC
0057601400999991949071612004+34033-004983FM-12+041499999V0209991C00001220001CN0160001N9+03001+01391101541ADDAY101999GF100991001001999999001001MD1810111+9999MW1001
0057601400999991949071712004+34033-004983FM-12+041499999V0203001N00211220001CN0160001N9+03001+01501101531ADDAY111999GF100991001001999999001001MD1810011+9999MW1001
0057601400999991949071812004+34033-004983FM-12+041499999V0209991C00001220001CN0200001N9+03001+00891101811ADDAY101999GF100991001001999999001001MD1810051+9999MW1001
0057601400999991949071912004+34033-004983FM-12+041499999V0200201N00211220001CN0160001N9+03391+00891101591ADDAY101999GF100991001001999999001001MD1810071+9999MW1001
0057601400999991949072012004+34033-004983FM-12+041499999V0209991C00001220001CN0160001N9+03721+01111101301ADDAY101999GF100991001001999999001001MD1710091+9999MW1001
0057601400999991949072212004+34033-004983FM-12+041499999V0209991C00001220001CN0200001N9+03281+00781101431ADDAY101999GF100991001001999999001001MD1810061+9999MW1001
0057601400999991949072312004+34033-004983FM-12+041499999V0209991C00001220001CN0200001N9+03221+01391101301ADDAY101999GF100991001001999999001001MD1710111+9999MW1001
0057601400999991949072412004+34033-004983FM-12+041499999V0209991C00001220001CN0160001N9+02891+02001101141ADDAY101999GF100991001001999999001001MD1810081+9999MW1001
0057601400999991949072512004+34033-004983FM-12+041499999V0200401N00411220001CN0200001N9+03391+02111100931ADDAY101999GF100991001001999999001001MD1710121+9999MW1001
0057601400999991949072612004+34033-004983FM-12+041499999V0200601N00821220001CN0200001N9+03781+02391101031ADDAY101999GF100991001001999999001001MD1810041+9999MW1001
0057601400999991949072712004+34033-004983FM-12+041499999V0200401N00211220001CN0160001N9+03501+02111101221ADDAY101999GF100991001001999999001001MD1810021+9999MW1001
0057601400999991949072912004+34033-004983FM-12+041499999V0200401N01031220001CN0160001N9+03611+00781100951ADDAY101999GF100991001001999999001001MD1810071+9999MW1001
0057601400999991949073012004+34033-004983FM-12+041499999V0200401N00211220001CN0160001N9+03611+01281101151ADDAY101999GF100991001001999999001001MD1810061+9999MW1001
0057601400999991949073112004+34033-004983FM-12+041499999V0200201N00211220001CN0160001N9+03611+01281101151ADDAY101999GF100991001001999999001001MD1810061+9999MW1001
0057601400999991949080112004+34033-004983FM-12+041499999V0209991C00001220001CN0200001N9+03781+01281101381ADDAY101999GF100991001001999999001001MD1810041+9999MW1001
0057601400999991949080212004+34033-004983FM-12+041499999V0209991C00001220001CN0200001N9+03721+01501101311ADDAY101999GF100991001001999999001001MD1810061+9999MW1001
0057601400999991949080312004+34033-004983FM-12+041499999V0202701N00411220001CN0160001N9+03281+01611101221ADDAY111999GF102991001001999999001021MD1810101+9999MW1011
0057601400999991949080512004+34033-004983FM-12+041499999V0209991C00001220001CN0200001N9+03221+01391101431ADDAY101999GF100991001001999999001001MD1810071+9999MW1001
0076601400999991949080612004+34033-004983FM-12+041499999V0209991C00001220001CN0200001N9+03221+01391101421ADDAY101999GF102991999001999999081001MD1810081+9999MW1021EQDQ01+000002SCOTLC
0057601400999991949080712004+34033-004983FM-12+041499999V0209991C00001220001CN0200001N9+03391+01001101181ADDAY101999GF100991001001999999001001MD1710111+9999MW1001
0057601400999991949080812004+34033-004983FM-12+041499999V0200601N00211220001CN0200001N9+03501+01281100871ADDAY101999GF100991001001999999001001MD1710091+9999MW1001
0057601400999991949080912004+34033-004983FM-12+041499999V0200401N00621220001CN0200001N9+04001+01111100971ADDAY101999GF100991001001999999001001MD1810021+9999MW1001
0076601400999991949081012004+34033-004983FM-12+041499999V0200401N00311220001CN0200001N9+04001+01221101311ADDAY101999GF101991999001999999081001MD1810061+9999MW1021EQDQ01+000002SCOTLC
0057601400999991949081212004+34033-004983FM-12+041499999V0209991C00001220001CN0200001N9+03611+01391101271ADDAY101999GF100991001001999999001001MD1710131+9999MW1001
0057601400999991949081312004+34033-004983FM-12+041499999V0200701N00721090001CN0150001N9+03391+01721101131ADDAY121999GF105991001001999999001021MD1810121+9999MW1021
0076601400999991949081412004+34033-004983FM-12+041499999V0200301N00311220001CN0160001N9+03501+01611100981ADDAY101999GF101991999001999999081001MD1810091+9999MW1021EQDQ01+000002SCOTLC
0076601400999991949081512004+34033-004983FM-12+041499999V0200501N002119999999N0150001N9+03001+01611101051ADDAY121999GF105991999001999999081001MD1810161+9999MW1021EQDQ01+000002SCOTLC
0076601400999991949081612004+34033-004983FM-12+041499999V0200701N011319999999N0150001N9+03891+01501100941ADDAY121999GF105991999001999999081001MD1810091+9999MW1021EQDQ01+000002SCOTLC
0057601400999991949081712004+34033-004983FM-12+041499999V0202701N00211220001CN0150001N9+03721+01501101471ADDAY111999GF100991001001999999001001MD1810041+9999MW1001
0057601400999991949081912004+34033-004983FM-12+041499999V0200401N00211220001CN0150001N9+03721+01001101331ADDAY101999GF100991001001999999001001MD1810101+9999MW1001
0057601400999991949082012004+34033-004983FM-12+041499999V0209991C00001220001CN0150001N9+03221+01391101291ADDAY101999GF100991001001999999001001MD1810101+9999MW1001
0057601400999991949082112004+34033-004983FM-12+041499999V0209991C00001220001CN0150001N9+03221+01781101181ADDAY101999GF100991001001999999001001MD1810111+9999MW1001
0057601400999991949082212004+34033-004983FM-12+041499999V0200701N00311220001CN0150001N9+03721+01391101181ADDAY101999GF100991001001999999001001MD1810041+9999MW1001
0057601400999991949082312004+34033-004983FM-12+041499999V0200701N00511220001CN0150001N9+03501+01391101341ADDAY101999GF100991001001999999001001MD1810101+9999MW1001
0057601400999991949082412004+34033-004983FM-12+041499999V0200701N00511220001CN0150001N9+03781+01391101181ADDAY101999GF100991001001999999001001MD1810101+9999MW1001
0057601400999991949082512004+34033-004983FM-12+041499999V0209991C00001220001CN0200001N9+03721+01501101211ADDAY101999GF100991001001999999001001MD1810061+9999MW1001
0076601400999991949082612004+34033-004983FM-12+041499999V0209991C00001220001CN0200001N9+03391+01721101391ADDAY111999GF102991999001999999081001MD1810081+9999MW1021EQDQ01+000002SCOTLC
0076601400999991949082712004+34033-004983FM-12+041499999V0209991C000019999999N0200001N9+03281+01611101541ADDAY121999GF105991999001999999081001MD1710071+9999MW1021EQDQ01+000002SCOTLC
0076601400999991949082912004+34033-004983FM-12+041499999V0202701N00211220001CN0200001N9+02721+01391101141ADDAY101999GF101991999001999999041001MD1810111+9999MW1021EQDQ01+000002SCOTLC
0057601400999991949083012004+34033-004983FM-12+041499999V0209991C00001220001CN0200001N9+03001+01501100781ADDAY111999GF100991001001999999001001MD1810071+9999MW1001
0057601400999991949083112004+34033-004983FM-12+041499999V0209991C00001220001CN0160001N9+03111+01501101051ADDAY101999GF100991001001999999001001MD1010001+9999MW1001
0057601400999991949090112004+34033-004983FM-12+041499999V0209991C00001220001CN0160001N9+03001+02001101331ADDAY101999GF100991001001999999001001MD1810081+9999MW1001
0057601400999991949090212004+34033-004983FM-12+041499999V0209991C00001220001CN0100001N9+02391+01391101331ADDAY111999GF100991001001999999001001MD1810051+9999MW1001
0057601400999991949090312004+34033-004983FM-12+041499999V0209991C00001220001CN0150001N9+02891+01611100951ADDAY101999GF100991001001999999001001MD1810161+9999MW1001
0057601400999991949090512004+34033-004983FM-12+041499999V0209991C00001220001CN0200001N9+02781+01721101351ADDAY101999GF100991001001999999001001MD1810091+9999MW1001
0057601400999991949090612004+34033-004983FM-12+041499999V0202701N00211012001CN0150001N9+02611+01781101591ADDAY111999GF105991051011012501001001MD1810071+9999MW1031
0057601400999991949090712004+34033-004983FM-12+041499999V0209991C00001220001CN0200001N9+02781+01611101531ADDAY101999GF100991001001999999001001MD1810161+9999MW1001
0057601400999991949090812004+34033-004983FM-12+041499999V0202901N00211090001CN0200001N9+02891+01891101051ADDAY121999GF106991001001999999001021MD1710051+9999MW1021
0057601400999991949090912004+34033-004983FM-12+041499999V0202701N002119999999N0150001N9+02501+01721101211ADDAY121999GF107991001001999999081021MD1810041+9999MW1021
0057601400999991949091012004+34033-004983FM-12+041499999V0209991C00001012001CN0150001N9+02391+01611101141ADDAY111999GF106991051051012501081001MD1810061+9999MW1021
0057601400999991949091212004+34033-004983FM-12+041499999V0202701N00211220001CN0200001N9+02781+01501101151ADDAY111999GF104991001001999999001041MD1110041+9999MW1021
0057601400999991949091312004+34033-004983FM-12+041499999V0202701N00211220001CN0200001N9+02721+01221101741ADDAY111999GF104991001001999999001041MD1810071+9999MW1021
0057601400999991949091412004+34033-004983FM-12+041499999V0209991C00001220001CN0200001N9+02721+01281101971ADDAY101999GF103991001001999999001041MD1810031+9999MW1031
0057601400999991949091512004+34033-004983FM-12+041499999V0200301N00211220001CN0200001N9+02891+01221101811ADDAY101999GF103991001001999999001011MD1810121+9999MW1021
0057601400999991949091612004+34033-004983FM-12+041499999V0209991C00001220001CN0200001N9+02891+01391101831ADDAY111999GF105991001001999999001041MD1810241+9999MW1031
0057601400999991949091712004+34033-004983FM-12+041499999V0209991C00001220001CN0200001N9+03001+01391102081ADDAY101999GF103991001001999999001011MD1810071+9999MW1021
0057601400999991949091912004+34033-004983FM-12+041499999V0200501N00511220001CN0200001N9+03781+01221101181ADDAY101999GF100991001001999999001001MD1810141+9999MW1001
0057601400999991949092012004+34033-004983FM-12+041499999V0209991C000019999999N0200001N9+03001+01391101421ADDAY121999GF106991001001999999081041MD1810041+9999MW1021
0057601400999991949092112004+34033-004983FM-12+041499999V0209991C00001220001CN0150001N9+02781+01721101551ADDAY111999GF100991001001999999001001MD1810081+9999MW1001
0057601400999991949092212004+34033-004983FM-12+041499999V0209991C00001220001CN0200001N9+02781+01281101051ADDAY121999GF106991001001999999001041MD1810071+9999MW1021
0057601400999991949092312004+34033-004983FM-12+041499999V0202301N00211012001CN0150001N9+02111+01611101371ADDAY121999GF107991071021012501081001MD1210031+9999MW1021
0057601400999991949092412004+34033-004983FM-12+041499999V0209991C00001012001CN0160001N9+02281+01501101541ADDAY121999GF106991061021012501001001MD1810071+9999MW1021
0076601400999991949092712004+34033-004983FM-12+041499999V0202401N002119999999N0150001N9+02501+01501101221ADDAY111999GF106991999001999999081001MD1010041+9999MW1031EQDQ01+000002SCOTLC
0057601400999991949092812004+34033-004983FM-12+041499999V0209991C00001220001CN0200001N9+02611+01501101261ADDAY101999GF101991011011012501001001MD1810091+9999MW1021
0057601400999991949092912004+34033-004983FM-12+041499999V0202901N00411220001CN0200001N9+02781+01501101301ADDAY111999GF102991001001999999081021MD1710211+9999MW1021
0057601400999991949100112004+34033-004983FM-12+041499999V0209991C00001220001CN0200001N9+02501+01501101691ADDAY101999GF101991001001999999001021MD1810131+9999MW1021
0057601400999991949100212004+34033-004983FM-12+041499999V0209991C00001220001CN0200001N9+02501+01391101611ADDAY101999GF104991001001999999001041MD1810081+9999MW1021
0057601400999991949100312004+34033-004983FM-12+041499999V0209991C000019999999N0200001N9+02501+01501101601ADDAY121999GF107991001001999999041081MD1810081+9999MW1031
0057601400999991949100412004+34033-004983FM-12+041499999V0209991C00001220001CN0200001N9+02501+01501101821ADDAY101999GF100991001001999999001001MD1810081+9999MW1001
0076601400999991949100512004+34033-004983FM-12+041499999V0201101N00411220001CN0200001N9+02891+01501101601ADDAY101999GF101991999001999999041001MD1810111+9999MW1021EQDQ01+000002SCOTLC
0057601400999991949100612004+34033-004983FM-12+041499999V0200601N00311090001CN0400001N9+03001+01611101431ADDAY111999GF106991001001999999001021MD1810101+9999MW1021
0057601400999991949100712004+34033-004983FM-12+041499999V0209991C00001220001CN0150001N9+02391+01891101751ADDAY111999GF104991011061002501001011MD1810081+9999MW1021
0057601400999991949100812004+34033-004983FM-12+041499999V0209991C00001007501CN0150001N9+02501+01781101901ADDAY111999GF106991061021008001001001MD1810071+9999MW1021
0057601400999991949100912004+34033-004983FM-12+041499999V0209991C00001220001CN0200001N9+02391+01281101891ADDAY101999GF101991001001999999001021MD1710101+9999MW1021
0057601400999991949101012004+34033-004983FM-12+041499999V0200401N00411220001CN0400001N9+02611+01221101581ADDAY101999GF100991001001999999001001MD1810191+9999MW1001
0057601400999991949101112004+34033-004983FM-12+041499999V0201101N00411220001CN0200001N9+03001+01281101451ADDAY101999GF100991001001999999001001MD1810021+9999MW1001
0057601400999991949101212004+34033-004983FM-12+041499999V0200901N00721220001CN0400001N9+03111+01391101711ADDAY101999GF100991001001999999001001MD1810041+9999MW1001
0057601400999991949101312004+34033-004983FM-12+041499999V0200901N00621220001CN0200001N9+02781+01501101971ADDAY101999GF100991001001999999001001MD1710041+9999MW1001
0057601400999991949101412004+34033-004983FM-12+041499999V0200901N00311220001CN0400001N9+02781+01611101821ADDAY101999GF100991001001999999001001MD1810091+9999MW1001
0057601400999991949101512004+34033-004983FM-12+041499999V0200801N00511220001CN0200001N9+02611+01501101731ADDAY101999GF100991001001999999001001MD1710101+9999MW1001
0057601400999991949101612004+34033-004983FM-12+041499999V0209991C00001220001CN0400001N9+02611+01611101771ADDAY111999GF103991001001999999001041MD1810081+9999MW1031
0057601400999991949101712004+34033-004983FM-12+041499999V0200201N00211090001CN0160001N9+02611+01501101941ADDAY121999GF105991011021012501001021MD1710101+9999MW1011
0057601400999991949101812004+34033-004983FM-12+041499999V0209991C00001220001CN0200001N9+02781+01391101791ADDAY101999GF105991001001999999001041MD1810111+9999MW1031
0057601400999991949101912004+34033-004983FM-12+041499999V0209991C00001220001CN0160001N9+02501+01391101741ADDAY101999GF101991011021012501001001MD1810111+9999MW1031
0057601400999991949102012004+34033-004983FM-12+041499999V0209991C00001220001CN0200001N9+02281+01721101761ADDAY101999GF101991011031012501001001MD1810091+9999MW1031
0057601400999991949102112004+34033-004983FM-12+041499999V0209991C00001220001CN0200001N9+02221+01611101891ADDAY101999GF101991011011012501001001MD1810031+9999MW1021
0057601400999991949102212004+34033-004983FM-12+041499999V0209991C00001220001CN0200001N9+02391+01721101991ADDAY101999GF101991001001999999001041MD1710101+9999MW1031
0057601400999991949102312004+34033-004983FM-12+041499999V0209991C00001220001CN0400001N9+02391+01391101991ADDAY101999GF100991001001999999001001MD1810071+9999MW1001
0076601400999991949102412004+34033-004983FM-12+041499999V0200401N00411220001CN0200001N9+02721+01281101791ADDAY101999GF101991999001999999081001MD1810121+9999MW1021EQDQ01+000002SCOTLC
0076601400999991949102512004+34033-004983FM-12+041499999V0202901N00511220001CN0200001N9+02781+01781101841ADDAY111999GF103991999001999999081001MD1810061+9999MW1031EQDQ01+000002SCOTLC
0057601400999991949102612004+34033-004983FM-12+041499999V0209991C00001220001CN0200001N9+02111+01391101991ADDAY111999GF102991001001999999081041MD1810141+9999MW1011
0057601400999991949102712004+34033-004983FM-12+041499999V0209991C000019999999N0200001N9+02001+01111101611ADDAY111999GF105991001001999999081041MD1810141+9999MW1021
0057601400999991949102812004+34033-004983FM-12+041499999V0200401N00511220001CN0200001N9+02391+01111101421ADDAY101999GF100991001001999999001001MD1810061+9999MW1001
0057601400999991949102912004+34033-004983FM-12+041499999V0200201N00311220001CN0200001N9+02391+00781101691ADDAY101999GF100991001001999999001001MD1810071+9999MW1001
0057601400999991949103012004+34033-004983FM-12+041499999V0200601N002119999999N0400001N9+02501+01001101731ADDAY111999GF107991001001999999081041MD1810111+9999MW1031
0057601400999991949103112004+34033-004983FM-12+041499999V0209991C000019999999N0200001N9+02001+01111102051ADDAY121999GF108991001001999999071999MD1810071+9999MW1021
0057601400999991949110112004+34033-004983FM-12+041499999V0200201N00211220001CN0200001N9+02111+00891101891ADDAY101999GF102991011011017501001011MD1810131+9999MW1021
0076601400999991949110212004+34033-004983FM-12+041499999V0209991C00001220001CN0160001N9+02281+01001101911ADDAY101999GF101991999001999999011001MD1810081+9999MW1021EQDQ01+000002SCOTLC
0057601400999991949110312004+34033-004983FM-12+041499999V0203201N00511036001CN0200001N9+02111+00781101741ADDAY121999GF107991021051012501081021MD1810031+9999MW1031
0057601400999991949110412004+34033-004983FM-12+041499999V0200601N00311220001CN0200001N9+02111+00781101991ADDAY111999GF104991001001999999001021MD1810041+9999MW1031
0057601400999991949110512004+34033-004983FM-12+041499999V0202701N00311220001CN0200001N9+02221+00391102271ADDAY101999GF102991001001999999001041MD1810071+9999MW1021
0057601400999991949110612004+34033-004983FM-12+041499999V0202701N00511021001CN0200001N9+02001+01111102201ADDAY121999GF108991081051022501999999MD1710101+9999MW1021
0057601400999991949110712004+34033-004983FM-12+041499999V0202701N00411012001CN0200001N9+01781+01611102091ADDAY151999GF107991071081008001001001MD1810011+9999MW1031
0057601400999991949110812004+34033-004983FM-12+041499999V0209991C00001220001CN0160001N9+02221+01501102131ADDAY111999GF101991011011008001001001MD1810051+9999MW1011
0057601400999991949110912004+34033-004983FM-12+041499999V0209991C00001220001CN0200001N9+01891+01221102211ADDAY101999GF100991001001999999001001MD1810111+9999MW1001
0057601400999991949111012004+34033-004983FM-12+041499999V0200201N00411220001CN0200001N9+02281+00781101891ADDAY101999GF100991001001999999001001MD1810121+9999MW1011
0057601400999991949111112004+34033-004983FM-12+041499999V0200601N00311220001CN0200001N9+02391+00501101921ADDAY101999GF100991001001999999001001MD1810041+9999MW1001
0057601400999991949111212004+34033-004983FM-12+041499999V0200501N00511220001CN0400001N9+02611+00611101911ADDAY101999GF100991001001999999001001MD1810081+9999MW1001
0057601400999991949111312004+34033-004983FM-12+041499999V0209991C00001220001CN0200001N9+02501+00611101741ADDAY101999GF101991001001999999001041MD1810101+9999MW1021
0057601400999991949111412004+34033-004983FM-12+041499999V0200601N00211220001CN0160001N9+02001+00891101831ADDAY101999GF100991001001999999001001MD1710121+9999MW1001
0057601400999991949111512004+34033-004983FM-12+041499999V0209991C00001220001CN0200001N9+02001+01111101611ADDAY101999GF101991001001999999001011MD1810091+9999MW1021
0057601400999991949111712004+34033-004983FM-12+041499999V0209991C00001220001CN0200001N9+01781+00781101581ADDAY101999GF101991001001999999001041MD1810091+9999MW1021
0057601400999991949111812004+34033-004983FM-12+041499999V0202701N00211220001CN0200001N9+01891+01001101261ADDAY111999GF102991011011012501001011MD1810201+9999MW1021
0057601400999991949111912004+34033-004983FM-12+041499999V0202401N00821036001CN0080001N9+01501+01281100841ADDAY161999GF108991041051008001071999MD1210111+9999MW1631
0057601400999991949112012004+34033-004983FM-12+041499999V0209991C00001220001CN0200001N9+01281+00721102301ADDAY101999GF101991001001999999001011MD1810051+9999MW1031
0057601400999991949112112004+34033-004983FM-12+041499999V0209991C00001220001CN0200001N9+01721+01001102301ADDAY101999GF102991001001999999041041MD1810101+9999MW1021
0057601400999991949112212004+34033-004983FM-12+041499999V0203001N00211220001CN0200001N9+01721+01001101991ADDAY101999GF101991011011012501001001MD1810191+9999MW1021
0057601400999991949112312004+34033-004983FM-12+041499999V0202401N00411002101CN0050001N9+01001+01001101061ADDAY181999GF108991081071002501999999MD1210061+9999MW1811
0057601400999991949112412004+34033-004983FM-12+041499999V0202401N00411002101CN0050001N9+01001+01001101051ADDAY181999GF108991081071002501999999MD1210041+9999MW1811
0057601400999991949112512004+34033-004983FM-12+041499999V0202401N01031012001CN0150001N9+01111+00781100881ADDAY181999GF107991071081008001001001MD1110061+9999MW1811
0057601400999991949112612004+34033-004983FM-12+041499999V0202401N01951036001CN0150001N9+01611+00891100261ADDAY161999GF108991041051004501071999MD1710011+9999MW1601
0057601400999991949112812004+34033-004983FM-12+041499999V0202401N00311015001CN0200001N9+01391+00781100561ADDAY181999GF107991071081012501001001MD1810041+9999MW1811
0057601400999991949112912004+34033-004983FM-12+041499999V0200501N00211090001CN0160001N9+01501+01001101011ADDAY111999GF105991001001999999001021MD1010021+9999MW1021
0057601400999991949113012004+34033-004983FM-12+041499999V0200601N00311220001CN0200001N9+01501+01111101821ADDAY121999GF107991001001999999001041MD1010041+9999MW1021
0057601400999991949120112004+34033-004983FM-12+041499999V0209991C000019999999N0200001N9+01221+01001101461ADDAY121999GF108991001001999999071999MD1010021+9999MW1021
0057601400999991949120212004+34033-004983FM-12+041499999V0200401N00211220001CN0200001N9+01721+01221101281ADDAY101999GF102991011021012501041001MD1810051+9999MW1031
0057601400999991949120312004+34033-004983FM-12+041499999V0200301N00101220001CN0200001N9+01721+01281101511ADDAY101999GF101991001001999999001011MD1810031+9999MW1021
0057601400999991949120412004+34033-004983FM-12+041499999V0200201N00211220001CN0200001N9+01611+01001102051ADDAY101999GF100991001001999999001001MD1810051+9999MW1001
0076601400999991949120512004+34033-004983FM-12+041499999V0209991C000019999999N0200001N9+01501+01111101941ADDAY161999GF107991999001999999071001MD1010001+9999MW1021EQDQ01+000002SCOTLC
0057601400999991949120612004+34033-004983FM-12+041499999V0200701N00211220001CN0200001N9+01781+01281101851ADDAY111999GF102991001001999999001021MD1810081+9999MW1011
0057601400999991949120712004+34033-004983FM-12+041499999V0209991C000019999999N0200001N9+01611+01391101941ADDAY121999GF108991001001999999071999MD1010001+9999MW1031
0057601400999991949120812004+34033-004983FM-12+041499999V0209991C00001220001CN0200001N9+01721+01391101751ADDAY101999GF102991001001999999001021MD1810091+9999MW1021
0057601400999991949120912004+34033-004983FM-12+041499999V0209991C000019999999N0100001N9+01611+01391101861ADDAY121999GF108991001001999999051021MD1810031+9999MW1021
0057601400999991949121012004+34033-004983FM-12+041499999V0202701N00211007501CN0150001N9+01391+01221101861ADDAY121999GF108991081051008001999999MD1010001+9999MW1021
0076601400999991949121112004+34033-004983FM-12+041499999V0202701N00411007501CN0150001N9+01001+00611101661ADDAY121999GF108991999051008001011011MD1810121+9999MW1021EQDQ01+000082SCOTLC
0057601400999991949121212004+34033-004983FM-12+041499999V0209991C00001220001CN0200001N9+00721+00221100711ADDAY101999GF102991021051008001001001MD1710201+9999MW1051
0057601400999991949121312004+34033-004983FM-12+041499999V0202401N00721004201CN0150001N9+00391+00391100541ADDAY121999GF108991081071004501999999MD1010061+9999MW1021
0057601400999991949121412004+34033-004983FM-12+041499999V0202501N00931012001CN0150001N9+01001+00611101151ADDAY161999GF107991071081008001001001MD1010071+9999MW1021
0057601400999991949121512004+34033-004983FM-12+041499999V0202701N00211012001CN0150001N9+01281+00781102081ADDAY121999GF106991061081008001001001MD1110141+9999MW1021
0057601400999991949121612004+34033-004983FM-12+041499999V0209991C00001220001CN0200001N9+01611+01221102711ADDAY111999GF100991001001999999001001MD1810021+9999MW1001
0057601400999991949121712004+34033-004983FM-12+041499999V0209991C00001220001CN0200001N9+01391+01111102661ADDAY141999GF102991001001999999001021MD1810041+9999MW1031
0057601400999991949121812004+34033-004983FM-12+041499999V0209991C00001004201CN0150001N9+01281+01221102421ADDAY121999GF106991051051004501001011MD1010021+9999MW1011
0076601400999991949121912004+34033-004983FM-12+041499999V0209991C00001220001CN0150001N9+01221+01001101811ADDAY121999GF103991999001999999081001MD1810051+9999MW1011EQDQ01+000002SCOTLC
0057601400999991949122012004+34033-004983FM-12+041499999V0209991C000019999999N0160001N9+01391+01221101671ADDAY121999GF106991001001999999081021MD1810061+9999MW1021
0057601400999991949122112004+34033-004983FM-12+041499999V0209991C00001220001CN0160001N9+01391+01111102011ADDAY101999GF102991021021012501001001MD1810051+9999MW1031
0076601400999991949122212004+34033-004983FM-12+041499999V0200501N00411220001CN0200001N9+01391+01001101861ADDAY101999GF102991999001999999081001MD1810121+9999MW1021EQDQ01+000002SCOTLC
0057601400999991949122312004+34033-004983FM-12+041499999V0200901N00311036001CN0200001N9+01281+01001101661ADDAY161999GF107991011021012501071021MD1810031+9999MW1031
0057601400999991949122412004+34033-004983FM-12+041499999V0200901N00311220001CN0400001N9+01501+01001101871ADDAY101999GF100991001001999999001001MD1010001+9999MW1001
0057601400999991949122512004+34033-004983FM-12+041499999V0200701N00211220001CN0200001N9+01281+00891102061ADDAY101999GF103991001001999999001011MD1810091+9999MW1021
0057601400999991949122612004+34033-004983FM-12+041499999V0200501N00621220001CN0200001N9+01391+00891101821ADDAY111999GF104991011011012501001021MD1810151+9999MW1031
0057601400999991949122712004+34033-004983FM-12+041499999V0200301N00311036001CN0160001N9+01221+00781101771ADDAY121999GF107991031051012501031091MD1810031+9999MW1031
0057601400999991949122812004+34033-004983FM-12+041499999V0209991C00001036001CN0060001N9+01001+01001101891ADDAY161999GF108991031051004501071999MD1810071+9999MW1611
0057601400999991949122912004+34033-004983FM-12+041499999V0201201N00311036001CN0150001N9+01501+01281101521ADDAY161999GF108991031051008001071999MD1810061+9999MW1021
0057601400999991949123012004+34033-004983FM-12+041499999V0202501N00821012001CN0100001N9+01111+01111101291ADDAY181999GF108991081081008001999999MD1210081+9999MW1811
0057601400999991949123112004+34033-004983FM-12+041499999V0202501N00411009001CN0040001N9+00891+00891101591ADDAY181999GF108991081081004501999999MD1810061+9999MW1811
