0089601400999991961010112004+34033-004983FM-12+041499999V0202601N00511004201CN0100001N9+00891+00611102751ADDAY181999GA1021+003909079GA2061+007809089GF107991071021004501999999MD1010041+9999MW1251
0073601400999991961010612004+34033-004983FM-12+041499999V0200401N00211220001CN0300001N9+00891+00501102741ADDAY111999GA1021+069009009GF102991001001999999001021MD1010091+9999MW1011
0073601400999991961010812004+34033-004983FM-12+041499999V0202401N00211004201CN0080001N9+00781+00721103131ADDAY111999GA1071+003909079GF107991071061004501999999MD1010001+9999MW1021
0113601400999991961011018004+34033-004983FM-12+041499999V0202601N00211036001CN0300001N9+01221+00781102181ADDAA199000091AY121999GA1041+009909089GA2021+030009039GF106991041021012501081021KA1999M+01501MD1810031+9999MW1021
0097601400999991961011118004+34033-004983FM-12+041499999V0202401N00311007501CN0300001N9+00721+00501102031ADDAA199005091AY181999GA1071+007809059GF107991071051008001999999KA1999M+01111MD1310021+9999MW1021
0097601400999991961011206004+34033-004983FM-12+041499999V0209991C00001220001CN0003001N9+00281+00281102021ADDAA199000091AY141999GA1021+003009079GF102991021061004501001001KA1999N+00221MD1610031+9999MW1441
0073601400999991961011212004+34033-004983FM-12+041499999V0209991C00001220001CN0100001N9+00781+00611101991ADDAY141999GA1041+006009089GF104991041021008001001001MD1810021+9999MW1021
0073601400999991961011312004+34033-004983FM-12+041499999V0202601N00101220001CN0200001N9+01001+00501102361ADDAY161999GA1021+006009089GF103991031081008001001001MD1010051+9999MW1021
0089601400999991961011406004+34033-004983FM-12+041499999V0202401N00211220001CN0100001N9+00111+00111102541ADDAA199000091GA1011+030009039GF101991011001999999041001KA1999N+00111MD1510001+9999MW1001
0073601400999991961011412004+34033-004983FM-12+041499999V0202801N00311220001CN0200001N9+01001+00501102511ADDAY101999GA1011+009909089GF102991011011012501041001MD1810011+9999MW1021
0057601400999991961011512004+34033-004983FM-12+041499999V0200401N00101220001CN0200001N9+01001+00391102311ADDAY101999GF100991001001999999001001MD1810071+9999MW1021
0073601400999991961011612004+34033-004983FM-12+041499999V0200201N00101220001CN0200001N9+00891+00281102431ADDAY101999GA1021+069009009GF102991001001999999001021MD1410001+9999MW1021
0097601400999991961011618004+34033-004983FM-12+041499999V0200201N00101220001CN0400001N9+01001+00501102301ADDAA199000091AY101999GA1041+069009009GF104991001001999999001021KA1999M+01281MD1310081+9999MW1021
0097601400999991961011718004+34033-004983FM-12+041499999V0209999900101220001CN0300001N9+01111+00721102571ADDAA199000091AY111999GA1021+009909059GF102991021051012501001001KA1999M+01281MD1210041+9999MW1011
0073601400999991961011806004+34033-004983FM-12+041499999V0200401N00211220001CN0200001N9+00611+00391102461ADDAA199000091GF100991001001999999001001KA1999N+00501MD1610071+9999MW1001
0113601400999991961012006004+34033-004983FM-12+041499999V0209991C00001012001CN0200001N9+00721+00721102561ADDAA199001091AY181999GA1041+006009089GA2081+009909059GF108991081081008001999999KA1999N+00501MD1210011+9999MW1001
0113601400999991961012118004+34033-004983FM-12+041499999V0203001N00101007501CN0200001N9+01221+00781102011ADDAA199000091AY121999GA1051+006009059GA2071+030009039GF108991051051008001041999KA1999M+01391MD1210111+9999MW1011
0089601400999991961012912004+34033-004983FM-12+041499999V0200201N00211220001CN0150001N9+01221+01001103141ADDAY111999GA1031+006009089GA2031+069009009GF104991011051004501001999MD1810011+9999MW1031
0097601400999991961013006004+34033-004983FM-12+041499999V0209991C00001000301CN0002001N9+00891+00891103191ADDAA199000091AY141999GA1091+000159999GF109991091999000251999999KA1999N+00781MD1710011+9999MW1451
0057601400999991961013012004+34033-004983FM-12+041499999V0209991C00001220001CN0100001N9+01001+00891103141ADDAY141999GF103991031071004501001001MD1810061+9999MW1011
0073601400999991961020112004+34033-004983FM-12+041499999V0209991C00001220001CN0200001N9+01391+01001103331ADDAY101999GA1031+007809089GF104991041021008001001011MD1210041+9999MW1031
0075601400999991961020206004+34033-004983FM-12+041499999V0209991C00001007501CN0200001N9+01001+01001103191ADDAA199000091GA1051+009909059GF199999051021008001001001KA1999N+01001MW1001
0073601400999991961020212004+34033-004983FM-12+041499999V0202801N00211007501CN0200001N9+01721+01281103111ADDAY121999GA1061+009909089GF106991061021008001001001MD1010021+9999MW1011
0089601400999991961020306004+34033-004983FM-12+041499999V0209991C00001004201CN0100001N9+01111+01111103051ADDAA199000091GA1071+006009059GF107991071051004501999999KA1999N+01111MD1710021+9999MW1001
0073601400999991961020506004+34033-004983FM-12+041499999V0201801N00101220001CN0200001N9+00391+00221102841ADDAA199000091GF100991001001999999001001KA1999N+00221MD1610051+9999MW1001
0073601400999991961020606004+34033-004983FM-12+041499999V0202001N00101220001CN0200001N9+00611+00391102831ADDAA199000091GF100991001001999999001001KA1999N+00501MD1710031+9999MW1001
0057601400999991961021012004+34033-004983FM-12+041499999V0200401N00211220001CN0400001N9+01781+00721103141ADDAY101999GF100991001001999999001001MD1110081+9999MW1021
0065601400999991961021212004+34033-004983FM-12+041499999V0200201N00101220001CN0400001N9+01891+00891102661ADDGA1021+069009009GF102991001001999999001021MD1810071+9999MW1001
0043601400999991961021218004+34033-004983FM-12+041499999V0203001N00101220001CN0500001N9+02001+00781102351ADDAY101999GF104991999999999999999999MW1021
0089601400999991961021506004+34033-004983FM-12+041499999V0209991C00001220001CN0200001N9+00891+00781102641ADDAA199000091GA1031+069009009GF103991001001999999001021KA1999N+00781MD1310021+9999MW1001
0113601400999991961021718004+34033-004983FM-12+041499999V0202601N00311007501CN0100001N9+01111+01001102911ADDAA199004091AY191999GA1021+006009099GA2051+007809059GF106991061091008001001001KA1999M+01781MD1110181+9999MW1291
0097601400999991961021918004+34033-004983FM-12+041499999V0200401N00411220001CN0200001N9+01501+00781102421ADDAA199000091AY101999GA1011+012009099GF103991011091012501001031KA1999M+01781MD1510051+9999MW1021
0073601400999991961022012004+34033-004983FM-12+041499999V0200401N00411220001CN0200001N9+01501+00891102431ADDAY101999GA1021+009909089GF102991021011008001001001MD1810091+9999MW1031
0113601400999991961022018004+34033-004983FM-12+041499999V0200401N00101220001CN0200001N9+01721+00891102151ADDAA199000091AY101999GA1021+009909089GA2021+012009099GF103991031031008001061001KA1999M+01891MD1510001+9999MW1021
0113601400999991961022118004+34033-004983FM-12+041499999V0200801N00311036001CN0300001N9+01721+00781101961ADDAA199000091AY111999GA1041+009909089GA2031+030009039GF105991041021008001081001KA1999M+01891MD1510041+9999MW1021
0113601400999991961022418004+34033-004983FM-12+041499999V0203001N00101090001CN0200001N9+01891+00891102141ADDAA199000091AY111999GA1021+030009039GA2061+060009009GF106991021001999999081021KA1999M+02221MD1310141+9999MW1021
0097601400999991961022518004+34033-004983FM-12+041499999V0200401N00101220001CN0200001N9+02111+01001102481ADDAA199000091AY111999GA1011+012009089GF101991011011012501001021KA1999M+02281MD1310031+9999MW1011
0081601400999991961022818004+34033-004983FM-12+041499999V0203001N00101220001CN0200001N9+02221+01111102551ADDAA199000091AY101999GF100991001001999999001001KA1999M+02501MD1510021+9999MW1021
0097601400999991961030118004+34033-004983FM-12+041499999V0203001N00101220001CN0400001N9+02281+01001102321ADDAA199000091AY101999GA1011+999999089GF101991011011012501001001KA1999M+02501MD1510001+9999MW1021
0097601400999991961030318004+34033-004983FM-12+041499999V0200601N00101220001CN0400001N9+02111+01221102461ADDAA199000091AY101999GA1031+069009009GF103991001001999999001021KA1999M+02281MD1610021+9999MW1021
0097601400999991961030418004+34033-004983FM-12+041499999V0209991C00001220001CN0400001N9+02111+00891999999ADDAA199000091AY111999GA1021+069009009GF102991001001999999001021KA1999M+02281MD1510001+9999MW1011
0097601400999991961030518004+34033-004983FM-12+041499999V0203601N00621220001CN0200001N9+01781+00501102511ADDAA199000091AY101999GA1041+999999009GF104991001001999999001021KA1999M+02221MD1210041+9999MW1021
0073601400999991961030606004+34033-004983FM-12+041499999V0200601N00621220001CN0200001N9+00891+00391102741ADDAA199000091GF100991001001999999001001KA1999N+00891MD1510021+9999MW1001
0092601400999991961030612004+34033-004983FM-12+041499999V0200401N008219999999N0200001N9+01781+00391102621ADDAY101999GA1999+999999079GF199999001001999999001021MD1810091+9999MW1021EQDQ01    003SCCGA1
0049601400999991961030706004+34033-004983FM-12+041499999V0200401N00721220001CN0200001N9+00891+00001102661ADDGF100991001001999999001001MD1010081+9999MW1001
0057601400999991961030712004+34033-004983FM-12+041499999V0200601N00821220001CN0150001N9+01721+00611102591ADDAY101999GF100991001001999999001001MD1810061+9999MW1021
0097601400999991961030718004+34033-004983FM-12+041499999V0200401N00411220001CN0200001N9+01781+00391102381ADDAA199000091AY101999GA1011+012009089GF101991011011012501001001KA1999M+02111MD1510001+9999MW1021
0073601400999991961030806004+34033-004983FM-12+041499999V0200401N00211220001CN0200001N9+00781+00391102811ADDAA199000091GF100991001001999999001001KA1999N+00721MD1310081+9999MW1001
0073601400999991961030812004+34033-004983FM-12+041499999V0200401N00411220001CN0200001N9+01721+00721102781ADDAY101999GA1011+012009089GF101991011011012501001001MD1810041+9999MW1021
0081601400999991961030818004+34033-004983FM-12+041499999V0203201N00101220001CN0200001N9+02001+00781102551ADDAA199000091AY101999GF100991001001999999001001KA1999M+02221MD1310041+9999MW1021
0097601400999991961030918004+34033-004983FM-12+041499999V0202801N00101220001CN0150001N9+02001+00891102801ADDAA199000091AY101999GA1011+012009089GF101991011011012501001001KA1999M+02281MD1310011+9999MW1021
0073601400999991961031006004+34033-004983FM-12+041499999V0209991C00001220001CN0200001N9+01221+00221102901ADDAA199000091GF100991001001999999001001KA1999N+00891MD1510011+9999MW1001
0081601400999991961031018004+34033-004983FM-12+041499999V0209991C00001220001CN0200001N9+02221+00501102611ADDAA199000091AY101999GF100991001001999999001001KA1999M+02391MD1510071+9999MW1011
0062601400999991961031106004+34033-004983FM-12+041499999V0200401N00411220001CN0200001N9+01001+00611102731ADDGF100991001001999999001001KA1999N+00501MD1710081+9999MW1001
0073601400999991961031112004+34033-004983FM-12+041499999V0200601N00411220001CN0150001N9+01891+00781102571ADDAY101999GA1011+012009089GF101991011011012501001001MD1810071+9999MW1021
0097601400999991961031118004+34033-004983FM-12+041499999V0203601N00101220001CN0200001N9+02221+01001102221ADDAA199000091AY101999GA1011+012009089GF101991011011012501001001KA1999M+02281MD1510031+9999MW1011
0073601400999991961031206004+34033-004983FM-12+041499999V0209991C00001220001CN0200001N9+02501+00281102701ADDAA199000091GF100991001001999999001001KA1999N+00501MD1310011+9999MW1001
0073601400999991961031212004+34033-004983FM-12+041499999V0200401N00211220001CN0300001N9+02001+00611102491ADDAY101999GA1011+012009089GF101991011011012501001001MD1810051+9999MW1021
0081601400999991961031218004+34033-004983FM-12+041499999V0203601N00101220001CN0300001N9+02221+00611102171ADDAA199000091AY101999GF100991001001999999001001KA1999M+02391MD1610061+9999MW1011
0073601400999991961031306004+34033-004983FM-12+041499999V0200601N00101220001CN0200001N9+00891+00281102391ADDAA199000091GF100991001001999999001001KA1999N+00501MD1510051+9999MW1001
0097601400999991961031318004+34033-004983FM-12+041499999V0203401N00101220001CN0200001N9+02221+00611102801ADDAA199000091AY101999GA1021+069009009GF102991001001999999001021KA1999M+02391MD1610031+9999MW1021
0073601400999991961031406004+34033-004983FM-12+041499999V0209991C00001220001CN0200001N9+00391+00111102211ADDAA199000091GF100991001001999999001001KA1999N+00281MD1610021+9999MW1001
0057601400999991961031512004+34033-004983FM-12+041499999V0200401N99999220001CN0100001N9+01781+00781101791ADDAY101999GF102991021021012501001001MD1810111+9999MW1021
0113601400999991961031518004+34033-004983FM-12+041499999V0200401N00721090001CN0150001N9+01781+00781101571ADDAA199999929AY191999GA1021+012009099GA2031+069009009GF105991021091012501001031KA1999M+02111MD1210041+9999MW1021
0073601400999991961031612004+34033-004983FM-12+041499999V0201801N00821220001CN0150001N9+02721+00391101431ADDAY111999GA1011+012009099GF102991011091012501001021MD1010011+9999MW1021
0113601400999991961031618004+34033-004983FM-12+041499999V0203201N00621220001CN0150001N9+02501+01111101291ADDAA199000091AY111999GA1021+012009089GA2031+030009039GF103991021021012501081001KA1999M+02891MD1310041+9999MW1011
0089601400999991961031706004+34033-004983FM-12+041499999V0200201N00311220001CN0150001N9+01001+00111101731ADDAA199000091GA1031+069009009GF103991001001999999001021KA1999N+00891MD1310031+9999MW1001
0073601400999991961031812004+34033-004983FM-12+041499999V0200401N00211220001CN0100001N9+02281+00781101791ADDAY111999GA1041+069009009GF104991001001999999001021MD1010001+9999MW1011
0097601400999991961031818004+34033-004983FM-12+041499999V0209991C00001090001CN0100001N9+02611+01001101441ADDAA199000091AY111999GA1051+069009009GF105991001001999999001021KA1999M+02781MD1610091+9999MW1021
0124601400999991961031906004+34033-004983FM-12+041499999V0200801N00101090001CN0150001N9+01391+00501101251ADDAA199000091GA1031+018009059GA2051+069009009GF106991031051017501999021KA1999N+01111MD1510051+9999MW1001EQDQ01    003SCOMCG
0089601400999991961031912004+34033-004983FM-12+041499999V0200401N00411090001CN0100001N9+02001+00781101131ADDAY121999GA1011+030009039GA2061+069009009GF106991011001999999081021MD1810231+9999MW1011
0097601400999991961031918004+34033-004983FM-12+041499999V0202801N00511036001CN0100001N9+01891+01221100751ADDAA199000091AY121999GA1051+069009009GF108991061001999999081021KA1999M+02611MD1310081+9999MW1021
0105601400999991961032006004+34033-004983FM-12+041499999V0209991C00001090001CN0200001N9+01281+01001100821ADDAA199000091GA1031+030009039GA2051+069009009GF105991031001999999041021KA1999N+01111MD1510021+9999MW1001
0089601400999991961032012004+34033-004983FM-12+041499999V0203001N00211036001CN0200001N9+01891+01221100761ADDAY121999GA1021+009909089GA2031+030009039GF107991021011012501051021MD1810071+9999MW1021
0121601400999991961032106004+34033-004983FM-12+041499999V0201001N00101036001CN0200001N9+01111+01111101041ADDAA199000091GA1051+999999049GA2041+018009059GA3031+030009039GF106991041051012501081001KA1999N+01111MD1310021+9999MW1001
0075601400999991961032112004+34033-004983FM-12+041499999V0202401N00511012001CN0200001N9+01611+01391101161ADDAY181999GA1061+012009089GA2031+030009039GF107991061021012501081999MW1021
0089601400999991961032206004+34033-004983FM-12+041499999V0202401N00101012001CN0200001N9+01221+01111101441ADDAA199000591GA1061+009909089GF106991061021012501001001KA1999N+01111MD1610021+9999MW1001
0089601400999991961032212004+34033-004983FM-12+041499999V0200201N00101036001CN0300001N9+01721+01221101461ADDAY121999GA1031+009909089GA2041+030009039GF107991031021012501081021MD1010001+9999MW1011
0118601400999991961032306004+34033-004983FM-12+041499999V0200201N00411036001CN0650001N9+01111+00891101451ADDAA199000091AY101999GA1051+030009039GF105991051001999999051001KA1999N+00891MW1001EQDQ01+000042APCTENQ02+000042APC3  
0089601400999991961032312004+34033-004983FM-12+041499999V0200201N00311036001CN0300001N9+01781+00111101371ADDAY121999GA1021+012009089GA2041+030009039GF106991021021012501041021MD1810041+9999MW1031
0099601400999991961032318004+34033-004983FM-12+041499999V0203001N00101012001CN0250001N9+01501+00781101301ADDAA199001091AY181999GA1031+007809089GA2071+009909059GF108991081081008001999999KA1999M+02001MW1251
0113601400999991961032406004+34033-004983FM-12+041499999V0209991C00001007501CN0100001N9+01001+01001101551ADDAA199044091AY161999GA1051+007809059GA2081+027009039GF108991061051008001071999KA1999N+01001MD1510001+9999MW1601
0105601400999991961032412004+34033-004983FM-12+041499999V0209991C00001012001CN0200001N9+01611+00721101601ADDAY161999GA1021+006009089GA2051+012009059GA3051+027009039GF108991061081008001071999MD1110041+9999MW1021
0089601400999991961032506004+34033-004983FM-12+041499999V0209991C00001012001CN0200001N9+01111+01001101791ADDAA199000091GA1021+009909059GF107991071051012501999999KA1999N+01111MD1310021+9999MW1001
0089601400999991961032512004+34033-004983FM-12+041499999V0200401N00511012001CN0200001N9+01611+01001101961ADDAY121999GA1021+009909089GA2031+009909059GF107991051081008001031999MD1110061+9999MW1021
0113601400999991961032518004+34033-004983FM-12+041499999V0200601N00621036001CN0200001N9+01391+00891101931ADDAA199000091AY121999GA1021+007809089GA2041+060009009GF106991021021008001031021KA1999M+01781MD1310061+9999MW1011
0097601400999991961032618004+34033-004983FM-12+041499999V0200601N00511220001CN0400001N9+01721+00781101891ADDAA199000091AY101999GA1011+012009099GF101991011091012501001001KA1999M+01891MD1310021+9999MW1011
0073601400999991961032706004+34033-004983FM-12+041499999V0200401N00411220001CN0200001N9+01001+00721102001ADDAA199000091GF100991001001999999001001KA1999N+00891MD1510041+9999MW1001
0113601400999991961032718004+34033-004983FM-12+041499999V0200601N00411090001CN0300001N9+02001+00891101581ADDAA199000091AY111999GA1011+012009089GA2031+030009039GF105991011021012501061021KA1999M+02221MD1610071+9999MW1031
0073601400999991961032812004+34033-004983FM-12+041499999V0200201N00101220001CN0300001N9+02001+00781101591ADDAY101999GA1021+009909089GF102991021021012501001011MD1810081+9999MW1021
