0057601400999991960010106004+34033-004983FM-12+041499999V0209991C00001220001CN0300001N9+00501+00501102791ADDAY101999GF100991001001999999001001MD1510051+9999MW1001
0073601400999991960010112004+34033-004983FM-12+041499999V0200601N00101090001CN0400001N9+01501+00781102541ADDAY111999GA1061+069009009GF106991001001999999001021MD1810101+9999MW1021
0049601400999991960010206004+34033-004983FM-12+041499999V0209991C00001220001CN0100001N9+00501+00501102831ADDGF100991001001999999001001MD1310021+9999MW1001
0057601400999991960010212004+34033-004983FM-12+041499999V0209991C00001220001CN0100001N9+01391+00891102741ADDAY101999GF100991001001999999001001MD1810011+9999MW1021
0057601400999991960010218004+34033-004983FM-12+041499999V0209991C00001220001CN0300001N9+01111+01111102661ADDAY101999GF100991001001999999001001MD1310011+9999MW1021
0057601400999991960010306004+34033-004983FM-12+041499999V0209991C00001000301CN0003001N9+00721+00721102691ADDAY141999GF109991091999000251999999MD1810061+9999MW1451
0073601400999991960010312004+34033-004983FM-12+041499999V0209991C00001220001CN0200001N9+01111+00891102611ADDAY141999GA1031+069009009GF103991001001999999001021MD1810081+9999MW1031
0049601400999991960010406004+34033-004983FM-12+041499999V0200401N00211220001CN0100001N9+01111+00611102961ADDGF100991001001999999001001MD1610041+9999MW1001
0057601400999991960010418004+34033-004983FM-12+041499999V0200601N00211036001CN0300001N9+01391+00891102141ADDAY101999GF107991051001999999041021MD1510001+9999MW1021
0049601400999991960010506004+34033-004983FM-12+041499999V0200401N00311220001CN0200001N9+01111+00721102241ADDGF104991001001999999001021MD1410001+9999MW1001
0073601400999991960010612004+34033-004983FM-12+041499999V0200601N00211220001CN0200001N9+01611+00781102051ADDAY101999GA1011+069009009GF101991001001999999001021MD1810081+9999MW1021
0057601400999991960010618004+34033-004983FM-12+041499999V0209991C00001220001CN0300001N9+01611+01001101831ADDAY101999GF101991011011012501001021MD1310061+9999MW1021
0057601400999991960010712004+34033-004983FM-12+041499999V0200401N00211090001CN0300001N9+01501+00781101591ADDAY111999GF105991021001999999081021MD1810121+9999MW1031
0057601400999991960010718004+34033-004983FM-12+041499999V0200401N00101036001CN0300001N9+01501+00781101461ADDAY121999GF107991061001999999081021MD1310051+9999MW1021
0049601400999991960010806004+34033-004983FM-12+041499999V0209991C00001220001CN0200001N9+01611+00781101421ADDGF100991001001999999001001MD1810131+9999MW1001
0057601400999991960010812004+34033-004983FM-12+041499999V0200401N00311090001CN0300001N9+01391+00721101191ADDAY111999GF105991031001999999041021MD1810191+9999MW1011
0057601400999991960010818004+34033-004983FM-12+041499999V0202801N00101036001CN0300001N9+01501+00781101171ADDAY121999GF107991021041012501041021MD1310251+9999MW1021
0057601400999991960010906004+34033-004983FM-12+041499999V0200801N00211012001CN0060001N9+01001+01001100911ADDAY181999GF108991081081008001999999MD1810031+9999MW1111
0105601400999991960010912004+34033-004983FM-12+041499999V0203201N00311009001CN0100001N9+01221+01111100621ADDAY161999GA1021+003909089GA2051+010809059GA3061+024009049GF108991051081004501021999MD1810081+9999MW1021
0057601400999991960010918004+34033-004983FM-12+041499999V0202801N00311009001CN0100001N9+01281+01221100461ADDAY161999GF106991061081004501001001MD1110041+9999MW1821
0057601400999991960011006004+34033-004983FM-12+041499999V0202801N00311220001CN0200001N9+00891+00781100431ADDAY181999GF103991031051008001001001MD1610151+9999MW1001
0089601400999991960011012004+34033-004983FM-12+041499999V0203001N00411007501CN0200001N9+01391+01001100331ADDAY111999GA1051+009909089GA2031+039009039GF107991051021008001041021MD1810051+9999MW1251
0057601400999991960011018004+34033-004983FM-12+041499999V0203001N00411002101CN0010001N9+01111+01001100391ADDAY111999GF108991081071002501999999MD1310061+9999MW1611
0076601400999991960011112004+34033-004983FM-12+041499999V0203001N007219999999N0040001N9+00781+00721101161ADDAY161999GF108991999081999999041999MD1110311+9999MW1211EQDQ01+000082SCOTLC
0110601400999991960011212004+34033-004983FM-12+041499999V0203001N00211009001CN0100001N9+00891+00721101241ADDAY121999GA1051+004809089GA2051+012009059GF107991071081004501999999MW1021EQDQ01+000062APCTENQ02+000002APC3  
0089601400999991960011412004+34033-004983FM-12+041499999V0202801N00821009001CN0100001N9+00891+00721101771ADDAY181999GA1051+004809089GA2061+012009059GF108991081081004501999999MD1510131+9999MW1811
0057601400999991960011606004+34033-004983FM-12+041499999V0209991C00001000301CN0002001N9+00721+00721101171ADDAY161999GF109991091999000251999999MD1610391+9999MW1451
0057601400999991960011618004+34033-004983FM-12+041499999V0202801N00101009001CN0100001N9+00611+00501101991ADDAY161999GF108991081081004501999999MD1110121+9999MW1021
0049601400999991960011706004+34033-004983FM-12+041499999V0202801N00211012001CN0100001N9+00221+00221102651ADDGF107991071081008001999999MD1210181+9999MW1001
0073601400999991960011712004+34033-004983FM-12+041499999V0203001N00411007501CN0200001N9+00781+00281102731ADDAY111999GA1051+009909089GF106991061021008001001001MD1810041+9999MW1031
0057601400999991960011718004+34033-004983FM-12+041499999V0203201N00101220001CN0200001N9+00721+00501102711ADDAY101999GF103991031021012501001001MD1310061+9999MW1011
0049601400999991960011806004+34033-004983FM-12+041499999V0209991C00001220001CN0200001N9+00001+00001102981ADDGF100991001001999999001001MD1610061+9999MW1021
0057601400999991960011818004+34033-004983FM-12+041499999V0209991C00001090001CN0400001N9+00891+00721102571ADDAY111999GF105991001001999999001021MD1310081+9999MW1021
0049601400999991960011906004+34033-004983FM-12+041499999V0202201N00101220001CN0200001N9+00111+00111102941ADDGF103991031001999999051001MD1410001+9999MW1001
0057601400999991960011918004+34033-004983FM-12+041499999V0209991C00001220001CN0500001N9+01221+00721102931ADDAY101999GF101991001001999999001021MD1110101+9999MW1021
0057601400999991960012012004+34033-004983FM-12+041499999V0200401N00311220001CN0400001N9+01111+00501103041ADDAY101999GF100991001001999999001001MD1010031+9999MW1021
0049601400999991960012106004+34033-004983FM-12+041499999V0202201N00101220001CN0300001N9+00391+00281103001ADDGF100991001001999999001001MD1410001+9999MW1001
0035601400999991960012206004+34033-004983FM-12+041499999V0209991C00001220001CN0200001N9+00891+00781102651ADDGF100991001001999999001001MW1001
0073601400999991960012212004+34033-004983FM-12+041499999V0200501N00101220001CN0400001N9+01391+00721102651ADDAY101999GA1011+069009009GF101991001001999999001021MD1810061+9999MW1021
0057601400999991960012218004+34033-004983FM-12+041499999V0209991C00001090001CN0400001N9+01611+01221102561ADDAY111999GF105991001001999999001021MD1310111+9999MW1021
0049601400999991960012306004+34033-004983FM-12+041499999V0209991C00001090001CN0300001N9+00781+00721102771ADDGF105991001001999999001021MD1810011+9999MW1001
0057601400999991960012312004+34033-004983FM-12+041499999V0200601N00101220001CN0300001N9+01391+00891102861ADDAY101999GF103991021001999999041021MD1110061+9999MW1021
0049601400999991960012406004+34033-004983FM-12+041499999V0209991C00001220001CN0200001N9+00721+00611102731ADDGF102991001001999999001021MD1810011+9999MW1001
0089601400999991960012412004+34033-004983FM-12+041499999V0209991C00001220001CN0300001N9+01611+01001102481ADDAY111999GA1011+039009039GA2031+069009009GF103991011001999999041021MD1810091+9999MW1021
0057601400999991960012418004+34033-004983FM-12+041499999V0209991C00001036001CN0300001N9+01611+00891102481ADDAY111999GF107991051001999999041021MD1210041+9999MW1031
0057601400999991960012506004+34033-004983FM-12+041499999V0203001N00211012001CN0100001N9+01111+01111102681ADDAY151999GF108991081081008001999999MD1110051+9999MW1511
0049601400999991960012606004+34033-004983FM-12+041499999V0209991C00001006001CN0150001N9+01221+01221102051ADDGF108991081081002501999999MD1710131+9999MW1001
0057601400999991960012612004+34033-004983FM-12+041499999V0200401N001019999999N0060001N9+01611+01221101791ADDAY121999GF106991999999999999999999MD1310121+9999MW1011
0057601400999991960012618004+34033-004983FM-12+041499999V0209991C00001004201CN0060001N9+01501+01281101561ADDAY121999GF106991051041004501081021MD1210021+9999MW1021
0057601400999991960012706004+34033-004983FM-12+041499999V0202801N00821012001CN0060001N9+01111+01001101141ADDAY181999GF108991081081008001999999MD1610081+9999MW1811
0110601400999991960012712004+34033-004983FM-12+041499999V0202601N00821004201CN0060001N9+01111+00721101421ADDAY181999GA1031+003909079GA2041+015009059GA3081+027009049GF108991999071004501021999MW1611EQDQ01+000082SCOTLC
0076601400999991960012718004+34033-004983FM-12+041499999V0202601N00821007501CN0100001N9+00891+00611101551ADDAY161999GF108991999071008001021999MD1310121+9999MW1021EQDQ01+000082SCOTLC
0073601400999991960012812004+34033-004983FM-12+041499999V0202801N00511012001CN0200001N9+01281+00501101831ADDAY111999GA1061+012009089GF106991061021012501041021MD1010011+9999MW1021
0057601400999991960012818004+34033-004983FM-12+041499999V0202801N00411004201CN0200001N9+01001+00721102001ADDAY181999GF106991061091004501041021MD1310201+9999MW1021
0049601400999991960012906004+34033-004983FM-12+041499999V0203001N00101220001CN0200001N9+00721+00501102331ADDGF104991021021012501041001MD1310051+9999MW1001
0057601400999991960012918004+34033-004983FM-12+041499999V0201201N00311004201CN0200001N9+00781+00721102761ADDAY181999GF108991071091004501999999MD1310191+9999MW1801
0057601400999991960013006004+34033-004983FM-12+041499999V0209991C00001006001CN0150001N9+00611+00611103051ADDAY181999GF107991071081002501999999MD1310061+9999MW1001
0089601400999991960013012004+34033-004983FM-12+041499999V0200401N00101007501CN0200001N9+01001+00781103051ADDAY111999GA1011+006009099GA2051+012009089GF105991051031008001001001MD1810021+9999MW1031
0057601400999991960013018004+34033-004983FM-12+041499999V0200401N00101220001CN0300001N9+01111+00611102831ADDAY111999GF103991031021012501001001MD1510001+9999MW1021
0073601400999991960013112004+34033-004983FM-12+041499999V0200401N00211220001CN0500001N9+01001+00611102921ADDAY101999GA1041+069009009GF104991001001999999001021MD1010041+9999MW1021
0049601400999991960020106004+34033-004983FM-12+041499999V0209991C00001220001CN0200001N9+00221+00111103241ADDGF100991001001999999001001MD1210031+9999MW1001
0057601400999991960020112004+34033-004983FM-12+041499999V0200401N00211220001CN0400001N9+01111+00391103081ADDAY101999GF100991001001999999001001MD1810071+9999MW1021
0057601400999991960020118004+34033-004983FM-12+041499999V0209991C00001220001CN0400001N9+01281+00611102941ADDAY101999GF100991001001999999001001MD1310081+9999MW1021
0049601400999991960020206004+34033-004983FM-12+041499999V0209991C00001220001CN0200001N9+00111+00001103321ADDGF100991001001999999001001MD1610031+9999MW1001
0049601400999991960020306004+34033-004983FM-12+041499999V0200601N00101220001CN0300001N9+00001+00001103091ADDGF100991001001999999001001MD1610081+9999MW1001
0073601400999991960020312004+34033-004983FM-12+041499999V0203001N00311220001CN0500001N9+00721+00391103021ADDAY111999GA1031+069009009GF103991001001999999001021MD1110161+9999MW1011
0057601400999991960020318004+34033-004983FM-12+041499999V0209991C00001090001CN0500001N9+01501+00891102921ADDAY111999GF106991001001999999001021MD1310041+9999MW1021
0049601400999991960020406004+34033-004983FM-12+041499999V0209991C00001220001CN0300001N9+00111+00111103141ADDGF102991001001999999001021MD1510021+9999MW1001
0057601400999991960020418004+34033-004983FM-12+041499999V0209991C00001220001CN0500001N9+01611+00781102711ADDAY111999GF104991001001999999001021MD1310041+9999MW1021
0049601400999991960020506004+34033-004983FM-12+041499999V0209991C00001220001CN0200001N9+00281+00221102811ADDGF102991001001999999001021MD1610081+9999MW1001
0073601400999991960020512004+34033-004983FM-12+041499999V0209991C00001090001CN0400001N9+01501+00501102631ADDAY111999GA1061+069009009GF106991001001999999001021MD1810031+9999MW1021
0057601400999991960020518004+34033-004983FM-12+041499999V0209991C00001090001CN0400001N9+01501+00781102461ADDAY121999GF107991001001999999001061MD1510001+9999MW1021
0049601400999991960020606004+34033-004983FM-12+041499999V0209991C00001220001CN0200001N9+00721+00611102411ADDGF105991031001999999041061MD1610051+9999MW1001
0057601400999991960020618004+34033-004983FM-12+041499999V0209991C00001007501CN0500001N9+01391+00891102111ADDAY111999GF107991061021008001081001MD1510041+9999MW1031
0057601400999991960020706004+34033-004983FM-12+041499999V0202801N00101006001CN0200001N9+01111+01001101981ADDAY161999GF105991051081002501001001MD1710121+9999MW1001
0105601400999991960020712004+34033-004983FM-12+041499999V0203001N00311006001CN0200001N9+01501+01111101831ADDAY121999GA1021+003009089GA2041+007809089GA3051+009909059GF107991071081002501999999MD1710051+9999MW1021
0057601400999991960020718004+34033-004983FM-12+041499999V0203001N00101002101CN0100001N9+01221+01111101641ADDAY181999GF108991081071002501999999MD1610011+9999MW1251
0057601400999991960020812004+34033-004983FM-12+041499999V0202701N00621009001CN0100001N9+01111+00891101681ADDAY181999GF108991071081004501999999MD1110071+9999MW1011
0067601400999991960020818004+34033-004983FM-12+041499999V0203601N00621007501CN0100001N9+01891+01221999999ADDAA199000091AY121999GF107991071051008001999999KA1999M+02221MW1021
0049601400999991960020906004+34033-004983FM-12+041499999V0200401N00101220001CN0200001N9+00391+00391101681ADDGF102991021051008001001001MD1710081+9999MW1001
0057601400999991960020918004+34033-004983FM-12+041499999V0209991C00001004201CN0200001N9+01221+00891101541ADDAY121999GF106991061051004501001001MD1210111+9999MW1021
0057601400999991960021012004+34033-004983FM-12+041499999V0200401N00101036001CN0300001N9+01221+00721101631ADDAY111999GF106991021021008001041021MD1810011+9999MW1011
0057601400999991960021018004+34033-004983FM-12+041499999V0200601N00101090001CN0300001N9+01391+01001101361ADDAY121999GF106991031021008001001021MD1510021+9999MW1011
0057601400999991960021112004+34033-004983FM-12+041499999V0202701N00311012001CN0150001N9+01111+00781100941ADDAY161999GF108991081081008001999999MD1010011+9999MW1611
0057601400999991960021118004+34033-004983FM-12+041499999V0202801N00411009001CN0100001N9+01001+00891100911ADDAY161999GF108991081081004501999999MD1310051+9999MW1631
0057601400999991960021206004+34033-004983FM-12+041499999V0203001N00411009001CN0200001N9+00781+00391101301ADDAY161999GF108991081081004501999999MD1210051+9999MW1001
0057601400999991960021212004+34033-004983FM-12+041499999V0202801N006219999999N0200001N9+01221+00611101471ADDAY111999GF105991041081008001999999MD1110131+9999MW1031
0057601400999991960021218004+34033-004983FM-12+041499999V0202801N00101090001CN0300001N9+01221+00781101421ADDAY111999GF106991011041012501001021MD1210101+9999MW1021
0057601400999991960021312004+34033-004983FM-12+041499999V0209991C00001220001CN0300001N9+01391+00781101341ADDAY111999GF104991011021012501001021MD1810051+9999MW1031
0078601400999991960021318004+34033-004983FM-12+041499999V0200401N00101036001CN0300001N9+01501+01001100991ADDAY111999GF107991011021012501081021MW1021EQDQ01+000042APCTENQ02+000052APC3  
0049601400999991960021406004+34033-004983FM-12+041499999V0201801N00101036001CN0200001N9+00781+00781100741ADDGF106991031021008001041021MD1610051+9999MW1001
0089601400999991960021412004+34033-004983FM-12+041499999V0202801N00211012001CN0200001N9+01501+01001100881ADDAY181999GA1051+012009059GA2031+039009039GF107991051051012501041999MD1010001+9999MW1021
0057601400999991960021418004+34033-004983FM-12+041499999V0203001N00411012001CN0200001N9+01391+01221101091ADDAY181999GF108991081081008001999999MD1210191+9999MW1801
0049601400999991960021506004+34033-004983FM-12+041499999V0202801N00311220001CN0200001N9+01281+00891101541ADDGF101991011051008001001001MD1310071+9999MW1001
0057601400999991960021512004+34033-004983FM-12+041499999V0202801N00311220001CN0200001N9+01891+01281101761ADDAY101999GF104991041021012501001021MD1110101+9999MW1031
0057601400999991960021518004+34033-004983FM-12+041499999V0200401N00101090001CN0300001N9+01721+01501101711ADDAY111999GF106991041041012501001021MD1810041+9999MW1021
0049601400999991960021606004+34033-004983FM-12+041499999V0201001N00101012001CN0200001N9+00891+00781101781ADDGF107991061081008001041999MD1310011+9999MW1001
0057601400999991960021618004+34033-004983FM-12+041499999V0202201N00101015001CN0200001N9+01891+01391101011ADDAY121999GF108991061051017501021999MD1610071+9999MW1021
0057601400999991960021706004+34033-004983FM-12+041499999V0203201N00101009001CN0100001N9+01501+01391101141ADDAY161999GF106991061081004501001001MD1710091+9999MW1601
0124601400999991960021712004+34033-004983FM-12+041499999V0202801N00211006001CN0100001N9+01891+01501101181ADDAY181999GA1031+002409089GA2031+007809059GA3071+030009039GF108991999081002501081999MD1510161+9999MW1021EQDQ01+000082SCOTLC
0076601400999991960021718004+34033-004983FM-12+041499999V0203001N00211006001CN0100001N9+01611+01501101091ADDAY161999GF108991999081002501071999MD1310031+9999MW1601EQDQ01+000082SCOTLC
0057601400999991960021812004+34033-004983FM-12+041499999V0202801N00721007501CN0300001N9+01721+01111101121ADDAY111999GF105991051021008001041021MD1810051+9999MW1021
0057601400999991960021818004+34033-004983FM-12+041499999V0202801N00721007501CN0200001N9+01391+01001101231ADDAY181999GF108991081031008001999999MD1210221+9999MW1811
0057601400999991960021906004+34033-004983FM-12+041499999V0202801N00511220001CN0200001N9+01111+00781101751ADDAY181999GF103991031021008001041001MD1210081+9999MW1001
0057601400999991960021912004+34033-004983FM-12+041499999V0203001N00411012001CN0200001N9+01391+00891102151ADDAY111999GF106991061081008001041001MD1110201+9999MW1021
0057601400999991960021918004+34033-004983FM-12+041499999V0209991C00001090001CN0300001N9+01391+01111102151ADDAY111999GF105991041021012501001021MD1210091+9999MW1021
0057601400999991960022006004+34033-004983FM-12+041499999V0209991C00001220001CN0300001N9+00501+00501101991ADDAY101999GF103991021051017501001021MD1710021+9999MW1001
0057601400999991960022012004+34033-004983FM-12+041499999V0200401N00101220001CN0400001N9+01501+01001101991ADDAY101999GF102991001001999999001021MD1010041+9999MW1021
0049601400999991960022106004+34033-004983FM-12+041499999V0209991C00001220001CN0200001N9+00611+00501102111ADDGF100991001001999999001001MD1610031+9999MW1001
0073601400999991960022112004+34033-004983FM-12+041499999V0203001N00411220001CN0300001N9+01891+01001101851ADDAY111999GA1031+069009009GF103991001001999999001021MD1710041+9999MW1011
0057601400999991960022118004+34033-004983FM-12+041499999V0203001N00101090001CN0400001N9+01781+01391101781ADDAY111999GF105991011021012501001021MD1310071+9999MW1021
0049601400999991960022206004+34033-004983FM-12+041499999V0202601N00511090001CN0200001N9+01391+00891101611ADDGF105991041001999999041021MD1610041+9999MW1001
0073601400999991960022212004+34033-004983FM-12+041499999V0202601N009819999999N0200001N9+01721+01001101581ADDAY181999GA1051+036009049GF107991071999999999999999MD1510011+9999MW1801
0057601400999991960022218004+34033-004983FM-12+041499999V0203001N00511001201CN0040001N9+01111+01111101961ADDAY161999GF108991081071001501999999MD1210181+9999MW1611
0057601400999991960022306004+34033-004983FM-12+041499999V0202601N00101001201CN0100001N9+01001+01001102141ADDAY161999GF108991081071001501999999MD1610021+9999MW1001
0057601400999991960022312004+34033-004983FM-12+041499999V0209991C00001220001CN0200001N9+01391+00891102121ADDAY111999GF104991041081008001001021MD1810031+9999MW1011
0057601400999991960022318004+34033-004983FM-12+041499999V0200401N00211036001CN0200001N9+01501+01221101881ADDAY111999GF106991041081012501081001MD1510011+9999MW1021
0057601400999991960022406004+34033-004983FM-12+041499999V0200601N00101220001CN0300001N9+00721+00721101771ADDAY101999GF100991001001999999001001MD1510071+9999MW1001
0057601400999991960022412004+34033-004983FM-12+041499999V0202201N00311090001CN0600001N9+01391+00891101411ADDAY121999GF106991001001999999001021MD1010041+9999MW1021
0057601400999991960022418004+34033-004983FM-12+041499999V0209991C00001090001CN0600001N9+02001+01391101531ADDAY121999GF105991001001999999001021MD1310061+9999MW1011
0049601400999991960022506004+34033-004983FM-12+041499999V0209991C00001220001CN0200001N9+01001+00781101671ADDGF102991001001999999001021MD1610101+9999MW1001
0057601400999991960022512004+34033-004983FM-12+041499999V0202401N00101090001CN0300001N9+02001+01281101751ADDAY111999GF107991021001999999081021MD1110011+9999MW1021
0057601400999991960022518004+34033-004983FM-12+041499999V0209991C00001220001CN0300001N9+02281+01611101691ADDAY111999GF102991001001999999001021MD1310061+9999MW1011
0049601400999991960022606004+34033-004983FM-12+041499999V0209991C00001220001CN0300001N9+00781+00721102161ADDGF102991011001999999041021MD1410001+9999MW1001
0057601400999991960022612004+34033-004983FM-12+041499999V0200201N00101220001CN0300001N9+02111+01111102071ADDAY111999GF101991011001999999041001MD1010011+9999MW1021
0057601400999991960022618004+34033-004983FM-12+041499999V0200401N00101090001CN0300001N9+02391+01391102061ADDAY111999GF106991011001999999041021MD1310081+9999MW1011
0049601400999991960022706004+34033-004983FM-12+041499999V0200601N00101220001CN0200001N9+01001+00721999999ADDGF100991001001999999001001MD1310021+9999MW1001
0057601400999991960022712004+34033-004983FM-12+041499999V0200401N00311220001CN0200001N9+02281+01221102341ADDAY101999GF103991001001999999001021MD1010051+9999MW1031
0057601400999991960022718004+34033-004983FM-12+041499999V0209991C00001090001CN0250001N9+02611+01501102101ADDAY111999GF105991001001999999001031MD1510001+9999MW1021
0049601400999991960022806004+34033-004983FM-12+041499999V0200401N00411220001CN0200001N9+01781+00391102121ADDGF102991001001999999001021MD1610091+9999MW1001
0073601400999991960022812004+34033-004983FM-12+041499999V0200201N00211090001CN0200001N9+02281+00891102111ADDAY111999GA1071+069009009GF107991001001999999001021MD1810011+9999MW1021
0057601400999991960022818004+34033-004983FM-12+041499999V0209991C00001090001CN0200001N9+02611+01891101961ADDAY121999GF106991001001999999001021MD1310041+9999MW1021
0057601400999991960022912004+34033-004983FM-12+041499999V0202601N00311004201CN0150001N9+01781+01281101811ADDAY111999GF107991071051004501999999MD1010051+9999MW1021
0076601400999991960022918004+34033-004983FM-12+041499999V0203201N00211036001CN0200001N9+01891+01391102662ADDAY121999GF105991011051004501091001MD1310081+9999MW1021EQDQ01+102663APOSLP
0057601400999991960030112004+34033-004983FM-12+041499999V0201001N002119999999N0002001N9+00781+00781101161ADDAY141999GF199999001001999999001021MD1710081+9999MW1601
0057601400999991960030218004+34033-004983FM-12+041499999V0200201N00101090001CN0200001N9+01781+01221102501ADDAY121999GF107991031001999999081021MD1510011+9999MW1031
0035601400999991960030306004+34033-004983FM-12+041499999V0200401N00411220001CN0200001N9+01391+00781102421ADDGF103991021051012501001021MW1001
0057601400999991960030312004+34033-004983FM-12+041499999V0200601N00621220001CN0300001N9+02221+00391102391ADDAY111999GF103991001001999999001021MD1310011+9999MW1021
0057601400999991960030318004+34033-004983FM-12+041499999V0200601N00311036001CN0300001N9+02001+00781102251ADDAY111999GF106991011021012501081021MD1310051+9999MW1021
0049601400999991960030406004+34033-004983FM-12+041499999V0200401N00311220001CN0200001N9+01391+00501102501ADDGF103991001001999999001021MD1310031+9999MW1001
0057601400999991960030418004+34033-004983FM-12+041499999V0200401N00101090001CN0300001N9+02501+00501102181ADDAY111999GF105991021091008001001021MD1310011+9999MW1021
0049601400999991960030506004+34033-004983FM-12+041499999V0200201N00211220001CN0200001N9+01111+00721102331ADDGF102991001001999999001021MD1610061+9999MW1001
0057601400999991960030512004+34033-004983FM-12+041499999V0200201N00101090001CN0200001N9+02391+01391102101ADDAY111999GF105991001001999999001021MD1810041+9999MW1031
0057601400999991960030518004+34033-004983FM-12+041499999V0203201N00101036001CN0300001N9+02611+01281101831ADDAY111999GF106991011021012501041021MD1710041+9999MW1031
0057601400999991960030612004+34033-004983FM-12+041499999V0203001N00411009001CN0150001N9+01501+01001102101ADDAY161999GF107991071081004501999999MD1810041+9999MW1011
0057601400999991960030618004+34033-004983FM-12+041499999V0203001N00311009001CN0200001N9+01391+00781102031ADDAY121999GF106991061081004501001001MD1310011+9999MW1021
0049601400999991960030706004+34033-004983FM-12+041499999V0202601N00211012001CN0200001N9+00891+00721102141ADDGF105991051081008001001001MD1610021+9999MW1001
0057601400999991960030712004+34033-004983FM-12+041499999V0202801N00211007501CN0200001N9+01501+00721102061ADDAY111999GF107991071021008001999999MD1810081+9999MW1031
0076601400999991960030718004+34033-004983FM-12+041499999V0203001N002119999999N0200001N9+01501+00781101871ADDAY151999GF107991999081008001001001MD1610011+9999MW1011EQDQ01+000022SCOTLC
0049601400999991960030806004+34033-004983FM-12+041499999V0209991C00001220001CN0200001N9+00891+00781101811ADDGF103991031051008001001001MD1710101+9999MW1001
0057601400999991960030818004+34033-004983FM-12+041499999V0200201N00101036001CN0250001N9+01611+01221101411ADDAY121999GF108991021021012501091021MD1510031+9999MW1021
0057601400999991960030906004+34033-004983FM-12+041499999V0202401N00101007501CN0200001N9+01111+01111101191ADDAY161999GF108991081071008001999999MD1610071+9999MW1611
0057601400999991960030912004+34033-004983FM-12+041499999V0202801N00311007501CN0200001N9+01721+01221101001ADDAY181999GF106991061021008001041001MD1810081+9999MW1021
0057601400999991960030918004+34033-004983FM-12+041499999V0202801N006219999999N0100001N9+01281+01221100941ADDAY181999GF108991041091001501999999MD1310121+9999MW1811
0057601400999991960031006004+34033-004983FM-12+041499999V0202801N00311001201CN0100001N9+00781+00721101081ADDAY161999GF108991081091001501999999MD1310091+9999MW1601
0057601400999991960031012004+34033-004983FM-12+041499999V0202701N00511004201CN0150001N9+01111+00611101311ADDAY181999GF108991081091004501999999MD1310081+9999MW1801
0057601400999991960031106004+34033-004983FM-12+041499999V0202701N00621004201CN0100001N9+00721+00611101641ADDAY181999GF108991081091004501999999MD1210151+9999MW1631
0057601400999991960031112004+34033-004983FM-12+041499999V0202601N00721004201CN0150001N9+01391+00611101951ADDAY181999GF105991051021004501001001MD1110171+9999MW1021
0057601400999991960031206004+34033-004983FM-12+041499999V0209991C00001220001CN0150001N9+01001+00891102011ADDAY161999GF104991041051004501021021MD1610071+9999MW1001
0073601400999991960031212004+34033-004983FM-12+041499999V0202801N00311012001CN0300001N9+01781+01111101971ADDAY121999GA1081+012009059GF108991081051012501999999MD1110041+9999MW1031
0073601400999991960031312004+34033-004983FM-12+041499999V0202801N00411036001CN0200001N9+01721+01111101841ADDAY121999GA1041+006009089GF106991041021008001041001MD1810091+9999MW1021
0057601400999991960031606004+34033-004983FM-12+041499999V0202601N00101007501CN0150001N9+00611+00501102291ADDAY181999GF106991061021008001001001MD1310041+9999MW1001
0057601400999991960031612004+34033-004983FM-12+041499999V0202801N00211007501CN0200001N9+01391+00781102351ADDAY181999GF106991061021008001001001MD1110041+9999MW1021
0057601400999991960031618004+34033-004983FM-12+041499999V0203001N00211220001CN0300001N9+01501+00781102141ADDAY111999GF104991041041008001001001MD1310011+9999MW1021
0049601400999991960031706004+34033-004983FM-12+041499999V0202401N00101220001CN0200001N9+00501+00501102531ADDGF104991001001999999001021MD1310081+9999MW1001
0057601400999991960031712004+34033-004983FM-12+041499999V0200601N00211220001CN0400001N9+01501+00781102421ADDAY101999GF101991011021008001001001MD1510021+9999MW1031
0057601400999991960031718004+34033-004983FM-12+041499999V0200401N00101220001CN0400001N9+01721+01111102261ADDAY101999GF100991001001999999001001MD1310031+9999MW1021
0049601400999991960031806004+34033-004983FM-12+041499999V0209991C00001220001CN0200001N9+00501+00501102491ADDGF100991001001999999001001MD1510021+9999MW1001
0057601400999991960031812004+34033-004983FM-12+041499999V0200401N00211220001CN0400001N9+01721+00891102251ADDAY101999GF100991001001999999001001MD1710041+9999MW1021
0057601400999991960031818004+34033-004983FM-12+041499999V0200601N00101090001CN0600001N9+02111+01221101961ADDAY111999GF105991001001999999001021MD1610061+9999MW1031
0049601400999991960031906004+34033-004983FM-12+041499999V0209991C00001220001CN0300001N9+00781+00721102101ADDGF103991001001999999001021MD1610051+9999MW1001
0057601400999991960031912004+34033-004983FM-12+041499999V0200401N00311220001CN0300001N9+02001+01221101791ADDAY101999GF100991001001999999001001MD1810091+9999MW1021
0057601400999991960031918004+34033-004983FM-12+041499999V0209991C00001220001CN0300001N9+02281+01111101521ADDAY111999GF103991001001999999001021MD1510041+9999MW1031
0049601400999991960032006004+34033-004983FM-12+041499999V0200601N00311090001CN0200001N9+01281+00781101491ADDGF105991001001999999001021MD1610051+9999MW1001
0073601400999991960032012004+34033-004983FM-12+041499999V0200601N00411090001CN0300001N9+02281+01221101251ADDAY121999GA1061+069009009GF106991001001999999001021MD1810101+9999MW1021
0049601400999991960032106004+34033-004983FM-12+041499999V0200401N00411220001CN0300001N9+01391+00781100891ADDGF102991001001999999001021MD1710071+9999MW1001
0057601400999991960032112004+34033-004983FM-12+041499999V0200401N00411090001CN0400001N9+02111+01221100641ADDAY111999GF107991021001999999041021MD1810101+9999MW1021
0057601400999991960032118004+34033-004983FM-12+041499999V0200601N00211090001CN0400001N9+02221+01221100161ADDAY121999GF106991031001999999041021MD1710131+9999MW1021
0049601400999991960032206004+34033-004983FM-12+041499999V0200601N00311036001CN0200001N9+01501+00721100211ADDGF106991051001999999081021MD1310021+9999MW1001
0057601400999991960032212004+34033-004983FM-12+041499999V0202601N00311036001CN0200001N9+02001+01281099981ADDAY121999GF106991031021004501081021MD1810161+9999MW1021
0057601400999991960032218004+34033-004983FM-12+041499999V0203201N00311004201CN0150001N9+01721+01281099981ADDAY121999GF107991051091004501091999MD1410001+9999MW1021
0049601400999991960032306004+34033-004983FM-12+041499999V0201001N00101220001CN0300001N9+01111+01001100641ADDGF104991021051017501041001MD1510011+9999MW1001
0057601400999991960032312004+34033-004983FM-12+041499999V0202801N00211007501CN0200001N9+01721+01221100701ADDAY111999GF107991071091008001999999MD1110021+9999MW1031
0057601400999991960032318004+34033-004983FM-12+041499999V0202201N00101004201CN0200001N9+01501+01221100691ADDAY181999GF107991071091004501999999MD1310021+9999MW1801
0057601400999991960032406004+34033-004983FM-12+041499999V0202601N00101006001CN0150001N9+01221+01111100981ADDAY181999GF108991081081002501999999MD1310021+9999MW1611
0057601400999991960032412004+34033-004983FM-12+041499999V0202701N00311009001CN0100001N9+01391+01221101121ADDAY161999GF108991081081004501999999MD1010041+9999MW1601
0057601400999991960032418004+34033-004983FM-12+041499999V0202801N00411009001CN0100001N9+01501+01221101181ADDAY161999GF107991071081004501999999MD1210101+9999MW1021
0057601400999991960032506004+34033-004983FM-12+041499999V0202601N00511009001CN0100001N9+01111+01001101351ADDAY181999GF108991081081004501999999MD1110051+9999MW1801
0057601400999991960032518004+34033-004983FM-12+041499999V0202701N00511015001CN0200001N9+01391+00891101401ADDAY121999GF106991051081012501001021MD1310091+9999MW1021
0057601400999991960032606004+34033-004983FM-12+041499999V0202801N00211036001CN0200001N9+01111+00781101061ADDAY161999GF106991041051022501041001MD1710171+9999MW1001
0057601400999991960032618004+34033-004983FM-12+041499999V0202801N01181004201CN0200001N9+01111+00611101001ADDAY181999GF106991061091004501001001MD1310091+9999MW1031
0057601400999991960032706004+34033-004983FM-12+041499999V0202601N00871009001CN0100001N9+00721+00611101001ADDAY181999GF108991081081004501999999MD1310031+9999MW1801
0049601400999991960032806004+34033-004983FM-12+041499999V0202601N00411220001CN0200001N9+00781+00501101231ADDGF106991031051008001001041MD1510021+9999MW1001
0057601400999991960032812004+34033-004983FM-12+041499999V0202601N00821006001CN0300001N9+01391+00611101221ADDAY121999GF106991061081000751001051MD1510001+9999MW1021
0057601400999991960032818004+34033-004983FM-12+041499999V0202601N00411004201CN0200001N9+01221+01111101351ADDAY121999GF107991071091004501999999MD1310131+9999MW1251
0076601400999991960032912004+34033-004983FM-12+041499999V0202801N00621012001CN0300001N9+01501+00891101601ADDAY111999GF106991999081008001001001MD1810031+9999MW1031EQDQ01+000052SCOTLC
0057601400999991960032918004+34033-004983FM-12+041499999V0203201N00311015001CN0300001N9+01611+00891101561ADDAY111999GF106991061081012501001001MD1310031+9999MW1031
0049601400999991960033006004+34033-004983FM-12+041499999V0201201N00311012001CN0200001N9+00891+00891101591ADDGF107991071051012501999999MD1610031+9999MW1001
0057601400999991960033012004+34033-004983FM-12+041499999V0202601N00621009001CN0100001N9+01391+01281101681ADDAY181999GF108991081081004501999999MD1210121+9999MW1801
0068601400999991960033018004+34033-004983FM-12+041499999V0202601N00411012001CN0100001N9+01281+01221101901ADDAA199002091AY181999GF108991081081008001999999MD1010111+9999MW1601
0057601400999991960033106004+34033-004983FM-12+041499999V0209991C00001036001CN0200001N9+00611+00611102261ADDAY181999GF106991031051017501041001MD1310021+9999MW1001
0057601400999991960033112004+34033-004983FM-12+041499999V0202801N00311004201CN0100001N9+01111+00891102381ADDAY181999GF108991081051004501999999MD1110081+9999MW1801
0057601400999991960033118004+34033-004983FM-12+041499999V0202801N00311220001CN0100001N9+01281+00721102221ADDAY181999GF104991041081008001001001MD1310011+9999MW1011
0049601400999991960040206004+34033-004983FM-12+041499999V0209991C00001220001CN0200001N9+00391+00391102071ADDGF100991001001999999001001MD1610011+9999MW1001
0057601400999991960040212004+34033-004983FM-12+041499999V0200401N00211220001CN0300001N9+01721+00781101771ADDAY101999GF101991011021012501001001MD1810061+9999MW1031
0057601400999991960040218004+34033-004983FM-12+041499999V0203001N00211090001CN0300001N9+01781+01001101821ADDAY111999GF106991011021012501001021MD1310121+9999MW1031
0057601400999991960040906004+34033-004983FM-12+041499999V0200801N00411036001CN0100001N9+01391+01111101051ADDAY181999GF108991041081012501021999MD1310081+9999MW1001
0057601400999991960040918004+34033-004983FM-12+041499999V0209991C00001007501CN0100001N9+01721+01501101391ADDAY181999GF108991081051008001999999MD1310081+9999MW1021
0057601400999991960041012004+34033-004983FM-12+041499999V0200801N00511220001CN0200001N9+01891+00891102101ADDAY101999GF100991001001999999001001MD1010021+9999MW1021
0113601400999991960041118004+34033-004983FM-12+041499999V0202801N00411220001CN0200001N9+02111+01611101951ADDAA199000091AY101999GA1021+006009099GA2031+009909089GF103991031031008001001001KA1999M+02391MD1510001+9999MW1021
0073601400999991960041712004+34033-004983FM-12+041499999V0203201N00101220001CN0300001N9+02281+01281101241ADDAY101999GA1011+009609089GF101991011011012501001001MD1710041+9999MW1021
0049601400999991960041806004+34033-004983FM-12+041499999V0209991C00001220001CN0020001N9+01001+01001101371ADDGF100991001001999999001001MD1510021+9999MW1101
0049601400999991960041906004+34033-004983FM-12+041499999V0200601N00621220001CN0200001N9+01111+00391101111ADDGF102991011001999999041021MD1710051+9999MW1001
0057601400999991960041918004+34033-004983FM-12+041499999V0203201N00211220001CN0300001N9+02391+01111100851ADDAY101999GF101991011021008001051001MD1310041+9999MW1011
0049601400999991960042006004+34033-004983FM-12+041499999V0202401N00101220001CN0200001N9+00781+00721101401ADDGF100991001001999999001001MD1410001+9999MW1001
0057601400999991960042012004+34033-004983FM-12+041499999V0202601N00511220001CN0200001N9+02001+01111101241ADDAY101999GF101991011021012501001001MD1810031+9999MW1021
0057601400999991960042018004+34033-004983FM-12+041499999V0202801N00511220001CN0200001N9+02001+01001101151ADDAY101999GF100991001001999999001001MD1310021+9999MW1011
0049601400999991960042106004+34033-004983FM-12+041499999V0209991C00001220001CN0200001N9+00501+00391101511ADDGF102991021001999999041001MD1510011+9999MW1001
0057601400999991960042118004+34033-004983FM-12+041499999V0203001N00311220001CN0200001N9+01891+01111101301ADDAY101999GF103991031021012501001001MD1510001+9999MW1021
0049601400999991960042206004+34033-004983FM-12+041499999V0200601N00211220001CN0200001N9+01001+00781101541ADDGF102991021051012501001001MD1610021+9999MW1001
0049601400999991960042306004+34033-004983FM-12+041499999V0200401N00311220001CN0200001N9+00891+00721101521ADDGF102991011021012501081001MD1310071+9999MW1001
0057601400999991960042318004+34033-004983FM-12+041499999V0209991C00001220001CN0200001N9+02111+00611101291ADDAY111999GF104991041021012501001001MD1510021+9999MW1011
0089601400999991960042412004+34033-004983FM-12+041499999V0200201N00311220001CN0300001N9+02001+00721101571ADDAY111999GA1021+007809089GA2011+009909099GF103991031091008001001001MD1810041+9999MW1021
0057601400999991960042418004+34033-004983FM-12+041499999V0203001N00311220001CN0300001N9+02611+00721101381ADDAY111999GF103991031091008001001001MD1510011+9999MW1021
0057601400999991960042518004+34033-004983FM-12+041499999V0203001N00311220001CN0100001N9+01891+00891101771ADDAY111999GF103991031021012501001001MD1310011+9999MW1011
0049601400999991960042706004+34033-004983FM-12+041499999V0202601N00101012001CN0100001N9+01001+00891102211ADDGF107991071051012501999999MD1610021+9999MW1001
0057601400999991960042718004+34033-004983FM-12+041499999V0203201N00101090001CN0200001N9+01891+00891101771ADDAY111999GF106991011011012501001021MD1510041+9999MW1021
0057601400999991960042818004+34033-004983FM-12+041499999V0202601N00311009001CN0100001N9+01281+01221101561ADDAY181999GF108991081081004501999999MD1310041+9999MW1801
0057601400999991960042918004+34033-004983FM-12+041499999V0200401N00101220001CN0300001N9+02001+00891101591ADDAY111999GF101991011021012501001001MD1710111+9999MW1011
0049601400999991960043006004+34033-004983FM-12+041499999V0209991C00001220001CN0300001N9+01111+00721101701ADDGF100991001001999999001001MD1610061+9999MW1001
0049601400999991960050106004+34033-004983FM-12+041499999V0202201N00101015001CN0200001N9+01111+00891101421ADDGF107991071051017501999999MD1610041+9999MW1001
0073601400999991960050112004+34033-004983FM-12+041499999V0202801N00411012001CN0100001N9+01391+00501101291ADDAY181999GA1051+012009059GF107991051051012501999999MD1810201+9999MW1011
0057601400999991960050118004+34033-004983FM-12+041499999V0203201N00311012001CN0150001N9+01721+01001101161ADDAY121999GF108991081081008001999999MD1610091+9999MW1031
0057601400999991960050206004+34033-004983FM-12+041499999V0202401N00311009001CN0100001N9+01001+00891101291ADDAY161999GF108991081081004501999999MD1310141+9999MW1801
0057601400999991960050218004+34033-004983FM-12+041499999V0202401N00411009001CN0100001N9+01221+01001101431ADDAY181999GF107991071081004501999999MD1110051+9999MW1251
0057601400999991960050312004+34033-004983FM-12+041499999V0200601N00101007501CN0100001N9+01501+01111101871ADDAY121999GF106991061021008001001001MD1010001+9999MW1021
0057601400999991960050318004+34033-004983FM-12+041499999V0203001N00211220001CN0200001N9+01891+00611101771ADDAY111999GF103991031081008001001001MD1310011+9999MW1011
0049601400999991960050406004+34033-004983FM-12+041499999V0209991C00001220001CN0300001N9+00611+00501102201ADDGF100991001001999999001001MD1510021+9999MW1001
0057601400999991960050412004+34033-004983FM-12+041499999V0203601N00211220001CN0300001N9+01891+00001102031ADDAY101999GF101991001001999999001021MD1810041+9999MW1031
0057601400999991960050418004+34033-004983FM-12+041499999V0203601N00211220001CN0300001N9+02111+00721101851ADDAY101999GF101991011021012501001021MD1710021+9999MW1011
0057601400999991960050512004+34033-004983FM-12+041499999V0200401N00511220001CN0200001N9+02221+00781101881ADDAY101999GF101991001001999999001021MD1610111+9999MW1021
0057601400999991960050518004+34033-004983FM-12+041499999V0203201N00311220001CN0200001N9+02281+01281101691ADDAY101999GF100991001001999999001001MD1510001+9999MW1011
0049601400999991960050606004+34033-004983FM-12+041499999V0202201N00101220001CN0200001N9+00891+00781102011ADDGF100991001001999999001001MD1310011+9999MW1001
0057601400999991960050612004+34033-004983FM-12+041499999V0203601N00311220001CN0200001N9+02221+01391101711ADDAY101999GF102991021021002501001001MD1710131+9999MW1031
0057601400999991960050618004+34033-004983FM-12+041499999V0203001N00211220001CN0200001N9+02281+01281101571ADDAY101999GF101991011021008001001001MD1510001+9999MW1021
0049601400999991960050706004+34033-004983FM-12+041499999V0209991C00001220001CN0200001N9+00891+00781101851ADDGF100991001001999999001001MD1610061+9999MW1001
0057601400999991960050718004+34033-004983FM-12+041499999V0203401N00211220001CN0200001N9+02721+01391101231ADDAY101999GF103991011011008001001011MD1610061+9999MW1021
0049601400999991960050806004+34033-004983FM-12+041499999V0200401N00101220001CN0300001N9+01391+01111101431ADDGF100991001001999999001001MD1610041+9999MW1001
0057601400999991960050818004+34033-004983FM-12+041499999V0200401N00101220001CN0300001N9+02891+01611100881ADDAY111999GF101991011011008001001001MD1610071+9999MW1021
0081601400999991960050906004+34033-004983FM-12+041499999V0209991C00001220001CN0060001N9+01221+01001101051ADDAA199000091AY101999GF100991001001999999001001KA1999N+01001MD1710021+9999MW1101
0073601400999991960050912004+34033-004983FM-12+041499999V0200401N00511220001CN0250001N9+03002+01781100701ADDAY101999GA1021+009909089GF102991021011008001001001MD1810131+9999MW1031
0057601400999991960050918004+34033-004983FM-12+041499999V0202801N00511220001CN0150001N9+02611+02001100751ADDAY101999GF102991001001999999001011MD1310091+9999MW1021
0057601400999991960051012004+34033-004983FM-12+041499999V0203201N00211009001CN0060001N9+01781+01501101421ADDAY151999GF108991081081004501999999MD1810031+9999MW1021
0089601400999991960051400004+34033-004983FM-12+041499999V0202601N00101036001CN0150001N9+01501+01391101671ADDAY181999GA1021+012009089GA2041+039009039GF105991021051012501081001MD1010051+9999MW1001
0057601400999991960051406004+34033-004983FM-12+041499999V0209991C00001220001CN0200001N9+01281+01221101611ADDAY121999GF105991041001999999081091MD1110021+9999MW1021
0057601400999991960051418004+34033-004983FM-12+041499999V0203201N00311007501CN0200001N9+02281+01721101391ADDAY111999GF106991051021008001081021MD1710011+9999MW1031
0073601400999991960051512004+34033-004983FM-12+041499999V0203201N00311220001CN0200001N9+02221+01501101791ADDAY111999GA1031+009909089GF103991031021012501081001MD1710051+9999MW1011
0089601400999991960051612004+34033-004983FM-12+041499999V0202601N00311009001CN0100001N9+01781+01391101571ADDAY111999GA1051+004809089GA2061+007809059GF108991081081004501999999MD1710101+9999MW1021
0089601400999991960051712004+34033-004983FM-12+041499999V0202801N00211009001CN0200001N9+01781+01001101421ADDAY121999GA1041+006009089GA2021+014709059GF106991061081004501001001MD1710141+9999MW1011
0065601400999991960051800004+34033-004983FM-12+041499999V0209991C00001007501CN0150001N9+01391+01221101521ADDGA1051+007809089GF105991051021008001001001MD1810071+9999MW1001
0057601400999991960051812004+34033-004983FM-12+041499999V0202801N00621220001CN0300001N9+02221+01001101311ADDAY111999GF104991041021012501001001MD1810101+9999MW1021
0084601400999991960051900004+34033-004983FM-12+041499999V0202801N00101220001CN0200001N9+01391+00781101891ADDGA1021+015009059GF102991021041012501999001MD1110081+9999MW1001EQDQ01    003SCOMCG
0089601400999991960051912004+34033-004983FM-12+041499999V0203001N00101090001CN0300001N9+01781+00891101881ADDAY121999GA1031+007809089GA2041+069009009GF105991031021008001001021MD1810061+9999MW1021
0049601400999991960052000004+34033-004983FM-12+041499999V0202401N00211220001CN0300001N9+01281+01001102121ADDGF100991001001999999001001MD1110071+9999MW1001
0073601400999991960052012004+34033-004983FM-12+041499999V0200201N00311220001CN0300001N9+02221+01221101721ADDAY101999GA1011+009909089GF101991011021008001001001MD1810091+9999MW1021
0065601400999991960052100004+34033-004983FM-12+041499999V0202401N00211220001CN0200001N9+01611+01281101911ADDGA1021+007809089GF102991021021008001001001MD1110101+9999MW1001
0073601400999991960052112004+34033-004983FM-12+041499999V0200201N00211220001CN0200001N9+02281+01501101691ADDAY101999GA1011+009909089GF101991011021012501001001MD1710081+9999MW1021
0049601400999991960052200004+34033-004983FM-12+041499999V0202601N00211220001CN0300001N9+01721+01391101911ADDGF100991001001999999001001MD1110111+9999MW1001
0076601400999991960052206004+34033-004983FM-12+041499999V0202801N00211220001CN0300001N9+01281+01221101901ADDAY101999GF100991001001999999001001MD1310071+9999MW1021EQDQ01+000012SCOTCV
0073601400999991960052212004+34033-004983FM-12+041499999V0203401N00211220001CN0200001N9+02501+01721101641ADDAY191999GA1011+012009089GF101991011021012501001001MD1810071+9999MW1021
0065601400999991960052300004+34033-004983FM-12+041499999V0203601N00101220001CN0200001N9+02221+01611101711ADDGA1011+033009039GF102991011001999999081021MD1010081+9999MW1001
0057601400999991960052306004+34033-004983FM-12+041499999V0209991C00001220001CN0300001N9+01391+01281101951ADDAY101999GF102991001001999999001021MD1310061+9999MW1021
0073601400999991960052312004+34033-004983FM-12+041499999V0200401N00211220001CN0300001N9+02501+01611101641ADDAY101999GA1021+060009009GF102991001001999999001021MD1810111+9999MW1021
0076601400999991960052318004+34033-004983FM-12+041499999V0203201N00211220001CN0300001N9+03111+01721101241ADDAY111999GF104991999021012501001001MD1710091+9999MW1021EQDQ01+000022SCOTLC
0065601400999991960052400004+34033-004983FM-12+041499999V0203601N00101220001CN0200001N9+02221+01611101711ADDGA1011+033009039GF101991011001999999081021MD1010081+9999MW1001
0057601400999991960052412004+34033-004983FM-12+041499999V0200901N00051220001CN0300001N9+02611+00781101731ADDAY101999GF103991011021012501001011MD1810041+9999MW1021
0084601400999991960052500004+34033-004983FM-12+041499999V0200601N00411220001CN0200001N9+02391+01001101761ADDGA1021+039009039GF103991999001999999081021MD1110101+9999MW1001EQDQ01+000002SCOTLC
0057601400999991960052518004+34033-004983FM-12+041499999V0200401N00311036001CN0200001N9+03501+01391101321ADDAY121999GF106991031091008001081021MD1210121+9999MW1131
0057601400999991960052612004+34033-004983FM-12+041499999V0200401N00411220001CN0200001N9+03281+01281101451ADDAY101999GF103991031021008001001021MD1610081+9999MW1021
0065601400999991960052700004+34033-004983FM-12+041499999V0200401N00211220001CN0200001N9+02391+01281101601ADDGA1011+039009039GF102991011001999999081021MD1810031+9999MW1001
0057601400999991960052806004+34033-004983FM-12+041499999V0202401N00101220001CN0200001N9+01611+01391101541ADDAY101999GF103991021001999999081021MD1310021+9999MW1021
0073601400999991960052812004+34033-004983FM-12+041499999V0200201N00211220001CN0200001N9+03001+01721101331ADDAY101999GA1011+012009089GF102991011021012501001021MD1710061+9999MW1031
0057601400999991960052912004+34033-004983FM-12+041499999V0200401N00211220001CN0200001N9+03001+01781101381ADDAY141999GF101991011021008001001001MD1810101+9999MW1021
0049601400999991960053000004+34033-004983FM-12+041499999V0209991C00001220001CN0150001N9+02001+01781101451ADDGF100991001001999999001001MD1010001+9999MW1001
0057601400999991960053006004+34033-004983FM-12+041499999V0209991C00001036001CN0150001N9+01611+01501101371ADDAY111999GF106991021051008001041021MD1710041+9999MW1031
0057601400999991960053012004+34033-004983FM-12+041499999V0203601N00211220001CN0200001N9+03001+01781101091ADDAY111999GF101991011021012501001001MD1710081+9999MW1021
0057601400999991960053018004+34033-004983FM-12+041499999V0202801N00211090001CN0150001N9+02891+01891100821ADDAY111999GF105991041091012501001031MD1710041+9999MW1031
0073601400999991960053112004+34033-004983FM-12+041499999V0200301N00101220001CN0150001N9+02721+01781101101ADDAY111999GA1031+007809089GF103991031021012501001001MD1810161+9999MW1011
0089601400999991960060112004+34033-004983FM-12+041499999V0200401N00981220001CN0100001N9+02781+01611100861ADDAY111999GA1011+009909089GA2031+039009039GF104991011021008001081041MD1710211+9999MW1011
0057601400999991960060206004+34033-004983FM-12+041499999V0209991C00001004201CN0100001N9+01721+01721101341ADDAY121999GF106991061071004501041001MD1310041+9999MW1021
0073601400999991960060212004+34033-004983FM-12+041499999V0202801N00211007501CN0100001N9+02221+01721101161ADDAY121999GA1071+006009089GF107991071021008001999999MD1410001+9999MW1031
0057601400999991960060218004+34033-004983FM-12+041499999V0202801N00211009001CN0200001N9+02001+01721101281ADDAY191999GF106991061081004501001001MD1710021+9999MW1021
0089601400999991960060512004+34033-004983FM-12+041499999V0202801N00211004201CN0100001N9+02111+01611101581ADDAY121999GA1051+004809089GA2051+009909059GF108991081071004501999999MD1010001+9999MW1021
0089601400999991960060912004+34033-004983FM-12+041499999V0200601N00621036001CN0200001N9+02611+01281101041ADDAY121999GA1021+012009009GA2051+045009039GF106991021021012501081021MD1710101+9999MW1011
0092601400999991960061012004+34033-004983FM-12+041499999V0200401N005119999999N0200001N9+02611+01111101231ADDAY111999GA1061+039009039GF106991999001999999081011MD1110061+9999MW1021EQDQ01+000002SCOTLC
0089601400999991960061212004+34033-004983FM-12+041499999V0202601N00101036001CN0100001N9+02221+01721102951ADDAY121999GA1031+009909089GA2051+039009039GF106991031071008001081001MD1810071+9999MW1011
0057601400999991960061312004+34033-004983FM-12+041499999V0203001N00101012001CN0100001N9+02111+01501101811ADDAY121999GF107991071081008001999999MD1810101+9999MW1011
0057601400999991960061512004+34033-004983FM-12+041499999V0200201N00211220001CN0200001N9+02501+01611102041ADDAY111999GF101991011011012501001001MD1810061+9999MW1031
0049601400999991960061606004+34033-004983FM-12+041499999V0200401N00411220001CN0300001N9+01891+01281102021ADDGF100991001001999999001001MD1610021+9999MW1001
0057601400999991960061612004+34033-004983FM-12+041499999V0200601N00721220001CN0300001N9+03111+01721101671ADDAY101999GF100991001001999999001001MD1710121+9999MW1021
0049601400999991960061706004+34033-004983FM-12+041499999V0200401N00411220001CN0300001N9+02001+01611101781ADDGF100991001001999999001001MD1310021+9999MW1001
0057601400999991960061712004+34033-004983FM-12+041499999V0200801N00311220001CN0300001N9+03221+01721101561ADDAY101999GF101991011021012501001001MD1810071+9999MW1021
0057601400999991960061718004+34033-004983FM-12+041499999V0202801N00211220001CN0300001N9+03611+01721101331ADDAY101999GF101991011021012501001001MD1510011+9999MW1021
0049601400999991960061806004+34033-004983FM-12+041499999V0200401N00101220001CN0300001N9+02001+01611101861ADDGF100991001001999999001001MD1510001+9999MW1001
0057601400999991960061812004+34033-004983FM-12+041499999V0200601N00311220001CN0300001N9+03111+01391101701ADDAY101999GF100991001001999999001001MD1810031+9999MW1021
0057601400999991960061818004+34033-004983FM-12+041499999V0203001N00101220001CN0300001N9+03611+01721101431ADDAY101999GF101991011021012501001001MD1610071+9999MW1021
0073601400999991960061912004+34033-004983FM-12+041499999V0200201N00411220001CN0300001N9+03221+01221101771ADDAY101999GA1011+069009009GF101991001001999999001021MD1810071+9999MW1021
0057601400999991960061918004+34033-004983FM-12+041499999V0200301N00211220001CN0300001N9+03611+01281101471ADDAY101999GF100991001001999999001001MD1610071+9999MW1021
0049601400999991960062006004+34033-004983FM-12+041499999V0200201N00311220001CN0300001N9+02111+00721101881ADDGF100991001001999999001001MD1610021+9999MW1001
0057601400999991960062018004+34033-004983FM-12+041499999V0200401N00311220001CN0300001N9+03611+00611101321ADDAY101999GF101991011091008001001001MD1610051+9999MW1021
0057601400999991960062112004+34033-004983FM-12+041499999V0200401N00411220001CN0300001N9+03391+00891101321ADDAY101999GF100991001001999999001001MD1710111+9999MW1021
0057601400999991960062212004+34033-004983FM-12+041499999V0200201N00211220001CN0300001N9+03281+01391101311ADDAY101999GF101991011021008001001001MD1810061+9999MW1031
0057601400999991960062218004+34033-004983FM-12+041499999V0202801N00311220001CN0300001N9+03391+01781101141ADDAY101999GF103991021091012501081001MD1510021+9999MW1021
0049601400999991960062306004+34033-004983FM-12+041499999V0202401N00101220001CN0300001N9+01781+01611101631ADDGF103991001001999999001021MD1310011+9999MW1001
0049601400999991960062406004+34033-004983FM-12+041499999V0209999900211220001CN0300001N9+01781+01611101611ADDGF104991041001999999081001MD1410001+9999MW1001
0057601400999991960062418004+34033-004983FM-12+041499999V0202801N00311220001CN0300001N9+03221+01721101091ADDAY111999GF103991011091008001081001MD1610061+9999MW1021
0049601400999991960062506004+34033-004983FM-12+041499999V0200801N00101220001CN0300001N9+01721+01501101521ADDGF100991001001999999001001MD1610011+9999MW1001
0057601400999991960062512004+34033-004983FM-12+041499999V0203401N00211220001CN0300001N9+03001+01611101251ADDAY101999GF100991001001999999001001MD1710051+9999MW1021
0049601400999991960062606004+34033-004983FM-12+041499999V0209991C00001220001CN0300001N9+01611+01281101431ADDGF100991001001999999001001MD1510041+9999MW1021
0059601400999991960062612004+34033-004983FM-12+041499999V0202601N00101220001CN0300001N9+03221+01501101111ADDAY101999GA1011+009909089GF101991011021012501001001MW1021
0057601400999991960062618004+34033-004983FM-12+041499999V0203201N00211220001CN0300001N9+03501+01391100931ADDAY101999GF101991011021012501001001MD1310011+9999MW1021
0070601400999991960062706004+34033-004983FM-12+041499999V0200601N00311004201CN0300001N9+02111+02001101461ADDGF107991071061004501999999MW1001EQDQ01+000042APCTENQ02+000012APC3  
0057601400999991960062718004+34033-004983FM-12+041499999V0202801N00311220001CN0300001N9+03281+01781101301ADDAY101999GF102991021091008001001001MD1510011+9999MW1021
0049601400999991960062806004+34033-004983FM-12+041499999V0202401N00101220001CN0060001N9+01781+01721101831ADDGF104991031061001501081001MD1410001+9999MW1001
0049601400999991960062906004+34033-004983FM-12+041499999V0202601N00101004201CN0100001N9+02001+01721101581ADDGF108991081071004501999999MD1610031+9999MW1001
0076601400999991960062912004+34033-004983FM-12+041499999V0202601N001019999999N0100001N9+02391+01781101481ADDAY121999GF105991999001999999081001MD1810081+9999MW1011EQDQ01+000002SCOTLC
0073601400999991960063012004+34033-004983FM-12+041499999V0202201N00211220001CN0100001N9+02281+01721101371ADDAY111999GA1041+006009059GF104991041051008001001001MD1810041+9999MW1011
0049601400999991960070106004+34033-004983FM-12+041499999V0209991C00001002101CN0100001N9+01781+01611101921ADDGF106991051071002501081001MD1610011+9999MW1001
0057601400999991960070112004+34033-004983FM-12+041499999V0203601N00211220001CN0100001N9+02611+01501101251ADDAY111999GF100991001001999999001001MD1810041+9999MW1011
0057601400999991960070118004+34033-004983FM-12+041499999V0202801N00311220001CN0200001N9+02891+01391101121ADDAY101999GF103991031001999999041001MD1510031+9999MW1021
0049601400999991960070206004+34033-004983FM-12+041499999V0202801N00211004201CN0100001N9+01611+01501101651ADDGF108991081051004501999999MD1310091+9999MW1001
0057601400999991960070212004+34033-004983FM-12+041499999V0202801N00101220001CN0100001N9+02221+01611101511ADDAY111999GF102991021021008001001001MD1710091+9999MW1011
0057601400999991960070218004+34033-004983FM-12+041499999V0202801N00051220001CN0200001N9+02611+01501101311ADDAY101999GF102991021021012501001001MD1510041+9999MW1031
0049601400999991960070306004+34033-004983FM-12+041499999V0203001N00621007501CN0100001N9+01721+01391101751ADDGF106991051051008001081001MD1110021+9999MW1001
0057601400999991960070312004+34033-004983FM-12+041499999V0203601N00211220001CN0300001N9+02391+01281101701ADDAY111999GF102991021021008001001001MD1810021+9999MW1011
0057601400999991960070318004+34033-004983FM-12+041499999V0203001N00311220001CN0200001N9+02611+01281101571ADDAY101999GF101991011021008001001001MD1510011+9999MW1021
0049601400999991960070406004+34033-004983FM-12+041499999V0209991C00001220001CN0200001N9+01221+01001102031ADDGF100991001001999999001001MD1310011+9999MW1001
0057601400999991960070412004+34033-004983FM-12+041499999V0200401N00211220001CN0200001N9+02501+01391101711ADDAY101999GF100991001001999999001001MD1710081+9999MW1021
0057601400999991960070512004+34033-004983FM-12+041499999V0200201N00311220001CN0300001N9+03001+01391101491ADDAY101999GF100991001001999999001001MD1710091+9999MW1021
0057601400999991960070518004+34033-004983FM-12+041499999V0203601N00101220001CN0300001N9+03611+01501101081ADDAY101999GF101991011021008001001001MD1610111+9999MW1021
0057601400999991960070612004+34033-004983FM-12+041499999V0202401N00101220001CN0200001N9+03221+01221101141ADDAY101999GF101991011021012501001001MD1610051+9999MW1031
0057601400999991960070618004+34033-004983FM-12+041499999V0203001N00211220001CN0200001N9+03391+01721100901ADDAY101999GF102991021091012501001001MD1510071+9999MW1021
0049601400999991960070706004+34033-004983FM-12+041499999V0209991C00001220001CN0200001N9+01891+01721101431ADDGF104991041081008001001001MD1310021+9999MW1001
0057601400999991960070712004+34033-004983FM-12+041499999V0202801N00211220001CN0200001N9+02891+01721101281ADDAY101999GF101991011021012501001001MD1710061+9999MW1021
0049601400999991960070806004+34033-004983FM-12+041499999V0202601N00101004201CN0100001N9+01721+01611101731ADDGF106991061061004501001001MD1210051+9999MW1001
0057601400999991960070812004+34033-004983FM-12+041499999V0203201N00311220001CN0200001N9+02611+01391101651ADDAY111999GF101991011021008001001001MD1710021+9999MW1021
0057601400999991960070818004+34033-004983FM-12+041499999V0203001N00411220001CN0200001N9+02781+01501101321ADDAY101999GF100991001001999999001001MD1610081+9999MW1021
0049601400999991960070906004+34033-004983FM-12+041499999V0209991C00001220001CN0300001N9+01221+01001101791ADDGF100991001001999999001001MD1610041+9999MW1001
0057601400999991960070918004+34033-004983FM-12+041499999V0203001N00101220001CN0300001N9+02501+01501101211ADDAY101999GF100991001001999999001001MD1610051+9999MW1021
0049601400999991960071006004+34033-004983FM-12+041499999V0200101N00101220001CN0300001N9+01501+01501101671ADDGF100991001001999999001001MD1610011+9999MW1001
0057601400999991960071012004+34033-004983FM-12+041499999V0202801N00311220001CN0300001N9+03001+01891101431ADDAY101999GF100991001001999999001001MD1810021+9999MW1021
0057601400999991960071018004+34033-004983FM-12+041499999V0202801N00311220001CN0300001N9+03221+01781101321ADDAY101999GF100991001001999999001001MD1210011+9999MW1021
0057601400999991960071112004+34033-004983FM-12+041499999V0202201N00101220001CN0300001N9+03001+01721101631ADDAY101999GF101991011001999999081001MD1710051+9999MW1011
0057601400999991960071118004+34033-004983FM-12+041499999V0202801N00311220001CN0300001N9+03281+01781101351ADDAY101999GF101991011021017501001001MD1610061+9999MW1021
0057601400999991960071212004+34033-004983FM-12+041499999V0200401N00211220001CN0300001N9+03221+01781101471ADDAY101999GF100991001001999999001001MD1810081+9999MW1021
0057601400999991960071218004+34033-004983FM-12+041499999V0203001N00101220001CN0300001N9+03611+02001101201ADDAY101999GF101991011021012501001001MD1610081+9999MW1021
0049601400999991960071306004+34033-004983FM-12+041499999V0200601N00621220001CN0200001N9+02391+01391101511ADDGF103991031001999999031001MD1610031+9999MW1001
0057601400999991960071318004+34033-004983FM-12+041499999V0203001N00211036001CN0200001N9+03721+02111101191ADDAY121999GF107991021091012501081999MD1710041+9999MW1021
0049601400999991960071406004+34033-004983FM-12+041499999V0201801N00101220001CN0200001N9+02221+01721101591ADDGF103991031001999999031001MD1510001+9999MW1001
0057601400999991960071412004+34033-004983FM-12+041499999V0202601N00101220001CN0200001N9+03391+02111101361ADDAY101999GF100991001001999999001001MD1610081+9999MW1021
0049601400999991960071506004+34033-004983FM-12+041499999V0202401N00101220001CN0300001N9+02001+01721101681ADDGF100991001001999999001001MD1310061+9999MW1001
0057601400999991960071512004+34033-004983FM-12+041499999V0202401N00211220001CN0300001N9+03111+01721101371ADDAY101999GF100991001001999999001001MD1810081+9999MW1021
0057601400999991960071712004+34033-004983FM-12+041499999V0200401N00211220001CN0300001N9+03281+01781101381ADDAY101999GF100991001001999999001001MD1610051+9999MW1021
0097601400999991960071718004+34033-004983FM-12+041499999V0203001N00101220001CN0300001N9+03721+01891101121ADDAA199000091AY101999GA1011+015009089GF101991011011017501001001KA1999M+03891MD1710041+9999MW1021
0049601400999991960071806004+34033-004983FM-12+041499999V0202401N00101220001CN0200001N9+01781+01281101001ADDGF100991001001999999001001MD1310051+9999MW1001
0089601400999991960071812004+34033-004983FM-12+041499999V0202801N00211220001CN0200001N9+03281+02001101341ADDAY101999GA1021+012009099GA2031+069009009GF104991021091012501001011MD1810111+9999MW1031
0057601400999991960071818004+34033-004983FM-12+041499999V0203001N00311012001CN0300001N9+03391+02221101201ADDAY111999GF107991051091012501081001MD1310011+9999MW1021
0049601400999991960071906004+34033-004983FM-12+041499999V0202601N00101220001CN0200001N9+01891+01891101701ADDGF100991001001999999001001MD1310071+9999MW1001
0057601400999991960071912004+34033-004983FM-12+041499999V0202201N00211220001CN0200001N9+03001+02111101551ADDAY101999GF100991001001999999001001MD1810051+9999MW1021
0049601400999991960072006004+34033-004983FM-12+041499999V0202601N00101220001CN0200001N9+01721+01391101631ADDGF103991031001999999041001MD1610041+9999MW1001
0057601400999991960072012004+34033-004983FM-12+041499999V0202801N00211220001CN0200001N9+03001+01891101471ADDAY101999GF100991001001999999001001MD1810031+9999MW1011
0057601400999991960072018004+34033-004983FM-12+041499999V0203001N00311220001CN0200001N9+03391+02001101351ADDAY101999GF102991021091008001001001MD1310021+9999MW1021
0057601400999991960072112004+34033-004983FM-12+041499999V0200401N00411220001CN0300001N9+03391+02221101521ADDAY101999GF100991001001999999001001MD1610051+9999MW1021
0049601400999991960072206004+34033-004983FM-12+041499999V0200401N00101220001CN0200001N9+02111+01891101701ADDGF102991021021012501001001MD1610021+9999MW1001
0073601400999991960072212004+34033-004983FM-12+041499999V0203401N00211220001CN0200001N9+03391+02221101441ADDAY101999GA1021+012009089GF102991021021012501001001MD1710041+9999MW1021
0057601400999991960072218004+34033-004983FM-12+041499999V0203001N00361220001CN0200001N9+03611+01891101201ADDAY101999GF102991021091012501001001MD1610071+9999MW1021
0068601400999991960072306004+34033-004983FM-12+041499999V0202201N00211220001CN0200001N9+01891+01611101741ADDGF102991999091012501001001MD1510041+9999MW1001EQDQ01+000012SCOTLC
0043601400999991960072312004+34033-004983FM-12+041499999V0200201N00211220001CN0200001N9+03111+02111101491ADDAY111999GF103991021011022501001081MW1011
0057601400999991960072318004+34033-004983FM-12+041499999V0202801N00211036001CN0200001N9+03611+02001101201ADDAY111999GF106991041091012501061001MD1610071+9999MW1021
0049601400999991960072406004+34033-004983FM-12+041499999V0200201N00621220001CN0300001N9+02391+01781101411ADDGF104991031071012501041001MD1710011+9999MW1001
0057601400999991960072412004+34033-004983FM-12+041499999V0200401N00511220001CN0200001N9+03611+02111101161ADDAY101999GF102991021001999999041001MD1810091+9999MW1021
0057601400999991960072418004+34033-004983FM-12+041499999V0201601N00311036001CN0200001N9+03611+02001101041ADDAY191999GF105991021091012501041001MD1310011+9999MW1011
0049601400999991960072506004+34033-004983FM-12+041499999V0200401N00311220001CN0200001N9+02721+01611101401ADDGF101991011001999999081001MD1610081+9999MW1001
0073601400999991960072512004+34033-004983FM-12+041499999V0200601N00311036001CN0200001N9+03611+02001101401ADDAY181999GA1031+048009059GF106991061001999999041001MD1810011+9999MW1011
0057601400999991960072518004+34033-004983FM-12+041499999V0200401N00411036001CN0200001N9+03281+02001101251ADDAY181999GF107991041091017501041999MD1210081+9999MW1011
0057601400999991960072606004+34033-004983FM-12+041499999V0202601N00211220001CN0200001N9+02221+01891101481ADDAY181999GF102991021001999999041001MD1610021+9999MW1001
0073601400999991960072612004+34033-004983FM-12+041499999V0200201N00311220001CN0200001N9+03611+02111101281ADDAY111999GA1021+009909089GF103991021021008001041001MD1810041+9999MW1011
0078601400999991960072618004+34033-004983FM-12+041499999V0202601N00311220001CN0200001N9+03391+02281101231ADDAY191999GF104991031091012501041001MW1021EQDQ01+000042APCTENQ02+000112APC3  
0057601400999991960072712004+34033-004983FM-12+041499999V0203201N00211220001CN0200001N9+03111+01891101441ADDAY111999GF101991011011017501001001MD1810061+9999MW1031
0049601400999991960072806004+34033-004983FM-12+041499999V0202401N00311220001CN0200001N9+01781+01611101451ADDGF101991011021008001001001MD1510141+9999MW1001
0057601400999991960072812004+34033-004983FM-12+041499999V0203001N00311220001CN0200001N9+02721+01781101421ADDAY101999GF102991021031008001001001MD1810061+9999MW1031
0057601400999991960072818004+34033-004983FM-12+041499999V0202601N00311220001CN0200001N9+03221+01721101091ADDAY101999GF102991021091008001001001MD1510021+9999MW1021
0068601400999991960072906004+34033-004983FM-12+041499999V0202401N00211220001CN0100001N9+01781+01611101551ADDGF101991999001999999081001MD1210041+9999MW1001EQDQ01+000002SCOTLC
0057601400999991960072918004+34033-004983FM-12+041499999V0203201N00311220001CN0200001N9+03111+01281101241ADDAY101999GF101991011021017501001001MD1110011+9999MW1021
0049601400999991960073006004+34033-004983FM-12+041499999V0202201N00101220001CN0200001N9+01501+01221101721ADDGF100991001001999999001001MD1710021+9999MW1001
0057601400999991960073012004+34033-004983FM-12+041499999V0202401N00311220001CN0200001N9+02891+01721101541ADDAY101999GF101991011021017501001001MD1010011+9999MW1031
0057601400999991960073018004+34033-004983FM-12+041499999V0202601N00411220001CN0200001N9+03111+01281101481ADDAY101999GF101991011021017501001001MD1310121+9999MW1021
0057601400999991960073112004+34033-004983FM-12+041499999V0202801N00311220001CN0200001N9+02721+01391102011ADDAY111999GF100991001001999999001001MD1810021+9999MW1021
0049601400999991960080106004+34033-004983FM-12+041499999V0201601N00101220001CN0300001N9+01281+01111102091ADDGF100991001001999999001001MD1710091+9999MW1001
0057601400999991960080112004+34033-004983FM-12+041499999V0200201N00311220001CN0300001N9+02721+01281101681ADDAY101999GF100991001001999999001001MD1710151+9999MW1021
0057601400999991960080118004+34033-004983FM-12+041499999V0202801N00411220001CN0300001N9+03281+01111101271ADDAY101999GF101991011091008001001001MD1610111+9999MW1021
0049601400999991960080206004+34033-004983FM-12+041499999V0201801N00211220001CN0300001N9+01501+01001101661ADDGF100991001001999999001001MD1510001+9999MW1001
0057601400999991960080212004+34033-004983FM-12+041499999V0200401N00411220001CN0300001N9+03282+01281101271ADDAY101999GF101991011021017501001001MD1610101+9999MW1021
0076601400999991960080218004+34033-004983FM-12+041499999V0203001N00311220001CN0300001N9+03281+01781101071ADDAY101999GF103991999021012501001001MD1610021+9999MW1021EQDQ01+000012SCOTLC
0049601400999991960080306004+34033-004983FM-12+041499999V0202401N00311220001CN0300001N9+02001+01391101531ADDGF103991031001999999031001MD1310061+9999MW1001
0073601400999991960080312004+34033-004983FM-12+041499999V0203001N00211036001CN0300001N9+03001+01781101521ADDAY111999GA1051+039009039GF105991051001999999081001MD1010001+9999MW1021
0049601400999991960080406004+34033-004983FM-12+041499999V0202401N00211220001CN0200001N9+01721+01111101661ADDGF100991001001999999001001MD1310061+9999MW1001
0057601400999991960080418004+34033-004983FM-12+041499999V0203001N00311220001CN0300001N9+02781+01281101501ADDAY101999GF101991011021017501001001MD1310011+9999MW1031
0070601400999991960080506004+34033-004983FM-12+041499999V0202401N00101220001CN0200001N9+01611+01501101961ADDGF103991031061008001001001MW1001EQDQ01+000042APCTENQ02+000052APC3  
0057601400999991960080512004+34033-004983FM-12+041499999V0203401N00261220001CN0200001N9+02721+01501101761ADDAY101999GF100991001001999999001001MD1810041+9999MW1021
0057601400999991960080518004+34033-004983FM-12+041499999V0203001N00311220001CN0200001N9+03001+01111101551ADDAY101999GF101991011021012501001001MD1510001+9999MW1021
0049601400999991960080606004+34033-004983FM-12+041499999V0202201N00101220001CN0200001N9+01611+01221101831ADDGF103991031001999999081001MD1710091+9999MW1001
0049601400999991960080706004+34033-004983FM-12+041499999V0202401N00211220001CN0200001N9+01721+01281101771ADDGF102991021001999999081001MD1510001+9999MW1001
0076601400999991960080712004+34033-004983FM-12+041499999V0202201N00311220001CN0200001N9+02891+01501101611ADDAY101999GF103991999001999999081001MD1810081+9999MW1021EQDQ01+000022SCOTLC
0057601400999991960080718004+34033-004983FM-12+041499999V0203001N00411220001CN0200001N9+03001+01501101421ADDAY101999GF101991011001999999081001MD1510031+9999MW1021
0049601400999991960080806004+34033-004983FM-12+041499999V0202401N00211220001CN0200001N9+01501+01001101851ADDGF100991001001999999001001MD1510001+9999MW1001
0057601400999991960080818004+34033-004983FM-12+041499999V0202801N00311220001CN0300001N9+03111+01111101321ADDAY101999GF103991031001999999081001MD1510051+9999MW1031
0049601400999991960080906004+34033-004983FM-12+041499999V0202601N00101220001CN0200001N9+01501+01281101681ADDGF103991031001999999081001MD1610031+9999MW1001
0073601400999991960080912004+34033-004983FM-12+041499999V0203401N00311036001CN0200001N9+02781+01001101361ADDAY111999GA1051+039009039GF105991051001999999081051MD1710081+9999MW1021
0078601400999991960080918004+34033-004983FM-12+041499999V0200801N00311036001CN0200001N9+02891+01281101201ADDAY191999GF107991011091008001081999MW1171EQDQ01+000032APCTENQ02+000002APC3  
0089601400999991960081012004+34033-004983FM-12+041499999V0203001N00211220001CN0300001N9+03001+01501101211ADDAY111999GA1011+018009089GA2031+030009039GF103991011011022501081001MD1710081+9999MW1021
0057601400999991960081018004+34033-004983FM-12+041499999V0202401N00311220001CN0300001N9+03391+01611101041ADDAY101999GF104991021021022501081001MD1310021+9999MW1031
0049601400999991960081106004+34033-004983FM-12+041499999V0209991C00001220001CN0150001N9+01891+01611101641ADDGF104991041001999999081001MD1210011+9999MW1001
0057601400999991960081112004+34033-004983FM-12+041499999V0202601N00411036001CN0150001N9+02891+01501101511ADDAY181999GF105991051001999999081001MD1810011+9999MW1021
0057601400999991960081118004+34033-004983FM-12+041499999V0203001N00511220001CN0200001N9+03001+01501101351ADDAY111999GF104991041001999999081001MD1510041+9999MW1021
0057601400999991960081212004+34033-004983FM-12+041499999V0202601N00101220001CN0200001N9+02611+01391101531ADDAY101999GF100991001001999999001001MD1810091+9999MW1011
0057601400999991960081218004+34033-004983FM-12+041499999V0203001N00311220001CN0300001N9+03111+01391101191ADDAY101999GF100991001001999999001001MD1610101+9999MW1021
0057601400999991960081312004+34033-004983FM-12+041499999V0200401N00411220001CN0200001N9+02721+01501101381ADDAY101999GF100991001001999999001001MD1810021+9999MW1021
0057601400999991960081318004+34033-004983FM-12+041499999V0203001N00311220001CN0300001N9+03111+00721101091ADDAY101999GF100991001001999999001001MD1610061+9999MW1021
0057601400999991960081412004+34033-004983FM-12+041499999V0203601N00311220001CN0200001N9+03001+01111101321ADDAY101999GF100991001001999999001001MD1810061+9999MW1021
0057601400999991960081418004+34033-004983FM-12+041499999V0202801N00411220001CN0200001N9+03281+01111101041ADDAY101999GF100991001001999999001001MD1210301+9999MW1021
0049601400999991960081506004+34033-004983FM-12+041499999V0202401N00101220001CN0200001N9+01611+01221101651ADDGF101991011001999999031001MD1310011+9999MW1001
0073601400999991960081512004+34033-004983FM-12+041499999V0203601N00211220001CN0300001N9+03221+01281101341ADDAY101999GA1021+015009099GF102991021031017501001001MD1810101+9999MW1031
0057601400999991960081518004+34033-004983FM-12+041499999V0202801N00311036001CN0200001N9+03781+01611101231ADDAY111999GF108991031091017501061999MD1210081+9999MW1031
0049601400999991960081606004+34033-004983FM-12+041499999V0202201N00311220001CN0200001N9+01891+01391101731ADDGF102991021001999999081001MD1310051+9999MW1001
0057601400999991960081618004+34033-004983FM-12+041499999V0203001N00311220001CN0300001N9+03221+01391101321ADDAY101999GF101991011021022501001001MD1510021+9999MW1021
0057601400999991960081718004+34033-004983FM-12+041499999V0203201N00311220001CN0300001N9+02891+01611101041ADDAY101999GF101991011021017501001001MD1610061+9999MW1021
0049601400999991960081906004+34033-004983FM-12+041499999V0202801N00101220001CN0300001N9+01891+01721101891ADDGF102991011061004501071001MD1610031+9999MW1001
0057601400999991960081912004+34033-004983FM-12+041499999V0202801N00211220001CN0300001N9+02721+01721101711ADDAY101999GF100991001001999999001001MD1710061+9999MW1021
0057601400999991960081918004+34033-004983FM-12+041499999V0202601N00311220001CN0300001N9+03111+01281101371ADDAY101999GF101991011021008001001001MD1710051+9999MW1021
0049601400999991960082006004+34033-004983FM-12+041499999V0202601N00211220001CN0300001N9+01611+01111101611ADDGF100991001001999999001001MD1610091+9999MW1001
0057601400999991960082012004+34033-004983FM-12+041499999V0203601N00311220001CN0300001N9+03221+01501101221ADDAY101999GF100991001001999999001001MD1810131+9999MW1021
0081601400999991960082018004+34033-004983FM-12+041499999V0200401N00311220001CN0300001N9+03721+01391100911ADDAA199000091AY101999GF100991001001999999001001KA1999M+03721MD1610071+9999MW1021
0049601400999991960082106004+34033-004983FM-12+041499999V0200401N00511220001CN0300001N9+02281+01611101311ADDGF100991001001999999001001MD1610071+9999MW1001
0073601400999991960082112004+34033-004983FM-12+041499999V0200601N00311220001CN0300001N9+03391+01611101111ADDAY101999GA1011+039009039GF101991011001999999031001MD1810041+9999MW1031
0057601400999991960082118004+34033-004983FM-12+041499999V0203201N00311220001CN0200001N9+03721+01721100951ADDAY101999GF104991041001999999081001MD1310021+9999MW1031
0049601400999991960082206004+34033-004983FM-12+041499999V0209991C00001220001CN0200001N9+02221+01781101541ADDGF101991011001999999081001MD1210051+9999MW1001
0073601400999991960082212004+34033-004983FM-12+041499999V0203601N00211220001CN0200001N9+03281+01891101451ADDAY101999GA1031+036009039GF103991031001999999081001MD1810021+9999MW1021
0049601400999991960082306004+34033-004983FM-12+041499999V0202201N00211220001CN0200001N9+02111+01781101831ADDGF103991031001999999031001MD1310061+9999MW1001
0057601400999991960082312004+34033-004983FM-12+041499999V0200401N00311220001CN0200001N9+03501+01891101721ADDAY101999GF102991011031017501031001MD1810081+9999MW1021
0057601400999991960082318004+34033-004983FM-12+041499999V0203001N00311036001CN0200001N9+03721+01891101391ADDAY111999GF105991021091017501061001MD1610011+9999MW1021
0049601400999991960082406004+34033-004983FM-12+041499999V0202001N00211220001CN0200001N9+02281+01781101751ADDGF102991021001999999081001MD1710061+9999MW1001
0073601400999991960082412004+34033-004983FM-12+041499999V0202601N00211220001CN0200001N9+03721+01891101461ADDAY101999GA1011+018009089GF102991011021017501081001MD1810081+9999MW1021
0057601400999991960082418004+34033-004983FM-12+041499999V0202601N00311220001CN0200001N9+03721+01781101331ADDAY101999GF103991031091017501061001MD1610031+9999MW1031
0049601400999991960082506004+34033-004983FM-12+041499999V0202401N00211220001CN0200001N9+01891+01391101761ADDGF102991021001999999041001MD1510021+9999MW1001
0059601400999991960082512004+34033-004983FM-12+041499999V0202801N00211220001CN9999999N9+03221+01501101431ADDGA1021+015009089GF102991021021017501001001MD1810111+9999
0057601400999991960082518004+34033-004983FM-12+041499999V0202801N00211220001CN0200001N9+03391+01611101231ADDAY101999GF103991021031017501041001MD1510001+9999MW1021
0049601400999991960082606004+34033-004983FM-12+041499999V0209991C00001220001CN0300001N9+01781+01281101441ADDGF103991031001999999081001MD1610071+9999MW1001
0057601400999991960082618004+34033-004983FM-12+041499999V0202801N00211036001CN0300001N9+03111+01611101031ADDAY111999GF106991031091017501081001MD1510011+9999MW1031
0049601400999991960082706004+34033-004983FM-12+041499999V0202601N00311036001CN0200001N9+01781+01281101441ADDGF105991051001999999081001MD1510011+9999MW1001
0089601400999991960082712004+34033-004983FM-12+041499999V0202401N00511036001CN0200001N9+02611+01391101441ADDAY121999GA1021+015009089GA2051+036009039GF107991021021017501081001MD1110041+9999MW1021
0057601400999991960082718004+34033-004983FM-12+041499999V0202401N00311036001CN0200001N9+02891+01391101361ADDAY121999GF107991021091017501081999MD1310021+9999MW1021
0073601400999991960082818004+34033-004983FM-12+041499999V0200201N00411220001CN0300001N9+03781+01111101561ADDAY111999GA1011+018009089GF101991011021017501001001MD1810041+9999MW1031
0035601400999991960082906004+34033-004983FM-12+041499999V0202201N00101220001CN0300001N9+01891+01391102051ADDGF103991031001999999999001MW1001
0073601400999991960082912004+34033-004983FM-12+041499999V0200201N00211220001CN0300001N9+03721+01001101751ADDAY101999GA1021+015009099GF102991021031017501001001MD1810011+9999MW1021
0057601400999991960082918004+34033-004983FM-12+041499999V0202601N00211036001CN0200001N9+03781+00781101591ADDAY111999GF105991031091017501061001MD1010081+9999MW1021
0073601400999991960083012004+34033-004983FM-12+041499999V0209991C00001220001CN0200001N9+03501+01281101511ADDAY101999GA1011+018009089GF101991011021022501001001MD1810131+9999MW1021
0049601400999991960090106004+34033-004983FM-12+041499999V0202401N00211007501CN0100001N9+01721+01611101711ADDGF107991071051008001999999MD1310011+9999MW1001
0057601400999991960090112004+34033-004983FM-12+041499999V0202801N00101220001CN0200001N9+02391+01721101721ADDAY111999GF100991001001999999001001MD1810021+9999MW1011
0057601400999991960090118004+34033-004983FM-12+041499999V0203201N00101220001CN0300001N9+02891+01281101451ADDAY101999GF100991001001999999001001MD1610031+9999MW1021
0049601400999991960090206004+34033-004983FM-12+041499999V0202201N00101220001CN0300001N9+01281+01001101961ADDGF100991001001999999001001MD1310031+9999MW1001
0057601400999991960090212004+34033-004983FM-12+041499999V0200401N00311220001CN0300001N9+02781+01501101661ADDAY101999GF100991001001999999001001MD1810111+9999MW1011
0057601400999991960090218004+34033-004983FM-12+041499999V0203001N00211220001CN0300001N9+03221+01001101441ADDAY101999GF100991001001999999001001MD1510201+9999MW1021
0049601400999991960090306004+34033-004983FM-12+041499999V0202201N00101220001CN0200001N9+01501+01111101921ADDGF100991001001999999001001MD1610031+9999MW1001
0073601400999991960090312004+34033-004983FM-12+041499999V0202401N00311220001CN0200001N9+02721+01721101721ADDAY101999GA1011+018009089GF101991011011017501001001MD1810011+9999MW1031
0057601400999991960090318004+34033-004983FM-12+041499999V0203001N00311220001CN0300001N9+02891+01281101441ADDAY101999GF101991011021017501001001MD1710071+9999MW1021
0049601400999991960090406004+34033-004983FM-12+041499999V0202601N00101220001CN0150001N9+01721+01611101831ADDGF103991031061008001001001MD1410001+9999MW1001
0057601400999991960090412004+34033-004983FM-12+041499999V0203601N00101220001CN0200001N9+02501+01611101631ADDAY111999GF101991011021017501001001MD1810111+9999MW1011
0057601400999991960090418004+34033-004983FM-12+041499999V0203001N00411220001CN0200001N9+02781+01111101281ADDAY101999GF101991011021017501001001MD1610051+9999MW1021
0049601400999991960090506004+34033-004983FM-12+041499999V0209991C00001007501CN0150001N9+01611+01501101661ADDGF107991071051008001999999MD1310041+9999MW1001
0073601400999991960090512004+34033-004983FM-12+041499999V0203201N00211220001CN0200001N9+02501+01111101451ADDAY111999GA1021+069009009GF102991001001999999001011MD1810061+9999MW1011
0057601400999991960090518004+34033-004983FM-12+041499999V0203001N00101220001CN0300001N9+02781+01111101201ADDAY111999GF101991011001999999081001MD1610031+9999MW1011
0049601400999991960090606004+34033-004983FM-12+041499999V0200401N00211220001CN0300001N9+01721+00891101521ADDGF100991001001999999001001MD1610031+9999MW1001
0057601400999991960090618004+34033-004983FM-12+041499999V0200401N00821220001CN0200001N9+03001+00611101261ADDAY101999GF102991001001999999001011MD1310021+9999MW1021
0049601400999991960090706004+34033-004983FM-12+041499999V0200401N00621220001CN0500001N9+01891+00781101601ADDGF100991001001999999001001MD1410001+9999MW1001
0057601400999991960090712004+34033-004983FM-12+041499999V0200601N00411220001CN0400001N9+03221+00781101461ADDAY101999GF100991001001999999001001MD1810021+9999MW1021
0081601400999991960090718004+34033-004983FM-12+041499999V0203601N00101220001CN0300001N9+03501+01111101221ADDAA199000091AY101999GF100991001001999999001001KA1999M+03721MD1510011+9999MW1021
0049601400999991960090806004+34033-004983FM-12+041499999V0200601N00411220001CN0500001N9+02111+00891101611ADDGF101991011001999999041001MD1410001+9999MW1001
0057601400999991960090812004+34033-004983FM-12+041499999V0200401N00311220001CN0400001N9+03281+00891101501ADDAY101999GF100991001001999999001001MD1210041+9999MW1021
0057601400999991960090912004+34033-004983FM-12+041499999V0200401N00511220001CN0300001N9+03391+01001101251ADDAY101999GF100991001001999999001001MD1810081+9999MW1021
0057601400999991960090918004+34033-004983FM-12+041499999V0200201N00101220001CN0300001N9+03611+01001101041ADDAY101999GF101991011001999999041001MD1510001+9999MW1021
0049601400999991960091006004+34033-004983FM-12+041499999V0200401N00621220001CN0500001N9+02221+01111101521ADDGF100991001001999999001001MD1410001+9999MW1001
0057601400999991960091012004+34033-004983FM-12+041499999V0200401N00721220001CN0300001N9+03391+01281101281ADDAY101999GF100991001001999999001001MD1810081+9999MW1021
0057601400999991960091018004+34033-004983FM-12+041499999V0200601N00511220001CN0300001N9+03501+01111101141ADDAY101999GF101991011011017501001001MD1210041+9999MW1021
0049601400999991960091106004+34033-004983FM-12+041499999V0200201N00101220001CN0300001N9+01891+01221101681ADDGF100991001001999999001001MD1610021+9999MW1001
0059601400999991960091112004+34033-004983FM-12+041499999V0200401N00411220001CN9999999N9+03391+01501101421ADDGA1021+030009039GF102991021001999999031001MD1810061+9999
0057601400999991960091118004+34033-004983FM-12+041499999V0203001N00211220001CN0300001N9+03391+01611101181ADDAY101999GF104991041001999999081001MD1610021+9999MW1031
0057601400999991960091212004+34033-004983FM-12+041499999V0200401N00511220001CN0200001N9+03281+01721101431ADDAY101999GF104991021031017501081001MD1810061+9999MW1031
0057601400999991960091218004+34033-004983FM-12+041499999V0203201N00101036001CN0200001N9+03391+02001101411ADDAY111999GF106991031091017501061001MD1210061+9999MW1021
0049601400999991960091306004+34033-004983FM-12+041499999V0200201N00101220001CN0300001N9+02281+01281101771ADDGF101991011001999999081001MD1410001+9999MW1001
0057601400999991960091312004+34033-004983FM-12+041499999V0200401N00621220001CN0300001N9+03611+01611999999ADDAY101999GF102991021091012501001001MD1810121+9999MW1031
0057601400999991960091318004+34033-004983FM-12+041499999V0200201N00211015001CN0300001N9+03281+01611101271ADDAY191999GF105991051091017501001001MD1710081+9999MW1021
0049601400999991960091406004+34033-004983FM-12+041499999V0200201N00511036001CN0400001N9+02501+01221101451ADDGF105991051001999999081001MD1510011+9999MW1001
0057601400999991960091412004+34033-004983FM-12+041499999V0200201N00311036001CN0300001N9+03611+00611101321ADDAY121999GF106991011031017501091011MD1810051+9999MW1031
0057601400999991960091418004+34033-004983FM-12+041499999V0203001N00411036001CN0300001N9+03391+01001101251ADDAY121999GF107991011031017501091999MD1610031+9999MW1021
0049601400999991960091506004+34033-004983FM-12+041499999V0202001N00211220001CN0300001N9+02001+00781101501ADDGF104991031001999999081021MD1410001+9999MW1001
0089601400999991960091512004+34033-004983FM-12+041499999V0202601N00311220001CN0300001N9+03501+01111101151ADDAY111999GA1021+015009089GA2031+039009039GF104991021021017501081021MD1810111+9999MW1021
0057601400999991960091518004+34033-004983FM-12+041499999V0202601N00211036001CN0200001N9+03501+01391101051ADDAY191999GF106991041091012501081001MD1310091+9999MW1021
0049601400999991960091606004+34033-004983FM-12+041499999V0202801N00411036001CN0200001N9+02001+01721101281ADDGF107991071001999999071001MD1310041+9999MW1001
0073601400999991960091612004+34033-004983FM-12+041499999V0202601N00821012001CN0200001N9+02391+01611101271ADDAY121999GA1061+012009089GF107991061021012501081999MD1810051+9999MW1021
0089601400999991960091706004+34033-004983FM-12+041499999V0202201N00101220001CN0200001N9+01111+00891101871ADDAA199000091GA1021+012009089GF102991021081012501001001KA1999N+01001MD1310081+9999MW1001
0057601400999991960091712004+34033-004983FM-12+041499999V0202601N00311220001CN0300001N9+02221+00501101711ADDAY101999GF100991001001999999001001MD1810081+9999MW1011
0057601400999991960091718004+34033-004983FM-12+041499999V0203001N00211220001CN0300001N9+02281+01001101521ADDAY101999GF102991001001999999001021MD1610041+9999MW1031
0073601400999991960091812004+34033-004983FM-12+041499999V0203001N00311220001CN0300001N9+02281+01111101791ADDAY111999GA1031+069009009GF103991001001999999001031MD1410001+9999MW1011
0057601400999991960091912004+34033-004983FM-12+041499999V0203401N00211220001CN0300001N9+02501+01111102001ADDAY111999GF102991001001999999001021MD1810051+9999MW1011
0049601400999991960092006004+34033-004983FM-12+041499999V0202201N00101220001CN0400001N9+01221+00891101961ADDGF100991001001999999001001MD1710091+9999MW1001
0057601400999991960092012004+34033-004983FM-12+041499999V0203601N00211220001CN0300001N9+02891+01111101681ADDAY101999GF100991001001999999001001MD1810061+9999MW1021
0049601400999991960092106004+34033-004983FM-12+041499999V0209991C00001220001CN0300001N9+01391+00781101731ADDGF100991001001999999001001MD1610041+9999MW1001
0057601400999991960092112004+34033-004983FM-12+041499999V0200201N00211220001CN0300001N9+03112+01001101371ADDAY101999GF101991011021012501081001MD1810081+9999MW1031
0057601400999991960092118004+34033-004983FM-12+041499999V0203001N00211220001CN0300001N9+03111+01281101251ADDAY101999GF102991021001999999081001MD1310051+9999MW1021
0049601400999991960092206004+34033-004983FM-12+041499999V0202201N00101220001CN0300001N9+01501+01111101751ADDGF103991031001999999081001MD1510001+9999MW1001
0073601400999991960092212004+34033-004983FM-12+041499999V0200201N00211090001CN0200001N9+02781+01281101501ADDAY111999GA1061+999999009GF106991001001999999001021MD1810081+9999MW1021
0049601400999991960092306004+34033-004983FM-12+041499999V0202201N00211220001CN0300001N9+01611+01391101901ADDGF103991031001999999081001MD1310021+9999MW1001
0073601400999991960092312004+34033-004983FM-12+041499999V0203001N00211220001CN0300001N9+03001+01221101741ADDAY101999GA1021+012009089GF102991021021012501001001MD1810081+9999MW1031
0043601400999991960092318004+34033-004983FM-12+041499999V0203001N00311220001CN0300001N9+02891+01111101541ADDAY101999GF103991021021012501001021MW1021
0049601400999991960092406004+34033-004983FM-12+041499999V0202201N00101220001CN0300001N9+01391+01001102021ADDGF102991001001999999031021MD1510001+9999MW1001
0057601400999991960092412004+34033-004983FM-12+041499999V0203401N00211220001CN0200001N9+02781+01391101871ADDAY101999GF102991021021017501001011MD1810041+9999MW1031
0057601400999991960092418004+34033-004983FM-12+041499999V0202801N00311220001CN0200001N9+02721+01611101681ADDAY101999GF103991021001999999081021MD1710011+9999MW1011
0057601400999991960092618004+34033-004983FM-12+041499999V0203001N00311220001CN0300001N9+02281+01111101791ADDAY101999GF101991011021012501041001MD1610041+9999MW1021
0049601400999991960092706004+34033-004983FM-12+041499999V0202401N00101220001CN0200001N9+01111+00891102081ADDGF103991021001999999041021MD1510031+9999MW1001
0089601400999991960092712004+34033-004983FM-12+041499999V0202801N00101090001CN0200001N9+02391+01221101851ADDAY101999GA1031+999999039GA2051+069009009GF106991031001999999051021MD1710131+9999MW1011
0057601400999991960092718004+34033-004983FM-12+041499999V0203001N00211220001CN0200001N9+01611+01221101631ADDAY101999GF102991001001999999001021MD1610031+9999MW1011
0049601400999991960092806004+34033-004983FM-12+041499999V0209991C00001036001CN0200001N9+01501+01391101741ADDGF106991051001999999051021MD1510001+9999MW1001
0073601400999991960092812004+34033-004983FM-12+041499999V0203201N00211012001CN0200001N9+02281+01281101631ADDAY111999GA1031+007809089GF105991051081008001001001MD1810101+9999MW1031
0057601400999991960092818004+34033-004983FM-12+041499999V0203001N00211220001CN0300001N9+02281+01111101441ADDAY111999GF102991021081008001001001MD1510011+9999MW1021
0049601400999991960092906004+34033-004983FM-12+041499999V0209991C00001220001CN0200001N9+01001+00891101561ADDGF103991021001999999041021MD1710101+9999MW1001
0089601400999991960092912004+34033-004983FM-12+041499999V0203201N00101090001CN0200001N9+02391+01281101151ADDAY111999GA1011+009909089GA2061+069009009GF106991011021012501001021MD1710111+9999MW1031
0057601400999991960092918004+34033-004983FM-12+041499999V0203001N00511090001CN0200001N9+02281+01111101101ADDAY121999GF105991021001999999041021MD1210061+9999MW1021
0049601400999991960093006004+34033-004983FM-12+041499999V0209991C00001220001CN0200001N9+01221+01001101581ADDGF105991021001999999041011MD1310051+9999MW1001
0089601400999991960093012004+34033-004983FM-12+041499999V0202801N00511220001CN0200001N9+02501+01111101421ADDAY111999GA1021+015009089GA2031+069009009GF104991021021017501001011MD1810031+9999MW1031
0057601400999991960093018004+34033-004983FM-12+041499999V0203001N00411220001CN0300001N9+02281+01501101331ADDAY101999GF101991011021017501041001MD1310021+9999MW1021
0073601400999991960100112004+34033-004983FM-12+041499999V0202401N00411220001CN0300001N9+02721+01281101481ADDAY101999GA1011+069009009GF101991001001999999001021MD1810071+9999MW1031
0089601400999991960100212004+34033-004983FM-12+041499999V0202801N00311220001CN0200001N9+02721+01611101721ADDAY111999GA1021+012009089GA2031+069009009GF104991021021012501041021MD1010041+9999MW1011
0073601400999991960100612004+34033-004983FM-12+041499999V0203401N00311220001CN0200001N9+02221+01391999999ADDAY111999GA1021+006009089GF104991041081008001001001MD1810081+9999MW1011
0073601400999991960101012004+34033-004983FM-12+041499999V0202601N00311220001CN0200001N9+02111+01001102131ADDAY111999GA1011+012009089GF101991011021012501041001MD1810041+9999MW1021
0073601400999991960101112004+34033-004983FM-12+041499999V0202201N00101220001CN0300001N9+02111+00781101941ADDAY101999GA1021+039009039GF102991021001999999041001MD1810091+9999MW1021
0073601400999991960101212004+34033-004983FM-12+041499999V0200201N00101220001CN0300001N9+02111+00721101771ADDAY101999GA1031+069009009GF103991001001999999001041MD1810081+9999MW1031
0073601400999991960101412004+34033-004983FM-12+041499999V0202401N00211220001CN0300001N9+02391+01281101451ADDAY101999GA1011+012009089GF104991011021012501031001MD1810031+9999MW1031
0073601400999991960101512004+34033-004983FM-12+041499999V0209991C00001004201CN0100001N9+01891+01501101631ADDAY121999GA1071+004809089GF107991071021004501999999MD1810041+9999MW1011
0094601400999991960101612004+34033-004983FM-12+041499999V0200201N00211220001CN0200001N9+02111+01221101831ADDAY101999GA1011+009909089GF101991011041022501001021MW1031EQDQ01+000062APCTENQ02+000002APC3  
0057601400999991960101712004+34033-004983FM-12+041499999V0200601N00511220001CN0300001N9+02391+01001101831ADDAY101999GF100991001001999999001001MD1710081+9999MW1021
0089601400999991960102012004+34033-004983FM-12+041499999V0202601N00621012001CN0150001N9+01891+01221101531ADDAY181999GA1051+009909089GA2031+069009009GF106991051021012501001021MD1810071+9999MW1031
0089601400999991960102212004+34033-004983FM-12+041499999V0209991C00001036001CN0060001N9+01501+01391100751ADDAY161999GA1011+001809089GA2081+024009049GF108991021011002501021999MD1710031+9999MW1631
0073601400999991960102612004+34033-004983FM-12+041499999V0209991C00001036001CN0200001N9+01781+01281101461ADDAY111999GA1031+007809089GF105991041021008001031021MD1810101+9999MW1011
0089601400999991960102712004+34033-004983FM-12+041499999V0203201N00101015001CN0300001N9+02281+01221100651ADDAY111999GA1051+015009089GA2031+039009039GF107991051021017501041001MD1810121+9999MW1031
0073601400999991960102912004+34033-004983FM-12+041499999V0202501N00311007501CN0150001N9+01721+01001102121ADDAY161999GA1051+007809089GF105991051021008001031001MD1810021+9999MW1011
0089601400999991960103012004+34033-004983FM-12+041499999V0202601N00211220001CN0400001N9+01781+01221102011ADDAY111999GA1011+030009039GA2051+069009009GF105991011001999999041011MD1810021+9999MW1011
0057601400999991960110112004+34033-004983FM-12+041499999V0200201N00101220001CN0200001N9+02391+01111101731ADDAY101999GF100991001001999999001001MD1810031+9999MW1021
0073601400999991960110212004+34033-004983FM-12+041499999V0209991C00001036001CN0200001N9+01781+01111101951ADDAY111999GA1071+030009039GF107991071001999999071999MD1810041+9999MW1021
0073601400999991960110912004+34033-004983FM-12+041499999V0200901N00151220001CN0300001N9+01721+01221101601ADDAY111999GA1031+009909089GF103991031021008001041001MD1010111+9999MW1011
0089601400999991960111112004+34033-004983FM-12+041499999V0202801N00101004201CN0030001N9+01391+01281101861ADDAY181999GA1051+003009089GA2071+024009039GF108991051071004501071999MD1010111+9999MW1631
0089601400999991960111312004+34033-004983FM-12+041499999V0203201N00101220001CN0200001N9+01721+01001102431ADDAY121999GA1031+009909089GA2051+060009009GF105991021021008001001011MD1010001+9999MW1021
0073601400999991960111812004+34033-004983FM-12+041499999V0200201N00101220001CN0300001N9+01891+00891102101ADDAY101999GA1031+069009009GF103991001001999999001021MD1810071+9999MW1031
0073601400999991960112012004+34033-004983FM-12+041499999V0200201N00101036001CN0400001N9+02111+00611101501ADDAY111999GA1071+039009039GF107991071001999999021999MD1010011+9999MW1031
0073601400999991960112112004+34033-004983FM-12+041499999V0209991C00001220001CN0300001N9+02221+00891101681ADDAY101999GA1021+069009009GF102991001001999999001021MD1810041+9999MW1011
0089601400999991960112212004+34033-004983FM-12+041499999V0202601N00411004201CN0200001N9+01611+01391102661ADDAY181999GA1021+003909089GA2051+012009059GF106991061021004501031001MD1010011+9999MW1011
0057601400999991960112712004+34033-004983FM-12+041499999V0202601N00211220001CN0200001N9+02001+01001102261ADDAY111999GF104991001001999999001021MD1810041+9999MW1021
0059601400999991960112812004+34033-004983FM-12+041499999V0202801N00411036001CN0150001N9+01391+00781102411ADDAY181999GA1041+007809089GF105991041021008001061001MW1011
0057601400999991960113012004+34033-004983FM-12+041499999V0200601N00721220001CN0300001N9+01501+00611102481ADDAY101999GF100991001001999999001001MD1810061+9999MW1021
0108601400999991960120312004+34033-004983FM-12+041499999V0200401N00211012001CN0300001N9+00891+00611102151ADDAY111999GA1021+009909089GA2051+018009059GF106991061041012501999031MD1010011+9999MW1021EQDQ01    003SCOMCG
0073601400999991960120412004+34033-004983FM-12+041499999V0200601N00511012001CN0150001N9+01111+00891102031ADDAY161999GA1081+012009059GF108991081021012501999999MD1710031+9999MW1211
0073601400999991960120712004+34033-004983FM-12+041499999V0202401N00871012001CN0200001N9+01611+01111100911ADDAY161999GA1071+010509059GF107991071041012501041071MD1710221+9999MW1021
0073601400999991960121012004+34033-004983FM-12+041499999V0202601N00511012001CN0200001N9+01391+01221102001ADDAY161999GA1061+009909059GF106991061021012501001001MD1810091+9999MW1011
0073601400999991960121112004+34033-004983FM-12+041499999V0202601N00721007501CN0100001N9+01501+01221101931ADDAY151999GA1051+007809089GF105991051021008001001001MD1810041+9999MW1011
0059601400999991960121612004+34033-004983FM-12+041499999V0202601N00211007501CN0300001N9+01781+01001101091ADDAY111999GA1051+007809089GF105991051021008001001001MW1021
0059601400999991960121912004+34033-004983FM-12+041499999V0200401N00101220001CN0200001N9+01781+00891101281ADDAY111999GA1011+007809089GF102991021051008001001001MW1031
0073601400999991960122312004+34033-004983FM-12+041499999V0202601N00311220001CN0300001N9+01111+00721102411ADDAY101999GA1011+009909089GF101991011011012501001001MD1810071+9999MW1031
0089601400999991960122412004+34033-004983FM-12+041499999V0202401N00721004201CN0100001N9+00891+00501101431ADDAY161999GA1011+003009079GA2071+007809089GF107991071021004501999999MD1810151+9999MW1801
0073601400999991960122612004+34033-004983FM-12+041499999V0202601N00211007501CN0300001N9+01111+00721102841ADDAY121999GA1061+999999059GF106991061051008001001001MD1010041+9999MW1021
0073601400999991960123012004+34033-004983FM-12+041499999V0200201N00101220001CN0200001N9+01111+00781103121ADDAY101999GA1031+007809089GF103991031011008001001001MD1810021+9999MW1031
0073601400999991960123112004+34033-004983FM-12+041499999V0209991C00001220001CN0200001N9+01111+00611102581ADDAY111999GA1031+007809089GF103991031021008001001001MD1810131+9999MW1021
