0057601400999991959010118004+34033-004983FM-12+041499999V0202801N00101007501CN0150001N9+01221+01001102151ADDAY121999GF107991071021008001999999MD1310091+9999MW1021
0057601400999991959010212004+34033-004983FM-12+041499999V0203201N00211021001CN0040001N9+01001+01001102111ADDAY161999GF108991061071022501071999MD1810021+9999MW1611
0057601400999991959010218004+34033-004983FM-12+041499999V0202201N00311036001CN0060001N9+00891+00721102121ADDAY181999GF106991021021004501071001MD1810101+9999MW1011
0057601400999991959010306004+34033-004983FM-12+041499999V0202401N00211220001CN0200001N9+00221+00221102361ADDAY101999GF100991001001999999001001MD1310011+9999MW1001
0057601400999991959010312004+34033-004983FM-12+041499999V0209991C00001220001CN0400001N9+01221+00721102301ADDAY101999GF101991011021012501001001MD1810041+9999MW1031
0057601400999991959010318004+34033-004983FM-12+041499999V0209991C00001220001CN0400001N9+01111+00781102231ADDAY101999GF101991011041012501001001MD1310061+9999MW1021
0057601400999991959010406004+34033-004983FM-12+041499999V0209991C00001220001CN0200001N9+00111+00111102551ADDAY101999GF100991001001999999001001MD1810021+9999MW1001
0057601400999991959010412004+34033-004983FM-12+041499999V0200801N00311220001CN0700001N9+01001+00501102511ADDAY101999GF100991001001999999001001MD1010001+9999MW1021
0057601400999991959010418004+34033-004983FM-12+041499999V0209991C00001220001CN0700001N9+01111+00721102361ADDAY101999GF100991001001999999001001MD1310101+9999MW1021
0057601400999991959010512004+34033-004983FM-12+041499999V0202601N00101220001CN0600001N9+01391+00501102611ADDAY101999GF102991001001999999001021MD1010051+9999MW1021
0057601400999991959010518004+34033-004983FM-12+041499999V0200601N00211090001CN0700001N9+01111+00391102591ADDAY121999GF107991001001999999001021MD1110021+9999MW1021
0049601400999991959010606004+34033-004983FM-12+041499999V0202201N00101220001CN0200001N9+00281+00281102871ADDGF100991001001999999001001MD1110041+9999MW1001
0057601400999991959010612004+34033-004983FM-12+041499999V0200201N00101090001CN0700001N9+01221+00221102801ADDAY111999GF106991001001999999001021MD1810021+9999MW1021
0057601400999991959010618004+34033-004983FM-12+041499999V0200601N00101220001CN0700001N9+01221+00501102761ADDAY111999GF101991001001999999001021MD1310081+9999MW1021
0057601400999991959010706004+34033-004983FM-12+041499999V0209991C00001220001CN0200001N9+00281+00221102951ADDAY101999GF101991001001999999001021MD1810091+9999MW1001
0057601400999991959010712004+34033-004983FM-12+041499999V0200401N00211220001CN0600001N9+01221+00281102851ADDAY111999GF103991001001999999001021MD1810011+9999MW1021
0057601400999991959010718004+34033-004983FM-12+041499999V0209991C00001220001CN0300001N9+01391+00721102631ADDAY101999GF100991001001999999001001MD1310011+9999MW1021
0057601400999991959010806004+34033-004983FM-12+041499999V0202601N00211220001CN0200001N9+00501+00391102761ADDAY101999GF100991001001999999001001MD1610081+9999MW1001
0057601400999991959010812004+34033-004983FM-12+041499999V0202401N00311090001CN0400001N9+01281+00781102631ADDAY121999GF105991031051008001001021MD1810111+9999MW1011
0057601400999991959010818004+34033-004983FM-12+041499999V0209991C00001012001CN0400001N9+01391+01111102421ADDAY121999GF107991071051012501999999MD1310011+9999MW1021
0049601400999991959010906004+34033-004983FM-12+041499999V0203001N00101220001CN0150001N9+01001+00891102391ADDGF104991041051008001001001MD1710041+9999MW1001
0057601400999991959010912004+34033-004983FM-12+041499999V0209991C00001036001CN0500001N9+01501+01111102231ADDAY111999GF106991031021004501031021MD1810031+9999MW1031
0057601400999991959010918004+34033-004983FM-12+041499999V0209991C00001036001CN0300001N9+01391+01221102041ADDAY121999GF106991031021008001031001MD1410001+9999MW1021
0049601400999991959011006004+34033-004983FM-12+041499999V0202801N00101004201CN0200001N9+01221+01111101891ADDGF107991071021004501999999MD1810081+9999MW1001
0057601400999991959011012004+34033-004983FM-12+041499999V0202801N00311012001CN0500001N9+01611+01221101791ADDAY121999GF107991061051012501031999MD1810031+9999MW1021
0081601400999991959011018004+34033-004983FM-12+041499999V0202801N00211009001CN0300001N9+01501+01221999999ADDAA199000091AY121999GF107991071081004501999999KA1999M+01611MD1810031+9999MW1021
0057601400999991959011106004+34033-004983FM-12+041499999V0209991C00001009001CN0150001N9+01221+01111101341ADDAY161999GF108991081081004501999999MD1810121+9999MW1611
0057601400999991959011112004+34033-004983FM-12+041499999V0209991C00001006001CN0200001N9+01391+01281101181ADDAY161999GF107991051081002501071999MD1810091+9999MW1021
0057601400999991959011118004+34033-004983FM-12+041499999V0202801N00211002101CN0100001N9+01281+01221100941ADDAY121999GF108991051021002501071999MD1310041+9999MW1631
0049601400999991959011206004+34033-004983FM-12+041499999V0209991C00001000601CN0040001N9+01111+01111100831ADDGF106991061051000751001001MD1810061+9999MW1001
0057601400999991959011212004+34033-004983FM-12+041499999V0202801N00051004201CN0300001N9+01281+01111101031ADDAY161999GF107991071051004501999999MD1110121+9999MW1021
0057601400999991959011218004+34033-004983FM-12+041499999V0202601N00211009001CN0300001N9+01221+01111101101ADDAY181999GF106991061081004501001001MD1310141+9999MW1011
0049601400999991959011306004+34033-004983FM-12+041499999V0209991C00001220001CN0100001N9+01001+01001101601ADDGF104991041021004501001001MD1110051+9999MW1001
0057601400999991959011312004+34033-004983FM-12+041499999V0202801N00101036001CN0200001N9+01501+01111101801ADDAY111999GF106991021021008001031021MD1010051+9999MW1011
0057601400999991959011318004+34033-004983FM-12+041499999V0209991C00001007501CN0200001N9+01391+01111101871ADDAY111999GF105991051021008001031011MD1310141+9999MW1021
0049601400999991959011406004+34033-004983FM-12+041499999V0209991C00001004201CN0150001N9+00781+00721102371ADDGF107991071051004501999999MD1210051+9999MW1001
0057601400999991959011412004+34033-004983FM-12+041499999V0200201N00101220001CN0400001N9+01281+00891102451ADDAY111999GF101991011021008001001001MD1010021+9999MW1031
0057601400999991959011418004+34033-004983FM-12+041499999V0209991C00001220001CN0500001N9+01501+01111102431ADDAY101999GF102991001001999999001021MD1310121+9999MW1011
0049601400999991959011506004+34033-004983FM-12+041499999V0202601N00101220001CN0200001N9+00721+00611102661ADDGF101991001001999999001021MD1710021+9999MW1001
0057601400999991959011512004+34033-004983FM-12+041499999V0202801N00211036001CN0100001N9+01221+01001103011ADDAY121999GF108991041071004501041999MD1210231+9999MW1021
0049601400999991959011606004+34033-004983FM-12+041499999V0202201N00101220001CN0200001N9+00501+00501102951ADDGF102991021001999999031001MD1610041+9999MW1001
0057601400999991959011612004+34033-004983FM-12+041499999V0200401N00211220001CN0050001N9+01001+00891102941ADDAY101999GF102991021061000251001001MD1010031+9999MW1031
0057601400999991959011706004+34033-004983FM-12+041499999V0209991C00001220001CN0150001N9+00111+00111102931ADDAY161999GF100991001001999999001001MD1810071+9999MW1001
0057601400999991959011712004+34033-004983FM-12+041499999V0209999900211220001CN0500001N9+00221+00111102811ADDAY111999GF101991001001999999001021MD1110011+9999MW1021
0057601400999991959011718004+34033-004983FM-12+041499999V0209991C00001220001CN0500001N9+01391+00611102581ADDAY101999GF101991001001999999001021MD1310021+9999MW1021
0049601400999991959011806004+34033-004983FM-12+041499999V0209991C00001220001CN0200001N9+00221+00111102741ADDGF100991001001999999001001MD1610051+9999MW1001
0057601400999991959011812004+34033-004983FM-12+041499999V0200401N00211090001CN0700001N9+01391+00501102581ADDAY111999GF105991001001999999001021MD1810021+9999MW1021
0057601400999991959011818004+34033-004983FM-12+041499999V0203201N00101090001CN0700001N9+01501+00781102351ADDAY121999GF105991001001999999001021MD1410001+9999MW1021
0057601400999991959011900004+34033-004983FM-12+041499999V0209991C00001220001CN0200001N9+00611+00391102491ADDAY121999GF103991001001999999001021MD1810131+9999MW1001
0057601400999991959011906004+34033-004983FM-12+041499999V0200801N00101220001CN0200001N9+00501+00281102131ADDAY101999GF102991001001999999001021MD1710161+9999MW1031
0057601400999991959011912004+34033-004983FM-12+041499999V0200601N00411090001CN0300001N9+01501+00391101871ADDAY111999GF106991001001999999001021MD1810061+9999MW1021
0057601400999991959011918004+34033-004983FM-12+041499999V0209991C00001090001CN0300001N9+01501+00721101451ADDAY121999GF107991001001999999001021MD1710061+9999MW1021
0057601400999991959012000004+34033-004983FM-12+041499999V0202301N00211090001CN0300001N9+00781+00391101591ADDAY121999GF107991001001999999001021MD1410001+9999MW1001
0057601400999991959012006004+34033-004983FM-12+041499999V0209991C00001090001CN0300001N9+00611+00221101461ADDAY121999GF105991001001999999001021MD1710111+9999MW1021
0057601400999991959012012004+34033-004983FM-12+041499999V0202801N00411036001CN0200001N9+01721+00501101351ADDAY111999GF106991051001999999041021MD1010041+9999MW1021
0057601400999991959012018004+34033-004983FM-12+041499999V0209991C00001090001CN0100001N9+01611+00001101361ADDAY111999GF107991041001999999081021MD1810101+9999MW1021
0057601400999991959012100004+34033-004983FM-12+041499999V0201601N00411090001CN0100001N9+01111+00891101751ADDAY121999GF106991041001999999081021MD1210211+9999MW1001
0057601400999991959012106004+34033-004983FM-12+041499999V0209991C00001036001CN0100001N9+01001+00891101791ADDAY181999GF108991031021008001071999MD1510001+9999MW1021
0057601400999991959012112004+34033-004983FM-12+041499999V0203201N00211012001CN0200001N9+01391+01001101901ADDAY121999GF107991061081008001041999MD1010071+9999MW1021
0057601400999991959012118004+34033-004983FM-12+041499999V0203001N00311090001CN0100001N9+01221+01001101901ADDAY121999GF105991041021004501001021MD1310121+9999MW1011
0057601400999991959012200004+34033-004983FM-12+041499999V0209991C00001220001CN0200001N9+00781+00721102201ADDAY121999GF101991011001999999041001MD1110021+9999MW1001
0057601400999991959012206004+34033-004983FM-12+041499999V0209991C00001220001CN0200001N9+00281+00281102191ADDAY101999GF100991001001999999001001MD1310011+9999MW1021
0057601400999991959012212004+34033-004983FM-12+041499999V0200601N00101220001CN0300001N9+01391+00611102141ADDAY101999GF100991001001999999001001MD1010221+9999MW1021
0057601400999991959012218004+34033-004983FM-12+041499999V0200901N00101220001CN0550001N9+01501+00781102121ADDAY101999GF103991021001999999041021MD1310141+9999MW1031
0057601400999991959012400004+34033-004983FM-12+041499999V0202201N00101220001CN0200001N9+00781+00611102141ADDAY121999GF102991001001999999001021MD1310101+9999MW1001
0057601400999991959012406004+34033-004983FM-12+041499999V0200601N00211220001CN0400001N9+01001+00391101981ADDAY101999GF100991001001999999001001MD1510021+9999MW1021
0057601400999991959012412004+34033-004983FM-12+041499999V0200601N00311220001CN0700001N9+01721+00611102001ADDAY101999GF100991001001999999001001MD1010061+9999MW1021
0057601400999991959012418004+34033-004983FM-12+041499999V0200601N00311220001CN0700001N9+02001+00891101871ADDAY101999GF102991001001999999001021MD1310031+9999MW1021
0057601400999991959012506004+34033-004983FM-12+041499999V0200601N00511220001CN0200001N9+01221+00281101921ADDAY101999GF100991001001999999001001MD1710091+9999MW1021
0057601400999991959012512004+34033-004983FM-12+041499999V0200601N00621090001CN0300001N9+01891+00501101731ADDAY121999GF105991001001999999001021MD1810051+9999MW1021
0057601400999991959012518004+34033-004983FM-12+041499999V0200801N00311036001CN0300001N9+01891+01001101591ADDAY111999GF106991051001999999081021MD1310101+9999MW1021
0057601400999991959012606004+34033-004983FM-12+041499999V0200401N00211036001CN0300001N9+01391+00721101641ADDAY121999GF107991071001999999081001MD1610061+9999MW1021
0057601400999991959012612004+34033-004983FM-12+041499999V0200401N00101036001CN0400001N9+01781+00781101781ADDAY121999GF107991071001999999081001MD1010061+9999MW1021
0057601400999991959012618004+34033-004983FM-12+041499999V0202801N00411220001CN0400001N9+01891+01111101701ADDAY111999GF102991011001999999081021MD1310131+9999MW1011
0057601400999991959012700004+34033-004983FM-12+041499999V0202401N00101220001CN0200001N9+01111+00781102001ADDAY121999GF101991011001999999081021MD1110111+9999MW1001
0057601400999991959012706004+34033-004983FM-12+041499999V0209991C00001220001CN0200001N9+00891+00781102301ADDAY101999GF100991001001999999001001MD1210031+9999MW1021
0057601400999991959012712004+34033-004983FM-12+041499999V0200801N00051220001CN0200001N9+01721+01001102361ADDAY101999GF102991001001999999001021MD1810031+9999MW1031
0049601400999991959012800004+34033-004983FM-12+041499999V0200601N00621220001CN0150001N9+01221+00891102301ADDGF103991001001999999001021MD1810091+9999MW1001
0057601400999991959012806004+34033-004983FM-12+041499999V0200601N00621220001CN0150001N9+01111+00781102151ADDAY101999GF104991001001999999001021MD1610051+9999MW1021
0057601400999991959012812004+34033-004983FM-12+041499999V0200701N00411090001CN0200001N9+01611+00781102121ADDAY111999GF106991001001999999001021MD1010051+9999MW1021
0057601400999991959012818004+34033-004983FM-12+041499999V0209991C00001090001CN0200001N9+01721+01001101971ADDAY121999GF106991001001999999001021MD1310051+9999MW1021
0057601400999991959012900004+34033-004983FM-12+041499999V0209991C00001090001CN0200001N9+00891+00721102221ADDAY121999GF106991031001999999081021MD1210031+9999MW1001
0057601400999991959012906004+34033-004983FM-12+041499999V0209991C00001036001CN0200001N9+00781+00721102201ADDAY121999GF106991061001999999081001MD1310021+9999MW1021
0057601400999991959012918004+34033-004983FM-12+041499999V0209991C00001220001CN0100001N9+01611+01111101931ADDAY111999GF104991021051008001081001MD1310081+9999MW1011
0057601400999991959013000004+34033-004983FM-12+041499999V0209991C00001220001CN0100001N9+01111+00891102201ADDAY121999GF104991031021008001081001MD1210061+9999MW1001
0057601400999991959013006004+34033-004983FM-12+041499999V0202001N00211036001CN0150001N9+00891+00891102231ADDAY111999GF105991021021017501041001MD1310041+9999MW1031
0078601400999991959013018004+34033-004983FM-12+041499999V0209991C00001012001CN0200001N9+01501+01001102011ADDAY111999GF105991051021012501001001MW1021EQDQ01+000032APCTENQ02+000002APC3  
0057601400999991959013100004+34033-004983FM-12+041499999V0209991C00001220001CN0200001N9+01111+01001102261ADDAY121999GF102991021051008001001001MD1310021+9999MW1021
0057601400999991959013118004+34033-004983FM-12+041499999V0203201N00101220001CN0500001N9+01501+00891102051ADDAY111999GF103991031021008001001001MD1310071+9999MW1011
0049601400999991959020100004+34033-004983FM-12+041499999V0202201N00101220001CN0200001N9+00721+00721102301ADDGF100991001001999999001001MD1110031+9999MW1001
0057601400999991959020106004+34033-004983FM-12+041499999V0209991C00001220001CN0200001N9+00391+00391102091ADDAY101999GF100991001001999999001001MD1610151+9999MW1021
0057601400999991959020112004+34033-004983FM-12+041499999V0200401N00211090001CN0300001N9+01281+00781101901ADDAY111999GF105991011021012501041021MD1810021+9999MW1011
0057601400999991959020118004+34033-004983FM-12+041499999V0209991C00001220001CN0300001N9+01611+01001101601ADDAY111999GF104991011021012501041021MD1310021+9999MW1021
0057601400999991959020200004+34033-004983FM-12+041499999V0202801N002119999999N0100001N9+00891+00891101861ADDAY121999GF107991071001999999041999MD1210061+9999MW1021
0057601400999991959020206004+34033-004983FM-12+041499999V0209991C00001036001CN0150001N9+01111+00891101611ADDAY121999GF107991041081008001071999MD1610121+9999MW1021
0057601400999991959020212004+34033-004983FM-12+041499999V0203201N00311004201CN0040001N9+01001+00891101731ADDAY161999GF108991051071004501071999MD1010001+9999MW1611
0057601400999991959020218004+34033-004983FM-12+041499999V0202601N00311036001CN0060001N9+00781+00721101611ADDAY161999GF108991041071004501071999MD1210071+9999MW1611
0057601400999991959020300004+34033-004983FM-12+041499999V0202801N00101036001CN0150001N9+00611+00501101611ADDAY161999GF105991021021004501071001MD1610061+9999MW1001
0057601400999991959020306004+34033-004983FM-12+041499999V0209991C00001036001CN0150001N9+00611+00501101411ADDAY111999GF106991031021004501041001MD1810091+9999MW1031
0057601400999991959020312004+34033-004983FM-12+041499999V0202801N00411012001CN0300001N9+01111+00781101311ADDAY181999GF107991061081008001071999MD1210021+9999MW1021
0057601400999991959020318004+34033-004983FM-12+041499999V0202801N00821007501CN0100001N9+01001+00781101361ADDAY121999GF108991081021008001999999MD1310161+9999MW1801
0057601400999991959020406004+34033-004983FM-12+041499999V0202801N00721002101CN0100001N9+00721+00611101851ADDAY181999GF107991071021002501999999MD1010051+9999MW1251
0057601400999991959020412004+34033-004983FM-12+041499999V0202801N00571001201CN0100001N9+01111+00721102101ADDAY161999GF107991071021001501081999MD1010001+9999MW1801
0057601400999991959020418004+34033-004983FM-12+041499999V0202801N00621002101CN0100001N9+00891+00501102121ADDAY181999GF107991071021002501999999MD1310141+9999MW1601
0057601400999991959020500004+34033-004983FM-12+041499999V0202801N00211220001CN0100001N9+00721+00721102411ADDAY161999GF104991041021008001001001MD1210121+9999MW1001
0057601400999991959020512004+34033-004983FM-12+041499999V0200601N00211015001CN0200001N9+01221+00781102451ADDAY121999GF106991051081012501041001MD1010051+9999MW1011
0057601400999991959020518004+34033-004983FM-12+041499999V0200601N00211036001CN0300001N9+01221+00501102281ADDAY121999GF107991021041004501031021MD1210021+9999MW1031
0057601400999991959020600004+34033-004983FM-12+041499999V0209991C00001220001CN0200001N9+00501+00391102411ADDAY111999GF100991001001999999001001MD1010021+9999MW1021
0057601400999991959020606004+34033-004983FM-12+041499999V0209999900411220001CN0150001N9+00611+00391102261ADDAY101999GF100991001001999999001001MD1810021+9999MW1021
0057601400999991959020618004+34033-004983FM-12+041499999V0209991C00001090001CN0300001N9+01391+00781101951ADDAY121999GF107991001001999999001021MD1210011+9999MW1021
0057601400999991959020700004+34033-004983FM-12+041499999V0200601N00411090001CN0300001N9+01111+00721102001ADDAY121999GF106991001001999999001021MD1710051+9999MW1001
0057601400999991959020706004+34033-004983FM-12+041499999V0209991C00001220001CN0300001N9+00611+00501101871ADDAY111999GF104991001001999999001021MD1510131+9999MW1021
0057601400999991959020712004+34033-004983FM-12+041499999V0202801N00101036001CN0100001N9+01001+00891102151ADDAY161999GF107991041071002501071999MD1010131+9999MW1611
0057601400999991959020718004+34033-004983FM-12+041499999V0202801N00311036001CN0100001N9+01001+00721102211ADDAY181999GF105991031021008001081001MD1110081+9999MW1011
0057601400999991959020800004+34033-004983FM-12+041499999V0202401N00101220001CN0150001N9+00501+00391102491ADDAY121999GF103991011021008001031001MD1210011+9999MW1001
0057601400999991959020806004+34033-004983FM-12+041499999V0209991C00001220001CN0200001N9+00221+00221102491ADDAY101999GF100991001001999999001001MD1510041+9999MW1021
0057601400999991959020812004+34033-004983FM-12+041499999V0203001N00101220001CN0500001N9+01281+00721102281ADDAY111999GF103991031011008001001021MD1810141+9999MW1021
0049601400999991959020900004+34033-004983FM-12+041499999V0202701N00211036001CN0150001N9+00891+00721102321ADDGF105991051001999999031001MD1210041+9999MW1001
0057601400999991959020906004+34033-004983FM-12+041499999V0202401N00101220001CN0100001N9+00721+00721102471ADDAY181999GF104991041021004501031001MD1210031+9999MW1021
0057601400999991959020912004+34033-004983FM-12+041499999V0209991C00001090001CN0200001N9+01391+00721102691ADDAY111999GF105991041021008001001021MD1010071+9999MW1021
0057601400999991959020918004+34033-004983FM-12+041499999V0200701N00411090001CN0200001N9+01281+00721102701ADDAY121999GF106991021041012501001021MD1310061+9999MW1021
0057601400999991959021006004+34033-004983FM-12+041499999V0200801N00621220001CN0300001N9+00781+00611102891ADDAY101999GF100991001001999999001001MD1510031+9999MW1021
0057601400999991959021012004+34033-004983FM-12+041499999V0200801N00821220001CN0600001N9+01501+00721102801ADDAY101999GF101991011021012501001001MD1810071+9999MW1021
0057601400999991959021106004+34033-004983FM-12+041499999V0200601N00411220001CN0300001N9+00781+00501102601ADDAY101999GF101991001001999999001021MD1710031+9999MW1021
0057601400999991959021112004+34033-004983FM-12+041499999V0200601N00311220001CN0600001N9+01391+00721102531ADDAY101999GF100991001001999999001001MD1810031+9999MW1021
0057601400999991959021118004+34033-004983FM-12+041499999V0209991C00001220001CN0600001N9+01611+00781102281ADDAY101999GF100991001001999999001001MD1310041+9999MW1021
0057601400999991959021200004+34033-004983FM-12+041499999V0209991C00001220001CN0200001N9+00721+00501102571ADDAY101999GF100991001001999999001001MD1610201+9999MW1001
0057601400999991959021206004+34033-004983FM-12+041499999V0209991C00001220001CN0200001N9+00281+00111102581ADDAY101999GF100991001001999999001001MD1610021+9999MW1021
0057601400999991959021212004+34033-004983FM-12+041499999V0200601N00211220001CN0400001N9+01391+00391102491ADDAY101999GF102991001001999999001021MD1710061+9999MW1021
0057601400999991959021218004+34033-004983FM-12+041499999V0209991C00001090001CN0400001N9+01501+00891102421ADDAY111999GF107991001001999999001061MD1310101+9999MW1021
0057601400999991959021300004+34033-004983FM-12+041499999V0209991C00001220001CN0300001N9+01001+01001102741ADDAY101999GF103991001001999999001021MD1110021+9999MW1001
0057601400999991959021306004+34033-004983FM-12+041499999V0209991C00001220001CN0300001N9+00721+00721102611ADDAY101999GF102991001001999999001021MD1510041+9999MW1021
0057601400999991959021312004+34033-004983FM-12+041499999V0200601N00211036001CN0200001N9+01391+00781102601ADDAY111999GF105991011021012501031001MD1810021+9999MW1021
0057601400999991959021318004+34033-004983FM-12+041499999V0200601N00101036001CN0200001N9+01501+00281102351ADDAY121999GF106991021031008001011051MD1610321+9999MW1031
0057601400999991959021400004+34033-004983FM-12+041499999V0200801N00621036001CN0150001N9+01001+00501102511ADDAY121999GF105991031021008001081001MD1810041+9999MW1001
0057601400999991959021406004+34033-004983FM-12+041499999V0200601N00511220001CN0200001N9+00891+00501102561ADDAY111999GF102991011021008001041001MD1310061+9999MW1011
0057601400999991959021412004+34033-004983FM-12+041499999V0200801N00821220001CN0400001N9+01501+00611102581ADDAY101999GF104991011011008001081001MD1810041+9999MW1031
0057601400999991959021418004+34033-004983FM-12+041499999V0200801N00931036001CN0400001N9+01391+00501102421ADDAY111999GF105991011021008001081001MD1210041+9999MW1021
0076601400999991959021500004+34033-004983FM-12+041499999V0200601N00721220001CN0200001N9+01111+00501102651ADDAY121999GF103991999001999999081001MD1110011+9999MW1021EQDQ01+000022SCOTLC
0057601400999991959021506004+34033-004983FM-12+041499999V0200601N00511220001CN0200001N9+00891+00501102561ADDAY101999GF102991021001999999081001MD1610011+9999MW1021
0057601400999991959021512004+34033-004983FM-12+041499999V0200801N00931090001CN0300001N9+01391+00281102521ADDAY111999GF105991011021012501041021MD1810051+9999MW1011
0057601400999991959021518004+34033-004983FM-12+041499999V0200801N01031220001CN0300001N9+01281+00111102331ADDAY111999GF104991011041012501001021MD1310051+9999MW1021
0057601400999991959021606004+34033-004983FM-12+041499999V0200801N01031036001CN0300001N9+00781+00111102561ADDAY101999GF107991041021004501041001MD1210021+9999MW1021
0057601400999991959021612004+34033-004983FM-12+041499999V0200701N00871090001CN0300001N9+01001+00281102601ADDAY121999GF107991041001999999071061MD1010001+9999MW1021
0057601400999991959021618004+34033-004983FM-12+041499999V0200701N00871015001CN0300001N9+01001+00391102531ADDAY121999GF107991051071017501061999MD1310051+9999MW1021
0057601400999991959021700004+34033-004983FM-12+041499999V0200701N00721036001CN0300001N9+00721+00281102691ADDAY121999GF107991051001999999071021MD1110031+9999MW1001
0057601400999991959021706004+34033-004983FM-12+041499999V0200801N00821090001CN0300001N9+00721+00221102541ADDAY121999GF106991041001999999071021MD1810041+9999MW1011
0057601400999991959021712004+34033-004983FM-12+041499999V0200801N00721090001CN0400001N9+01281+00281102611ADDAY121999GF107991011011012501001021MD1010031+9999MW1031
0057601400999991959021718004+34033-004983FM-12+041499999V0200601N00621090001CN0400001N9+01221+00391102551ADDAY121999GF106991011041012501001021MD1310111+9999MW1021
0057601400999991959021800004+34033-004983FM-12+041499999V0200601N00621220001CN0200001N9+00891+00501102791ADDAY121999GF104991001001999999001021MD1110011+9999MW1001
0057601400999991959021806004+34033-004983FM-12+041499999V0200601N00621220001CN0200001N9+00721+00501102811ADDAY101999GF102991001001999999001021MD1310021+9999MW1021
0057601400999991959021812004+34033-004983FM-12+041499999V0200701N00511220001CN0300001N9+01501+00391102851ADDAY101999GF100991001001999999001001MD1810011+9999MW1021
0057601400999991959021818004+34033-004983FM-12+041499999V0200701N00721220001CN0100001N9+01281+00111102701ADDAY101999GF100991001001999999001001MD1310061+9999MW1021
0057601400999991959021900004+34033-004983FM-12+041499999V0200601N00411220001CN0200001N9+00891+00391102981ADDAY101999GF100991001001999999001001MD1110081+9999MW1001
0057601400999991959021906004+34033-004983FM-12+041499999V0200601N00411220001CN0300001N9+00721+00391102981ADDAY101999GF100991001001999999001001MD1510011+9999MW1021
0057601400999991959021912004+34033-004983FM-12+041499999V0200601N00721220001CN0200001N9+01391+00281102961ADDAY101999GF100991001001999999001001MD1010011+9999MW1021
0057601400999991959021918004+34033-004983FM-12+041499999V0200801N00621220001CN0300001N9+01391-00111102651ADDAY101999GF100991001001999999001001MD1510041+9999MW1021
0057601400999991959022000004+34033-004983FM-12+041499999V0200501N00411220001CN0300001N9+01891-00611102891ADDAY101999GF100991001001999999001001MD1110021+9999MW1001
0057601400999991959022006004+34033-004983FM-12+041499999V0200601N00411220001CN0300001N9+00611+00391102871ADDAY101999GF100991001001999999001001MD1810011+9999MW1021
0057601400999991959022012004+34033-004983FM-12+041499999V0200801N00411220001CN0500001N9+01391+00221102821ADDAY101999GF100991001001999999001001MD1810081+9999MW1021
0057601400999991959022018004+34033-004983FM-12+041499999V0200801N00511220001CN0450001N9+01501+00111102561ADDAY101999GF100991001001999999001001MD1310041+9999MW1021
0057601400999991959022100004+34033-004983FM-12+041499999V0200601N00211220001CN0200001N9+00781+00111102811ADDAY101999GF100991001001999999001001MD1110051+9999MW1001
0057601400999991959022106004+34033-004983FM-12+041499999V0209991C00001220001CN0200001N9+00111-00111102881ADDAY101999GF100991001001999999001001MD1410001+9999MW1021
0043601400999991959022112004+34033-004983FM-12+041499999V0209991C00001220001CN0400001N9+01391+00221102701ADDAY101999GF100991001001999999001001MW1021
0057601400999991959022118004+34033-004983FM-12+041499999V0209991C00001220001CN0400001N9+01611+00501102421ADDAY101999GF101991011011012501001001MD1510001+9999MW1021
0057601400999991959022200004+34033-004983FM-12+041499999V0202801N00101220001CN0400001N9+00721+00281102751ADDAY101999GF100991001001999999001001MD1110041+9999MW1021
0057601400999991959022206004+34033-004983FM-12+041499999V0209991C00001220001CN0400001N9+00221-00111102781ADDAY101999GF100991001001999999001001MD1510001+9999MW1021
0057601400999991959022212004+34033-004983FM-12+041499999V0200601N00101220001CN0400001N9+01281+00111102671ADDAY101999GF101991011021012501001001MD1010001+9999MW1021
0057601400999991959022218004+34033-004983FM-12+041499999V0203201N00101220001CN0400001N9+01611+00501102311ADDAY101999GF101991011021012501001001MD1510011+9999MW1021
0057601400999991959022300004+34033-004983FM-12+041499999V0202401N00101220001CN0200001N9+00501+00281102611ADDAY121999GF100991001001999999001001MD1810011+9999MW1001
0057601400999991959022306004+34033-004983FM-12+041499999V0209991C00001220001CN0400001N9+00281+00111102501ADDAY101999GF101991001001999999001021MD1610081+9999MW1011
0057601400999991959022312004+34033-004983FM-12+041499999V0200801N00311090001CN0300001N9+01281+00281102231ADDAY111999GF107991001001999999001061MD1810031+9999MW1031
0057601400999991959022318004+34033-004983FM-12+041499999V0209991C00001090001CN0400001N9+01391+00611102101ADDAY121999GF107991001001999999001081MD1510011+9999MW1011
0057601400999991959022400004+34033-004983FM-12+041499999V0202401N00101090001CN0200001N9+00611+00281102371ADDAY121999GF105991031001999999081021MD1110041+9999MW1001
0057601400999991959022406004+34033-004983FM-12+041499999V0202601N00101090001CN0200001N9+00281+00111102331ADDAY121999GF106991031001999999081021MD1510001+9999MW1021
0057601400999991959022412004+34033-004983FM-12+041499999V0202801N00101036001CN0300001N9+01221+00781102241ADDAY121999GF107991021021008001081061MD1810011+9999MW1031
0057601400999991959022418004+34033-004983FM-12+041499999V0202801N00101036001CN0300001N9+01221+00781102241ADDAY121999GF107991021021008001081061MD1810011+9999MW1031
0057601400999991959022500004+34033-004983FM-12+041499999V0202701N00311007501CN0200001N9+02001+01001102171ADDAY181999GF107991071021008001999999MD1110071+9999MW1801
0057601400999991959022506004+34033-004983FM-12+041499999V0203001N00101007501CN0200001N9+00721+00611102091ADDAY181999GF107991071021008001041999MD1610061+9999MW1031
0057601400999991959022512004+34033-004983FM-12+041499999V0203401N00101036001CN0200001N9+01281+00891102191ADDAY121999GF106991041021008001031001MD1010041+9999MW1031
0057601400999991959022518004+34033-004983FM-12+041499999V0202801N00511036001CN0200001N9+01111+00721102151ADDAY181999GF105991031021008001031031MD1210121+9999MW1011
0057601400999991959022600004+34033-004983FM-12+041499999V0209991C00001220001CN0150001N9+00781+00721102521ADDAY121999GF104991041021008001001001MD1110061+9999MW1001
0081601400999991959022606004+34033-004983FM-12+041499999V0209991C00001036001CN0100001N9+00781+00721102421ADDAA199000091AY111999GF106991011021008001031001KA1999N+00611MD1510051+9999MW1031
0057601400999991959022612004+34033-004983FM-12+041499999V0203401N00101007501CN0200001N9+01111+00721102411ADDAY121999GF108991051021008001081999MD1010001+9999MW1021
0057601400999991959022618004+34033-004983FM-12+041499999V0200601N00101036001CN0200001N9+01281+00721102261ADDAY121999GF107991041021008001081999MD1510001+9999MW1021
0057601400999991959022700004+34033-004983FM-12+041499999V0200801N00101007501CN0150001N9+00891+00721102481ADDAY121999GF107991061051008001081999MD1810031+9999MW1001
0057601400999991959022706004+34033-004983FM-12+041499999V0200801N00101220001CN0150001N9+00721+00501102361ADDAY111999GF104991031021008001081001MD1510031+9999MW1011
0057601400999991959022712004+34033-004983FM-12+041499999V0200601N00311220001CN0200001N9+01221+00781102341ADDAY181999GF103991031091008001081031MD1810051+9999MW1011
0057601400999991959022718004+34033-004983FM-12+041499999V0202601N00311036001CN0200001N9+01001+00891102291ADDAY111999GF105991021021008001081001MD1310131+9999MW1031
0057601400999991959022800004+34033-004983FM-12+041499999V0202501N00101220001CN0300001N9+00781+00611102591ADDAY121999GF100991001001999999001001MD1010001+9999MW1001
0057601400999991959022806004+34033-004983FM-12+041499999V0209991C00001220001CN0300001N9+00391+00281102531ADDAY101999GF100991001001999999001001MD1510021+9999MW1021
0057601400999991959022812004+34033-004983FM-12+041499999V0200601N00211220001CN0500001N9+01501+00611102381ADDAY111999GF105991011021012501001061MD1810011+9999MW1021
0057601400999991959030106004+34033-004983FM-12+041499999V0209991C00001220001CN0200001N9+00721+00721102261ADDAY101999GF104991011001999999081021MD1610131+9999MW1021
0057601400999991959030112004+34033-004983FM-12+041499999V0201801N00411036001CN0400001N9+01501+00891102161ADDAY111999GF107991011011012501081021MD1010071+9999MW1021
0057601400999991959030118004+34033-004983FM-12+041499999V0202801N00311036001CN0200001N9+01501+00891102131ADDAY121999GF106991041021004501081001MD1310051+9999MW1011
0057601400999991959030206004+34033-004983FM-12+041499999V0209991C00001220001CN0200001N9+00501+00391102221ADDAY101999GF101991011021008001001001MD1710041+9999MW1011
0057601400999991959030212004+34033-004983FM-12+041499999V0200501N00311220001CN0400001N9+01611+01001101821ADDAY101999GF104991011011012501041021MD1810161+9999MW1021
0057601400999991959030218004+34033-004983FM-12+041499999V0209991C00001036001CN0400001N9+01891+01221101531ADDAY121999GF107991061001999999071021MD1310041+9999MW1021
0049601400999991959030306004+34033-004983FM-12+041499999V0200601N00311220001CN0200001N9+01111+00891101451ADDGF102991011001999999041021MD1610121+9999MW1001
0057601400999991959030312004+34033-004983FM-12+041499999V0200501N00211090001CN0400001N9+01891+01111101421ADDAY111999GF106991011001999999041021MD1110041+9999MW1021
0057601400999991959030318004+34033-004983FM-12+041499999V0209991C00001090001CN0400001N9+02221+01221101311ADDAY111999GF106991011001999999031021MD1310091+9999MW1011
0049601400999991959030406004+34033-004983FM-12+041499999V0202601N00101090001CN0200001N9+00781+00781101831ADDGF106991001001999999001021MD1410001+9999MW1001
0057601400999991959030412004+34033-004983FM-12+041499999V0209991C00001090001CN0200001N9+01721+01221101811ADDAY121999GF106991011021008001001021MD1010001+9999MW1021
0076601400999991959030418004+34033-004983FM-12+041499999V0209991C00001090001CN0200001N9+01221+99999101421ADDAY121999GF106991001001999999001021MD1610041+9999MW1021EQDQ01+028702ATOD  
0049601400999991959030506004+34033-004983FM-12+041499999V0209991C00001220001CN0200001N9+00781+00721101571ADDGF102991011001999999041021MD1610041+9999MW1001
0057601400999991959030512004+34033-004983FM-12+041499999V0200601N00211036001CN0300001N9+01611+00891101411ADDAY111999GF108991021051012501071999MD1810041+9999MW1031
0057601400999991959030518004+34033-004983FM-12+041499999V0202601N00311036001CN0150001N9+01781+01281101061ADDAY121999GF108991041051012501071999MD1810051+9999MW1021
0089601400999991959030606004+34033-004983FM-12+041499999V0200401N00211036001CN0200001N9+01391+01001100461ADDAA199000391GA1051+030009039GF105991051001999999071001KA1999N+01221MD1710121+9999MW1001
0043601400999991959030612004+34033-004983FM-12+041499999V0202801N00411007501CN0200001N9+01391+00891100871ADDAY121999GF107991071021008001999999MW1021
0057601400999991959030618004+34033-004983FM-12+041499999V0203101N00101002101CN0200001N9+01391+01221101021ADDAY161999GF108991071021002501071999MD1310121+9999MW1601
0035601400999991959030706004+34033-004983FM-12+041499999V0202801N00311000601CN0100001N9+01001+00781101691ADDGF107991071021000751081999MW1021
0057601400999991959030712004+34033-004983FM-12+041499999V0202801N00101036001CN0150001N9+01281+00891101951ADDAY151999GF108991041081002501071999MD1010051+9999MW1021
0057601400999991959030718004+34033-004983FM-12+041499999V0202201N00101007501CN0150001N9+01221+01001101771ADDAY121999GF108991081051008001999999MD1510021+9999MW1021
0049601400999991959030806004+34033-004983FM-12+041499999V0202401N00101007501CN0200001N9+00891+00781101361ADDGF107991071021008001001001MD1510051+9999MW1001
0057601400999991959030812004+34033-004983FM-12+041499999V0200601N00101090001CN0400001N9+01501+00891100761ADDAY111999GF106991011021008001001021MD1710281+9999MW1031
0057601400999991959030818004+34033-004983FM-12+041499999V0202801N00101036001CN0200001N9+01501+01221100451ADDAY121999GF107991041021008001051999MD1610111+9999MW1021
0049601400999991959030906004+34033-004983FM-12+041499999V0202601N01231004201CN0200001N9+00781+00501100981ADDGF106991061021004501001001MD1510011+9999MW1001
0057601400999991959030912004+34033-004983FM-12+041499999V0202701N01081002101CN0200001N9+01891+00611101241ADDAY181999GF107991051091002501071999MD1110111+9999MW1011
0057601400999991959030918004+34033-004983FM-12+041499999V0202801N00621001201CN0100001N9+00891+00721101551ADDAY181999GF107991071091001501081999MD1210221+9999MW1801
0049601400999991959031006004+34033-004983FM-12+041499999V0202801N00721007501CN0200001N9+01111+00891102331ADDGF106991061021008001001001MD1210191+9999MW1001
0057601400999991959031012004+34033-004983FM-12+041499999V0202801N00411007501CN0200001N9+01501+01111102511ADDAY121999GF108991081021008001999999MD1110051+9999MW1021
0057601400999991959031018004+34033-004983FM-12+041499999V0202801N00211009001CN0200001N9+01611+01281102591ADDAY181999GF107991071081004501999999MD1310071+9999MW1021
0057601400999991959031106004+34033-004983FM-12+041499999V0209991C00001001201CN0100001N9+01221+01221102641ADDAY101999GF108991061021001501071999MD1610041+9999MW1611
0057601400999991959031112004+34033-004983FM-12+041499999V0203201N00411220001CN0200001N9+01721+01221102601ADDAY161999GF104991041021008001001001MD1010001+9999MW1011
0057601400999991959031118004+34033-004983FM-12+041499999V0203201N00411012001CN0200001N9+01721+01281102441ADDAY111999GF106991051081008001001021MD1310011+9999MW1021
0049601400999991959031206004+34033-004983FM-12+041499999V0202701N00211007501CN0200001N9+01111+01001102781ADDGF105991051051008001001001MD1310051+9999MW1001
0057601400999991959031212004+34033-004983FM-12+041499999V0203201N00411009001CN0200001N9+01391+01001102821ADDAY111999GF106991061081004501001001MD1410001+9999MW1021
0057601400999991959031218004+34033-004983FM-12+041499999V0203201N00311220001CN0200001N9+01391+00781102651ADDAY111999GF102991021011008001001001MD1810011+9999MW1011
0049601400999991959031306004+34033-004983FM-12+041499999V0209991C00001220001CN0400001N9+00501+00391102761ADDGF101991011001999999031001MD1710051+9999MW1001
0057601400999991959031318004+34033-004983FM-12+041499999V0209991C00001220001CN0500001N9+01501+00891102191ADDAY101999GF101991001001999999001021MD1710101+9999MW1021
0049601400999991959031406004+34033-004983FM-12+041499999V0209991C00001220001CN0500001N9+00721+00281101841ADDGF100991001001999999001001MD1810021+9999MW1001
0057601400999991959031412004+34033-004983FM-12+041499999V0200701N00621220001CN0500001N9+01781+00781101651ADDAY101999GF102991001001999999001011MD1710241+9999MW1021
0057601400999991959031418004+34033-004983FM-12+041499999V0200801N00511220001CN0500001N9+01891+00781101301ADDAY101999GF104991001001999999001041MD1510051+9999MW1031
0049601400999991959031506004+34033-004983FM-12+041499999V0200601N00621220001CN0300001N9+01111+00391101451ADDGF102991001001999999001021MD1310011+9999MW1001
0057601400999991959031512004+34033-004983FM-12+041499999V0200601N00721090001CN0300001N9+01891+00781101181ADDAY111999GF106991001001999999001021MD1810151+9999MW1021
0057601400999991959031518004+34033-004983FM-12+041499999V0200701N00311220001CN0400001N9+01891+00891101011ADDAY111999GF103991001001999999001021MD1310011+9999MW1011
0049601400999991959031606004+34033-004983FM-12+041499999V0209991C00001220001CN0300001N9+01001+00781101131ADDGF103991001001999999001021MD1510061+9999MW1001
0073601400999991959031612004+34033-004983FM-12+041499999V0209991C00001220001CN0100001N9+01721+01111100841ADDAY101999GA1031+039009039GF103991031001999999081021MD1810191+9999MW1021
0057601400999991959031618004+34033-004983FM-12+041499999V0203001N00311220001CN0100001N9+01781+01111100641ADDAY101999GF104991031021012501081001MD1310041+9999MW1021
0049601400999991959031706004+34033-004983FM-12+041499999V0202801N00211220001CN0200001N9+01111+00781100811ADDGF102991021051008001001001MD1610041+9999MW1001
0057601400999991959031712004+34033-004983FM-12+041499999V0202801N00621036001CN0300001N9+01611+00721100731ADDAY111999GF106991031021008001041031MD1810041+9999MW1021
0057601400999991959031718004+34033-004983FM-12+041499999V0202801N00621007501CN0200001N9+01391+01111101041ADDAY121999GF105991051021008001081001MD1210221+9999MW1021
0049601400999991959031806004+34033-004983FM-12+041499999V0209991C00001007501CN0200001N9+01111+01001101271ADDGF106991061051008001001001MD1310011+9999MW1001
0057601400999991959031812004+34033-004983FM-12+041499999V0200601N00311090001CN0200001N9+01611+01221101301ADDAY111999GF105991041021008001001051MD1810011+9999MW1011
0057601400999991959031818004+34033-004983FM-12+041499999V0200601N00101036001CN0200001N9+01721+01221101131ADDAY121999GF106991021021008001071021MD1310021+9999MW1021
0049601400999991959031906004+34033-004983FM-12+041499999V0201801N00101220001CN0300001N9+00891+00721101301ADDGF101991011001999999041001MD1310061+9999MW1001
0057601400999991959031912004+34033-004983FM-12+041499999V0200601N00211220001CN0400001N9+01781+01111101211ADDAY101999GF101991001001999999001021MD1110011+9999MW1021
0057601400999991959031918004+34033-004983FM-12+041499999V0200401N00211220001CN0400001N9+02001+01391100991ADDAY101999GF101991011021012501001001MD1610081+9999MW1021
0049601400999991959032006004+34033-004983FM-12+041499999V0200801N00411220001CN0300001N9+01111+01001101771ADDGF103991001001999999001021MD1410001+9999MW1001
0057601400999991959032012004+34033-004983FM-12+041499999V0202801N00211002101CN0100001N9+01501+01111101221ADDAY121999GF108991061021002501021999MD1210121+9999MW1021
0057601400999991959032018004+34033-004983FM-12+041499999V0202401N00211007501CN0100001N9+01391+01111101251ADDAY111999GF106991051021008001021001MD1210031+9999MW1011
0049601400999991959032106004+34033-004983FM-12+041499999V0202801N00211220001CN0150001N9+00891+00891101901ADDGF102991021051008001001001MD1310121+9999MW1001
0057601400999991959032112004+34033-004983FM-12+041499999V0203001N00101012001CN0300001N9+01611+00891102191ADDAY111999GF106991061021012501001001MD1110141+9999MW1031
0057601400999991959032118004+34033-004983FM-12+041499999V0203201N00101036001CN0400001N9+01721+01111102271ADDAY121999GF106991041041012501041001MD1210141+9999MW1021
0049601400999991959032206004+34033-004983FM-12+041499999V0209991C00001220001CN0500001N9+00721+00721102691ADDGF101991001001999999001021MD1310031+9999MW1001
0057601400999991959032212004+34033-004983FM-12+041499999V0200401N00311220001CN0400001N9+01781+01111102501ADDAY141999GF101991001001999999001021MD1810081+9999MW1021
0057601400999991959032218004+34033-004983FM-12+041499999V0209991C00001220001CN0400001N9+02111+01001102151ADDAY101999GF101991011011008001001001MD1510081+9999MW1021
0164601400999991959032306004+34033-004983FM-12+041499999V0202801N00101090001CN0200001N9+01001+01001102431ADDAA199000091AY101999GA1071+006009059GA2021+030009039GA3061+069009009GF107991021999999999041021KA1999N+01001MD1310051+9999MW1001EQDQ01+000002SCOLCGQ02+000992SCOLCB
0057601400999991959032312004+34033-004983FM-12+041499999V0200401N00101036001CN0300001N9+01891+01391102401ADDAY111999GF106991031021004501031021MD1710011+9999MW1021
0057601400999991959032318004+34033-004983FM-12+041499999V0203201N00211036001CN0200001N9+01781+01281102301ADDAY121999GF106991041021008001081001MD1510001+9999MW1021
0057601400999991959032412004+34033-004983FM-12+041499999V0202701N00101007501CN0100001N9+01391+01001102861ADDAY121999GF108991061021008001071999MD1110031+9999MW1021
0057601400999991959032418004+34033-004983FM-12+041499999V0203201N00211007501CN0100001N9+01611+01001102701ADDAY121999GF106991051021008001031001MD1310011+9999MW1011
0049601400999991959032506004+34033-004983FM-12+041499999V0209991C00001220001CN0150001N9+00611+00501102961ADDGF104991021051012501001021MD1510071+9999MW1001
0057601400999991959032512004+34033-004983FM-12+041499999V0209991C00001220001CN0200001N9+01721+00781102571ADDAY101999GF103991021021008001001021MD1810101+9999MW1021
0057601400999991959032518004+34033-004983FM-12+041499999V0203201N00211036001CN0300001N9+01501+00721102511ADDAY121999GF107991011021008001081021MD1310011+9999MW1021
0049601400999991959032606004+34033-004983FM-12+041499999V0209991C00001007501CN0200001N9+01111+00891102491ADDGF106991061051008001001001MD1610021+9999MW1001
0057601400999991959032612004+34033-004983FM-12+041499999V0203001N00211007501CN0200001N9+01611+01001102491ADDAY151999GF107991061021008001071999MD1810011+9999MW1031
0057601400999991959032618004+34033-004983FM-12+041499999V0209991C00001007501CN0200001N9+01611+01221102331ADDAY121999GF106991061021008001001001MD1610041+9999MW1021
0049601400999991959032706004+34033-004983FM-12+041499999V0209991C00001012001CN0200001N9+01111+01001102421ADDGF107991071051012501999999MD1710041+9999MW1001
0057601400999991959032712004+34033-004983FM-12+041499999V0209991C00001007501CN0300001N9+01611+01001102441ADDAY121999GF105991051021008001001001MD1810041+9999MW1021
0057601400999991959032718004+34033-004983FM-12+041499999V0203401N00101090001CN0400001N9+01781+01001102221ADDAY111999GF107991011041012501001021MD1510001+9999MW1031
0049601400999991959032806004+34033-004983FM-12+041499999V0202401N00101220001CN0400001N9+00721+00611102521ADDGF101991001001999999001021MD1310021+9999MW1001
0057601400999991959032812004+34033-004983FM-12+041499999V0209991C00001090001CN0200001N9+01611+01221102451ADDAY111999GF106991041021004501001021MD1810041+9999MW1021
0057601400999991959032818004+34033-004983FM-12+041499999V0203201N00311012001CN0300001N9+01781+01281102261ADDAY111999GF106991051081008001001021MD1310011+9999MW1031
0049601400999991959032906004+34033-004983FM-12+041499999V0209991C00001012001CN0200001N9+01111+00891102511ADDGF107991071051012501999999MD1510041+9999MW1001
0057601400999991959032912004+34033-004983FM-12+041499999V0203201N00101012001CN0200001N9+01611+00891102521ADDAY121999GF105991051051012501001001MD1010001+9999MW1021
0057601400999991959032918004+34033-004983FM-12+041499999V0203201N00211220001CN0400001N9+01781+00891102241ADDAY111999GF101991011021012501001001MD1510061+9999MW1021
0049601400999991959033006004+34033-004983FM-12+041499999V0202601N00211220001CN0200001N9+00891+00781102651ADDGF103991031051008001001001MD1310051+9999MW1001
0057601400999991959033012004+34033-004983FM-12+041499999V0203201N00211220001CN0300001N9+01781+01001102491ADDAY101999GF103991031021012501001001MD1710081+9999MW1031
0057601400999991959033018004+34033-004983FM-12+041499999V0203201N00211220001CN0400001N9+01721+00891102251ADDAY101999GF104991011041012501001021MD1510061+9999MW1021
0049601400999991959033106004+34033-004983FM-12+041499999V0202401N00101007501CN0150001N9+01001+00891102381ADDGF108991081051008001999999MD1310021+9999MW1001
0057601400999991959033112004+34033-004983FM-12+041499999V0203201N00211220001CN0200001N9+01501+00721102261ADDAY111999GF103991031021012501001001MD1810081+9999MW1011
0057601400999991959033118004+34033-004983FM-12+041499999V0200401N00211220001CN0300001N9+01721+01001101981ADDAY101999GF101991001001999999001021MD1510031+9999MW1021
0049601400999991959040106004+34033-004983FM-12+041499999V0200601N00101220001CN0500001N9+00891+00781101981ADDGF100991001001999999001001MD1710121+9999MW1001
0057601400999991959040112004+34033-004983FM-12+041499999V0200401N00511220001CN0400001N9+02221+00721101671ADDAY101999GF100991001001999999001001MD1810091+9999MW1021
0057601400999991959040118004+34033-004983FM-12+041499999V0200601N00411220001CN0400001N9+02221+00611101551ADDAY101999GF100991001001999999001001MD1310041+9999MW1021
0049601400999991959040206004+34033-004983FM-12+041499999V0200601N00511220001CN0600001N9+01111+00501101751ADDGF100991001001999999001001MD1710051+9999MW1001
0057601400999991959040212004+34033-004983FM-12+041499999V0200601N00721220001CN0500001N9+02221+00611101621ADDAY101999GF100991001001999999001001MD1810051+9999MW1021
0057601400999991959040218004+34033-004983FM-12+041499999V0200801N00211220001CN0500001N9+02221+00721101421ADDAY101999GF100991001001999999001001MD1510031+9999MW1021
0049601400999991959040306004+34033-004983FM-12+041499999V0209991C00001220001CN0500001N9+00781+00721101611ADDGF100991001001999999001001MD1310021+9999MW1001
0057601400999991959040312004+34033-004983FM-12+041499999V0203201N99999220001CN0400001N9+01891+01111101651ADDAY101999GF101991001001999999001021MD1110071+9999MW1021
0057601400999991959040318004+34033-004983FM-12+041499999V0209991C00001006001CN0100001N9+01721+01221101751ADDAY111999GF108991081081002501999999MD1310081+9999MW1031
0049601400999991959040406004+34033-004983FM-12+041499999V0209991C00001004201CN0150001N9+01281+01001101751ADDGF108991081051004501999999MD1610061+9999MW1001
0057601400999991959040412004+34033-004983FM-12+041499999V0202801N00311009001CN0100001N9+01221+01111102101ADDAY121999GF107991061081004501071999MD1010121+9999MW1611
0057601400999991959040418004+34033-004983FM-12+041499999V0200601N00211220001CN0200001N9+01611+01111101691ADDAY161999GF103991031021008001081001MD1610091+9999MW1021
0049601400999991959040506004+34033-004983FM-12+041499999V0209991C00001036001CN0200001N9+00891+00781101701ADDGF107991031051008001091999MD1310011+9999MW1021
0057601400999991959040512004+34033-004983FM-12+041499999V0209991C00001007501CN0200001N9+01611+00611101691ADDAY121999GF107991051021008001081999MD1810071+9999MW1021
0057601400999991959040518004+34033-004983FM-12+041499999V0203401N00211007501CN0200001N9+01611+00891101581ADDAY121999GF106991061021008001001001MD1310021+9999MW1021
0057601400999991959040606004+34033-004983FM-12+041499999V0209991C00001220001CN0500001N9+00611+00611101661ADDAY101999GF102991021051008001001001MD1610061+9999MW1001
0057601400999991959040612004+34033-004983FM-12+041499999V0200601N00211220001CN0300001N9+01781+00891101201ADDAY101999GF101991011021008001001021MD1810171+9999MW1021
0057601400999991959040618004+34033-004983FM-12+041499999V0202301N00411220001CN0400001N9+02111+01001100891ADDAY101999GF103991011041008001001021MD1610051+9999MW1011
0049601400999991959040706004+34033-004983FM-12+041499999V0209991C00001007501CN0200001N9+01001+00891999999ADDGF105991051051008001001001MD1410001+9999MW1001
0057601400999991959040712004+34033-004983FM-12+041499999V0203201N00211220001CN0200001N9+01891+01001100911ADDAY111999GF104991041021012501001001MD1510041+9999MW1011
0049601400999991959040806004+34033-004983FM-12+041499999V0202601N00211220001CN0100001N9+00721+00611100971ADDGF102991021051008001001001MD1510061+9999MW1001
0057601400999991959040812004+34033-004983FM-12+041499999V0202801N00621002101CN0060001N9+01111+01111101061ADDAY181999GF108991081091002501999999MD1110121+9999MW1801
0057601400999991959040818004+34033-004983FM-12+041499999V0202701N00511002101CN0100001N9+01001+00781101241ADDAY161999GF108991061021002501071999MD1210081+9999MW1601
0049601400999991959040906004+34033-004983FM-12+041499999V0202801N00511001201CN0080001N9+01221+01111101821ADDGF105991051021001501001001MD1310151+9999MW1001
0057601400999991959040912004+34033-004983FM-12+041499999V0202801N00411009001CN0150001N9+01611+01001102171ADDAY181999GF107991071081004501999999MD1010081+9999MW1021
0057601400999991959040918004+34033-004983FM-12+041499999V0203201N00311220001CN0200001N9+01611+01111102001ADDAY111999GF103991031081008001001001MD1510021+9999MW1021
0049601400999991959041006004+34033-004983FM-12+041499999V0209991C00001007501CN0100001N9+01001+01001102041ADDGF106991061021008001001001MD1610061+9999MW1001
0057601400999991959041012004+34033-004983FM-12+041499999V0209991C00001007501CN0200001N9+01611+00891101911ADDAY121999GF107991061021008001041999MD1810101+9999MW1021
0057601400999991959041018004+34033-004983FM-12+041499999V0203201N00211220001CN0200001N9+01721+01001101621ADDAY111999GF103991031021008001001001MD1610141+9999MW1011
0049601400999991959041106004+34033-004983FM-12+041499999V0209991C00001007501CN0150001N9+01001+00781101771ADDGF108991081051008001999999MD1310051+9999MW1001
0057601400999991959041112004+34033-004983FM-12+041499999V0209991C00001009001CN0150001N9+01281+00891101801ADDAY121999GF107991071081004501071999MD1010021+9999MW1021
0057601400999991959041118004+34033-004983FM-12+041499999V0202001N00101220001CN0200001N9+01391+00891101701ADDAY111999GF103991031051008001001001MD1810071+9999MW1011
0057601400999991959041206004+34033-004983FM-12+041499999V0209991C00001220001CN0300001N9+00501+00501101691ADDAY101999GF101991011001999999031001MD1510031+9999MW1021
0057601400999991959041212004+34033-004983FM-12+041499999V0200601N00211220001CN0400001N9+01721+01111101281ADDAY101999GF101991011001999999041001MD1810181+9999MW1031
0057601400999991959041218004+34033-004983FM-12+041499999V0203001N00211090001CN0400001N9+02111+01391101011ADDAY111999GF107991001001999999001021MD1610021+9999MW1031
0049601400999991959041306004+34033-004983FM-12+041499999V0209991C00001036001CN0200001N9+00721+00721100901ADDGF108991081001999999041001MD1810041+9999MW1001
0057601400999991959041312004+34033-004983FM-12+041499999V0202801N00311002101CN0060001N9+01281+01221101461ADDAY161999GF108991051071002501021999MD1110161+9999MW1021
0057601400999991959041318004+34033-004983FM-12+041499999V0203201N00311007501CN0100001N9+01501+01281101541ADDAY181999GF107991071021008001999999MD1310111+9999MW1011
0049601400999991959041406004+34033-004983FM-12+041499999V0200401N00101220001CN0300001N9+01001+01001101901ADDGF103991031051012501001001MD1710041+9999MW1001
0057601400999991959041412004+34033-004983FM-12+041499999V0200401N00211090001CN0400001N9+01721+01111101831ADDAY111999GF107991031021012501001021MD1810011+9999MW1021
0057601400999991959041418004+34033-004983FM-12+041499999V0203201N00211012001CN0400001N9+01781+01111101881ADDAY121999GF107991051051012501001021MD1310091+9999MW1021
0057601400999991959041506004+34033-004983FM-12+041499999V0209991C00001220001CN0300001N9+00891+00781102321ADDAY181999GF103991001001999999001021MD1310021+9999MW1801
0073601400999991959041512004+34033-004983FM-12+041499999V0209991C00001220001CN0300001N9+02001+01281102131ADDAY101999GA1021+069009009GF102991001001999999001021MD1810091+9999MW1021
0057601400999991959041518004+34033-004983FM-12+041499999V0203201N00101220001CN0300001N9+02221+01281101961ADDAY101999GF103991021041012501001021MD1510001+9999MW1021
0049601400999991959041606004+34033-004983FM-12+041499999V0202801N00211220001CN0300001N9+01111+01111102291ADDGF104991021051008001001021MD1510001+9999MW1001
0057601400999991959041612004+34033-004983FM-12+041499999V0202801N00511007501CN0300001N9+02001+01111102141ADDAY121999GF105991051021008001001021MD1810081+9999MW1021
0057601400999991959041618004+34033-004983FM-12+041499999V0203001N00311002101CN0300001N9+01721+01281102101ADDAY121999GF107991071021002501999999MD1710011+9999MW1021
0057601400999991959041712004+34033-004983FM-12+041499999V0203001N00311007501CN0200001N9+01501+00781102251ADDAY151999GF107991071021008001999999MD1810041+9999MW1021
0057601400999991959041718004+34033-004983FM-12+041499999V0203201N00211220001CN0300001N9+01721+00721101961ADDAY111999GF103991031021008001001001MD1510041+9999MW1011
0049601400999991959041806004+34033-004983FM-12+041499999V0202601N00101220001CN0300001N9+00721+00501102141ADDGF103991031051008001001001MD1610041+9999MW1021
0057601400999991959041812004+34033-004983FM-12+041499999V0203001N00311220001CN0300001N9+01781+00891101911ADDAY101999GF104991041021008001001001MD1810051+9999MW1021
0057601400999991959041818004+34033-004983FM-12+041499999V0203001N00101220001CN0300001N9+01781+00891101721ADDAY101999GF100991001001999999001001MD1010001+9999MW1011
0049601400999991959041906004+34033-004983FM-12+041499999V0202401N00211220001CN0300001N9+00611+00501102001ADDGF101991001001999999001021MD1310021+9999MW1001
0057601400999991959041912004+34033-004983FM-12+041499999V0209991C00001220001CN0300001N9+01781+00891101761ADDAY101999GF100991001001999999001001MD1810071+9999MW1011
0057601400999991959041918004+34033-004983FM-12+041499999V0209991C00001220001CN0300001N9+02221+00891101521ADDAY101999GF100991001001999999001001MD1810021+9999MW1021
0049601400999991959042006004+34033-004983FM-12+041499999V0200601N00101220001CN0400001N9+01001+00611101721ADDGF100991001001999999001001MD1310011+9999MW1001
0057601400999991959042012004+34033-004983FM-12+041499999V0200501N00511220001CN0400001N9+02391+00611101441ADDAY101999GF100991001001999999001001MD1810081+9999MW1021
0057601400999991959042018004+34033-004983FM-12+041499999V0200601N00311220001CN0400001N9+02611+00501101231ADDAY101999GF100991001001999999001001MD1010001+9999MW1021
0049601400999991959042106004+34033-004983FM-12+041499999V0200801N00311220001CN0600001N9+01001+00221101631ADDGF100991001001999999001001MD1610031+9999MW1001
0057601400999991959042112004+34033-004983FM-12+041499999V0200401N00411220001CN0600001N9+02501+00391101331ADDAY101999GF100991001001999999001001MD1810051+9999MW1021
0057601400999991959042118004+34033-004983FM-12+041499999V0209991C00001220001CN0600001N9+02781+00501101201ADDAY101999GF100991001001999999001001MD1310031+9999MW1021
0049601400999991959042206004+34033-004983FM-12+041499999V0200501N00511220001CN0400001N9+01281+00281101671ADDGF101991001001999999001021MD1210021+9999MW1001
0057601400999991959042212004+34033-004983FM-12+041499999V0200701N00721220001CN0300001N9+02281+00391101391ADDAY101999GF101991001001999999001021MD1810101+9999MW1021
0057601400999991959042218004+34033-004983FM-12+041499999V0200701N00821220001CN0300001N9+02501+00721101131ADDAY101999GF104991001001999999001021MD1610071+9999MW1021
0049601400999991959042306004+34033-004983FM-12+041499999V0209991C00001090001CN0300001N9+00781+00501101681ADDGF105991001001999999001021MD1310061+9999MW1001
0057601400999991959042312004+34033-004983FM-12+041499999V0203001N00211220001CN0300001N9+02281+00891101491ADDAY111999GF102991001001999999001021MD1810031+9999MW1021
0057601400999991959042318004+34033-004983FM-12+041499999V0202801N00411220001CN0300001N9+02001+01111101531ADDAY101999GF100991001001999999001001MD1310081+9999MW1021
0057601400999991959042412004+34033-004983FM-12+041499999V0203201N00311220001CN0300001N9+01891+00781101891ADDAY101999GF104991041021008001001021MD1010001+9999MW1021
0057601400999991959042418004+34033-004983FM-12+041499999V0202801N00311220001CN0300001N9+02001+00721101721ADDAY101999GF103991011021008001001021MD1010001+9999MW1031
0049601400999991959042506004+34033-004983FM-12+041499999V0200601N00411220001CN0400001N9+01001+00781102051ADDGF100991001001999999001001MD1510001+9999MW1001
0057601400999991959042512004+34033-004983FM-12+041499999V0200701N00511220001CN0400001N9+02111+00281101771ADDAY101999GF101991001001999999001021MD1810091+9999MW1031
0057601400999991959042518004+34033-004983FM-12+041499999V0200701N00411220001CN0400001N9+02281-00111101541ADDAY101999GF102991001001999999001021MD1210011+9999MW1021
0049601400999991959042606004+34033-004983FM-12+041499999V0209991C00001220001CN0500001N9+00501+00281999999ADDGF101991001001999999001021MD1310071+9999MW1001
0057601400999991959042612004+34033-004983FM-12+041499999V0200401N00101220001CN0500001N9+02392+00721101771ADDAY101999GF100991001001999999001001MD1810051+9999MW1021
0057601400999991959042618004+34033-004983FM-12+041499999V0203301N00311090001CN0400001N9+02281+00781101731ADDAY111999GF106991031001999999041021MD1310031+9999MW1031
0089601400999991959042706004+34033-004983FM-12+041499999V0202501N00101220001CN0400001N9+00781+00721102081ADDAA199000091GA1041+069009009GF104991001001999999001021KA1999N+00721MD1010001+9999MW1001
0057601400999991959042712004+34033-004983FM-12+041499999V0203401N00211090001CN0200001N9+02111+01111101791ADDAY111999GF106991011011012501001021MD1810121+9999MW1031
0057601400999991959042718004+34033-004983FM-12+041499999V0203001N00101220001CN0200001N9+02111+00891101551ADDAY111999GF103991001001999999001021MD1610041+9999MW1021
0049601400999991959042806004+34033-004983FM-12+041499999V0209991C00001220001CN0200001N9+00781+00721101781ADDGF101991001001999999001021MD1310011+9999MW1001
0057601400999991959042812004+34033-004983FM-12+041499999V0200401N00211220001CN0300001N9+02111+01281101401ADDAY101999GF104991001001999999001021MD1710151+9999MW1031
0057601400999991959042818004+34033-004983FM-12+041499999V0203201N00211090001CN0300001N9+02391+01281101091ADDAY111999GF106991031001999999081021MD1510091+9999MW1031
0057601400999991959042906004+34033-004983FM-12+041499999V0202801N00311036001CN0050001N9+01281+01111101671ADDAY151999GF108991041071002501021999MD1210181+9999MW1511
0057601400999991959042912004+34033-004983FM-12+041499999V0203001N00101007501CN0100001N9+01891+01001101811ADDAY151999GF107991061021008001071999MD1810011+9999MW1021
0057601400999991959042918004+34033-004983FM-12+041499999V0203401N00211220001CN0200001N9+02111+01001101711ADDAY111999GF103991011021008001001021MD1510001+9999MW1021
0049601400999991959043006004+34033-004983FM-12+041499999V0209991C00001220001CN0200001N9+00611+00501102281ADDGF103991031001999999031001MD1310061+9999MW1001
0057601400999991959043012004+34033-004983FM-12+041499999V0200401N00211090001CN0300001N9+01891+00501102021ADDAY111999GF105991031001999999031021MD1810091+9999MW1031
0057601400999991959043018004+34033-004983FM-12+041499999V0209991C00001220001CN0300001N9+02391+00391101701ADDAY111999GF102991021001999999081001MD1610061+9999MW1011
0057601400999991959050112004+34033-004983FM-12+041499999V0200701N00511090001CN0300001N9+02281+00221101701ADDAY111999GF105991001001999999001021MD1810161+9999MW1031
0057601400999991959050118004+34033-004983FM-12+041499999V0200801N00311090001CN0300001N9+02611+00611101411ADDAY121999GF106991021021012501001021MD1610051+9999MW1031
0049601400999991959050206004+34033-004983FM-12+041499999V0200501N00511220001CN0200001N9+01391+00721101521ADDGF104991011001999999081021MD1310041+9999MW1001
0057601400999991959050212004+34033-004983FM-12+041499999V0200601N00211090001CN0300001N9+02281+00721101421ADDAY111999GF105991011001999999081021MD1710041+9999MW1021
0057601400999991959050218004+34033-004983FM-12+041499999V0203201N00101090001CN0300001N9+02501+01001101261ADDAY121999GF106991021001999999081021MD1310011+9999MW1021
0049601400999991959050306004+34033-004983FM-12+041499999V0200601N00411220001CN0400001N9+01221+00721101521ADDGF100991001001999999001001MD1310041+9999MW1001
0057601400999991959050312004+34033-004983FM-12+041499999V0200801N00511220001CN0400001N9+02221+00781101291ADDAY101999GF101991001001999999001021MD1810061+9999MW1031
0057601400999991959050318004+34033-004983FM-12+041499999V0200601N00411220001CN0400001N9+02501+00281100991ADDAY101999GF101991011021012501001021MD1510041+9999MW1021
0057601400999991959050412004+34033-004983FM-12+041499999V0200801N00411220001CN0300001N9+02221+00781101061ADDAY101999GF101991011021012501001001MD1810111+9999MW1021
0057601400999991959050418004+34033-004983FM-12+041499999V0203201N00101220001CN0300001N9+02611+00891100791ADDAY101999GF101991011021012501001001MD1510031+9999MW1021
0049601400999991959050506004+34033-004983FM-12+041499999V0209991C00001220001CN0200001N9+01001+00781101321ADDGF103991011001999999081021MD1510001+9999MW1001
0057601400999991959050512004+34033-004983FM-12+041499999V0202601N00311007501CN0100001N9+02001+01221101211ADDAY111999GF106991061021008001001001MD1810061+9999MW1021
0057601400999991959050518004+34033-004983FM-12+041499999V0203301N00211006001CN0200001N9+02111+01221101011ADDAY121999GF106991061081001501001001MD1610021+9999MW1021
0049601400999991959050606004+34033-004983FM-12+041499999V0209991C00001007501CN0100001N9+01281+01001101201ADDGF107991071051008001999999MD1510001+9999MW1001
0057601400999991959050612004+34033-004983FM-12+041499999V0202601N00411006001CN0100001N9+01281+01111101081ADDAY121999GF108991081081002501999999MD1810061+9999MW1021
0057601400999991959050618004+34033-004983FM-12+041499999V0202601N00211006001CN0050001N9+01221+01221101231ADDAY151999GF108991081081002501999999MD1210091+9999MW1631
0057601400999991959050706004+34033-004983FM-12+041499999V0201601N00211036001CN0100001N9+01111+01111101111ADDAY161999GF108991021071002501021999MD1610051+9999MW1611
0057601400999991959050712004+34033-004983FM-12+041499999V0202701N00211004201CN0300001N9+01281+01111101211ADDAY121999GF108991051071004501021999MD1310041+9999MW1201
0057601400999991959050718004+34033-004983FM-12+041499999V0202601N00211012001CN0200001N9+01391+01111101151ADDAY181999GF107991071081008001071999MD1810031+9999MW1021
0076601400999991959050806004+34033-004983FM-12+041499999V0202601N00621002101CN0080001N9+01221+01221101461ADDAY161999GF108991999071002501071999MD1310111+9999MW1631EQDQ01+000082SCOTLC
0057601400999991959050812004+34033-004983FM-12+041499999V0202601N00621004201CN0080001N9+01501+01281101591ADDAY161999GF107991071021004501999999MD1010001+9999MW1251
0035601400999991959050906004+34033-004983FM-12+041499999V0209991C000019999999N0100001N9+01221+01001101311ADDGF106991061999999999999999MW1011
0057601400999991959050912004+34033-004983FM-12+041499999V0202801N00211036001CN0200001N9+01891+01221101041ADDAY121999GF105991041021008001041001MD1810051+9999MW1021
0057601400999991959050918004+34033-004983FM-12+041499999V0203001N00311036001CN0200001N9+01611+01391101031ADDAY121999GF107991011021004501041999MD1510001+9999MW1021
0049601400999991959051006004+34033-004983FM-12+041499999V0209991C00001006001CN0100001N9+01281+01281101111ADDGF108991071081001501051999MD1310021+9999MW1001
0057601400999991959051012004+34033-004983FM-12+041499999V0202801N00211012001CN0200001N9+02001+01391101031ADDAY121999GF106991061021012501001001MD1810041+9999MW1021
0057601400999991959051018004+34033-004983FM-12+041499999V0203201N00101012001CN0200001N9+01891+01501101021ADDAY121999GF107991071021012501999999MD1310011+9999MW1021
0057601400999991959051112004+34033-004983FM-12+041499999V0203201N00101007501CN0200001N9+02001+01391101621ADDAY121999GF107991051021008001001021MD1110071+9999MW1011
0057601400999991959051118004+34033-004983FM-12+041499999V0203201N00101220001CN0200001N9+02111+01501101891ADDAY111999GF104991041021008001001001MD1310021+9999MW1011
0057601400999991959051200004+34033-004983FM-12+041499999V0202401N00211220001CN0200001N9+01391+01391102161ADDAY121999GF100991001001999999001001MD1110121+9999MW1001
0057601400999991959051206004+34033-004983FM-12+041499999V0202201N00101220001CN0200001N9+01111+01001102191ADDAY101999GF101991011061000751001001MD1310041+9999MW1031
0057601400999991959051212004+34033-004983FM-12+041499999V0200401N00101220001CN0500001N9+02221+01391102021ADDAY101999GF103991031021008001001001MD1810031+9999MW1021
0057601400999991959051218004+34033-004983FM-12+041499999V0202801N00101220001CN0500001N9+02391+01391101851ADDAY101999GF101991011021008001001001MD1610011+9999MW1021
0057601400999991959051300004+34033-004983FM-12+041499999V0209991C00001220001CN0150001N9+01391+01221102191ADDAY121999GF100991001001999999001001MD1010011+9999MW1001
0057601400999991959051306004+34033-004983FM-12+041499999V0200401N00211220001CN0400001N9+01391+01111102191ADDAY101999GF100991001001999999001001MD1510001+9999MW1021
0057601400999991959051312004+34033-004983FM-12+041499999V0200601N00411220001CN0500001N9+02611+01001101871ADDAY101999GF101991001001999999001021MD1810111+9999MW1031
0057601400999991959051318004+34033-004983FM-12+041499999V0200401N00101220001CN0500001N9+02781+00721101661ADDAY101999GF100991001001999999001001MD1610041+9999MW1021
0057601400999991959051400004+34033-004983FM-12+041499999V0200301N00311220001CN0300001N9+02001+01001101251ADDAY101999GF100991001001999999001001MD1010001+9999MW1001
0057601400999991959051406004+34033-004983FM-12+041499999V0200301N00211220001CN0300001N9+01611+00891101421ADDAY101999GF100991001001999999001001MD1510011+9999MW1021
0057601400999991959051412004+34033-004983FM-12+041499999V0200501N00311220001CN0400001N9+02721+01221101591ADDAY101999GF100991001001999999001001MD1810061+9999MW1021
0057601400999991959051418004+34033-004983FM-12+041499999V0200301N00211220001CN0400001N9+03001+01001101291ADDAY101999GF100991001001999999001001MD1610051+9999MW1021
0057601400999991959051500004+34033-004983FM-12+041499999V0200401N00311220001CN0200001N9+02001+01001101531ADDAY101999GF100991001001999999001001MD1010001+9999MW1001
0057601400999991959051506004+34033-004983FM-12+041499999V0209991C00001220001CN0300001N9+01501+01111101471ADDAY101999GF102991001001999999001011MD1610071+9999MW1031
0057601400999991959051512004+34033-004983FM-12+041499999V0200601N00311220001CN0500001N9+02781+01221101151ADDAY101999GF100991001001999999001001MD1810081+9999MW1021
0057601400999991959051518004+34033-004983FM-12+041499999V0203601N00101090001CN0500001N9+03001+01111100841ADDAY111999GF106991001001999999001021MD1610081+9999MW1031
0057601400999991959051600004+34033-004983FM-12+041499999V0209991C00001220001CN0150001N9+01891+01391101151ADDAY121999GF103991001001999999001021MD1010011+9999MW1001
0057601400999991959051606004+34033-004983FM-12+041499999V0202401N00101220001CN0400001N9+01391+01221101151ADDAY101999GF103991001001999999001021MD1310061+9999MW1031
0057601400999991959051612004+34033-004983FM-12+041499999V0200401N00211220001CN0400001N9+02501+01391100881ADDAY111999GF106991001001999999001061MD1810081+9999MW1021
0057601400999991959051618004+34033-004983FM-12+041499999V0203201N00101090001CN0300001N9+02501+01501100921ADDAY121999GF107991021001999999081021MD1310081+9999MW1021
0057601400999991959051700004+34033-004983FM-12+041499999V0201301N00101090001CN0300001N9+01781+01501101121ADDAY121999GF105991001001999999001021MD1810031+9999MW1001
0057601400999991959051706004+34033-004983FM-12+041499999V0202601N00411000301CN0003001N9+01391+01391101011ADDAY111999GF109991091999000251999999MD1210041+9999MW1471
0057601400999991959051712004+34033-004983FM-12+041499999V0203401N00101004201CN0200001N9+01781+01501101161ADDAY141999GF108991081021004501999999MD1010001+9999MW1021
0049601400999991959051800004+34033-004983FM-12+041499999V0209991C00001004201CN0050001N9+01501+01281101351ADDGF107991071071004501999999MD1110031+9999MW1001
0057601400999991959051806004+34033-004983FM-12+041499999V0209991C00001004201CN0100001N9+01281+01221101271ADDAY121999GF107991051071004501071999MD1510011+9999MW1021
0057601400999991959051812004+34033-004983FM-12+041499999V0203201N00211007501CN0200001N9+01891+01281101131ADDAY121999GF107991061021008001081999MD1810021+9999MW1021
0049601400999991959051900004+34033-004983FM-12+041499999V0202401N00101220001CN0150001N9+01281+01111101031ADDGF103991031051012501001001MD1810011+9999MW1001
0057601400999991959051906004+34033-004983FM-12+041499999V0202601N00411220001CN0300001N9+01221+01111100851ADDAY101999GF104991041051012501001001MD1310041+9999MW1031
0057601400999991959051912004+34033-004983FM-12+041499999V0203201N00211036001CN0200001N9+02001+01281100751ADDAY111999GF106991021021012501081001MD1810021+9999MW1021
0057601400999991959051918004+34033-004983FM-12+041499999V0209991C00001012001CN0150001N9+02001+01501100631ADDAY121999GF108991071081008001091999MD1510021+9999MW1601
0057601400999991959052000004+34033-004983FM-12+041499999V0203001N00311036001CN0100001N9+01281+01281101021ADDAY161999GF108991081001999999081999MD1210081+9999MW1631
0057601400999991959052006004+34033-004983FM-12+041499999V0200601N00211036001CN0300001N9+01221+01221101061ADDAY161999GF105991031021002501081001MD1310021+9999MW1011
0057601400999991959052012004+34033-004983FM-12+041499999V0202801N00511012001CN0300001N9+02111+01001100811ADDAY111999GF105991051021012501001001MD1610081+9999MW1031
0057601400999991959052018004+34033-004983FM-12+041499999V0202801N00311012001CN0300001N9+01721+01391100921ADDAY121999GF106991061091012501001001MD1210151+9999MW1021
0057601400999991959052100004+34033-004983FM-12+041499999V0202801N00101007501CN0100001N9+01391+01221101211ADDAY181999GF106991061021008001001001MD1110141+9999MW1001
0057601400999991959052106004+34033-004983FM-12+041499999V0203001N00101007501CN0100001N9+01221+01001101231ADDAY121999GF106991061021008001001001MD1310011+9999MW1021
0057601400999991959052112004+34033-004983FM-12+041499999V0202601N00721007501CN0300001N9+01611+01221101391ADDAY181999GF108991061021008001081999MD1010121+9999MW1811
0057601400999991959052118004+34033-004983FM-12+041499999V0202601N00621007501CN0150001N9+01501+01391101601ADDAY181999GF107991071031008001999999MD1210141+9999MW1811
0057601400999991959052200004+34033-004983FM-12+041499999V0201601N00511007501CN0100001N9+01281+01281102071ADDAY181999GF106991061021008001001001MD1110071+9999MW1001
0057601400999991959052206004+34033-004983FM-12+041499999V0202601N00211001201CN0080001N9+01281+01221102161ADDAY121999GF108991081021001501999999MD1310081+9999MW1801
0057601400999991959052212004+34033-004983FM-12+041499999V0202801N00211007501CN0100001N9+01721+01111102291ADDAY121999GF105991051021008001001001MD1010001+9999MW1011
0049601400999991959052300004+34033-004983FM-12+041499999V0202601N00211012001CN0200001N9+01281+00891102401ADDGF108991081051012501999999MD1110081+9999MW1001
0057601400999991959052306004+34033-004983FM-12+041499999V0209991C00001036001CN0200001N9+01221+01001102301ADDAY121999GF108991041051012501031999MD1610021+9999MW1021
0057601400999991959052312004+34033-004983FM-12+041499999V0203201N00101220001CN0200001N9+01891+01111101991ADDAY111999GF101991011011012501001001MD1810161+9999MW1021
0057601400999991959052318004+34033-004983FM-12+041499999V0203201N00211220001CN0200001N9+02111+01221101711ADDAY101999GF100991001001999999001001MD1610081+9999MW1021
0057601400999991959052400004+34033-004983FM-12+041499999V0202601N00311220001CN0100001N9+01281+01111101981ADDAY101999GF100991001001999999001001MD1110061+9999MW1001
0076601400999991959052406004+34033-004983FM-12+041499999V0202201N00101021001CN0030001N9+01001+01001101801ADDAY111999GF108991999061022501021999MD1610091+9999MW1101EQDQ01+000082SCOTLC
0057601400999991959052412004+34033-004983FM-12+041499999V0202601N00101220001CN0300001N9+01891+01221101511ADDAY111999GF102991011011008001001021MD1710091+9999MW1021
0057601400999991959052418004+34033-004983FM-12+041499999V0203201N00211220001CN0400001N9+02221+01111101231ADDAY101999GF102991011001999999081021MD1610041+9999MW1021
0057601400999991959052500004+34033-004983FM-12+041499999V0202601N00101220001CN0100001N9+01391+01221101511ADDAY121999GF102991001001999999001021MD1110041+9999MW1001
0057601400999991959052506004+34033-004983FM-12+041499999V0209991C00001220001CN0300001N9+00891+00891101471ADDAY101999GF101991011001999999081001MD1610011+9999MW1011
0057601400999991959052512004+34033-004983FM-12+041499999V0200401N00211220001CN0400001N9+02221+01221101181ADDAY101999GF102991001001999999001021MD1810061+9999MW1011
0057601400999991959052518004+34033-004983FM-12+041499999V0200401N00101090001CN0400001N9+02501+00891101111ADDAY111999GF105991001001999999001021MD1610051+9999MW1031
0057601400999991959052600004+34033-004983FM-12+041499999V0200401N00211220001CN0300001N9+01781+00781101211ADDAY121999GF102991001001999999001021MD1110071+9999MW1001
0078601400999991959052606004+34033-004983FM-12+041499999V0200501N00411220001CN0300001N9+01501+00721101171ADDAY111999GF101991011001999999081001MW1011EQDQ01+000062APCTENQ02+000002APC3  
0057601400999991959052612004+34033-004983FM-12+041499999V0200701N00311036001CN0300001N9+02611+01111100781ADDAY111999GF106991051001999999081021MD1710091+9999MW1031
0057601400999991959052618004+34033-004983FM-12+041499999V0203101N00411090001CN0300001N9+02221+01391101041ADDAY121999GF105991011021017501001021MD1310091+9999MW1021
0057601400999991959052700004+34033-004983FM-12+041499999V0203201N00211090001CN0100001N9+01611+01281101311ADDAY121999GF106991011001999999081021MD1110131+9999MW1001
0057601400999991959052706004+34033-004983FM-12+041499999V0209991C00001036001CN0060001N9+01501+01281101241ADDAY121999GF108991051001999999051021MD1610041+9999MW1031
0057601400999991959052712004+34033-004983FM-12+041499999V0203201N00211007501CN0100001N9+02001+01281101171ADDAY121999GF107991071021008001999999MD1810031+9999MW1031
0057601400999991959052718004+34033-004983FM-12+041499999V0202601N00211036001CN0100001N9+01781+01391101151ADDAY181999GF107991021021008001071999MD1810041+9999MW1011
0057601400999991959052800004+34033-004983FM-12+041499999V0202801N00101007501CN0100001N9+01501+01391101211ADDAY181999GF108991081021008001999999MD1310071+9999MW1811
0057601400999991959052806004+34033-004983FM-12+041499999V0209991C00001007501CN0100001N9+01281+01281101211ADDAY161999GF107991061021008001071999MD1510001+9999MW1021
0057601400999991959052812004+34033-004983FM-12+041499999V0202601N00411007501CN0150001N9+01891+01281101111ADDAY161999GF107991061021008001081999MD1610061+9999MW1251
0057601400999991959052818004+34033-004983FM-12+041499999V0202801N00411007501CN0200001N9+01501+01281101261ADDAY121999GF107991051091008001081031MD1310061+9999MW1251
0065601400999991959052900004+34033-004983FM-12+041499999V0209991C00001036001CN0200001N9+01391+01281101331ADDGA1061+030009039GF106991061001999999071001MD1810051+9999MW1001
0097601400999991959052906004+34033-004983FM-12+041499999V0209991C00001036001CN0100001N9+01281+01281101251ADDAA199002091AY121999GA1031+030009039GF106991041051008001081001KA1999N+01281MD1310021+9999MW1011
0073601400999991959052912004+34033-004983FM-12+041499999V0202701N00311007501CN0200001N9+02001+01281101111ADDAY111999GA1061+009009089GF107991061021008001081001MD1810051+9999MW1021
0057601400999991959052918004+34033-004983FM-12+041499999V0202601N00411036001CN0150001N9+01781+01721101121ADDAY181999GF107991031081008001041021MD1410001+9999MW1021
0073601400999991959053000004+34033-004983FM-12+041499999V0202801N00101007501CN0200001N9+01391+01221101401ADDAY121999GA1071+007809059GF107991071021008001999999MD1010051+9999MW1001
0113601400999991959053006004+34033-004983FM-12+041499999V0209991C00001007501CN0200001N9+01281+01221101481ADDAA199000091AY121999GA1061+007809059GA2031+030009039GF107991061021008001081999KA1999N+01221MD1310071+9999MW1031
0057601400999991959053012004+34033-004983FM-12+041499999V0203001N00311007501CN0200001N9+02001+01281101501ADDAY121999GF107991051021008001081021MD1810011+9999MW1011
0097601400999991959053018004+34033-004983FM-12+041499999V0203201N00311012001CN0300001N9+02221+01281101411ADDAA199000091AY121999GA1051+007809089GF106991061081008001001001KA1999M+02281MD1510001+9999MW1021
0089601400999991959053100004+34033-004983FM-12+041499999V0209991C00001220001CN0200001N9+01611+01391101791ADDAY121999GA1011+006009089GA2031+007809059GF103991031081008001001001MD1110061+9999MW1001
0057601400999991959053106004+34033-004983FM-12+041499999V0209991C00001220001CN0200001N9+01111+01111101871ADDAY101999GF100991001001999999001001MD1310071+9999MW1021
0073601400999991959053112004+34033-004983FM-12+041499999V0200401N00101220001CN0300001N9+02111+01391101731ADDAY111999GA1021+009009089GF102991021021008001001001MD1810061+9999MW1021
0097601400999991959053118004+34033-004983FM-12+041499999V0203601N00101220001CN0300001N9+02501+01281101461ADDAA199000091AY101999GA1011+009909089GF101991011021008001001001KA1999M+02611MD1510041+9999MW1021
0049601400999991959060100004+34033-004983FM-12+041499999V0202501N00211220001CN0400001N9+01611+01391101891ADDGF100991001001999999001001MD1110101+9999MW1001
0057601400999991959060106004+34033-004983FM-12+041499999V0209991C00001220001CN0100001N9+01281+01221101861ADDAY101999GF104991041001999999081001MD1610041+9999MW1031
0057601400999991959060112004+34033-004983FM-12+041499999V0209991C00001220001CN0200001N9+02391+01391101601ADDAY111999GF103991021021008001081001MD1710081+9999MW1021
0057601400999991959060118004+34033-004983FM-12+041499999V0203201N00101012001CN0200001N9+02891+01721101391ADDAY181999GF106991051091012501081061MD1310021+9999MW1021
0073601400999991959060200004+34033-004983FM-12+041499999V0202601N00211220001CN0100001N9+01891+01611101781ADDAY121999GA1021+030009039GF103991021001999999081031MD1010081+9999MW1001
0057601400999991959060206004+34033-004983FM-12+041499999V0209991C00001004201CN0060001N9+01611+01501101931ADDAY111999GF107991071051004501999999MD1110131+9999MW1031
0057601400999991959060212004+34033-004983FM-12+041499999V0209991C00001220001CN0200001N9+02391+01611101761ADDAY111999GF101991011011008001001001MD1710091+9999MW1021
0057601400999991959060218004+34033-004983FM-12+041499999V0203201N00211220001CN0100001N9+02281+01611101691ADDAY101999GF102991021091008001081001MD1310021+9999MW1021
0078601400999991959060300004+34033-004983FM-12+041499999V0203201N00101007501CN0100001N9+01891+01501102021ADDAY121999GF106991061051008001999999MW1001EQDQ01+000012APCTENQ02+000002APC3  
0132601400999991959060306004+34033-004983FM-12+041499999V0203201N00101001201CN0080001N9+01611+01391102001ADDAA199000091AY121999GA1071+999999009GA2081+003909059GF108991999051001501999051KA1999N+01501MD1610021+9999MW1021EQDQ01+000082SCOTLC
0057601400999991959060312004+34033-004983FM-12+041499999V0202701N00211000601CN0030001N9+01281+01111102501ADDAY141999GF108991081061000751999999MD1110071+9999MW1101
0057601400999991959060318004+34033-004983FM-12+041499999V0202801N00101004201CN0100001N9+01781+01501102081ADDAY151999GF108991081021004501999999MD1310031+9999MW1021
0057601400999991959060400004+34033-004983FM-12+041499999V0209991C00001007501CN0200001N9+01611+01391102231ADDAY121999GF106991061051008001001001MD1210031+9999MW1001
0113601400999991959060406004+34033-004983FM-12+041499999V0209991C00001002101CN0080001N9+01501+01391102021ADDAA199000091AY121999GA1021+001809079GA2061+006009059GF106991061051002501001001KA1999N+01501MD1610021+9999MW1011
0057601400999991959060412004+34033-004983FM-12+041499999V0209991C00001012001CN0200001N9+02001+01391102041ADDAY121999GF108991081081008001999999MD1710071+9999MW1031
0097601400999991959060418004+34033-004983FM-12+041499999V0202401N00211012001CN0200001N9+02221+01501101981ADDAA199000091AY121999GA1031+007809089GF105991051081008001001001KA1999M+02281MD1610051+9999MW1011
0073601400999991959060500004+34033-004983FM-12+041499999V0202601N00101007501CN0100001N9+01611+01221102081ADDAY121999GA1061+009909059GF106991061051008001001001MD1110061+9999MW1001
0113601400999991959060506004+34033-004983FM-12+041499999V0202601N00211001201CN0060001N9+01501+01111102021ADDAA199000091AY121999GA1031+001809079GA2081+006009059GF108991081051001501999999KA1999N+01391MD1210021+9999MW1031
0057601400999991959060512004+34033-004983FM-12+041499999V0202401N00101009001CN0060001N9+01891+01221101971ADDAY121999GF107991071081004501999999MD1810041+9999MW1011
0057601400999991959060518004+34033-004983FM-12+041499999V0203201N00311007501CN0150001N9+02001+00891101741ADDAY121999GF107991071051008001999999MD1510011+9999MW1031
0075601400999991959060600004+34033-004983FM-12+041499999V0202601N00211090001CN0150001N9+01501+01111102091ADDAY121999GA1041+006909059GA2031+069009009GF105991041051008001001021MW1001
0057601400999991959060606004+34033-004983FM-12+041499999V0203201N00311220001CN0150001N9+01111+01111102231ADDAY181999GF103991031021008001001001MD1310141+9999MW1011
0083601400999991959060618004+34033-004983FM-12+041499999V0203201N00311220001CN0300001N9+02001+00721102101ADDAA199000091AY111999GA1011+012009089GF101991011021012501001001KA1999M+02221MW1021
0057601400999991959060700004+34033-004983FM-12+041499999V0202101N00211220001CN0300001N9+01221+01001102511ADDAY121999GF100991001001999999001001MD1010061+9999MW1001
0081601400999991959060706004+34033-004983FM-12+041499999V0202101N00101220001CN0300001N9+00781+00781102391ADDAA199000091AY101999GF100991001001999999001001KA1999N+00721MD1210021+9999MW1021
0057601400999991959060712004+34033-004983FM-12+041499999V0202801N00211220001CN0300001N9+02281+01001101991ADDAY101999GF104991041021008001001001MD1810131+9999MW1031
0049601400999991959060800004+34033-004983FM-12+041499999V0202001N00211220001CN0200001N9+01391+01221102201ADDGF100991001001999999001001MD1310031+9999MW1001
0067601400999991959060806004+34033-004983FM-12+041499999V0209991C00001220001CN0300001N9+01001+01001102181ADDAA199000091AY101999GF100991001001999999001001KA1999N+00721MW1021
0057601400999991959060812004+34033-004983FM-12+041499999V0200401N00211220001CN0500001N9+02391+00891101861ADDAY101999GF102991001001999999001021MD1810111+9999MW1011
0057601400999991959060818004+34033-004983FM-12+041499999V0200201N00051220001CN0300001N9+02781+00611101581ADDAY101999GF100991001001999999001001MD1610071+9999MW1021
0057601400999991959060900004+34033-004983FM-12+041499999V0200601N00211220001CN0200001N9+01891+00891101921ADDAY101999GF100991001001999999001001MD1210091+9999MW1001
0057601400999991959060906004+34033-004983FM-12+041499999V0200601N00311220001CN0400001N9+01611+00721101911ADDAY101999GF100991001001999999001001MD1610021+9999MW1021
0057601400999991959060918004+34033-004983FM-12+041499999V0200401N00211220001CN0600001N9+03221+00501101381ADDAY101999GF100991001001999999001001MD1610061+9999MW1021
0057601400999991959061000004+34033-004983FM-12+041499999V0200301N00511220001CN0500001N9+02221+01001101721ADDAY101999GF100991001001999999001001MD1110071+9999MW1001
0081601400999991959061006004+34033-004983FM-12+041499999V0200401N00511220001CN0500001N9+01891+00781101631ADDAA199000091AY101999GF100991001001999999001001KA1999N+01891MD1310031+9999MW1021
0057601400999991959061012004+34033-004983FM-12+041499999V0200601N00411220001CN0500001N9+03281+00891101371ADDAY101999GF100991001001999999001001MD1710041+9999MW1021
0049601400999991959061100004+34033-004983FM-12+041499999V0200601N00411220001CN0200001N9+02501+01111101591ADDGF100991001001999999001001MD1110131+9999MW1001
0097601400999991959061106004+34033-004983FM-12+041499999V0200601N00411220001CN0300001N9+02221+00891101591ADDAA199000091AY101999GA1021+069009009GF102991001001999999001021KA1999N+02111MD1310051+9999MW1031
0057601400999991959061112004+34033-004983FM-12+041499999V0200601N00311220001CN0400001N9+03281+01111101431ADDAY101999GF102991011011012501001021MD1710031+9999MW1031
0083601400999991959061118004+34033-004983FM-12+041499999V0200201N00101220001CN9999999N9+03611+01221101191ADDAA199000091GA1021+012009099GF103991021091012501001021KA1999M+03721MD1610081+9999
0081601400999991959061206004+34033-004983FM-12+041499999V0209991C00001220001CN0300001N9+01611+00111101701ADDAA199000091AY101999GF100991001001999999001001KA1999N+01611MD1210131+9999MW1021
0108601400999991959061212004+34033-004983FM-12+041499999V0202201N00101220001CN0300001N9+02721+01781101421ADDAY111999GA1021+003309039GA2031+069009009GF104991021001999999081021MD1710101+9999MW1011EQDQ01+000992SCOLCB
0097601400999991959061218004+34033-004983FM-12+041499999V0203201N00211220001CN0200001N9+02891+01781101331ADDAA199000091AY101999GA1011+012009099GF101991011091012501001001KA1999M+03111MD1310051+9999MW1021
0043601400999991959061300004+34033-004983FM-12+041499999V0209991C00001220001CN0400001N9+01781+01501101781ADDAY121999GF100991001001999999001001MW1001
0081601400999991959061306004+34033-004983FM-12+041499999V0200401N00211220001CN0300001N9+01721+01611101681ADDAA199000091AY101999GF100991001001999999001001KA1999N+01391MD1610021+9999MW1021
0057601400999991959061312004+34033-004983FM-12+041499999V0200601N00311220001CN0300001N9+03001+01111101461ADDAY101999GF100991001001999999001001MD1610051+9999MW1021
0073601400999991959061318004+34033-004983FM-12+041499999V0200201N00101220001CN0300001N9+02221+01001101581ADDAY101999GA1011+012009089GF102991011081012501081001MD1010041+9999MW1021
0057601400999991959061400004+34033-004983FM-12+041499999V0200401N00101220001CN0200001N9+02221+01221101701ADDAY121999GF100991001001999999001001MD1110081+9999MW1001
0057601400999991959061406004+34033-004983FM-12+041499999V0200401N00211220001CN0300001N9+01111+01111101571ADDAY101999GF100991001001999999001001MD1410001+9999MW1021
0057601400999991959061412004+34033-004983FM-12+041499999V0200201N00101220001CN0300001N9+02781+01221101451ADDAY101999GF101991001001999999001021MD1810091+9999MW1031
0057601400999991959061418004+34033-004983FM-12+041499999V0203201N00211090001CN0200001N9+03111+01611101591ADDAY121999GF105991031021012501001021MD1710041+9999MW1021
0073601400999991959061500004+34033-004983FM-12+041499999V0209991C00001220001CN0150001N9+01891+01611101731ADDAY101999GA1011+069009009GF101991001001999999001021MD1110041+9999MW1001
0097601400999991959061506004+34033-004983FM-12+041499999V0202801N00101004201CN0150001N9+01611+01501101781ADDAA199000091AY111999GA1081+003909059GF108991081051004501999999KA1999N+01501MD1310071+9999MW1031
0057601400999991959061512004+34033-004983FM-12+041499999V0200601N00101004201CN0100001N9+01891+01501101761ADDAY151999GF108991081051004501999999MD1610021+9999MW1021
0097601400999991959061518004+34033-004983FM-12+041499999V0203201N00101220001CN0200001N9+02721+01611101391ADDAA199999929AY111999GA1011+009909099GF101991011091008001001001KA1999M+02721MD1610071+9999MW1021
0057601400999991959061600004+34033-004983FM-12+041499999V0202601N00101220001CN0200001N9+01781+01391101651ADDAY121999GF100991001001999999001001MD1010031+9999MW1001
0081601400999991959061606004+34033-004983FM-12+041499999V0202301N00101220001CN0100001N9+01391+01221101581ADDAA199000091AY101999GF100991001001999999001001KA1999N+01281MD1510021+9999MW1011
0097601400999991959061618004+34033-004983FM-12+041499999V0203001N00311220001CN0200001N9+02781+01721101191ADDAA199000091AY101999GA1021+007809099GF104991021091008001081001KA1999M+03001MD1310041+9999MW1031
0073601400999991959061700004+34033-004983FM-12+041499999V0209991C00001220001CN0200001N9+01891+01501101591ADDAY121999GA1011+013809059GF101991011041012501001001MD1110041+9999MW1001
0081601400999991959061706004+34033-004983FM-12+041499999V0209991C00001220001CN0100001N9+01501+01281101641ADDAA199000091AY101999GF100991001001999999001001KA1999N+01501MD1310011+9999MW1011
0073601400999991959061712004+34033-004983FM-12+041499999V0203001N00101220001CN0150001N9+02781+01721101361ADDAY101999GA1021+007809089GF102991021021008001001001MD1610061+9999MW1031
0097601400999991959061718004+34033-004983FM-12+041499999V0209991C000019999999N0200001N9+03111+01501101501ADDAA199000091AY101999GA1031+007809099GF199999031091004501081001KA1999M+03221MD1210071+9999MW1021
0057601400999991959061800004+34033-004983FM-12+041499999V0202601N00101220001CN0200001N9+02001+01391101861ADDAY101999GF100991001001999999001001MD1110191+9999MW1001
0081601400999991959061806004+34033-004983FM-12+041499999V0209991C00001220001CN0200001N9+01501+01281101881ADDAA199000091AY101999GF100991001001999999001001KA1999N+01391MD1310041+9999MW1021
0089601400999991959061812004+34033-004983FM-12+041499999V0202801N00211090001CN0150001N9+02721+01721101651ADDAY111999GA1031+030009039GA2031+999999009GF105991031001999999081021MD1710081+9999MW1031
0113601400999991959061818004+34033-004983FM-12+041499999V0203201N00101090001CN0150001N9+02891+01721101611ADDAA199000091AY121999GA1021+012009099GA2061+069009009GF106991021091012501001021KA1999M+03001MD1310081+9999MW1021
0073601400999991959061900004+34033-004983FM-12+041499999V0209991C00001220001CN0200001N9+01891+01391101981ADDAY121999GA1031+039009039GF103991031001999999081001MD1110041+9999MW1001
0113601400999991959061906004+34033-004983FM-12+041499999V0202601N00101220001CN0100001N9+01501+01391102021ADDAA199000091AY101999GA1021+002409079GA2031+039009039GF104991021061002501081001KA1999N+01501MD1210091+9999MW1031
0057601400999991959061912004+34033-004983FM-12+041499999V0203201N00101220001CN0100001N9+02501+01391101881ADDAY101999GF100991001001999999001001MD1810031+9999MW1021
0097601400999991959061918004+34033-004983FM-12+041499999V0203201N00211220001CN0200001N9+02781+01391101661ADDAA199000091AY101999GA1011+030009039GF102991011001999999081021KA1999M+03001MD1610101+9999MW1021
0057601400999991959062000004+34033-004983FM-12+041499999V0202701N00101220001CN0150001N9+01781+01281102051ADDAY121999GF100991001001999999001001MD1210111+9999MW1001
0081601400999991959062006004+34033-004983FM-12+041499999V0209991C00001220001CN0300001N9+01391+01001102031ADDAA199000091AY101999GF100991001001999999001001KA1999N+01391MD1610031+9999MW1011
0057601400999991959062012004+34033-004983FM-12+041499999V0203401N00101220001CN0200001N9+02721+01501101751ADDAY101999GF100991001001999999001001MD1710021+9999MW1021
0057601400999991959062018004+34033-004983FM-12+041499999V0203001N00211220001CN0200001N9+03111+01001101591ADDAY101999GF104991001001999999001011MD1610021+9999MW1021
0057601400999991959062100004+34033-004983FM-12+041499999V0202601N00211220001CN0200001N9+01891+01221101841ADDAY121999GF100991001001999999001001MD1110091+9999MW1001
0081601400999991959062106004+34033-004983FM-12+041499999V0209991C00001220001CN0300001N9+01281+01001102091ADDAA199000091AY101999GF100991001001999999001001KA1999N+01281MD1610041+9999MW1021
0057601400999991959062112004+34033-004983FM-12+041499999V0203201N00101220001CN0300001N9+02721+01281101781ADDAY101999GF100991001001999999001001MD1810071+9999MW1021
0097601400999991959062118004+34033-004983FM-12+041499999V0203201N00211220001CN0300001N9+03221+01001101551ADDAA199000091AY101999GA1011+012009089GF101991011021012501001001KA1999M+03221MD1610021+9999MW1021
0057601400999991959062200004+34033-004983FM-12+041499999V0209991C00001220001CN0200001N9+02111+01281101961ADDAY121999GF100991001001999999001001MD1210141+9999MW1021
0057601400999991959062206004+34033-004983FM-12+041499999V0209991C00001220001CN0200001N9+01501+01281102011ADDAY101999GF101991011001999999081001MD1610041+9999MW1031
0057601400999991959062212004+34033-004983FM-12+041499999V0200401N00211220001CN0200001N9+03221+01111101491ADDAY101999GF100991001001999999001001MD1710121+9999MW1021
0097601400999991959062218004+34033-004983FM-12+041499999V0203401N00211220001CN0200001N9+03391+01501101271ADDAA199000091AY101999GA1011+012009089GF101991011081012501001001KA1999M+03611MD1610041+9999MW1021
0073601400999991959062300004+34033-004983FM-12+041499999V0202601N00101220001CN0200001N9+02221+01391101791ADDAY121999GA1021+030009039GF102991021001999999081001MD1110151+9999MW1001
0081601400999991959062306004+34033-004983FM-12+041499999V0209991C00001220001CN0200001N9+01611+01221101731ADDAA199000091AY101999GF100991001001999999001001KA1999N+01611MD1610041+9999MW1021
0057601400999991959062312004+34033-004983FM-12+041499999V0200801N00101220001CN0300001N9+03001+01391101351ADDAY101999GF101991011021012501001001MD1610071+9999MW1031
0081601400999991959062318004+34033-004983FM-12+041499999V0201201N00311220001CN0150001N9+02781+01781101561ADDAA199000091AY121999GF102991021001999999011001KA1999M+03221MD1510021+9999MW1011
0057601400999991959062400004+34033-004983FM-12+041499999V0209991C00001220001CN0200001N9+02281+01111101571ADDAY121999GF103991011001999999031031MD1110051+9999MW1001
0057601400999991959062406004+34033-004983FM-12+041499999V0209991C00001220001CN0200001N9+01891+01611101611ADDAY101999GF104991041001999999081021MD1510001+9999MW1031
0057601400999991959062412004+34033-004983FM-12+041499999V0203201N00211220001CN0200001N9+03001+01781101371ADDAY101999GF100991001001999999001001MD1810091+9999MW1021
0097601400999991959062418004+34033-004983FM-12+041499999V0202701N00311220001CN0200001N9+03111+01721101211ADDAA199000091AY101999GA1021+012009099GF103991031091012501001031KA1999M+03281MD1610011+9999MW1021
0073601400999991959062500004+34033-004983FM-12+041499999V0202701N00311220001CN0200001N9+02001+01501101741ADDAY121999GA1011+069009009GF101991001001999999001021MD1110091+9999MW1001
0097601400999991959062506004+34033-004983FM-12+041499999V0209991C00001090001CN0200001N9+01721+00891101801ADDAA199000091AY111999GA1031+030009039GF105991031001999999081021KA1999N+01721MD1310041+9999MW1031
0073601400999991959062512004+34033-004983FM-12+041499999V0209991C00001220001CN0200001N9+02391+01611101811ADDAY111999GA1031+006009059GF103991031051008001001001MD1810071+9999MW1011
0113601400999991959062518004+34033-004983FM-12+041499999V0203001N00211220001CN0200001N9+02611+01721101651ADDAA199000091AY111999GA1021+012009089GA2051+069009009GF106991021081012501001061KA1999M+02891MD1310061+9999MW1031
0097601400999991959062606004+34033-004983FM-12+041499999V0209991C00001004201CN0100001N9+01721+01501102101ADDAA199000091AY111999GA1061+003309059GF106991061051004501001001KA1999N+01501MD1310021+9999MW1031
0073601400999991959062612004+34033-004983FM-12+041499999V0200401N00101220001CN0200001N9+02501+01721101921ADDAY111999GA1011+012009089GF101991011011012501001001MD1810071+9999MW1011
0081601400999991959062618004+34033-004983FM-12+041499999V0203001N00311220001CN0200001N9+02891+01391101661ADDAA199000091AY101999GF100991001001999999001001KA1999M+02891MD1710071+9999MW1021
0057601400999991959062700004+34033-004983FM-12+041499999V0202601N00211220001CN0200001N9+01781+01221102141ADDAY101999GF100991001001999999001001MD1110061+9999MW1001
0081601400999991959062706004+34033-004983FM-12+041499999V0209991C00001220001CN0200001N9+02391+01111102081ADDAA199000091AY101999GF100991001001999999001001KA1999N+01611MD1510021+9999MW1021
0057601400999991959062712004+34033-004983FM-12+041499999V0203201N00101220001CN0300001N9+02781+01501101711ADDAY101999GF100991001001999999001001MD1810071+9999MW1021
0097601400999991959062718004+34033-004983FM-12+041499999V0203201N00211220001CN0200001N9+03221+01501101431ADDAA199000091AY101999GA1011+012009099GF101991011091012501001001KA1999M+03221MD1610111+9999MW1021
0073601400999991959062800004+34033-004983FM-12+041499999V0202701N00101220001CN0200001N9+02111+01391101751ADDAY121999GA1031+069009009GF103991001001999999001021MD1310131+9999MW1001
0057601400999991959062806004+34033-004983FM-12+041499999V0209991C00001220001CN0300001N9+01611+01281101771ADDAY101999GF100991001001999999001001MD1810011+9999MW1021
0073601400999991959062812004+34033-004983FM-12+041499999V0200401N00311220001CN0200001N9+03001+01221101421ADDAY101999GA1011+012009089GF101991011021012501001001MD1810111+9999MW1021
0097601400999991959062818004+34033-004983FM-12+041499999V0203201N00101220001CN0200001N9+03391+01721101151ADDAA199000091AY101999GA1011+012009099GF101991011031012501001001KA1999M+03501MD1610081+9999MW1021
0057601400999991959062900004+34033-004983FM-12+041499999V0202801N00411220001CN0200001N9+02221+01501101681ADDAY121999GF100991001001999999001001MD1110121+9999MW1001
0081601400999991959062906004+34033-004983FM-12+041499999V0209991C00001220001CN0200001N9+01721+01391101761ADDAA199000091AY101999GF100991001001999999001001KA1999N+01721MD1310041+9999MW1021
0073601400999991959062912004+34033-004983FM-12+041499999V0203601N00211220001CN0300001N9+03001+01611101461ADDAY101999GA1011+012009089GF101991011011012501001001MD1710071+9999MW1021
0097601400999991959062918004+34033-004983FM-12+041499999V0203001N00311220001CN0300001N9+03281+01501101211ADDAA199000091AY101999GA1011+012009099GF101991011091012501001001KA1999M+03391MD1510091+9999MW1021
0057601400999991959063000004+34033-004983FM-12+041499999V0202801N00411220001CN0200001N9+02111+01391101701ADDAY121999GF100991001001999999001001MD1110071+9999MW1001
0097601400999991959063006004+34033-004983FM-12+041499999V0209991C00001220001CN0300001N9+01781+01281101771ADDAA199000091AY101999GA1011+069009009GF101991001001999999001021KA1999N+01391MD1510021+9999MW1031
0073601400999991959063012004+34033-004983FM-12+041499999V0200401N00311220001CN0300001N9+03001+01611101431ADDAY101999GA1011+012009089GF101991011021012501001021MD1010071+9999MW1031
0113601400999991959063018004+34033-004983FM-12+041499999V0209991C00001220001CN0300001N9+03721+01501101101ADDAA199000091AY101999GA1011+012009099GA2031+060009009GF103991011091012501001031KA1999M+03721MD1510051+9999MW1031
0049601400999991959070100004+34033-004983FM-12+041499999V0200401N00411220001CN0200001N9+02781+01281101461ADDGF100991001001999999001001MD1110041+9999MW1001
0097601400999991959070106004+34033-004983FM-12+041499999V0200401N00511220001CN0200001N9+02391+01391101501ADDAA199000091AY101999GA1021+069009009GF102991001001999999001011KA1999N+02281MD1410001+9999MW1031
0057601400999991959070112004+34033-004983FM-12+041499999V0200401N00721220001CN0200001N9+03391+01501101351ADDAY101999GF100991001001999999001001MD1810081+9999MW1021
0097601400999991959070118004+34033-004983FM-12+041499999V0200401N00821220001CN0100001N9+03391+01391101141ADDAA199000091AY101999GA1031+012009099GF103991031091012501001001KA1999M+03781MD1510021+9999MW1031
0073601400999991959070200004+34033-004983FM-12+041499999V0200801N00511220001CN0200001N9+02781+01221101491ADDAY121999GA1031+060009009GF103991001001999999001031MD1710091+9999MW1001
0081601400999991959070206004+34033-004983FM-12+041499999V0200901N00511220001CN0200001N9+02221+01111101671ADDAA199000091AY101999GF100991001001999999001001KA1999N+02111MD1310111+9999MW1021
0073601400999991959070212004+34033-004983FM-12+041499999V0200601N00511220001CN0200001N9+03391+01501101441ADDAY101999GA1011+012009089GF101991011021012501001001MD1710051+9999MW1031
0097601400999991959070218004+34033-004983FM-12+041499999V0202801N00311012001CN0150001N9+03501+01721101271ADDAA199000091AY111999GA1051+012009099GF107991051091012501001031KA1999M+03721MD1610031+9999MW1031
0073601400999991959070312004+34033-004983FM-12+041499999V0200601N00511090001CN0200001N9+03611+01611101331ADDAY111999GA1051+069009009GF105991001001999999001021MD1810071+9999MW1031
0065601400999991959070400004+34033-004983FM-12+041499999V0209991C00001220001CN0200001N9+02891+01611101511ADDGA1011+030009039GF102991011001999999081031MD1110041+9999MW1001
0057601400999991959070406004+34033-004983FM-12+041499999V0209991C00001220001CN0200001N9+02721+01501101361ADDAY101999GF101991011001999999081021MD1710111+9999MW1031
