0057601400999991957010100004+34033-004983FM-12+041499999V0202601N00211220001CN0100001N9+00611+00501101751ADDAY181999GF104991041081004501001001MD1210081+9999MW1011
0057601400999991957010112004+34033-004983FM-12+041499999V0202601N00511012001CN0100001N9+00891+00721101761ADDAY181999GF108991081081008001999999MD1010061+9999MW1611
0057601400999991957010200004+34033-004983FM-12+041499999V0202601N00721002101CN0060001N9+00891+00891101871ADDAY181999GF108991071051002501999999MD1110141+9999MW1801
0057601400999991957010212004+34033-004983FM-12+041499999V0202601N00621002101CN0010001N9+01281+01281102031ADDAY181999GF108991081071002501999999MD1010111+9999MW1801
0057601400999991957010300004+34033-004983FM-12+041499999V0209991C00001007501CN0100001N9+01001+00891102531ADDAY121999GF105991051051008001001001MD1110081+9999MW1021
0057601400999991957010312004+34033-004983FM-12+041499999V0209991C00001220001CN0200001N9+01221+00781102741ADDAY111999GF102991021051012501001001MD1010051+9999MW1011
0057601400999991957010400004+34033-004983FM-12+041499999V0209991C00001220001CN0150001N9+00501+00391103131ADDAY101999GF100991001001999999001001MD1210051+9999MW1021
0057601400999991957010412004+34033-004983FM-12+041499999V0200401N00311220001CN0300001N9+01221+00391103181ADDAY101999GF100991001001999999001001MD1010001+9999MW1021
0057601400999991957010500004+34033-004983FM-12+041499999V0209991C00001220001CN0350001N9+00281+00111103441ADDAY101999GF100991001001999999001001MD1810011+9999MW1021
0057601400999991957010512004+34033-004983FM-12+041499999V0209991C00001220001CN0400001N9+01391+00501103361ADDAY101999GF100991001001999999001001MD1010071+9999MW1011
0081601400999991957010518004+34033-004983FM-12+041499999V0202001N00101220001CN0400001N9+01281+00111103221ADDAA199000091AY101999GF100991001001999999001001KA1999M+01781MD1310081+9999MW1021
0057601400999991957010600004+34033-004983FM-12+041499999V0209991C00001220001CN0350001N9+00501+00221103501ADDAY101999GF100991001001999999001001MD1110031+9999MW1021
0057601400999991957010606004+34033-004983FM-12+041499999V0209991C00001220001CN0300001N9+00111+00001103481ADDAY101999GF100991001001999999001001MD1510051+9999MW1021
0057601400999991957010612004+34033-004983FM-12+041499999V0200601N00211220001CN0500001N9+01221+00221103331ADDAY101999GF100991001001999999001001MD1810031+9999MW1021
0057601400999991957010700004+34033-004983FM-12+041499999V0209991C00001220001CN0400001N9+00501+00111103431ADDAY101999GF100991001001999999001001MD1010011+9999MW1021
0057601400999991957010712004+34033-004983FM-12+041499999V0200601N00101220001CN0500001N9+01391+00111103281ADDAY101999GF100991001001999999001001MD1010031+9999MW1021
0057601400999991957010800004+34033-004983FM-12+041499999V0209991C00001220001CN0400001N9+00501+00221103481ADDAY101999GF100991001001999999001001MD1010031+9999MW1021
0057601400999991957010806004+34033-004983FM-12+041499999V0209991C00001220001CN0400001N9+00281+00111103351ADDAY101999GF100991001001999999001001MD1510001+9999MW1021
0057601400999991957010812004+34033-004983FM-12+041499999V0200601N00211220001CN0500001N9+01391+00391103241ADDAY101999GF102991001001999999001021MD1010001+9999MW1031
0057601400999991957010900004+34033-004983FM-12+041499999V0209991C00001220001CN0400001N9+00391+00281103211ADDAY101999GF100991001001999999001001MD1410001+9999MW1021
0057601400999991957011012004+34033-004983FM-12+041499999V0200401N00101220001CN0500001N9+01391+00501102531ADDAY101999GF101991001001999999001021MD1810041+9999MW1021
0057601400999991957011100004+34033-004983FM-12+041499999V0209991C00001220001CN0350001N9+00391+00111102321ADDAY101999GF100991001001999999001001MD1810081+9999MW1021
0057601400999991957011112004+34033-004983FM-12+041499999V0200401N00211220001CN0300001N9+01281+00281102071ADDAY101999GF101991011001999999041021MD1010001+9999MW1021
0057601400999991957011200004+34033-004983FM-12+041499999V0200401N00411220001CN0300001N9+00891+00391102211ADDAY101999GF100991001001999999001001MD1310041+9999MW1021
0057601400999991957011206004+34033-004983FM-12+041499999V0200401N00211220001CN0300001N9+01611+00281102321ADDAY101999GF100991001001999999001001MD1310031+9999MW1021
0057601400999991957011212004+34033-004983FM-12+041499999V0200401N00411220001CN0150001N9+01391+00281102231ADDAY101999GF100991001001999999001001MD1810051+9999MW1021
0057601400999991957011218004+34033-004983FM-12+041499999V0209991C00001220001CN0400001N9+01391+00721101941ADDAY101999GF101991011021017501001021MD1310091+9999MW1021
0057601400999991957011300004+34033-004983FM-12+041499999V0201801N00101220001CN0300001N9+00391+00221102261ADDAY101999GF100991001001999999001001MD1810071+9999MW1021
0057601400999991957011312004+34033-004983FM-12+041499999V0202601N00511220001CN0300001N9+01611+00001101641ADDAY101999GF100991001001999999001001MD1810131+9999MW1021
0057601400999991957011400004+34033-004983FM-12+041499999V0202001N01031220001CN0300001N9+00501+00391101591ADDAY101999GF100991001001999999001001MD1010191+9999MW1021
0076601400999991957011412004+34033-004983FM-12+041499999V0200201N001019999999N0200001N9+01221+00611101211ADDAY101999GF107991999051008001001001MD1810061+9999MW1031EQDQ01+000012SCOTLC
0057601400999991957011512004+34033-004983FM-12+041499999V0202401N00411001201CN0060001N9+00611+00281101251ADDAY181999GF107991071021001501999999MD1110121+9999MW1211
0057601400999991957011600004+34033-004983FM-12+041499999V0202601N00411220001CN0200001N9+00221-00111101931ADDAY101999GF101991011021004501001001MD1210111+9999MW1011
0057601400999991957011612004+34033-004983FM-12+041499999V0200201N00101018001CN0250001N9+00501+00111101901ADDAY111999GF106991061081017501001001MD1010001+9999MW1031
0113601400999991957011706004+34033-004983FM-12+041499999V0200201N00101018001CN0150001N9+00221+00221101611ADDAA199001091AY181999GA1011+009009089GA2071+012009059GF107991071081017501999999KA1999N+00221MD1610031+9999MW1031
0057601400999991957011712004+34033-004983FM-12+041499999V0200701N00411012001CN0100001N9+00501+00281101591ADDAY181999GF105991051021012501001001MD1810011+9999MW1011
0057601400999991957011800004+34033-004983FM-12+041499999V0209991C00001012001CN0200001N9+00501+00391101221ADDAY181999GF106991061021012501001001MD1810021+9999MW1251
0057601400999991957011812004+34033-004983FM-12+041499999V0202401N00101007501CN0100001N9+00611+00281101591ADDAY181999GF106991051091008001001031MD1110191+9999MW1011
0129601400999991957011818004+34033-004983FM-12+041499999V0202401N00311007501CN0100001N9+00501+00391101641ADDAA199005091AY181999GA1021+003009079GA2031+007809099GA3081+009009059GF108991081091008001999999KA1999M+01001MD1110201+9999MW1251
0057601400999991957011900004+34033-004983FM-12+041499999V0209991C00001007501CN0100001N9+00501+00391101741ADDAY111999GF108991081051008001999999MD1010001+9999MW1031
0057601400999991957011912004+34033-004983FM-12+041499999V0202401N00721004201CN0150001N9+00611+00391999999ADDAY161999GF108991081071004501999999MD1110161+9999MW1211
0057601400999991957012000004+34033-004983FM-12+041499999V0209991C00001220001CN0250001N9+00111+00111102131ADDAY101999GF100991001001999999001001MD1810051+9999MW1021
0057601400999991957012012004+34033-004983FM-12+041499999V0200601N00511220001CN0250001N9+00891+00281101931ADDAY181999GF102991011001999999091031MD1810051+9999MW1021
0057601400999991957012100004+34033-004983FM-12+041499999V0209991C00001220001CN0200001N9+01001+00001102091ADDAY101999GF100991001001999999001001MD1410001+9999MW1011
0057601400999991957012112004+34033-004983FM-12+041499999V0200401N00311220001CN0300001N9+01001+00111101721ADDAY111999GF100991001001999999001001MD1810171+9999MW1021
0076601400999991957012200004+34033-004983FM-12+041499999V0202001N00101220001CN0700001N9+00001+99999101931ADDAY101999GF100991001001999999001001MD1110051+9999MW1021EQDQ01+027422ATOD  
0057601400999991957012212004+34033-004983FM-12+041499999V0203601N00101220001CN0300001N9+01111+00501101941ADDAY101999GF104991031051008001031021MD1010071+9999MW1031
0057601400999991957012300004+34033-004983FM-12+041499999V0209991C00001220001CN0150001N9+00221+00221102201ADDAY181999GF101991011051012501001001MD1810011+9999MW1021
0057601400999991957012312004+34033-004983FM-12+041499999V0202601N00721036001CN0200001N9+01221+00281101981ADDAY121999GF107991011051012501051021MD1810031+9999MW1031
0057601400999991957012400004+34033-004983FM-12+041499999V0202801N00211007501CN0150001N9+00721+00721102241ADDAY161999GF108991081021008001999999MD1110011+9999MW1611
0057601400999991957012412004+34033-004983FM-12+041499999V0203201N00101012001CN0150001N9+01111+00781102151ADDAY121999GF107991071081008001999999MD1810011+9999MW1031
0057601400999991957012500004+34033-004983FM-12+041499999V0202201N00101012001CN0100001N9+00721+00721102281ADDAY121999GF105991051051012501001001MD1110061+9999MW1011
0057601400999991957012600004+34033-004983FM-12+041499999V0202201N00101220001CN0250001N9+00281+00221102091ADDAY101999GF100991001001999999001001MD1310101+9999MW1021
0057601400999991957012700004+34033-004983FM-12+041499999V0209991C00001220001CN0200001N9+00721+00611103421ADDAY101999GF104991041041012501001001MD1110051+9999MW1021
0057601400999991957012712004+34033-004983FM-12+041499999V0200601N00101220001CN0300001N9+01111+00501103391ADDAY101999GF100991001001999999001001MD1810031+9999MW1021
0057601400999991957012800004+34033-004983FM-12+041499999V0209991C00001220001CN0250001N9+00501+00281103281ADDAY101999GF100991001001999999001001MD1110021+9999MW1021
0057601400999991957012812004+34033-004983FM-12+041499999V0200801N00311090001CN0250001N9+01281+00391103041ADDAY111999GF105991001001999999001021MD1110021+9999MW1031
0057601400999991957012900004+34033-004983FM-12+041499999V0209991C00001090001CN0250001N9+00721+00391103091ADDAY121999GF107991001001999999001021MD1010001+9999MW1031
0057601400999991957012912004+34033-004983FM-12+041499999V0200601N00211090001CN0250001N9+01281+00501102931ADDAY111999GF105991001001999999001021MD1010001+9999MW1021
0057601400999991957013000004+34033-004983FM-12+041499999V0209991C00001220001CN0300001N9+00501+00281103161ADDAY111999GF102991011001999999041021MD1110041+9999MW1021
0057601400999991957013012004+34033-004983FM-12+041499999V0200601N00101220001CN0400001N9+01391+00111103091ADDAY101999GF103991001001999999001021MD1810071+9999MW1021
0057601400999991957013100004+34033-004983FM-12+041499999V0202001N00101220001CN0300001N9+00501+00281103421ADDAY101999GF100991001001999999001001MD1110091+9999MW1021
0057601400999991957013112004+34033-004983FM-12+041499999V0200401N00101220001CN0400001N9+01281+00501103221ADDAY101999GF101991001001999999001021MD1810111+9999MW1031
0081601400999991957013118004+34033-004983FM-12+041499999V0209991C00001220001CN0500001N9+01501+00501103021ADDAA199000091AY101999GF100991001001999999001001KA1999M+01721MD1410001+9999MW1021
0057601400999991957020100004+34033-004983FM-12+041499999V0202401N00101220001CN0300001N9+00501+00221103281ADDAY101999GF100991001001999999001001MD1010001+9999MW1021
0057601400999991957020200004+34033-004983FM-12+041499999V0209991C00001220001CN0300001N9+00391+00001102841ADDAY101999GF100991001001999999001001MD1010001+9999MW1021
0057601400999991957020212004+34033-004983FM-12+041499999V0200201N00101220001CN0400001N9+01501-00111102471ADDAY101999GF100991001001999999001001MD1810041+9999MW1021
0057601400999991957020306004+34033-004983FM-12+041499999V0209991C00001220001CN0300001N9+00391+00001102691ADDAY101999GF103991001001999999001021MD1410001+9999MW1031
0057601400999991957020312004+34033-004983FM-12+041499999V0203401N00101036001CN0300001N9+01221+00281102681ADDAY121999GF107991071001999999051999MD1010031+9999MW1031
0073601400999991957020400004+34033-004983FM-12+041499999V0202201N00101220001CN0300001N9+00501+00001102951ADDAY111999GA1011+999999999GF102991011001999999041021MD1210051+9999MW1021
0057601400999991957020412004+34033-004983FM-12+041499999V0203601N00211090001CN0300001N9+01391-00111102691ADDAY111999GF105991011001999999041021MD1810081+9999MW1031
0057601400999991957020512004+34033-004983FM-12+041499999V0209991C00001220001CN0300001N9+01721+00221102431ADDAY101999GF102991001001999999001021MD1010011+9999MW1031
0057601400999991957020600004+34033-004983FM-12+041499999V0202201N00101220001CN0300001N9+00721+00001102801ADDAY101999GF100991001001999999001001MD1110051+9999MW1011
0057601400999991957020612004+34033-004983FM-12+041499999V0200401N00101220001CN0300001N9+01501+00001102581ADDAY101999GF103991021001999999041021MD1810101+9999MW1031
0057601400999991957020618004+34033-004983FM-12+041499999V0209991C000019999999N0300001N9+01891+00281102441ADDAY111999GF106991001001999999041021MD1310071+9999MW1031
0057601400999991957020700004+34033-004983FM-12+041499999V0209991C00001220001CN0300001N9+00611+00001102821ADDAY101999GF104991001001999999001021MD1110041+9999MW1031
0057601400999991957020712004+34033-004983FM-12+041499999V0200201N00101220001CN0350001N9+01781-00221102601ADDAY101999GF104991011001999999041021MD1810031+9999MW1031
0043601400999991957020800004+34033-004983FM-12+041499999V0209991C00001090001CN0300001N9+00781+00001102701ADDAY121999GF105991001001999999001021MW1021
0057601400999991957020812004+34033-004983FM-12+041499999V0209991C00001090001CN0300001N9+01001+00111102641ADDAY121999GF106991001001999999001021MD1810041+9999MW1021
0057601400999991957020900004+34033-004983FM-12+041499999V0202401N00101220001CN0300001N9+00891-00111102851ADDAY111999GF103991001001999999001021MD1210041+9999MW1011
0057601400999991957020906004+34033-004983FM-12+041499999V0202001N00101220001CN0300001N9+00721-00111102771ADDAY101999GF101991001001999999001021MD1510041+9999MW1021
0057601400999991957020912004+34033-004983FM-12+041499999V0209991C00001220001CN0400001N9+02001+00391102601ADDAY101999GF100991001001999999001001MD1810041+9999MW1021
0057601400999991957021000004+34033-004983FM-12+041499999V0202401N00101220001CN0300001N9+00781+00501102931ADDAY101999GF100991001001999999001001MD1210071+9999MW1021
0057601400999991957021012004+34033-004983FM-12+041499999V0202801N00101012001CN0300001N9+01501+00891102961ADDAY111999GF105991051021012501001001MD1810011+9999MW1031
0057601400999991957021100004+34033-004983FM-12+041499999V0209991C00001220001CN0300001N9+00611+00391102911ADDAY101999GF100991001001999999001001MD1110031+9999MW1021
0057601400999991957021200004+34033-004983FM-12+041499999V0202401N00101220001CN0300001N9+00721+00281102511ADDAY101999GF100991001001999999001001MD1110061+9999MW1021
0057601400999991957021212004+34033-004983FM-12+041499999V0200401N00101220001CN0400001N9+01501+00501102551ADDAY101999GF103991001001999999001021MD1110031+9999MW1031
0057601400999991957021300004+34033-004983FM-12+041499999V0202001N00101220001CN0350001N9+00501+00221102781ADDAY101999GF100991001001999999001001MD1010091+9999MW1021
0057601400999991957021312004+34033-004983FM-12+041499999V0200401N00101220001CN0300001N9+01391+00611102561ADDAY101999GF100991001001999999001001MD1810041+9999MW1021
0057601400999991957021400004+34033-004983FM-12+041499999V0201801N00101220001CN0300001N9+00721+00501102651ADDAY101999GF100991001001999999001001MD1110031+9999MW1021
0057601400999991957021412004+34033-004983FM-12+041499999V0202601N00051220001CN0250001N9+01391+00781102601ADDAY121999GF102991021051008001001001MD1010021+9999MW1011
0057601400999991957021500004+34033-004983FM-12+041499999V0209991C00001220001CN0200001N9+00721+00501102501ADDAY101999GF100991001001999999001001MD1410001+9999MW1021
0057601400999991957021600004+34033-004983FM-12+041499999V0202601N00101007501CN0250001N9+01281+01001101971ADDAY121999GF107991071051008001001001MD1410001+9999MW1021
0057601400999991957021612004+34033-004983FM-12+041499999V0202601N00621220001CN0200001N9+01721+00721101781ADDAY111999GF103991031081012501001021MD1810091+9999MW1011
0049601400999991957021700004+34033-004983FM-12+041499999V0209991C00001090001CN0300001N9+01001+00781101761ADDGF105991041021008001001021MD1110011+9999MW1021
0057601400999991957021712004+34033-004983FM-12+041499999V0202601N00821012001CN0300001N9+01721+00781101501ADDAY101999GF105991051021012501001001MD1710081+9999MW1031
0057601400999991957021800004+34033-004983FM-12+041499999V0202601N00311004201CN0080001N9+00891+00781101981ADDAY181999GF108991081071004501999999MD1210111+9999MW1151
0057601400999991957021812004+34033-004983FM-12+041499999V0202801N00101012001CN0200001N9+01391+00611102151ADDAY121999GF105991051081008001001001MD1810021+9999MW1011
0049601400999991957021900004+34033-004983FM-12+041499999V0209991C00001220001CN0300001N9+00891+00501101901ADDGF100991001001999999001001MD1810091+9999MW1001
0057601400999991957021906004+34033-004983FM-12+041499999V0200801N00101220001CN0300001N9+00721+00391101631ADDAY101999GF103991001001999999001021MD1710121+9999MW1031
0057601400999991957021912004+34033-004983FM-12+041499999V0200801N00211090001CN0300001N9+01501+00501101431ADDAY111999GF105991041001999999031021MD1810021+9999MW1011
0057601400999991957021918004+34033-004983FM-12+041499999V0202601N00211090001CN0300001N9+01501+00721101421ADDAY111999GF106991031001999999041021MD1310161+9999MW1021
0073601400999991957022000004+34033-004983FM-12+041499999V0209991C00001007501CN0150001N9+01111+00721101851ADDAY121999GA1081+006009059GF108991081051008001999999MD1210071+9999MW1001
0057601400999991957022012004+34033-004983FM-12+041499999V0209991C00001220001CN0250001N9+01501+00721101991ADDAY111999GF102991021011012501001001MD1010001+9999MW1031
0057601400999991957022100004+34033-004983FM-12+041499999V0209991C00001220001CN0200001N9+00721+00391102101ADDAY101999GF100991001001999999001001MD1110061+9999MW1021
0057601400999991957022112004+34033-004983FM-12+041499999V0203201N00101220001CN0300001N9+01721+00501101921ADDAY101999GF101991011011012501031001MD1010001+9999MW1031
0049601400999991957022200004+34033-004983FM-12+041499999V0202001N00101220001CN0200001N9+00891+00611102221ADDGF100991001001999999001001MD1010061+9999MW1001
0043601400999991957022212004+34033-004983FM-12+041499999V0203201N00101220001CN0300001N9+01721+00001101921ADDAY101999GF101991011011012501031001MW1031
0057601400999991957022306004+34033-004983FM-12+041499999V0202201N00101220001CN0300001N9+00391+00281102551ADDAY101999GF100991001001999999001001MD1410001+9999MW1021
0057601400999991957022312004+34033-004983FM-12+041499999V0200501N00101220001CN0400001N9+01721+00611102311ADDAY101999GF100991001001999999001001MD1810021+9999MW1021
0057601400999991957022400004+34033-004983FM-12+041499999V0209991C00001220001CN0200001N9+00891+00501102241ADDAY101999GF100991001001999999001001MD1010011+9999MW1021
0043601400999991957022412004+34033-004983FM-12+041499999V0202401N00101220001CN0220001N9+01891+00391101941ADDAY101999GF100991001001999999001001MW1021
0081601400999991957022418004+34033-004983FM-12+041499999V0202601N00101220001CN0400001N9+02391+00891101581ADDAA199000091AY101999GF100991001001999999001001KA1999M+02611MD1610091+9999MW1021
0057601400999991957022500004+34033-004983FM-12+041499999V0209991C00001220001CN0200001N9+01001+00281101891ADDAY101999GF100991001001999999001001MD1010061+9999MW1001
0057601400999991957022512004+34033-004983FM-12+041499999V0209991C00001220001CN0300001N9+02221+00221101391ADDAY101999GF101991011001999999031001MD1810121+9999MW1031
0057601400999991957022612004+34033-004983FM-12+041499999V0209991C00001090001CN0300001N9+02001+00611101231ADDAY121999GF107991031001999999081021MD1010061+9999MW1031
0057601400999991957022712004+34033-004983FM-12+041499999V0209991C00001220001CN0100001N9+01781+01111101531ADDAY101999GF102991021001999999031001MD1010001+9999MW1031
0057601400999991957022812004+34033-004983FM-12+041499999V0200801N00621220001CN0200001N9+02111+00721101691ADDAY101999GF103991011021017501001021MD1810051+9999MW1031
0057601400999991957030312004+34033-004983FM-12+041499999V0200801N00411090001CN0200001N9+01781+00891101131ADDAY121999GF107991021001999999031021MD1610021+9999MW1021
0057601400999991957030412004+34033-004983FM-12+041499999V0209991C00001220001CN0200001N9+01781+01111101451ADDAY111999GF102991011021017501001021MD1810041+9999MW1031
0049601400999991957030500004+34033-004983FM-12+041499999V0209991C00001220001CN0200001N9+01281+01111101691ADDGF103991021021017501081001MD1110031+9999MW1001
0057601400999991957030512004+34033-004983FM-12+041499999V0209991C00001220001CN0200001N9+02111+01221101521ADDAY101999GF103991011021017501001021MD1810011+9999MW1021
0057601400999991957030612004+34033-004983FM-12+041499999V0202401N00311004201CN0100001N9+01391+01111102181ADDAY181999GF108991081021004501999999MD1110161+9999MW1031
0057601400999991957030618004+34033-004983FM-12+041499999V0203001N00211220001CN0150001N9+01721+01111102011ADDAY181999GF103991031021008001001001MD1310021+9999MW1021
0057601400999991957030700004+34033-004983FM-12+041499999V0202201N00211220001CN0200001N9+01001+00891102331ADDAY121999GF100991001001999999001001MD1010021+9999MW1001
0057601400999991957030712004+34033-004983FM-12+041499999V0200601N00101220001CN0200001N9+01281+01001102131ADDAY141999GF101991011021008001001021MD1810081+9999MW1011
0035601400999991957030800004+34033-004983FM-12+041499999V0209991C00001220001CN0200001N9+00781+00721101981ADDGF103991001001999999001021MW1001
0057601400999991957030812004+34033-004983FM-12+041499999V0201401N00101090001CN0300001N9+02111+00611101531ADDAY111999GF105991001001999999001021MD1810031+9999MW1031
0049601400999991957030900004+34033-004983FM-12+041499999V0202201N00101220001CN0250001N9+01111+00611101731ADDGF100991001001999999001001MD1110041+9999MW1001
0057601400999991957030912004+34033-004983FM-12+041499999V0200601N00211090001CN0400001N9+02281+00501101471ADDAY111999GF106991001001999999001021MD1810021+9999MW1021
0049601400999991957031000004+34033-004983FM-12+041499999V0209991C00001220001CN0300001N9+01221+00721101781ADDGF103991001001999999001021MD1210031+9999MW1001
0097601400999991957031006004+34033-004983FM-12+041499999V0200601N00211090001CN0250001N9+01501+00221101511ADDAA199000091AY111999GA1061+069009009GF106991001001999999001021KA1999N+01111MD1710081+9999MW1021
0057601400999991957031012004+34033-004983FM-12+041499999V0200401N00311090001CN0250001N9+02001+00111101331ADDAY121999GF108991001001999999001021MD1810061+9999MW1021
0057601400999991957031106004+34033-004983FM-12+041499999V0200601N00101220001CN0240001N9+02111+00611100731ADDAY101999GF101991001001999999001021MD1610071+9999MW1021
0057601400999991957031112004+34033-004983FM-12+041499999V0200201N00101220001CN0300001N9+02891+00611100541ADDAY101999GF102991001001999999001021MD1810211+9999MW1031
0049601400999991957031200004+34033-004983FM-12+041499999V0202601N00411036001CN0200001N9+01501+01281100951ADDGF108991081001999999031999MD1110091+9999MW1001
0057601400999991957031206004+34033-004983FM-12+041499999V0209991C00001036001CN0150001N9+01001+01001101151ADDAY181999GF108991031021017501081999MD1310101+9999MW1601
0057601400999991957031212004+34033-004983FM-12+041499999V0200401N00311001201CN0100001N9+01221+01001101151ADDAY161999GF108991051071001501071999MD1110011+9999MW1601
0057601400999991957031300004+34033-004983FM-12+041499999V0202601N00101012001CN0250001N9+00891+00721101511ADDAY181999GF107991071081008001999999MD1110021+9999MW1801
0057601400999991957031312004+34033-004983FM-12+041499999V0202601N00821015001CN0150001N9+01281+00721101551ADDAY101999GF107991061081012501031999MD1810081+9999MW1031
0057601400999991957031318004+34033-004983FM-12+041499999V0202401N00621009001CN0080001N9+01001+01001101631ADDAY181999GF108991081081004501999999MD1210151+9999MW1611
0057601400999991957031400004+34033-004983FM-12+041499999V0202001N99999012001CN0150001N9+01001+01001101761ADDAY161999GF108991081081008001999999MD1110071+9999MW1611
0057601400999991957031412004+34033-004983FM-12+041499999V0202401N00411002101CN0100001N9+01281+01111101951ADDAY121999GF107991051071002501999999MD1110011+9999MW1021
0089601400999991957031500004+34033-004983FM-12+041499999V0209991C00001012001CN0150001N9+00891+00891102271ADDAY181999GA1011+012009089GA2071+015009059GF108991081071012501999999MD1010101+9999MW1001
0116601400999991957031506004+34033-004983FM-12+041499999V0200201N00211220001CN0200001N9+00781+00781102151ADDAA199013091AY181999GA1021+015009059GF102991021051017501999001KA1999N+00781MD1510041+9999MW1021EQDQ01    003SCOMCG
0057601400999991957031512004+34033-004983FM-12+041499999V0200401N00411220001CN0250001N9+01501+00891102191ADDAY101999GF101991011021012501081001MD1010001+9999MW1031
0057601400999991957031612004+34033-004983FM-12+041499999V0200601N00311220001CN0150001N9+01611+00611102271ADDAY101999GF100991001001999999001001MD1010001+9999MW1021
0049601400999991957031700004+34033-004983FM-12+041499999V0209991C00001220001CN0250001N9+01221+00721102151ADDGF100991001001999999001001MD1810021+9999MW1001
0057601400999991957031712004+34033-004983FM-12+041499999V0200401N00411220001CN0300001N9+01891+00391101931ADDAY101999GF100991001001999999001001MD1810041+9999MW1021
0057601400999991957031800004+34033-004983FM-12+041499999V0201801N00101220001CN0200001N9+01001+00721102021ADDAY101999GF100991001001999999001001MD1110091+9999MW1021
0049601400999991957031900004+34033-004983FM-12+041499999V0201801N00101220001CN0300001N9+01281+00781101941ADDGF100991001001999999001001MD1110041+9999MW1001
0057601400999991957031912004+34033-004983FM-12+041499999V0200201N00261220001CN0400001N9+02391+00721101691ADDAY101999GF100991001001999999001001MD1810071+9999MW1021
0057601400999991957032000004+34033-004983FM-12+041499999V0202001N00211090001CN0250001N9+01281+00781102071ADDAY101999GF106991011001999999041021MD1110061+9999MW1001
0057601400999991957032006004+34033-004983FM-12+041499999V0209991C00001090001CN0250001N9+01001+00721101971ADDAY121999GF107991011001999999041021MD1610041+9999MW1021
0057601400999991957032012004+34033-004983FM-12+041499999V0200201N00311090001CN0300001N9+02221+00611101681ADDAY121999GF106991001001999999001021MD1810151+9999MW1011
0049601400999991957032100004+34033-004983FM-12+041499999V0202601N00211090001CN0150001N9+01611+01001101561ADDGF107991001001999999001021MD1810051+9999MW1001
0057601400999991957032112004+34033-004983FM-12+041499999V0203101N00211036001CN0150001N9+01611+01221101771ADDAY121999GF107991041081004501081021MD1210161+9999MW1021
0057601400999991957032200004+34033-004983FM-12+041499999V0202201N00101220001CN0300001N9+00891+00781101921ADDAY181999GF102991021051012501001001MD1810021+9999MW1021
0057601400999991957032212004+34033-004983FM-12+041499999V0202601N00511012001CN0300001N9+01721+00891101601ADDAY111999GF105991051021012501001021MD1810081+9999MW1031
0078601400999991957032300004+34033-004983FM-12+041499999V0202401N00621004201CN0200001N9+01221+01001101911ADDAY101999GF108991081061004501999999MW1001EQDQ01+000012APCTENQ02+000002APC3  
0076601400999991957032312004+34033-004983FM-12+041499999V0202801N004119999999N0300001N9+01501+00891102051ADDAY161999GF107991999081012501001001MD1110051+9999MW1031EQDQ01+000032SCOTLC
0057601400999991957032406004+34033-004983FM-12+041499999V0202001N00211220001CN0200001N9+00501+00501102651ADDAY101999GF101991011001999999031001MD1310051+9999MW1031
0057601400999991957032412004+34033-004983FM-12+041499999V0202801N00211220001CN0250001N9+01501+00611102621ADDAY111999GF103991021021012501001021MD1010021+9999MW1011
0057601400999991957032612004+34033-004983FM-12+041499999V0200201N00311015001CN0300001N9+01781+01111102251ADDAY121999GF106991051021017501001021MD1810041+9999MW1031
0049601400999991957032700004+34033-004983FM-12+041499999V0209991C00001220001CN0200001N9+01111+00891102131ADDGF100991001001999999001001MD1810011+9999MW1001
0057601400999991957032706004+34033-004983FM-12+041499999V0209991C00001220001CN0200001N9+00891+00781101951ADDAY101999GF100991001001999999001001MD1510061+9999MW1021
0057601400999991957032712004+34033-004983FM-12+041499999V0200601N00101220001CN0300001N9+02221+00781101541ADDAY101999GF100991001001999999001001MD1110151+9999MW1021
0049601400999991957032800004+34033-004983FM-12+041499999V0200601N00511220001CN0300001N9+01781+00721101551ADDGF100991001001999999001001MD1110031+9999MW1001
0057601400999991957032912004+34033-004983FM-12+041499999V0202801N00211220001CN0150001N9+02001+01391101891ADDAY101999GF103991011021017501001021MD1010021+9999MW1031
0057601400999991957033006004+34033-004983FM-12+041499999V0209991C00001004201CN0150001N9+01281+01111102171ADDAY111999GF107991071051004501001001MD1810031+9999MW1031
0057601400999991957033012004+34033-004983FM-12+041499999V0203601N00101220001CN0120001N9+02001+01221101911ADDAY111999GF103991001001999999001021MD1810131+9999MW1031
0057601400999991957033100004+34033-004983FM-12+041499999V0202601N00411220001CN0100001N9+01391+01111101951ADDAY101999GF102991001001999999001021MD1110081+9999MW1001
0057601400999991957033112004+34033-004983FM-12+041499999V0202801N00311090001CN0250001N9+01891+00891101901ADDAY111999GF107991011011012501001021MD1010041+9999MW1011
0049601400999991957040100004+34033-004983FM-12+041499999V0202401N00311004201CN0200001N9+01501+01221102221ADDGF108991081061004501999999MD1110091+9999MW1001
0057601400999991957040212004+34033-004983FM-12+041499999V0202601N00311220001CN0250001N9+01721+01721102311ADDAY121999GF103991001001999999001021MD1810111+9999MW1031
0057601400999991957040300004+34033-004983FM-12+041499999V0202201N00101220001CN0300001N9+00891+00391102481ADDAY101999GF100991001001999999001001MD1610021+9999MW1001
0057601400999991957040312004+34033-004983FM-12+041499999V0200601N00511220001CN0350001N9+02111-00221101951ADDAY101999GF101991001001999999001021MD1810151+9999MW1021
0049601400999991957040400004+34033-004983FM-12+041499999V0200601N00411220001CN0300001N9+01501+00111101721ADDGF100991001001999999001001MD1810011+9999MW1001
0057601400999991957040406004+34033-004983FM-12+041499999V0200601N00311220001CN0300001N9+01221+00281101511ADDAY101999GF100991001001999999001001MD1610091+9999MW1021
0057601400999991957040412004+34033-004983FM-12+041499999V0200401N00211220001CN0300001N9+02501+00281101171ADDAY111999GF103991001001999999001021MD1810091+9999MW1021
0057601400999991957040512004+34033-004983FM-12+041499999V0203201N00211015001CN0200001N9+01781+01001101591ADDAY111999GF107991071081012501999999MD1010011+9999MW1021
0057601400999991957040612004+34033-004983FM-12+041499999V0202601N00821012001CN0300001N9+01891+00281101381ADDAY111999GF107991071021012501001001MD1710051+9999MW1031
0049601400999991957040700004+34033-004983FM-12+041499999V0202401N00311007501CN0200001N9+01281+00891101711ADDGF108991081051008001999999MD1110071+9999MW1001
0057601400999991957040712004+34033-004983FM-12+041499999V0202601N00211220001CN0200001N9+02001+00891101491ADDAY101999GF102991021021012501001001MD1010121+9999MW1021
0057601400999991957040812004+34033-004983FM-12+041499999V0203201N00101090001CN0250001N9+02111+01001100561ADDAY111999GF105991001001999999001021MD1710231+9999MW1031
0049601400999991957040900004+34033-004983FM-12+041499999V0209991C00001090001CN0200001N9+01281+01001100441ADDGF107991041001999999091021MD1810081+9999MW1001
0057601400999991957040906004+34033-004983FM-12+041499999V0209991C00001090001CN0200001N9+01391+01001100441ADDAY121999GF107991041001999999091021MD1810081+9999MW1001
0057601400999991957040912004+34033-004983FM-12+041499999V0202401N00361007501CN0300001N9+01611+00611099841ADDAY111999GF107991071021008001041031MD1610231+9999MW1031
0057601400999991957041000004+34033-004983FM-12+041499999V0202601N01081004201CN0100001N9+01111+01001100101ADDAY181999GF108991081091004501999999MD1210061+9999MW1611
0057601400999991957041012004+34033-004983FM-12+041499999V0202601N006219999999N0100001N9+01281+00891100781ADDAY181999GF108991031021008001999999MD1210131+9999MW1251
0057601400999991957041106004+34033-004983FM-12+041499999V0202601N00101012001CN0200001N9+01781+00781101131ADDAY111999GF108991081021012501001001MD1310011+9999MW1021
0057601400999991957041112004+34033-004983FM-12+041499999V0203001N00211012001CN0250001N9+01501+00781100991ADDAY121999GF107991071081008001001001MD1810051+9999MW1021
0057601400999991957041200004+34033-004983FM-12+041499999V0209991C00001036001CN0150001N9+01111+01001100751ADDAY161999GF108991041051004501071999MD1810081+9999MW1611
0057601400999991957041212004+34033-004983FM-12+041499999V0200401N00411036001CN0300001N9+01501+00891100711ADDAY161999GF105991031021008001041021MD1010011+9999MW1031
0097601400999991957041306004+34033-004983FM-12+041499999V0202401N00311012001CN0200001N9+01001+01001101551ADDAA199006091AY181999GA1071+010209059GF107991071021012501999999KA1999N+01001MD1310071+9999MW1011
0049601400999991957041400004+34033-004983FM-12+041499999V0202401N00211012001CN0100001N9+00781+00721101921ADDGF105991051021012501001001MD1110031+9999MW1001
0089601400999991957041412004+34033-004983FM-12+041499999V0202601N00411007501CN0100001N9+01501+00721101971ADDAY111999GA1051+009009089GA2031+030009039GF106991051021008001081001MD1010021+9999MW1031
0057601400999991957041512004+34033-004983FM-12+041499999V0200401N00411220001CN0200001N9+01721+00891101931ADDAY101999GF100991001001999999001001MD1810081+9999MW1021
0097601400999991957041518004+34033-004983FM-12+041499999V0200801N00511220001CN0400001N9+02111+00611101541ADDAA199000091AY101999GA1011+069009009GF101991001001999999001021KA1999M+02221MD1510071+9999MW1021
0057601400999991957041600004+34033-004983FM-12+041499999V0200601N00511220001CN0250001N9+01281+00611101871ADDAY121999GF100991001001999999001001MD1010131+9999MW1001
0057601400999991957041612004+34033-004983FM-12+041499999V0203201N00211090001CN0300001N9+01891+00781101641ADDAY121999GF107991041001999999081021MD1610031+9999MW1031
0049601400999991957041700004+34033-004983FM-12+041499999V0202401N00101220001CN0250001N9+01501+01001101831ADDGF103991021001999999081021MD1810041+9999MW1001
0073601400999991957041712004+34033-004983FM-12+041499999V0202801N00511220001CN0250001N9+01891+00721101801ADDAY101999GA1011+015009089GF103991011021017501081021MD1810051+9999MW1031
0049601400999991957041800004+34033-004983FM-12+041499999V0202601N00311220001CN0200001N9+00891+00721102041ADDGF102991011041017501081001MD1110051+9999MW1001
0049601400999991957041900004+34033-004983FM-12+041499999V0201801N00211220001CN0200001N9+00891+00721101821ADDGF104991011051012501001021MD1610051+9999MW1001
0057601400999991957041912004+34033-004983FM-12+041499999V0202801N00211036001CN0100001N9+01111+00781101501ADDAY121999GF108991041021004501071001MD1810081+9999MW1021
0057601400999991957042000004+34033-004983FM-12+041499999V0201601N00311036001CN0080001N9+00891+00891101441ADDAY191999GF108991041091008001081021MD1810051+9999MW1951
0076601400999991957042012004+34033-004983FM-12+041499999V0209991C00001012001CN0120001N9+01501+01001101221ADDAY161999GF107991999081008001001001MD1810061+9999MW1031EQDQ01+000062SCOTLC
0049601400999991957042100004+34033-004983FM-12+041499999V0200201N00101012001CN0150001N9+01221+01001101681ADDGF105991051081008001001001MD1310181+9999MW1001
0057601400999991957042112004+34033-004983FM-12+041499999V0200601N00311220001CN0200001N9+01781+01001101781ADDAY101999GF101991011021012501001001MD1110041+9999MW1031
0049601400999991957042200004+34033-004983FM-12+041499999V0202801N00311220001CN0300001N9+01391+01221101831ADDGF100991001001999999001001MD1110041+9999MW1001
0057601400999991957042212004+34033-004983FM-12+041499999V0202201N00101007501CN0150001N9+01781+01281101901ADDAY111999GF106991061021008001001001MD1810051+9999MW1021
0057601400999991957042400004+34033-004983FM-12+041499999V0202301N00411220001CN0200001N9+01001+00721101491ADDAY101999GF100991001001999999001001MD1110011+9999MW1021
0057601400999991957042412004+34033-004983FM-12+041499999V0209991C00001090001CN0150001N9+01891+01221101571ADDAY121999GF107991011021012501001021MD1810071+9999MW1021
0049601400999991957042500004+34033-004983FM-12+041499999V0202401N00211220001CN0150001N9+01501+01281101591ADDGF101991001001999999001021MD1110041+9999MW1001
0057601400999991957042512004+34033-004983FM-12+041499999V0203201N00101009001CN0100001N9+01721+01281101431ADDAY121999GF108991051081004501999999MD1810031+9999MW1211
0057601400999991957042600004+34033-004983FM-12+041499999V0209991C00001007501CN0100001N9+01281+01221101421ADDAY181999GF108991081091008001001001MD1110021+9999MW1291
0089601400999991957042612004+34033-004983FM-12+041499999V0202801N00411009001CN0080001N9+01611+01111101241ADDAY121999GA1041+004809089GA2051+006909059GF107991071081004501999999MD1310031+9999MW1011
0057601400999991957042700004+34033-004983FM-12+041499999V0209991C00001220001CN0150001N9+01221+01001101291ADDAY101999GF104991041051008001001001MD1810011+9999MW1021
0057601400999991957042712004+34033-004983FM-12+041499999V0202601N00411220001CN0300001N9+01781+00611100921ADDAY111999GF102991021021012501001001MD1810121+9999MW1021
0057601400999991957042812004+34033-004983FM-12+041499999V0203001N00411015001CN0200001N9+01501+00721101141ADDAY161999GF107991071081012501001001MD1810061+9999MW1031
0059601400999991957042912004+34033-004983FM-12+041499999V0202601N00621012001CN0130001N9+01221+01001999999ADDAY161999GA1061+015009059GF107991061051012501031001MW1211
0057601400999991957043000004+34033-004983FM-12+041499999V0202601N00101004201CN0100001N9+01111+01001101271ADDAY161999GF108991081051004501999999MD1110031+9999MW1611
0057601400999991957043012004+34033-004983FM-12+041499999V0202601N00621012001CN0200001N9+01611+00721101221ADDAY101999GF107991061021012501001021MD1010031+9999MW1031
0057601400999991957050100004+34033-004983FM-12+041499999V0202601N00101220001CN0150001N9+01001+00891101571ADDAY181999GF102991021051012501001001MD1110041+9999MW1021
0108601400999991957050112004+34033-004983FM-12+041499999V0202801N00511015001CN0200001N9+01721+00891101551ADDAY121999GA1031+012009089GA2041+030009059GF106991061081012501999001MD1510001+9999MW1031EQDQ01    003SCOMCG
0049601400999991957050200004+34033-004983FM-12+041499999V0209991C00001007501CN0100001N9+01001+01001101951ADDGF105991051051008001001001MD1110031+9999MW1021
0097601400999991957050206004+34033-004983FM-12+041499999V0209991C00001220001CN0200001N9+00781+00721101871ADDAA199000091AY111999GA1041+009909059GF104991041051008001001001KA1999N+00781MD1510001+9999MW1021
0057601400999991957050212004+34033-004983FM-12+041499999V0203201N00311007501CN0200001N9+01611+00891101671ADDAY111999GF105991051021008001001001MD1810081+9999MW1021
0057601400999991957050312004+34033-004983FM-12+041499999V0200601N00211220001CN0200001N9+01611+00781101361ADDAY111999GF104991041021012501001031MD1710111+9999MW1021
0057601400999991957050400004+34033-004983FM-12+041499999V0202001N00211009001CN0060001N9+01221+00891101301ADDAY181999GF108991081081004501999999MD1010021+9999MW1801
0092601400999991957050412004+34033-004983FM-12+041499999V0202801N00311220001CN0120001N9+01281+01111101411ADDAY161999GA1041+999999079GF199999011071004501071999MD1210121+9999MW1211EQDQ01+000012SCOTCV
0057601400999991957050512004+34033-004983FM-12+041499999V0200201N00211220001CN0250001N9+01781+00891101511ADDAY101999GF102991021021012501001001MD1810031+9999MW1031
0057601400999991957050612004+34033-004983FM-12+041499999V0202601N00311004201CN0080001N9+01111+01001101581ADDAY161999GF108991051051004501021999MD1210081+9999MW1631
0057601400999991957050712004+34033-004983FM-12+041499999V0202601N00101220001CN0200001N9+01781+00891101881ADDAY111999GF104991041021012501001001MD1010001+9999MW1031
0057601400999991957050800004+34033-004983FM-12+041499999V0202401N00101220001CN0200001N9+01111+01111102071ADDAY101999GF100991001001999999001001MD1010061+9999MW1011
0057601400999991957050812004+34033-004983FM-12+041499999V0202601N00411012001CN0150001N9+01781+01221101921ADDAY121999GF106991061021012501091091MD1810011+9999MW1021
0057601400999991957050900004+34033-004983FM-12+041499999V0203001N00101007501CN0100001N9+01281+01221101951ADDAY111999GF107991071051008001999999MD1010011+9999MW1011
0057601400999991957050912004+34033-004983FM-12+041499999V0203601N00211012001CN0150001N9+01781+01111101711ADDAY101999GF106991061021012501031021MD1610181+9999MW1031
0057601400999991957051000004+34033-004983FM-12+041499999V0209991C00001012001CN0150001N9+01501+01281101911ADDAY121999GF107991051051012501071999MD1110031+9999MW1021
0057601400999991957051012004+34033-004983FM-12+041499999V0203001N00211220001CN0200001N9+02281+01501101711ADDAY111999GF103991031021012501001001MD1710061+9999MW1031
0057601400999991957051100004+34033-004983FM-12+041499999V0202201N00211220001CN0200001N9+01611+01501101981ADDAY111999GF102991021051012501001001MD1110041+9999MW1021
0057601400999991957051112004+34033-004983FM-12+041499999V0202601N00211220001CN0150001N9+02281+01721101831ADDAY141999GF104991041051008001001001MD1810021+9999MW1021
0057601400999991957051200004+34033-004983FM-12+041499999V0202501N00101004201CN0200001N9+01611+01611102181ADDAY111999GF107991071061004501999999MD1110071+9999MW1031
0057601400999991957051212004+34033-004983FM-12+041499999V0202801N00101007501CN0150001N9+01891+01391102311ADDAY121999GF108991081051008001999999MD1110081+9999MW1021
0057601400999991957051312004+34033-004983FM-12+041499999V0200401N00511220001CN0300001N9+02611+00781101621ADDAY101999GF102991001001999999001021MD1810161+9999MW1021
0057601400999991957051412004+34033-004983FM-12+041499999V0203401N00101220001CN0150001N9+02391+01221101721ADDAY101999GF100991001001999999001001MD1810021+9999MW1021
0057601400999991957051500004+34033-004983FM-12+041499999V0201801N00101220001CN0300001N9+01781+01501101571ADDAY111999GF103991001001999999001021MD1110141+9999MW1011
0073601400999991957051600004+34033-004983FM-12+041499999V0200401N00101220001CN0300001N9+01781+01221101611ADDAY101999GA1011+069009009GF101991001001999999001021MD1210121+9999MW1031
0057601400999991957051612004+34033-004983FM-12+041499999V0200801N00311090001CN0300001N9+02781+01281101251ADDAY121999GF107991001001999999001021MD1810101+9999MW1021
0057601400999991957051618004+34033-004983FM-12+041499999V0203201N00151090001CN0300001N9+02891+01611101611ADDAY121999GF107991011021017501001021MD1410001+9999MW1021
0057601400999991957051700004+34033-004983FM-12+041499999V0209991C00001220001CN0200001N9+01781+01501101581ADDAY111999GF100991001001999999001001MD1110091+9999MW1011
0057601400999991957051712004+34033-004983FM-12+041499999V0200601N00511220001CN0300001N9+02781+01111101221ADDAY101999GF101991011091017501001021MD1810071+9999MW1031
0057601400999991957051800004+34033-004983FM-12+041499999V0201001N00211220001CN0250001N9+01891+01221101361ADDAY101999GF101991001001999999001021MD1110071+9999MW1031
0057601400999991957051812004+34033-004983FM-12+041499999V0203001N00311220001CN0200001N9+02611+01391101321ADDAY101999GF101991011031012501001001MD1710011+9999MW1031
0057601400999991957051900004+34033-004983FM-12+041499999V0202801N00311220001CN0250001N9+01611+01501101871ADDAY111999GF100991001001999999001001MD1110071+9999MW1021
0057601400999991957051912004+34033-004983FM-12+041499999V0203401N00101220001CN0150001N9+02391+01221101721ADDAY101999GF100991001001999999001001MD1810021+9999MW1021
0057601400999991957052012004+34033-004983FM-12+041499999V0200401N00211220001CN0300001N9+02611+01281999999ADDAY101999GF100991001001999999001001MD1710131+9999MW1021
0073601400999991957052112004+34033-004983FM-12+041499999V0200801N00511220001CN0400001N9+02891+01111100881ADDAY101999GA1011+069009009GF101991001001999999001021MD1810091+9999MW1011
0057601400999991957052212004+34033-004983FM-12+041499999V0200401N99999220001CN9999999N9+03001+01111100841ADDAY101999GF101991011011017501001021MD1810081+9999MW1011
0057601400999991957052300004+34033-004983FM-12+041499999V0200601N00101090001CN0200001N9+02281+01281101111ADDAY121999GF108991001001999999001031MD1810011+9999MW1021
0089601400999991957052312004+34033-004983FM-12+041499999V0200201N00211090001CN0200001N9+02891+01281100791ADDAY121999GA1011+030009039GA2061+069009009GF106991011001999999081021MD1710141+9999MW1031
0057601400999991957052400004+34033-004983FM-12+041499999V0202401N99999220001CN0200001N9+01781+01111101111ADDAY101999GF101991001001999999001031MD1210161+9999MW1071
0057601400999991957052412004+34033-004983FM-12+041499999V0202601N00311090001CN0200001N9+02391+01221100861ADDAY111999GF107991011021022501001021MD1810081+9999MW1031
0057601400999991957052500004+34033-004983FM-12+041499999V0202601N00311220001CN0200001N9+01781+01281101091ADDAY101999GF101991011001999999081001MD1110041+9999MW1011
0097601400999991957052506004+34033-004983FM-12+041499999V0209991C00001220001CN0150001N9+02391+01281100841ADDAA199000091AY101999GA1041+030009039GF104991041001999999081001KA1999N+01391MD1510081+9999MW1021
0057601400999991957052512004+34033-004983FM-12+041499999V0203601N00211220001CN0200001N9+02281+01391100521ADDAY111999GF101991011021012501001001MD1810131+9999MW1011
0057601400999991957052600004+34033-004983FM-12+041499999V0202601N00311007501CN0150001N9+01781+01111100411ADDAY111999GF107991071051008001999999MD1110011+9999MW1011
0057601400999991957052612004+34033-004983FM-12+041499999V0202801N00721220001CN0200001N9+02221+00721100331ADDAY111999GF104991041021012501001001MD1810071+9999MW1021
0057601400999991957052700004+34033-004983FM-12+041499999V0202401N00101220001CN0200001N9+01221+00891100951ADDAY111999GF101991011051008001001001MD1110111+9999MW1021
0057601400999991957052712004+34033-004983FM-12+041499999V0202601N00511220001CN0200001N9+02111+00611100861ADDAY101999GF103991031021012501001001MD1810041+9999MW1031
0057601400999991957052800004+34033-004983FM-12+041499999V0202401N00211220001CN0150001N9+01501+01281101281ADDAY111999GF104991041051012501001001MD1110111+9999MW1021
0057601400999991957052812004+34033-004983FM-12+041499999V0202601N00621012001CN0200001N9+02221+01001101151ADDAY121999GF106991061021012501001001MD1810111+9999MW1021
0057601400999991957052900004+34033-004983FM-12+041499999V0202801N00211007501CN0150001N9+01611+01221101451ADDAY111999GF108991081051008001999999MD1110081+9999MW1031
0057601400999991957052912004+34033-004983FM-12+041499999V0203201N00101012001CN0100001N9+01721+00891101531ADDAY151999GF107991071051012501999999MD1010001+9999MW1011
0057601400999991957053000004+34033-004983FM-12+041499999V0203001N00211012001CN0150001N9+01501+01111101741ADDAY111999GF107991071051012501999999MD1010041+9999MW1011
0057601400999991957053012004+34033-004983FM-12+041499999V0202801N00101090001CN0200001N9+02001+00891101571ADDAY111999GF106991031021012501001021MD1810081+9999MW1021
0057601400999991957053100004+34033-004983FM-12+041499999V0202401N00311220001CN0150001N9+01391+00891101811ADDAY101999GF103991031051008001001001MD1110191+9999MW1031
0057601400999991957053112004+34033-004983FM-12+041499999V0203001N00311220001CN0200001N9+02111+01001101481ADDAY101999GF100991001001999999001001MD1810091+9999MW1021
0057601400999991957060100004+34033-004983FM-12+041499999V0202801N00101012001CN0150001N9+01611+00781101741ADDAY111999GF108991081051012501001999MD1110031+9999MW1031
0057601400999991957060112004+34033-004983FM-12+041499999V0203001N00101220001CN0200001N9+02111+01001101541ADDAY111999GF102991011011017501031021MD1710141+9999MW1031
0057601400999991957060200004+34033-004983FM-12+041499999V0202601N00411220001CN0150001N9+01391+00781102031ADDAY111999GF102991021001999999081001MD1310111+9999MW1021
0057601400999991957060212004+34033-004983FM-12+041499999V0202601N00311220001CN0150001N9+02001+01001102051ADDAY111999GF102991021011012501001021MD1510021+9999MW1011
0057601400999991957060218004+34033-004983FM-12+041499999V0203201N00411220001CN0200001N9+02281+00781101931ADDAY111999GF101991011011012501001001MD1310011+9999MW1011
0057601400999991957060300004+34033-004983FM-12+041499999V0202401N00311220001CN0200001N9+01281+00891102061ADDAY101999GF100991001001999999001001MD1110091+9999MW1021
0057601400999991957060312004+34033-004983FM-12+041499999V0203601N00211220001CN0200001N9+02111+00721102401ADDAY101999GF100991001001999999001001MD1710091+9999MW1021
0057601400999991957060318004+34033-004983FM-12+041499999V0202801N00211220001CN0300001N9+02501+00891102141ADDAY101999GF100991001001999999001001MD1510021+9999MW1021
0057601400999991957060412004+34033-004983FM-12+041499999V0200601N00621220001CN0300001N9+02781+00281102001ADDAY101999GF100991001001999999001001MD1710161+9999MW1021
0057601400999991957060500004+34033-004983FM-12+041499999V0200601N00311220001CN0200001N9+02111+00611101951ADDAY101999GF100991001001999999001001MD1710011+9999MW1021
0057601400999991957060512004+34033-004983FM-12+041499999V0200601N00311220001CN0350001N9+03221+00781101531ADDAY101999GF100991001001999999001001MD1810191+9999MW1021
0057601400999991957060600004+34033-004983FM-12+041499999V0202601N00211220001CN0200001N9+02001+01001101801ADDAY101999GF100991001001999999001001MD1310151+9999MW1021
0057601400999991957060606004+34033-004983FM-12+041499999V0209991C00001012001CN0150001N9+01281+01111102011ADDAY111999GF105991051051012501001001MD1210051+9999MW1031
0057601400999991957060612004+34033-004983FM-12+041499999V0203401N00101220001CN0150001N9+02391+01111101651ADDAY161999GF100991001001999999001001MD1710171+9999MW1021
0049601400999991957060700004+34033-004983FM-12+041499999V0209991C00001220001CN0200001N9+01391+00891101811ADDGF100991001001999999001001MD1110031+9999MW1021
0057601400999991957060712004+34033-004983FM-12+041499999V0202801N00101220001CN0200001N9+02281+01221101391ADDAY101999GF101991001001999999001011MD1710121+9999MW1021
0057601400999991957060718004+34033-004983FM-12+041499999V0203201N00311220001CN0200001N9+02611+01111101191ADDAY101999GF101991001001999999001021MD1510051+9999MW1011
0057601400999991957060800004+34033-004983FM-12+041499999V0202801N00101090001CN0200001N9+01501+00891101741ADDAY101999GF105991011001999999031021MD1210111+9999MW1031
0057601400999991957060812004+34033-004983FM-12+041499999V0202801N00311090001CN0200001N9+02391+01111101341ADDAY111999GF107991011001999999081021MD1710081+9999MW1031
0057601400999991957060912004+34033-004983FM-12+041499999V0202601N00311220001CN0200001N9+02501+01221101151ADDAY111999GF104991041001999999041001MD1810121+9999MW1021
0076601400999991957061000004+34033-004983FM-12+041499999V0202601N00511007501CN0200001N9+01611+01281101431ADDAY111999GF107991999051008001001001MD1010001+9999MW1011EQDQ01+000052SCOTLC
0057601400999991957061012004+34033-004983FM-12+041499999V0202801N00411220001CN0200001N9+02001+01111101711ADDAY161999GF103991031011012501001001MD1110051+9999MW1011
0057601400999991957061100004+34033-004983FM-12+041499999V0202601N00101220001CN0150001N9+01281+00891102081ADDAY101999GF100991001001999999001001MD1110051+9999MW1021
0057601400999991957061200004+34033-004983FM-12+041499999V0202201N00311220001CN0250001N9+01611+01111101921ADDAY161999GF104991001001999999001021MD1110081+9999MW1011
0049601400999991957061212004+34033-004983FM-12+041499999V0200201N00211220001CN0300001N9+02781+00891101451ADDGF104991001001999999001021MD1810171+9999MW1021
0057601400999991957061300004+34033-004983FM-12+041499999V0209991C00001220001CN0300001N9+01891+01001101401ADDAY101999GF100991001001999999001001MD1010021+9999MW1021
0057601400999991957061312004+34033-004983FM-12+041499999V0209991C00001220001CN0400001N9+02721+01001101061ADDAY101999GF100991001001999999001001MD1710031+9999MW1021
0057601400999991957061400004+34033-004983FM-12+041499999V0202801N00101220001CN0300001N9+01781+00891101271ADDAY101999GF101991011001999999081001MD1110031+9999MW1021
0057601400999991957061412004+34033-004983FM-12+041499999V0200201N00211220001CN0400001N9+02611+00611101171ADDAY101999GF100991001001999999001001MD1810061+9999MW1021
0057601400999991957061500004+34033-004983FM-12+041499999V0203601N00101220001CN0300001N9+02001+00891101401ADDAY101999GF100991001001999999001001MD1110031+9999MW1021
0057601400999991957061512004+34033-004983FM-12+041499999V0200201N00311220001CN0400001N9+02891+01001101121ADDAY101999GF100991001001999999001001MD1710111+9999MW1021
0057601400999991957061600004+34033-004983FM-12+041499999V0202601N00211220001CN0300001N9+02111+01221101521ADDAY121999GF104991041001999999081021MD1110141+9999MW1011
0057601400999991957061612004+34033-004983FM-12+041499999V0200401N00311220001CN0300001N9+02611+01281101371ADDAY111999GF104991021001999999081021MD1810121+9999MW1011
0043601400999991957061700004+34033-004983FM-12+041499999V0202601N00211220001CN0300001N9+01781+01001101651ADDAY101999GF100991001001999999001001MW1021
0057601400999991957061712004+34033-004983FM-12+041499999V0203201N00211220001CN0200001N9+02111+01281101301ADDAY111999GF100991001001999999001001MD1810061+9999MW1011
0057601400999991957061800004+34033-004983FM-12+041499999V0202801N00101220001CN0200001N9+01721+01281101581ADDAY191999GF103991031001999999081001MD1110061+9999MW1011
0057601400999991957061812004+34033-004983FM-12+041499999V0203401N00211220001CN0300001N9+02281+01281101231ADDAY101999GF103991031011017501001001MD1710071+9999MW1021
0057601400999991957061900004+34033-004983FM-12+041499999V0209991C00001220001CN0150001N9+01721+01281101591ADDAY191999GF102991021001999999081001MD1110121+9999MW1021
0057601400999991957061912004+34033-004983FM-12+041499999V0203201N00101220001CN0200001N9+02501+01501101311ADDAY101999GF101991011011012501001021MD1710091+9999MW1021
0057601400999991957062000004+34033-004983FM-12+041499999V0202801N00211220001CN0100001N9+01611+01391101661ADDAY191999GF104991041051012501081001MD1010101+9999MW1011
0057601400999991957062012004+34033-004983FM-12+041499999V0202201N00211220001CN0100001N9+02501+01611101521ADDAY101999GF101991001001999999001021MD1810061+9999MW1031
0057601400999991957062100004+34033-004983FM-12+041499999V0202601N00211012001CN0150001N9+01781+01501101871ADDAY191999GF105991051091012501001001MD1010111+9999MW1171
0057601400999991957062112004+34033-004983FM-12+041499999V0202801N99999220001CN0200001N9+02391+01501101871ADDAY111999GF102991021011012501001001MD1010001+9999MW1011
0057601400999991957062200004+34033-004983FM-12+041499999V0202601N00101220001CN0200001N9+01721+01281102051ADDAY101999GF100991001001999999001001MD1010031+9999MW1021
0078601400999991957062206004+34033-004983FM-12+041499999V0209991C00001220001CN0150001N9+01391+01281102021ADDAY101999GF101991011051004501001001MW1011EQDQ01+000032APCTENQ02+000002APC3  
0057601400999991957062212004+34033-004983FM-12+041499999V0203201N00211220001CN0200001N9+02391+01391101771ADDAY101999GF104991041011012501001021MD1810141+9999MW1031
0057601400999991957062300004+34033-004983FM-12+041499999V0202601N00211220001CN0200001N9+01721+01221101611ADDAY101999GF100991001001999999001001MD1010011+9999MW1021
0057601400999991957062312004+34033-004983FM-12+041499999V0203201N00411220001CN0200001N9+02501+01281101281ADDAY101999GF103991031001999999081001MD1810061+9999MW1021
0073601400999991957062400004+34033-004983FM-12+041499999V0209991C00001007501CN0150001N9+01721+01391101711ADDAY121999GA1061+007509059GF106991061051008001001001MD1010171+9999MW1011
0057601400999991957062412004+34033-004983FM-12+041499999V0209991C00001220001CN0150001N9+02391+01391101551ADDAY111999GF102991021021008001001001MD1810041+9999MW1011
0057601400999991957062500004+34033-004983FM-12+041499999V0202801N00211220001CN0200001N9+01781+01281101661ADDAY101999GF100991001001999999001001MD1010091+9999MW1021
0057601400999991957062512004+34033-004983FM-12+041499999V0200401N00411220001CN0300001N9+03001+01281101141ADDAY101999GF101991011011017501001001MD1810101+9999MW1031
0057601400999991957062600004+34033-004983FM-12+041499999V0200401N00511220001CN0300001N9+02611+01001101351ADDAY101999GF100991001001999999001001MD1310071+9999MW1021
0057601400999991957062612004+34033-004983FM-12+041499999V0200601N00621220001CN0400001N9+03391+01001101191ADDAY101999GF100991001001999999001001MD1810081+9999MW1021
0057601400999991957062700004+34033-004983FM-12+041499999V0200601N00411220001CN0300001N9+02721+01611101531ADDAY101999GF100991001001999999001001MD1110111+9999MW1021
0057601400999991957062712004+34033-004983FM-12+041499999V0200401N00411220001CN0300001N9+03281+01281101471ADDAY101999GF100991001001999999001001MD1610041+9999MW1021
0057601400999991957062800004+34033-004983FM-12+041499999V0200801N00411220001CN0300001N9+02391+01611101781ADDAY101999GF100991001001999999001001MD1010071+9999MW1021
0057601400999991957062812004+34033-004983FM-12+041499999V0200401N00411220001CN0300001N9+03281+01721101481ADDAY101999GF102991011021022501081001MD1810141+9999MW1021
0057601400999991957062900004+34033-004983FM-12+041499999V0200601N00101220001CN0200001N9+02611+00781101711ADDAY111999GF103991011091017501001031MD1110081+9999MW1021
0057601400999991957062912004+34033-004983FM-12+041499999V0200601N00211220001CN0200001N9+03391+00781101411ADDAY101999GF100991001001999999001001MD1810111+9999MW1021
0057601400999991957063000004+34033-004983FM-12+041499999V0209991C00001220001CN0200001N9+02281+01781101671ADDAY101999GF100991001001999999001001MD1010101+9999MW1021
0057601400999991957063012004+34033-004983FM-12+041499999V0202601N00211220001CN0200001N9+03111+02001101471ADDAY101999GF100991001001999999001001MD1810041+9999MW1021
0057601400999991957070112004+34033-004983FM-12+041499999V0203601N00211220001CN0300001N9+03281+01611100971ADDAY101999GF100991001001999999001001MD1710331+9999MW1021
0057601400999991957070200004+34033-004983FM-12+041499999V0202601N00311220001CN0200001N9+02281+01501101201ADDAY101999GF100991001001999999001001MD1110141+9999MW1021
0057601400999991957070212004+34033-004983FM-12+041499999V0202601N00411220001CN0150001N9+03001+01781100921ADDAY101999GF101991011021012501001001MD1810051+9999MW1031
0057601400999991957070218004+34033-004983FM-12+041499999V0203401N00411220001CN0150001N9+03111+01781100901ADDAY101999GF103991011091012501001021MD1310021+9999MW1031
0057601400999991957070300004+34033-004983FM-12+041499999V0209991C00001220001CN0150001N9+02001+01721101021ADDAY101999GF100991001001999999001001MD1210071+9999MW1021
0057601400999991957070312004+34033-004983FM-12+041499999V0202801N00211220001CN0150001N9+02391+01781101301ADDAY111999GF100991001001999999001001MD1810051+9999MW1011
0057601400999991957070400004+34033-004983FM-12+041499999V0202601N00311220001CN0150001N9+02111+01501101501ADDAY101999GF100991001001999999001001MD1110091+9999MW1011
0057601400999991957070412004+34033-004983FM-12+041499999V0202601N00211036001CN0300001N9+02781+01611101481ADDAY111999GF105991051001999999081021MD1810041+9999MW1031
0057601400999991957070500004+34033-004983FM-12+041499999V0202601N00211220001CN0250001N9+02111+01281101771ADDAY121999GF104991011001999999041021MD1010021+9999MW1021
0057601400999991957070512004+34033-004983FM-12+041499999V0202601N00101220001CN0200001N9+02721+01721101671ADDAY101999GF101991011011017501001021MD1710131+9999MW1011
0057601400999991957070600004+34033-004983FM-12+041499999V0209991C00001220001CN0300001N9+02001+01611102011ADDAY101999GF104991041001999999031021MD1110081+9999MW1031
0057601400999991957070612004+34033-004983FM-12+041499999V0203001N00101220001CN0200001N9+02721+01781101751ADDAY101999GF101991011021017501001001MD1810091+9999MW1031
0057601400999991957070700004+34033-004983FM-12+041499999V0202601N00311220001CN0200001N9+01891+01281101931ADDAY101999GF100991001001999999001001MD1010021+9999MW1021
0057601400999991957070712004+34033-004983FM-12+041499999V0203201N00211220001CN0300001N9+02611+01501101741ADDAY101999GF101991011011017501001001MD1810011+9999MW1031
0057601400999991957070800004+34033-004983FM-12+041499999V0209991C00001220001CN0250001N9+01781+01391101871ADDAY101999GF100991001001999999001001MD1310111+9999MW1021
0057601400999991957070812004+34033-004983FM-12+041499999V0203001N00211220001CN0300001N9+02781+01611101541ADDAY101999GF100991001001999999001001MD1810081+9999MW1021
0057601400999991957070900004+34033-004983FM-12+041499999V0202601N00311220001CN0200001N9+02221+01391101811ADDAY101999GF100991001001999999001001MD1110161+9999MW1021
0057601400999991957070906004+34033-004983FM-12+041499999V0209991C00001220001CN0300001N9+01721+01281101941ADDAY101999GF100991001001999999001001MD1310041+9999MW1021
0057601400999991957070912004+34033-004983FM-12+041499999V0200401N00101220001CN0300001N9+03391+01281101641ADDAY101999GF101991011011017501001001MD1710061+9999MW1031
0057601400999991957071000004+34033-004983FM-12+041499999V0202401N00211220001CN0300001N9+02611+01001101961ADDAY101999GF101991011001999999041001MD1110061+9999MW1021
0057601400999991957071012004+34033-004983FM-12+041499999V0200601N00211220001CN0300001N9+04001+01001101611ADDAY101999GF101991011021012501001001MD1710061+9999MW1031
0057601400999991957071100004+34033-004983FM-12+041499999V0202401N00211220001CN0300001N9+02611+00281101821ADDAY101999GF100991001001999999001001MD1710011+9999MW1021
0057601400999991957071112004+34033-004983FM-12+041499999V0203201N00311220001CN0600001N9+03391+00781101601ADDAY101999GF100991001001999999001001MD1810021+9999MW1021
0057601400999991957071200004+34033-004983FM-12+041499999V0202401N00411220001CN0400001N9+02111+00781101881ADDAY101999GF100991001001999999001001MD1010001+9999MW1021
0057601400999991957071212004+34033-004983FM-12+041499999V0200201N00101220001CN0500001N9+03111+00781101681ADDAY101999GF100991001001999999001001MD1810081+9999MW1021
0057601400999991957071300004+34033-004983FM-12+041499999V0202401N00311220001CN0400001N9+02281+00891101751ADDAY101999GF100991001001999999001001MD1110051+9999MW1021
0057601400999991957071312004+34033-004983FM-12+041499999V0200401N00411220001CN0500001N9+03611+00891101331ADDAY101999GF100991001001999999001001MD1710081+9999MW1021
0057601400999991957071400004+34033-004983FM-12+041499999V0200601N00311220001CN0300001N9+02891+00611101351ADDAY101999GF100991001001999999001001MD1010071+9999MW1021
0057601400999991957071412004+34033-004983FM-12+041499999V0200801N00411220001CN0350001N9+03781+00721101011ADDAY111999GF104991041001999999081001MD1810121+9999MW1031
0057601400999991957071500004+34033-004983FM-12+041499999V0203201N00101036001CN0200001N9+02781+01221101291ADDAY111999GF106991011051017501081001MD1110171+9999MW1011
0057601400999991957071512004+34033-004983FM-12+041499999V0203001N00211220001CN0250001N9+03281+01501101231ADDAY101999GF104991011021017501001021MD1810061+9999MW1031
0073601400999991957071600004+34033-004983FM-12+041499999V0202201N99999220001CN0150001N9+02501+01221101471ADDAY111999GA1021+030009039GF104991021001999999091021MD1510101+9999MW1021
0057601400999991957071612004+34033-004983FM-12+041499999V0202601N00411220001CN0200001N9+03891+00611100881ADDAY111999GF104991041011017501091021MD1810121+9999MW1031
0057601400999991957071700004+34033-004983FM-12+041499999V0200601N00411220001CN0200001N9+02611+01721101231ADDAY101999GF100991001001999999001001MD1110111+9999MW1021
0057601400999991957071712004+34033-004983FM-12+041499999V0200401N00211220001CN0300001N9+03611+01391101041ADDAY101999GF101991011011017501001001MD1710091+9999MW1021
0057601400999991957071800004+34033-004983FM-12+041499999V0200601N00101220001CN0200001N9+02781+01611101291ADDAY101999GF102991021001999999041001MD1010081+9999MW1031
0057601400999991957071812004+34033-004983FM-12+041499999V0202201N00311220001CN0200001N9+03001+02001101381ADDAY111999GF103991021001999999081021MD1810081+9999MW1011
0057601400999991957071900004+34033-004983FM-12+041499999V0202601N00411220001CN0250001N9+02391+01611101431ADDAY101999GF100991001001999999001001MD1110071+9999MW1021
0057601400999991957071912004+34033-004983FM-12+041499999V0203601N00101220001CN0300001N9+02891+01611101411ADDAY101999GF100991001001999999001001MD1810041+9999MW1021
0057601400999991957072000004+34033-004983FM-12+041499999V0202401N00211220001CN0400001N9+02111+01391101531ADDAY101999GF100991001001999999001001MD1010031+9999MW1021
0057601400999991957072012004+34033-004983FM-12+041499999V0200801N00211220001CN0500001N9+03281+01111101141ADDAY101999GF101991011021017501001001MD1810011+9999MW1031
0057601400999991957072100004+34033-004983FM-12+041499999V0209991C00001220001CN0200001N9+02611+01281101331ADDAY101999GF102991021001999999061001MD1010051+9999MW1031
0043601400999991957072112004+34033-004983FM-12+041499999V0200801N00211220001CN9999999N9+03501+01281101221ADDGF101991011021012501001001MD1810091+9999
0057601400999991957072200004+34033-004983FM-12+041499999V0202401N00311220001CN0300001N9+02611+01221101511ADDAY101999GF100991001001999999001001MD1010091+9999MW1021
0049601400999991957072212004+34033-004983FM-12+041499999V0203201N00211220001CN0400001N9+03611+01391101391ADDGF100991001001999999001001MD1810061+9999MW1021
0057601400999991957072300004+34033-004983FM-12+041499999V0202401N00211220001CN0400001N9+02391+01221101701ADDAY101999GF100991001001999999001001MD1210091+9999MW1021
0057601400999991957072312004+34033-004983FM-12+041499999V0203201N00211220001CN0700001N9+03391+01111101291ADDAY101999GF100991001001999999001001MD1810121+9999MW1021
0057601400999991957072318004+34033-004983FM-12+041499999V0203001N00411220001CN0600001N9+03611+01111101021ADDAY101999GF102991011021017501081001MD1610041+9999MW1021
0057601400999991957072400004+34033-004983FM-12+041499999V0202001N00101220001CN0400001N9+02111+00891101601ADDAY101999GF100991001001999999001001MD1110111+9999MW1021
0057601400999991957072412004+34033-004983FM-12+041499999V0200601N00411220001CN0400001N9+03391+00281101111ADDAY101999GF100991001001999999001001MD1610081+9999MW1021
0057601400999991957072500004+34033-004983FM-12+041499999V0200401N00511220001CN0300001N9+02721+01391101271ADDAY101999GF100991001001999999001001MD1110131+9999MW1021
0057601400999991957072512004+34033-004983FM-12+041499999V0200801N00721220001CN0300001N9+03391+01501101071ADDAY101999GF101991001001999999001011MD1710121+9999MW1021
0057601400999991957072600004+34033-004983FM-12+041499999V0200601N00511220001CN0300001N9+02611+01111101401ADDAY101999GF101991001001999999001021MD1110081+9999MW1011
0057601400999991957072612004+34033-004983FM-12+041499999V0200601N00411220001CN0300001N9+03391+01611101231ADDAY101999GF100991001001999999001001MD1810011+9999MW1021
0057601400999991957072700004+34033-004983FM-12+041499999V0200801N00311220001CN0300001N9+02721+01111101401ADDAY101999GF100991001001999999001001MD1110061+9999MW1021
0057601400999991957072712004+34033-004983FM-12+041499999V0202401N00211220001CN0300001N9+03281+01721101221ADDAY101999GF100991001001999999001001MD1810071+9999MW1021
0057601400999991957072812004+34033-004983FM-12+041499999V0200401N00211015001CN0200001N9+02891+01611101031ADDAY111999GF106991061091017501021999MD1710071+9999MW1031
0057601400999991957072900004+34033-004983FM-12+041499999V0202401N00211220001CN0200001N9+02391+01721100981ADDAY101999GF100991001001999999001001MD1110131+9999MW1021
0057601400999991957072912004+34033-004983FM-12+041499999V0203601N00211220001CN0300001N9+03391+01721100641ADDAY101999GF101991011021012501001001MD1710051+9999MW1031
0057601400999991957073012004+34033-004983FM-12+041499999V0200401N00411220001CN0200001N9+03221+01781101001ADDAY101999GF101991011021012501001001MD1110021+9999MW1021
0057601400999991957080100004+34033-004983FM-12+041499999V0200601N00411090001CN0150001N9+03001+01611101791ADDAY101999GF105991011091022501031031MD1110071+9999MW1021
0057601400999991957080112004+34033-004983FM-12+041499999V0200601N00721220001CN0250001N9+03781+01501101421ADDAY111999GF101991001001999999001021MD1710091+9999MW1011
0057601400999991957080200004+34033-004983FM-12+041499999V0200401N00311220001CN0300001N9+03111+01111101631ADDAY111999GF100991001001999999001001MD1110131+9999MW1011
0057601400999991957080206004+34033-004983FM-12+041499999V0200401N00411220001CN0200001N9+03501+01221101631ADDAY101999GF102991001001999999001021MD1510001+9999MW1031
0057601400999991957080212004+34033-004983FM-12+041499999V0200601N00211220001CN0300001N9+03781+01501101311ADDAY101999GF104991011011017501001021MD1710141+9999MW1031
0057601400999991957080218004+34033-004983FM-12+041499999V0203201N00511220001CN0200001N9+03781+01781101121ADDAY101999GF104991011021017501001031MD1610021+9999MW1021
0057601400999991957080306004+34033-004983FM-12+041499999V0209991C00001220001CN0200001N9+02111+01281101771ADDAY101999GF100991001001999999001001MD1310021+9999MW1021
0057601400999991957080312004+34033-004983FM-12+041499999V0200401N00311220001CN0300001N9+03721+01391101481ADDAY101999GF100991001001999999001001MD1710081+9999MW1021
0043601400999991957080318004+34033-004983FM-12+041499999V0203601N00821012001CN0350001N9+04001+01001101131ADDAY101999GF107991071021012501001001MW1031
0057601400999991957080400004+34033-004983FM-12+041499999V0202401N00311220001CN0210001N9+02781+01721101701ADDAY101999GF101991011001999999041001MD1310171+9999MW1011
0057601400999991957080412004+34033-004983FM-12+041499999V0200801N00511036001CN0300001N9+03721+01281101361ADDAY121999GF105991051001999999081021MD1810171+9999MW1031
0057601400999991957080418004+34033-004983FM-12+041499999V0202801N00621220001CN0100001N9+03781+02221101101ADDAY121999GF104991021001999999081021MD1310051+9999MW1071
0057601400999991957080500004+34033-004983FM-12+041499999V0202001N00311220001CN0200001N9+02721+01501101691ADDAY111999GF102991011001999999041021MD1110051+9999MW1011
0057601400999991957080512004+34033-004983FM-12+041499999V0203601N00211015001CN0300001N9+03281+01611101471ADDAY111999GF105991051021017501091021MD1810061+9999MW1021
0081601400999991957080518004+34033-004983FM-12+041499999V0202001N00411036001CN0200001N9+03001+01781101351ADDAA199000091AY121999GF107991021091017501091031KA1999M+04001MD1110091+9999MW1021
0057601400999991957080600004+34033-004983FM-12+041499999V0209991C00001090001CN0150001N9+02891+01781101791ADDAY181999GF105991011091017501041031MD1010161+9999MW1011
0057601400999991957080606004+34033-004983FM-12+041499999V0200401N00211000301CN0300001N9+02781+01391101471ADDAY111999GF105991051091000251031021MD1610061+9999MW1031
0057601400999991957080612004+34033-004983FM-12+041499999V0200801N00101090001CN0400001N9+02721+01111101331ADDAY121999GF106991011021017501091061MD1710111+9999MW1031
0043601400999991957080618004+34033-004983FM-12+041499999V0202001N00101012001CN0200001N9+02721+01781101721ADDAY191999GF108991081091012501999999MW1951
0057601400999991957080700004+34033-004983FM-12+041499999V0200401N00311090001CN0200001N9+02611+01501101751ADDAY191999GF106991011091017501081031MD1610311+9999MW1011
0057601400999991957080706004+34033-004983FM-12+041499999V0202001N00101090001CN0200001N9+02001+01721101651ADDAY111999GF106991041001999999081021MD1510021+9999MW1031
0057601400999991957080712004+34033-004983FM-12+041499999V0202001N00311220001CN0250001N9+03221+01781101521ADDAY101999GF102991011021017501081001MD1810051+9999MW1031
0057601400999991957080800004+34033-004983FM-12+041499999V0202401N00211220001CN0200001N9+02391+01611101591ADDAY101999GF101991011001999999081001MD1010061+9999MW1021
0057601400999991957080812004+34033-004983FM-12+041499999V0209991C000019999999N0250001N9+03281+01611101251ADDAY111999GF199999031001999999081021MD1810131+9999MW1011
0057601400999991957080818004+34033-004983FM-12+041499999V0203001N00311090001CN0250001N9+03611+01111101161ADDAY111999GF105991021091022501081031MD1510031+9999MW1031
0057601400999991957080900004+34033-004983FM-12+041499999V0202001N00211220001CN0200001N9+02281+01611101481ADDAY111999GF104991031001999999081031MD1210111+9999MW1011
0057601400999991957080906004+34033-004983FM-12+041499999V0202601N00211220001CN0300001N9+01891+01611101511ADDAY101999GF102991021001012501091001MD1310041+9999MW1011
0057601400999991957080912004+34033-004983FM-12+041499999V0202401N00101220001CN0300001N9+03001+01721101331ADDAY101999GF103991031001008001081001MD1810091+9999MW1021
0057601400999991957081000004+34033-004983FM-12+041499999V0202601N00411036001CN0250001N9+02281+01611101571ADDAY121999GF107991021091017501081031MD1010041+9999MW1131
0057601400999991957081012004+34033-004983FM-12+041499999V0209991C00001220001CN0400001N9+02781+01721101491ADDAY101999GF101991011011017501001021MD1810081+9999MW1011
0057601400999991957081018004+34033-004983FM-12+041499999V0203201N00311220001CN0400001N9+03111+01611101241ADDAY101999GF102991011091012501081001MD1510001+9999MW1031
0057601400999991957081112004+34033-004983FM-12+041499999V0203601N00211220001CN0250001N9+02721+01781101621ADDAY111999GF101991011021012501001001MD1810081+9999MW1031
0057601400999991957081200004+34033-004983FM-12+041499999V0202801N00211220001CN0300001N9+02001+01501101751ADDAY101999GF100991001001999999001001MD1110041+9999MW1011
0057601400999991957081206004+34033-004983FM-12+041499999V0209991C00001220001CN0300001N9+01721+01501101681ADDAY101999GF101991011061001501001021MD1510021+9999MW1031
0057601400999991957081212004+34033-004983FM-12+041499999V0202701N00311220001CN0300001N9+02781+01721101381ADDAY101999GF100991001001999999001001MD1810121+9999MW1021
0057601400999991957081218004+34033-004983FM-12+041499999V0203001N00411220001CN0500001N9+03111+01721101091ADDAY101999GF101991011021017501061001MD1710071+9999MW1021
0057601400999991957081300004+34033-004983FM-12+041499999V0202001N00411220001CN0300001N9+02001+01391101611ADDAY101999GF100991001001999999001001MD1210151+9999MW1021
0057601400999991957081312004+34033-004983FM-12+041499999V0202801N00211220001CN0400001N9+02721+01281101451ADDAY101999GF100991001001999999001001MD1810051+9999MW1021
0057601400999991957081406004+34033-004983FM-12+041499999V0209991C00001220001CN0400001N9+01501+01111101581ADDAY101999GF100991001001999999001001MD1710111+9999MW1021
0057601400999991957081412004+34033-004983FM-12+041499999V0200401N00411220001CN0400001N9+03111+01001101161ADDAY101999GF100991001001999999001001MD1810121+9999MW1021
0057601400999991957081500004+34033-004983FM-12+041499999V0202201N00101220001CN0300001N9+02221+01111101291ADDAY101999GF100991001001999999001001MD1110101+9999MW1021
0057601400999991957081506004+34033-004983FM-12+041499999V0200401N00101220001CN0200001N9+02001+01111101321ADDAY101999GF100991001001999999001001MD1610071+9999MW1021
0057601400999991957081518004+34033-004983FM-12+041499999V0203001N00311090001CN0300001N9+03391+01501100861ADDAY111999GF105991011091017501081081MD1510011+9999MW1031
0057601400999991957081612004+34033-004983FM-12+041499999V0200401N00211220001CN0300001N9+03111+01781101071ADDAY111999GF102991021091017501081031MD1810051+9999MW1171
0057601400999991957081700004+34033-004983FM-12+041499999V0201601N00211220001CN0250001N9+02391+01501101301ADDAY111999GF103991001001999999001031MD1310041+9999MW1011
0057601400999991957081712004+34033-004983FM-12+041499999V0200801N00211220001CN0300001N9+03281+01721101241ADDAY111999GF104991011091017501081021MD1610051+9999MW1011
0057601400999991957081718004+34033-004983FM-12+041499999V0202601N00411036001CN0300001N9+03391+00891101061ADDAY191999GF107991021091017501081031MD1710051+9999MW1031
0057601400999991957081800004+34033-004983FM-12+041499999V0202201N00101220001CN0300001N9+02611+01891100771ADDAY111999GF104991011091017501001031MD1310131+9999MW1011
0057601400999991957081806004+34033-004983FM-12+041499999V0202801N00101220001CN0300001N9+02221+01501100481ADDAY101999GF104991011001999999031021MD1610031+9999MW1031
0076601400999991957081812004+34033-004983FM-12+041499999V0202201N00311220001CN0200001N9+03001+02001101382ADDAY111999GF103991021001999999081021MD1810081+9999MW1011EQDQ01+101383APOSLP
0057601400999991957081900004+34033-004983FM-12+041499999V0202401N00211220001CN0300001N9+02221+01891101571ADDAY101999GF100991001001999999001001MD1010161+9999MW1021
0076601400999991957081912004+34033-004983FM-12+041499999V0200201N00101220001CN0150001N9+03001+01891101311ADDAY111999GF102991999021012501001001MD1810141+9999MW1031EQDQ01+000012SCOTLC
0057601400999991957082000004+34033-004983FM-12+041499999V0200601N00511220001CN0200001N9+02721+01721101431ADDAY101999GF100991001001999999001001MD1210041+9999MW1021
0043601400999991957082006004+34033-004983FM-12+041499999V0200601N00511220001CN0200001N9+02281+01781101451ADDAY101999GF101991011001999999041001MW1031
0057601400999991957082012004+34033-004983FM-12+041499999V0200601N00721220001CN0200001N9+03391+01501101231ADDAY101999GF101991011021017501001001MD1810061+9999MW1031
0057601400999991957082100004+34033-004983FM-12+041499999V0200401N00311220001CN0200001N9+02611+01501101561ADDAY101999GF100991001001999999001001MD1110141+9999MW1021
0043601400999991957082106004+34033-004983FM-12+041499999V0200601N00511220001CN0250001N9+02221+01221101631ADDAY101999GF100991001001999999001001MW1021
0043601400999991957082112004+34033-004983FM-12+041499999V0200601N00311220001CN0300001N9+03501+01391101361ADDAY101999GF101991011021017501001001MW1021
0057601400999991957082200004+34033-004983FM-12+041499999V0202801N00311220001CN0200001N9+02891+01391101421ADDAY101999GF100991001001999999001001MD1110011+9999MW1011
0057601400999991957082206004+34033-004983FM-12+041499999V0202401N00101220001CN0300001N9+02001+01281101471ADDAY101999GF101991001001999999001021MD1310031+9999MW1031
0057601400999991957082212004+34033-004983FM-12+041499999V0202801N00311220001CN0300001N9+03611+01221101111ADDAY101999GF102991001001999999001021MD1710121+9999MW1021
0043601400999991957082300004+34033-004983FM-12+041499999V0203401N00311220001CN0200001N9+02281+01001101401ADDAY101999GF100991001001999999001001MW1021
0057601400999991957082306004+34033-004983FM-12+041499999V0202201N00101220001CN0200001N9+01781+01281101581ADDAY101999GF101991001001999999001021MD1310111+9999MW1031
0057601400999991957082312004+34033-004983FM-12+041499999V0203601N00311220001CN0300001N9+03001+01281101391ADDAY101999GF100991001001999999001001MD1810031+9999MW1021
0057601400999991957082318004+34033-004983FM-12+041499999V0203201N00511220001CN0350001N9+03221+01221101291ADDAY101999GF100991001001999999001001MD1310011+9999MW1021
0057601400999991957082400004+34033-004983FM-12+041499999V0200401N00101220001CN0300001N9+02001+01611101871ADDAY101999GF100991001001999999001001MD1110081+9999MW1021
0057601400999991957082412004+34033-004983FM-12+041499999V0200401N00211220001CN0500001N9+03111+00391101581ADDAY101999GF100991001001999999001001MD1810051+9999MW1021
0057601400999991957082500004+34033-004983FM-12+041499999V0202401N00101220001CN0300001N9+02221+01221101881ADDAY101999GF100991001001999999001001MD1210131+9999MW1021
0057601400999991957082506004+34033-004983FM-12+041499999V0209991C00001220001CN0300001N9+01611+00721101981ADDAY101999GF100991001001999999001001MD1310021+9999MW1021
0057601400999991957082512004+34033-004983FM-12+041499999V0200401N00101220001CN0600001N9+03111+00611101721ADDAY101999GF100991001001999999001001MD1810041+9999MW1021
0057601400999991957082518004+34033-004983FM-12+041499999V0203201N00311220001CN0550001N9+03391+00891101471ADDAY101999GF100991001001999999001001MD1610051+9999MW1021
0057601400999991957082600004+34033-004983FM-12+041499999V0202601N00211220001CN0400001N9+02221+01281101951ADDAY101999GF100991001001999999001001MD1110071+9999MW1021
0057601400999991957082606004+34033-004983FM-12+041499999V0209991C00001220001CN0400001N9+02111+01001101901ADDAY101999GF100991001001999999001001MD1510041+9999MW1011
0057601400999991957082618004+34033-004983FM-12+041499999V0202801N00411220001CN0200001N9+03391+02001101411ADDAY101999GF101991011011004501001001MD1510031+9999MW1021
0057601400999991957082700004+34033-004983FM-12+041499999V0202601N00211220001CN0300001N9+02281+01391101871ADDAY101999GF100991001001999999001001MD1110081+9999MW1021
0057601400999991957082706004+34033-004983FM-12+041499999V0209991C00001220001CN0300001N9+01721+01111101871ADDAY101999GF101991011001999999081001MD1610051+9999MW1031
0057601400999991957082712004+34033-004983FM-12+041499999V0202801N00211220001CN0400001N9+03111+01611101571ADDAY101999GF104991041001999999081001MD1810091+9999MW1021
0057601400999991957082718004+34033-004983FM-12+041499999V0202801N00311220001CN0400001N9+03281+01221101311ADDAY101999GF101991011021017501081001MD1510021+9999MW1021
0057601400999991957082800004+34033-004983FM-12+041499999V0202601N00101220001CN0300001N9+02221+01611101751ADDAY101999GF100991001001999999001001MD1110061+9999MW1021
0057601400999991957082812004+34033-004983FM-12+041499999V0200201N00211220001CN0300001N9+03221+01611101271ADDAY101999GF101991011021017501001001MD1810131+9999MW1031
0057601400999991957082900004+34033-004983FM-12+041499999V0209991C00001220001CN0300001N9+02391+01611101491ADDAY101999GF100991001001999999001001MD1110091+9999MW1021
0057601400999991957082912004+34033-004983FM-12+041499999V0200601N00411220001CN0200001N9+03221+01721101201ADDAY111999GF105991001001999999001081MD1810121+9999MW1021
0057601400999991957083000004+34033-004983FM-12+041499999V0202401N00211220001CN0200001N9+02501+01781101501ADDAY111999GF102991001001999999001021MD1210071+9999MW1011
0057601400999991957083012004+34033-004983FM-12+041499999V0200401N00211220001CN0300001N9+03001+01781101391ADDAY101999GF101991011011017501001001MD1810101+9999MW1031
0057601400999991957083018004+34033-004983FM-12+041499999V0203001N00211220001CN0300001N9+03281+01281101211ADDAY101999GF102991011021017501081001MD1410001+9999MW1031
0057601400999991957083106004+34033-004983FM-12+041499999V0209991C00001220001CN0200001N9+01721+01281101671ADDAY101999GF100991001001999999001001MD1510001+9999MW1021
0057601400999991957083112004+34033-004983FM-12+041499999V0202801N00211220001CN0300001N9+03001+01611101511ADDAY101999GF102991021001999999041001MD1810061+9999MW1011
0057601400999991957083118004+34033-004983FM-12+041499999V0202801N00311220001CN0300001N9+03221+01281101321ADDAY101999GF101991011021017501081001MD1510001+9999MW1011
0057601400999991957090100004+34033-004983FM-12+041499999V0202601N00311220001CN0300001N9+02221+01611101791ADDAY101999GF100991001001999999001001MD1210121+9999MW1021
0057601400999991957090106004+34033-004983FM-12+041499999V0209991C00001090001CN0200001N9+01721+01611101941ADDAY101999GF105991011051002501081011MD1310011+9999MW1031
0049601400999991957090206004+34033-004983FM-12+041499999V0200601N00821220001CN0300001N9+02111+01281101611ADDGF101991011001999999081001MD1710021+9999MW1001
0057601400999991957090212004+34033-004983FM-12+041499999V0200601N00821220001CN0300001N9+03281+01111101361ADDAY101999GF100991001001999999001001MD1810121+9999MW1021
0057601400999991957090218004+34033-004983FM-12+041499999V0200601N00721220001CN0300001N9+03221+00721101181ADDAY101999GF101991011021017501001001MD1610011+9999MW1021
0057601400999991957090306004+34033-004983FM-12+041499999V0200801N00621220001CN0600001N9+02111+01501101531ADDAY101999GF100991001001999999001001MD1310051+9999MW1021
0057601400999991957090312004+34033-004983FM-12+041499999V0200801N00621220001CN0220001N9+03391+01111101331ADDAY101999GF101991011011017501001001MD1810041+9999MW1021
0057601400999991957090318004+34033-004983FM-12+041499999V0200401N00721220001CN0500001N9+03721+00721101161ADDAY101999GF101991011011017501001001MD1510021+9999MW1021
0049601400999991957090406004+34033-004983FM-12+041499999V0202001N00101220001CN0400001N9+01781+00891101801ADDGF100991001001999999001001MD1310011+9999MW1001
0057601400999991957090500004+34033-004983FM-12+041499999V0202001N00101220001CN0300001N9+02111+01001101961ADDAY101999GF100991001001999999001001MD1010031+9999MW1021
0057601400999991957090506004+34033-004983FM-12+041499999V0209991C00001220001CN0600001N9+01611+00501101961ADDAY101999GF100991001001999999001001MD1510001+9999MW1001
0057601400999991957090512004+34033-004983FM-12+041499999V0200201N00311220001CN0600001N9+03281+00891101661ADDAY101999GF101991001001999999001021MD1810091+9999MW1021
0057601400999991957090518004+34033-004983FM-12+041499999V0203201N00101220001CN0600001N9+03721+01111101331ADDAY101999GF101991001001999999001021MD1610071+9999MW1021
0057601400999991957090618004+34033-004983FM-12+041499999V0200801N00411220001CN0400001N9+03611+01001101041ADDAY101999GF101991001001999999001021MD1510061+9999MW1031
0057601400999991957090712004+34033-004983FM-12+041499999V0203201N00211220001CN0500001N9+03501+01221101061ADDAY101999GF101991001001999999001021MD1810081+9999MW1021
0035601400999991957090806004+34033-004983FM-12+041499999V0202401N00311090001CN0350001N9+02281+01721101381ADDGF107991031001999999081021MW1001
0057601400999991957090812004+34033-004983FM-12+041499999V0203601N00211036001CN0350001N9+03281+01781101201ADDAY121999GF106991011021017501081021MD1810111+9999MW1031
0057601400999991957090818004+34033-004983FM-12+041499999V0202401N003119999999N0100001N9+02001+01781101891ADDAY191999GF108991999091017501081031MD1110201+9999MW1801
0057601400999991957090912004+34033-004983FM-12+041499999V0200601N00511036001CN0300001N9+02721+01781101751ADDAY191999GF106991011021012501091021MD1010001+9999MW1031
0057601400999991957091012004+34033-004983FM-12+041499999V0201401N00101036001CN0100001N9+02391+01891102171ADDAY121999GF106991031051008001081001MD1810101+9999MW1011
0057601400999991957091018004+34033-004983FM-12+041499999V0209991C00001220001CN0200001N9+02781+02001101841ADDAY111999GF104991011091008001081031MD1610061+9999MW1011
0049601400999991957091106004+34033-004983FM-12+041499999V0200401N00511220001CN0200001N9+01721+01611102231ADDGF101991011001999999041001MD1310051+9999MW1001
0057601400999991957091112004+34033-004983FM-12+041499999V0200401N00101220001CN0200001N9+02721+01391102061ADDAY101999GF101991011021017501001011MD1810071+9999MW1021
0049601400999991957091206004+34033-004983FM-12+041499999V0209991C00001220001CN0250001N9+01611+01391102101ADDGF101991001001999999001021MD1510001+9999MW1001
0057601400999991957091212004+34033-004983FM-12+041499999V0200601N00211220001CN0300001N9+02891+01501101811ADDAY101999GF101991001001999999001021MD1810131+9999MW1021
0057601400999991957091218004+34033-004983FM-12+041499999V0209991C00001090001CN0200001N9+03221+01391101421ADDAY111999GF105991001001999999001021MD1610061+9999MW1021
0057601400999991957091306004+34033-004983FM-12+041499999V0209991C00001220001CN0400001N9+01781+01281101751ADDAY101999GF100991001001999999001001MD1610041+9999MW1021
0057601400999991957091412004+34033-004983FM-12+041499999V0203201N00101090001CN0300001N9+02891+01611101431ADDAY121999GF107991001001999999001021MD1810091+9999MW1021
0043601400999991957091512004+34033-004983FM-12+041499999V0200401N00311090001CN0300001N9+02891+01611101261ADDAY111999GF105991011011017501001021MW1031
0049601400999991957091606004+34033-004983FM-12+041499999V0209991C00001036001CN0300001N9+01781+01501101671ADDGF107991051001999999081021MD1310051+9999MW1001
0057601400999991957091612004+34033-004983FM-12+041499999V0203601N00101220001CN0300001N9+02611+01721101701ADDAY111999GF104991011081017501081021MD1010001+9999MW1031
0057601400999991957091618004+34033-004983FM-12+041499999V0203001N00311036001CN0300001N9+02501+01611101741ADDAY111999GF107991031021017501081021MD1310071+9999MW1011
0057601400999991957091712004+34033-004983FM-12+041499999V0202901N00211090001CN0200001N9+02501+01721101891ADDAY111999GF106991011021012501001021MD1810121+9999MW1031
0057601400999991957091812004+34033-004983FM-12+041499999V0203401N00101220001CN0200001N9+02501+01611101721ADDAY101999GF101991011021017501081001MD1810161+9999MW1021
0049601400999991957091906004+34033-004983FM-12+041499999V0209991C00001220001CN0250001N9+01391+01221101761ADDGF101991001001999999001021MD1610041+9999MW1001
0057601400999991957091912004+34033-004983FM-12+041499999V0203201N00211220001CN0250001N9+02721+01501101451ADDAY101999GF101991011021017501001001MD1810131+9999MW1031
0057601400999991957091918004+34033-004983FM-12+041499999V0202801N00211220001CN0350001N9+02891+01001101231ADDAY101999GF102991011091017501001021MD1310031+9999MW1021
0057601400999991957092012004+34033-004983FM-12+041499999V0202801N00101090001CN0300001N9+02891+01281101521ADDAY121999GF105991021001999999081021MD1810021+9999MW1011
0057601400999991957092112004+34033-004983FM-12+041499999V0200401N00211090001CN0250001N9+02721+01501101631ADDAY111999GF106991001001999999001021MD1810051+9999MW1031
0057601400999991957092212004+34033-004983FM-12+041499999V0200601N00211220001CN0300001N9+02891+01501101521ADDAY101999GF101991011021017501001001MD1810131+9999MW1031
0057601400999991957092218004+34033-004983FM-12+041499999V0203201N00101220001CN0300001N9+03221+01501101261ADDAY101999GF100991001001999999001001MD1510011+9999MW1021
0057601400999991957092312004+34033-004983FM-12+041499999V0200401N00101220001CN0200001N9+03391+01281101411ADDAY101999GF101991011001999999081001MD1810041+9999MW1021
0057601400999991957092412004+34033-004983FM-12+041499999V0202801N00211220001CN0300001N9+02891+01781101771ADDAY101999GF101991011021017501001001MD1810071+9999MW1031
0049601400999991957092506004+34033-004983FM-12+041499999V0209991C00001220001CN0200001N9+01721+01391102111ADDGF100991001001999999001001MD1310011+9999MW1001
0057601400999991957092512004+34033-004983FM-12+041499999V0202201N00211220001CN0200001N9+02781+01891102021ADDAY101999GF101991011011022501001001MD1810011+9999MW1031
0057601400999991957092518004+34033-004983FM-12+041499999V0202801N00311220001CN0300001N9+03001+01721101851ADDAY101999GF101991011091022501001031MD1310031+9999MW1021
0057601400999991957092612004+34033-004983FM-12+041499999V0202601N99999220001CN0300001N9+02721+01611102021ADDAY141999GF101991001001999999001021MD1810161+9999MW1021
0057601400999991957092712004+34033-004983FM-12+041499999V0200201N00211220001CN0400001N9+02501+01391101371ADDAY101999GF101991011011012501001021MD1810211+9999MW1031
0035601400999991957092806004+34033-004983FM-12+041499999V0200601N00621036001CN0300001N9+02281+01501101101ADDGF107991071001999999081999MW1001
0057601400999991957092812004+34033-004983FM-12+041499999V0200801N00821036001CN0300001N9+02891+01281101141ADDAY121999GF107991071001999999091001MD1810071+9999MW1021
0057601400999991957092818004+34033-004983FM-12+041499999V0200601N00931036001CN0300001N9+03111+01001100951ADDAY121999GF107991071001999999091001MD1510021+9999MW1021
0057601400999991957092912004+34033-004983FM-12+041499999V0203201N00101220001CN0200001N9+02391+01721101441ADDAY111999GF104991041051012501001021MD1010041+9999MW1011
0049601400999991957093006004+34033-004983FM-12+041499999V0209991C00001220001CN0300001N9+02391+01281101441ADDGF104991001001999999001021MD1810211+9999MW1001
0057601400999991957093012004+34033-004983FM-12+041499999V0203201N00211090001CN0300001N9+02721+01501101241ADDAY111999GF106991011001999999081021MD1610061+9999MW1011
0049601400999991957100106004+34033-004983FM-12+041499999V0202801N00101220001CN0250001N9+01721+01221101431ADDGF101991011001999999041001MD1610041+9999MW1001
0057601400999991957100206004+34033-004983FM-12+041499999V0202601N00821007501CN0100001N9+01721+01391101051ADDAY181999GF107991071021008001999999MD1610081+9999MW1001
0057601400999991957100218004+34033-004983FM-12+041499999V0202601N00411220001CN0200001N9+01501+01001101391ADDAY111999GF104991041051012501001001MD1110041+9999MW1011
0035601400999991957100306004+34033-004983FM-12+041499999V0202601N00511012001CN0250001N9+01111+00891101571ADDGF107991071051012501999999MW1001
0057601400999991957100312004+34033-004983FM-12+041499999V0202801N00511012001CN0300001N9+01221+00891101671ADDAY161999GF108991081021012501999999MD1810041+9999MW1611
0049601400999991957100406004+34033-004983FM-12+041499999V0202801N00311220001CN0100001N9+01001+00891102001ADDGF103991031021008001001001MD1310131+9999MW1001
0057601400999991957100412004+34033-004983FM-12+041499999V0209991C00001220001CN0600001N9+01891+01001101821ADDAY101999GF100991001001999999001001MD1810081+9999MW1021
0057601400999991957100512004+34033-004983FM-12+041499999V0200601N00211220001CN0400001N9+01891+01001102111ADDAY101999GF101991011011012501001001MD1810051+9999MW1021
0057601400999991957100518004+34033-004983FM-12+041499999V0209991C00001220001CN0400001N9+02001+00891101751ADDAY101999GF100991001001999999001001MD1710061+9999MW1011
0057601400999991957100612004+34033-004983FM-12+041499999V0200201N00101220001CN0300001N9+02001+00891101821ADDAY101999GF101991001001999999001021MD1810091+9999MW1031
0049601400999991957100706004+34033-004983FM-12+041499999V0209991C00001220001CN0500001N9+00891+00781101531ADDGF102991001001999999001021MD1510031+9999MW1001
0057601400999991957100712004+34033-004983FM-12+041499999V0200601N00311220001CN0500001N9+02281+00781101201ADDAY111999GF106991001001999999001041MD1710121+9999MW1031
0057601400999991957100718004+34033-004983FM-12+041499999V0203201N00101090001CN0500001N9+02281+00891101231ADDAY121999GF107991011001999999041061MD1210101+9999MW1031
0057601400999991957100812004+34033-004983FM-12+041499999V0203001N00211220001CN0200001N9+02221+01221101671ADDAY101999GF101991011011008001001001MD1710041+9999MW1031
0057601400999991957100912004+34033-004983FM-12+041499999V0200401N00101220001CN0300001N9+02111+01111101651ADDAY101999GF100991001001999999001001MD1810111+9999MW1021
0057601400999991957101012004+34033-004983FM-12+041499999V0203401N00101220001CN0300001N9+02281+01281101371ADDAY101999GF104991011001999999081021MD1810121+9999MW1031
0043601400999991957101018004+34033-004983FM-12+041499999V0203001N00101036001CN0250001N9+02281+01281101191ADDAY111999GF106991011021017501081021MW1011
0057601400999991957101112004+34033-004983FM-12+041499999V0200201N00211036001CN0300001N9+02221+01611101341ADDAY161999GF108991041021017501081021MD1810091+9999MW1031
0057601400999991957101118004+34033-004983FM-12+041499999V0200301N00101036001CN0300001N9+02221+01611101171ADDAY101999GF105991041021017501081021MD1310011+9999MW1021
0076601400999991957101212004+34033-004983FM-12+041499999V0200601N002119999999N0250001N9+02001+01611101111ADDAY121999GF107991999001999999081001MD1810101+9999MW1011EQDQ01+000022SCOTLC
0057601400999991957101312004+34033-004983FM-12+041499999V0209991C00001036001CN0300001N9+01891+01391101121ADDAY121999GF107991041021012501081021MD1810081+9999MW1031
0073601400999991957101412004+34033-004983FM-12+041499999V0200601N00101220001CN0300001N9+02221+01501101121ADDAY111999GA1031+009909089GF104991031021012501001021MD1810011+9999MW1031
0049601400999991957101506004+34033-004983FM-12+041499999V0209991C00001036001CN0300001N9+01221+01221101461ADDGF107991021051012501031001MD1210021+9999MW1001
0057601400999991957101512004+34033-004983FM-12+041499999V0200601N00101220001CN0400001N9+02111+01501101411ADDAY111999GF101991011021012501001001MD1010011+9999MW1021
0057601400999991957101606004+34033-004983FM-12+041499999V0209991C00001220001CN0400001N9+02501+01391101831ADDAY101999GF100991001001999999001001MD1210061+9999MW1001
0057601400999991957101612004+34033-004983FM-12+041499999V0200801N004119999999N0500001N9+02391+01501101741ADDAY101999GF199999001001999999001021MD1610101+9999MW1021
0057601400999991957101712004+34033-004983FM-12+041499999V0200801N00511090001CN0250001N9+02721+01611101751ADDAY111999GF105991011001999999081021MD1710121+9999MW1031
0057601400999991957101812004+34033-004983FM-12+041499999V0209991C00001220001CN0400001N9+02611+01721101691ADDAY111999GF104991031001999999081021MD1810101+9999MW1011
0057601400999991957101818004+34033-004983FM-12+041499999V0202301N00211036001CN0400001N9+02281+01721101531ADDAY121999GF106991011021012501081021MD1310061+9999MW1031
0057601400999991957101906004+34033-004983FM-12+041499999V0202601N00311002101CN0130001N9+01721+01721101661ADDAY181999GF107991071021002501999999MD1110111+9999MW1001
0057601400999991957101912004+34033-004983FM-12+041499999V0200601N00311036001CN0300001N9+02221+01721101551ADDAY161999GF107991021021008001081021MD1810091+9999MW1021
0057601400999991957102012004+34033-004983FM-12+041499999V0201601N00621007501CN0200001N9+02111+01501101451ADDAY121999GF107991051021008001081021MD1710011+9999MW1031
0057601400999991957102018004+34033-004983FM-12+041499999V0202601N00311001201CN0100001N9+01501+01501101621ADDAY161999GF108991081071001501999999MD1210121+9999MW1611
0049601400999991957102106004+34033-004983FM-12+041499999V0202401N00101007501CN0100001N9+01391+01221101781ADDGF107991071021008001999999MD1310031+9999MW1001
0057601400999991957102112004+34033-004983FM-12+041499999V0202801N00411036001CN0200001N9+01781+01111101801ADDAY121999GF106991031021008001081001MD1810021+9999MW1031
0057601400999991957102118004+34033-004983FM-12+041499999V0209991C00001036001CN0300001N9+01611+01221101801ADDAY121999GF107991031081008001081001MD1310081+9999MW1011
0057601400999991957102212004+34033-004983FM-12+041499999V0202801N00511015001CN0150001N9+01781+01281102001ADDAY161999GF107991051081012501071001MD1810031+9999MW1021
0057601400999991957102218004+34033-004983FM-12+041499999V0203001N00101036001CN0200001N9+01781+01281101871ADDAY181999GF107991031081008001031999MD1510001+9999MW1031
0057601400999991957102300004+34033-004983FM-12+041499999V0202601N00101220001CN0200001N9+01391+01281102041ADDAY121999GF102991011051017501001021MD1210021+9999MW1001
0057601400999991957102318004+34033-004983FM-12+041499999V0202601N00101220001CN0500001N9+01721+01221101761ADDAY101999GF102991011041012501001021MD1610021+9999MW1031
0057601400999991957102400004+34033-004983FM-12+041499999V0202601N00101220001CN0040001N9+01221+01221101911ADDAY101999GF101991011061008001001001MD1010011+9999MW1001
0057601400999991957102412004+34033-004983FM-12+041499999V0200401N00101012001CN0300001N9+01721+01221101961ADDAY111999GF106991061021012501001001MD1810011+9999MW1031
0057601400999991957102506004+34033-004983FM-12+041499999V0200401N00621220001CN0300001N9+01111+00721101861ADDAY101999GF100991001001999999001001MD1510031+9999MW1021
0057601400999991957102512004+34033-004983FM-12+041499999V0200801N00511220001CN0700001N9+02001+00721101791ADDAY101999GF101991001001999999001021MD1810041+9999MW1031
0057601400999991957102518004+34033-004983FM-12+041499999V0201001N00101220001CN0700001N9+02111+00891101691ADDAY101999GF100991001001999999001001MD1310041+9999MW1021
0043601400999991957102600004+34033-004983FM-12+041499999V0209999999999220001CN0300001N9+01221+00891102031ADDAY101999GF100991001001999999001001MW1001
0057601400999991957102606004+34033-004983FM-12+041499999V0200801N00101220001CN0500001N9+00891+00781102051ADDAY101999GF100991001001999999001001MD1510001+9999MW1021
0057601400999991957102612004+34033-004983FM-12+041499999V0200801N00311090001CN0600001N9+02221+00781101891ADDAY111999GF106991001001999999001021MD1810091+9999MW1031
0057601400999991957102618004+34033-004983FM-12+041499999V0200401N00101090001CN0600001N9+02281+00781101711ADDAY121999GF106991001001999999001021MD1510001+9999MW1021
0057601400999991957102700004+34033-004983FM-12+041499999V0200501N00211220001CN0300001N9+01501+00781101981ADDAY121999GF104991001001999999001021MD1110031+9999MW1001
0057601400999991957102706004+34033-004983FM-12+041499999V0209991C00001036001CN0300001N9+01281+01001101951ADDAY111999GF108991051001999999021081MD1310011+9999MW1031
0057601400999991957102712004+34033-004983FM-12+041499999V0200801N00411090001CN0600001N9+01781+01001102001ADDAY121999GF108991041001999999091021MD1010001+9999MW1031
0057601400999991957102718004+34033-004983FM-12+041499999V0200601N00211220001CN0600001N9+01891+00891101881ADDAY111999GF104991031001999999041021MD1310061+9999MW1011
0057601400999991957102800004+34033-004983FM-12+041499999V0209991C00001220001CN0300001N9+01001+00781101941ADDAY121999GF100991001001999999001001MD1110031+9999MW1001
0067601400999991957102806004+34033-004983FM-12+041499999V0201801N00101220001CN0400001N9+00781+00721102121ADDAA199000091AY101999GF100991001001999999001001KA1999N+00781MW1021
0057601400999991957102812004+34033-004983FM-12+041499999V0200401N00211090001CN0600001N9+02111+00891101921ADDAY111999GF107991001001999999001061MD1810061+9999MW1031
0057601400999991957102818004+34033-004983FM-12+041499999V0200601N00101036001CN0500001N9+02111+00781101771ADDAY121999GF106991061001999999081021MD1210021+9999MW1021
0057601400999991957102900004+34033-004983FM-12+041499999V0209991C00001220001CN0400001N9+01391+00781102071ADDAY121999GF103991001001999999001021MD1110081+9999MW1001
0057601400999991957102912004+34033-004983FM-12+041499999V0209991C00001002101CN0600001N9+02001+00781101881ADDAY101999GF107991071091002501021999MD1810141+9999MW1021
0057601400999991957103000004+34033-004983FM-12+041499999V0202001N00311036001CN0200001N9+01611+01221102041ADDAY161999GF107991071001999999071999MD1310051+9999MW1001
0057601400999991957103006004+34033-004983FM-12+041499999V0200801N00571036001CN0200001N9+01391+01221102011ADDAY121999GF107991071001999999071999MD1510041+9999MW1011
0057601400999991957103012004+34033-004983FM-12+041499999V0202701N00411220001CN0300001N9+02281+01221101871ADDAY111999GF103991031001999999031001MD1810101+9999MW1011
0057601400999991957103018004+34033-004983FM-12+041499999V0202801N00211220001CN0400001N9+02001+01111101671ADDAY101999GF102991011021017501041011MD1610031+9999MW1011
0057601400999991957103100004+34033-004983FM-12+041499999V0209991C00001004201CN0200001N9+01611+01391101821ADDAY121999GF107991071061004501999999MD1010001+9999MW1001
0043601400999991957103112004+34033-004983FM-12+041499999V0200801N00411036001CN0200001N9+01891+01281101441ADDAY121999GF107991031021012501011011MW1031
0049601400999991957110100004+34033-004983FM-12+041499999V0200601N00311220001CN0200001N9+01281+01221101601ADDGF101991001001999999001021MD1210051+9999MW1001
0057601400999991957110112004+34033-004983FM-12+041499999V0200601N00411220001CN0600001N9+01891+01391101511ADDAY101999GF101991011011012501001001MD1810081+9999MW1031
0057601400999991957110118004+34033-004983FM-12+041499999V0202801N00101220001CN0400001N9+01891+01391101421ADDAY101999GF102991011021012501061001MD1310071+9999MW1031
