0057601400999991950010112004+34033-004983FM-12+041499999V0202501N00211012001CN0150001N9+01221+01001101851ADDAY121999GF107991071081008001001001MD1810041+9999MW1021
0057601400999991950010212004+34033-004983FM-12+041499999V0209991C00001015001CN0150001N9+01001+00781102061ADDAY121999GF107991071081012501001001MD1810021+9999MW1031
0057601400999991950010312004+34033-004983FM-12+041499999V0200901N00511220001CN0150001N9+01221+00781102021ADDAY101999GF100991001001999999001001MD1810171+9999MW1001
0057601400999991950010412004+34033-004983FM-12+041499999V0209991C00001220001CN0200001N9+01111+00611101871ADDAY101999GF100991001001999999001001MD1810091+9999MW1001
0057601400999991950010512004+34033-004983FM-12+041499999V0209991C00001220001CN0200001N9+01281+00781101981ADDAY101999GF100991001001999999001001MD1810071+9999MW1001
0057601400999991950010612004+34033-004983FM-12+041499999V0209991C00001220001CN0200001N9+01221+00611101981ADDAY101999GF100991001001999999001001MD1810011+9999MW1001
0057601400999991950010712004+34033-004983FM-12+041499999V0209991C00001090001CN0200001N9+01221+00391101821ADDAY121999GF107991001001999999001021MD1810071+9999MW1021
0076601400999991950010812004+34033-004983FM-12+041499999V0209991C000019999999N0400001N9+01501+00721101471ADDAY111999GF105991999001999999051001MD1810011+9999MW1021EQDQ01+000002SCOTLC
0057601400999991950010912004+34033-004983FM-12+041499999V0202701N00311009001CN0050001N9+01111+01111102221ADDAY181999GF108991081081004501999999MD1010041+9999MW1811
0057601400999991950011012004+34033-004983FM-12+041499999V0202701N00211015001CN0200001N9+01281+00891102661ADDAY121999GF105991051081012501001001MD1810011+9999MW1021
0057601400999991950011112004+34033-004983FM-12+041499999V0200901N00511220001CN0200001N9+01281+00891102731ADDAY101999GF101991011051012501001001MD1010021+9999MW1021
0057601400999991950011212004+34033-004983FM-12+041499999V0200501N00211220001CN0400001N9+01221+00611102551ADDAY101999GF100991001001999999001001MD1810091+9999MW1001
0057601400999991950011312004+34033-004983FM-12+041499999V0200501N00211090001CN0400001N9+01221+00611102541ADDAY111999GF105991001001999999001021MD1810021+9999MW1031
0057601400999991950011412004+34033-004983FM-12+041499999V0209991C00001220001CN0400001N9+01281+00781103111ADDAY101999GF100991001001999999001001MD1010021+9999MW1001
0057601400999991950011512004+34033-004983FM-12+041499999V0209991C00001220001CN0400001N9+01281+00721103011ADDAY101999GF102991001001999999001021MD1810041+9999MW1021
0057601400999991950011612004+34033-004983FM-12+041499999V0209991C00001220001CN0200001N9+01501+00891102771ADDAY111999GF101991011011012501001001MD1810091+9999MW1031
0057601400999991950011712004+34033-004983FM-12+041499999V0202501N00311015001CN0160001N9+01391+00891102451ADDAY121999GF105991051051017501001001MD1010011+9999MW1021
0057601400999991950011812004+34033-004983FM-12+041499999V0202701N00511220001CN0150001N9+01281+00891102171ADDAY121999GF104991041081008001001001MD1010031+9999MW1031
0057601400999991950011912004+34033-004983FM-12+041499999V0202701N00211220001CN0200001N9+01111+00501102131ADDAY101999GF100991001001999999001001MD1810021+9999MW1001
0057601400999991950012012004+34033-004983FM-12+041499999V0209991C00001220001CN0200001N9+01001+00391101531ADDAY111999GF104991001001999999041021MD1810051+9999MW1031
0057601400999991950012112004+34033-004983FM-12+041499999V0200401N003119999999N0200001N9+01111+00501100861ADDAY121999GF106991001001999999081021MD1810171+9999MW1031
0057601400999991950012212004+34033-004983FM-12+041499999V0209991C00001012001CN0150001N9+01111+00611100371ADDAY121999GF108991081081008001999999MD1010001+9999MW1031
0057601400999991950012312004+34033-004983FM-12+041499999V0202701N00211009001CN0100001N9+01001+00891101151ADDAY181999GF108991081081004501999999MD1810141+9999MW1251
0057601400999991950012412004+34033-004983FM-12+041499999V0202701N00311012001CN0150001N9+01001+00891101511ADDAY181999GF108991081081008001999999MD1010041+9999MW1801
0076601400999991950012512004+34033-004983FM-12+041499999V0200201N00211220001CN0200001N9+01221+00501101411ADDAY101999GF102991999001999999081001MD1210041+9999MW1021EQDQ01+000002SCOTLC
0057601400999991950012612004+34033-004983FM-12+041499999V0202401N00511015001CN0200001N9+01281+00501101681ADDAY121999GF107991071081012501001001MD1010031+9999MW1031
0057601400999991950012712004+34033-004983FM-12+041499999V0209991C00001220001CN0400001N9+01221+00891101751ADDAY101999GF103991031051008001001001MD1010021+9999MW1021
0057601400999991950012812004+34033-004983FM-12+041499999V0200701N00211220001CN0200001N9+01221+00721101261ADDAY101999GF102991001001999999001011MD1810031+9999MW1021
0057601400999991950012912004+34033-004983FM-12+041499999V0200201N00311220001CN0400001N9+01221+00611101741ADDAY101999GF100991001001999999001001MD1010081+9999MW1001
0057601400999991950013012004+34033-004983FM-12+041499999V0200601N00211220001CN0200001N9+01221+00781102031ADDAY101999GF100991001001999999001001MD1010011+9999MW1001
0057601400999991950013112004+34033-004983FM-12+041499999V0209991C00001090001CN0200001N9+01281+00781101931ADDAY121999GF106991001001999999001021MD1810031+9999MW1021
0057601400999991950020212004+34033-004983FM-12+041499999V0209991C00001220001CN0200001N9+01281+01001102061ADDAY121999GF103991031999012501001001MD1010041+9999MW1031
0057601400999991950020312004+34033-004983FM-12+041499999V0209991C00001220001CN0200001N9+01391+00611102361ADDAY101999GF100991001001999999001001MD1010061+9999MW1001
0057601400999991950020412004+34033-004983FM-12+041499999V0209991C00001012001CN0160001N9+01391+00891102541ADDAY121999GF107991071051012501001001MD1810041+9999MW1021
0057601400999991950020612004+34033-004983FM-12+041499999V0202501N00311220001CN0200001N9+01721+01111102941ADDAY111999GF103991001001999999001021MD1810011+9999MW1021
0057601400999991950020812004+34033-004983FM-12+041499999V0202701N00311220001CN0200001N9+01281+00891103211ADDAY101999GF104991041051008001001001MD1110061+9999MW1031
0057601400999991950020912004+34033-004983FM-12+041499999V0200601N00721220001CN0200001N9+01721+00891103221ADDAY101999GF100991001001999999001001MD1810011+9999MW1001
0057601400999991950021112004+34033-004983FM-12+041499999V0209991C00001220001CN0600001N9+01781+00781102621ADDAY101999GF101991001001999999001041MD1010001+9999MW1021
0057601400999991950021212004+34033-004983FM-12+041499999V0209991C00001220001CN0160001N9+01221+00891102161ADDAY121999GF100991001001999999001001MD1810051+9999MW1001
0057601400999991950021312004+34033-004983FM-12+041499999V0202701N00311012001CN0150001N9+01391+00891102451ADDAY121999GF107991071081008001001001MD1010051+9999MW1021
0057601400999991950021412004+34033-004983FM-12+041499999V0202701N00211012001CN0160001N9+01221+00721102901ADDAY121999GF105991051081008001001001MD1010081+9999MW1031
0057601400999991950021512004+34033-004983FM-12+041499999V0200901N01031220001CN0600001N9+01501+00001102601ADDAY101999GF100991001001999999001001MD1810021+9999MW1001
0057601400999991950021612004+34033-004983FM-12+041499999V0200901N00621220001CN0400001N9+01781+00281102671ADDAY101999GF100991001001999999001001MD1710071+9999MW1021
0057601400999991950021712004+34033-004983FM-12+041499999V0200901N01441220001CN0600001N9+01391+00501102381ADDAY101999GF100991001001999999001001MD1810071+9999MW1001
0057601400999991950021912004+34033-004983FM-12+041499999V0201201N00311090001CN0160001N9+01891+00721101911ADDAY111999GF105991001001999999001021MD1010071+9999MW1021
0057601400999991950022112004+34033-004983FM-12+041499999V0209991C00001090001CN0150001N9+01891+01221101921ADDAY111999GF106991001001999999001021MD1810021+9999MW1031
0057601400999991950022212004+34033-004983FM-12+041499999V0202701N004119999999N0100001N9+02111+00721101811ADDAY121999GF105991001001999999081021MD1010031+9999MW1021
0043601400999991950022312004+34033-004983FM-12+041499999V0209991C00001007501CN0100001N9+01391+00781102611ADDAY121999GF107991071051008001001001MW1011
0057601400999991950022412004+34033-004983FM-12+041499999V0209991C00001220001CN0110001N9+01611+00891102571ADDAY111999GF102991021011008001001001MD1810051+9999MW1011
0057601400999991950022712004+34033-004983FM-12+041499999V0209991C00001220001CN0200001N9+01391+00391102291ADDAY121999GF104991041051012501001001MD1010001+9999MW1011
0057601400999991950022812004+34033-004983FM-12+041499999V0202501N00511012001CN0200001N9+01501+00891102281ADDAY121999GF107991071051012501001001MD1010011+9999MW1021
0057601400999991950030112004+34033-004983FM-12+041499999V0202501N01031021001CN0160001N9+01391+01001101061ADDAY121999GF106991061051022501001001MD1810101+9999MW1031
0057601400999991950030212004+34033-004983FM-12+041499999V0202501N00621012001CN0700001N9+01391+00891102011ADDAY151999GF107991071081008001001001MD1210051+9999MW1031
0057601400999991950030312004+34033-004983FM-12+041499999V0200501N00211220001CN0400001N9+01221+01001102071ADDAY111999GF101991011011012501001001MD1210081+9999MW1011
0057601400999991950030612004+34033-004983FM-12+041499999V0200901N00931220001CN0100001N9+01781+00281102091ADDAY101999GF100991001001999999001001MD1010001+9999MW1051
0057601400999991950030712004+34033-004983FM-12+041499999V0200901N01441220001CN0150001N9+01611+00281102031ADDAY101999GF100991001001999999001001MD1810071+9999MW1021
0057601400999991950030812004+34033-004983FM-12+041499999V0200701N00771220001CN0150001N9+02001+00281101701ADDAY101999GF100991001001999999001001MD1810071+9999MW1021
0076601400999991950030912004+34033-004983FM-12+041499999V0209991C00001220001CN0200001N9+01721+01111101791ADDAY101999GF102991999001999999081001MD1810011+9999MW1021EQDQ01+000002SCOTLC
0057601400999991950031012004+34033-004983FM-12+041499999V0202501N01441009001CN0200001N9+01501+01001101781ADDAY181999GF105991051081004501001001MD1210011+9999MW1021
0057601400999991950031112004+34033-004983FM-12+041499999V0209991C00001220001CN0160001N9+01611+01001102051ADDAY111999GF103991031021012501001001MD1810021+9999MW1021
0057601400999991950031212004+34033-004983FM-12+041499999V0202901N00311012001CN0150001N9+01721+00781102101ADDAY111999GF105991051021012501001001MD1810011+9999MW1031
0057601400999991950031412004+34033-004983FM-12+041499999V0200501N00211220001CN0200001N9+01611+00891101571ADDAY101999GF100991001001999999001001MD1810151+9999MW1021
0051601400999991950031512004+34033-004983FM-12+041499999V0202401N00311220001CN0100001N9+01501+01281101641ADDAY111999GF107991041061008001001041MD1110121+9999
0057601400999991950031612004+34033-004983FM-12+041499999V0203001N00211220001CN0200001N9+01891+01221102231ADDAY111999GF103991031011008001001001MD1010011+9999MW1021
0043601400999991950031712004+34033-004983FM-12+041499999V0209991C00001220001CN0200001N9+01781+01281102471ADDAY101999GF100991001001999999001001MW1021
0057601400999991950031912004+34033-004983FM-12+041499999V0203601N00211015001CN0200001N9+01891+01221102501ADDAY121999GF105991051081012501001001MD1010021+9999MW1021
0057601400999991950032012004+34033-004983FM-12+041499999V0209991C00001220001CN0200001N9+01721+00891102381ADDAY101999GF100991001001999999001001MD1810031+9999MW1021
0057601400999991950032112004+34033-004983FM-12+041499999V0209991C00001220001CN0400001N9+02111+00721102291ADDAY111999GF101991001001999999011021MD1810041+9999MW1021
0057601400999991950032212004+34033-004983FM-12+041499999V0200901N00211220001CN0400001N9+99999+99999999999ADDAY101999GF100991001001999999001001MD1810041+9999MW1021
0057601400999991950032312004+34033-004983FM-12+041499999V0200901N00621220001CN0400001N9+02501+00281102011ADDAY101999GF100991001001999999001001MD1810011+9999MW1021
0057601400999991950032412004+34033-004983FM-12+041499999V0201201N00621220001CN0400001N9+02501+00781102081ADDAY101999GF100991001001999999001001MD1810041+9999MW1021
0057601400999991950032512004+34033-004983FM-12+041499999V0209991C00001220001CN0160001N9+02501+00781101861ADDAY101999GF100991001001999999001001MD1810011+9999MW1021
0049601400999991950032612004+34033-004983FM-12+041499999V0203201N00211090001CN0160001N9+02001+01001101341ADDGF105991021011008001001021MD1810121+9999MW1021
0057601400999991950032712004+34033-004983FM-12+041499999V0203201N00931015001CN0160001N9+01721+00891101411ADDAY121999GF108991081081012501999999MD1810041+9999MW1021
0057601400999991950032812004+34033-004983FM-12+041499999V0202701N00931012001CN0150001N9+01281+00891101021ADDAY181999GF107991071021012501001021MD1810111+9999MW1811
0057601400999991950032912004+34033-004983FM-12+041499999V0202401N01231012001CN0160001N9+01391+01001100941ADDAY181999GF107991071081008001001001MD1810041+9999MW1251
0057601400999991950033112004+34033-004983FM-12+041499999V0203201N00311012001CN0150001N9+01391+01111101401ADDAY161999GF108991081081008001999999MD1010011+9999MW1021
0057601400999991950040112004+34033-004983FM-12+041499999V0209991C00001220001CN0150001N9+01391+00611101701ADDAY101999GF100991001001999999001001MD1810041+9999MW1021
0057601400999991950040212004+34033-004983FM-12+041499999V0209991C00001220001CN0200001N9+01721+00721101621ADDAY101999GF100991001001999999001001MD1710031+9999MW1021
0057601400999991950040412004+34033-004983FM-12+041499999V0209999999999004201CN0150001N9+01611+01221101151ADDAY121999GF199999051041004501001001MD1010021+9999MW1021
0057601400999991950040512004+34033-004983FM-12+041499999V0209991C00001220001CN0120001N9+01781+01281100971ADDAY101999GF100991001001999999001001MD1810061+9999MW1021
0057601400999991950040712004+34033-004983FM-12+041499999V0200901N00511220001CN0150001N9+02001+01281100781ADDAY101999GF101991011021012501001001MD1010001+9999MW1031
0057601400999991950040912004+34033-004983FM-12+041499999V0200601N00411220001CN0200001N9+02721+01111096181ADDAY101999GF100991001001999999001001MD1010011+9999MW1021
0057601400999991950041312004+34033-004983FM-12+041499999V0202701N00211009001CN0150001N9+02001+01391101101ADDAY121999GF106991061081004501001001MD1810041+9999MW1021
0057601400999991950041412004+34033-004983FM-12+041499999V0203001N00511004201CN0100001N9+01391+01001101571ADDAY121999GF108991081051004501999999MD1810011+9999MW1021
0057601400999991950041512004+34033-004983FM-12+041499999V0202901N00411012001CN0160001N9+01721+00721101671ADDAY121999GF106991061081008001001001MD1010031+9999MW1021
0043601400999991950041612004+34033-004983FM-12+041499999V0209991C000019999999N0400001N9+01721+00611101801ADDAY101999GF199999999011022501001001MW1021
0057601400999991950041712004+34033-004983FM-12+041499999V0209991C00001036001CN0200001N9+01781+00781102161ADDAY111999GF105991011021012501051001MD1810041+9999MW1021
0057601400999991950041812004+34033-004983FM-12+041499999V0202701N00411220001CN0200001N9+01891+01001102101ADDAY111999GF101991011011012501001001MD1810131+9999MW1031
0057601400999991950041912004+34033-004983FM-12+041499999V0202701N00721002101CN0080001N9+01391+01001101441ADDAY121999GF108991081071002501999999MD1010011+9999MW1021
0057601400999991950042012004+34033-004983FM-12+041499999V0209991C00001220001CN0200001N9+01611+00611101321ADDAY111999GF104991041021012501001001MD1810011+9999MW1021
0057601400999991950042112004+34033-004983FM-12+041499999V0200901N00461220001CN0200001N9+01721+00221101591ADDAY101999GF101991011021012501001001MD1810011+9999MW1021
0043601400999991950042212004+34033-004983FM-12+041499999V0203601N00411220001CN0200001N9+01891+00611101791ADDAY101999GF103991031011012501001999MW1031
0057601400999991950042412004+34033-004983FM-12+041499999V0209991C00001220001CN0160001N9+02001+00281101411ADDAY101999GF100991001001999999001001MD1810021+9999MW1021
0057601400999991950042512004+34033-004983FM-12+041499999V0209991C00001220001CN0200001N9+02281+00391101171ADDAY101999GF100991001001999999001001MD1810071+9999MW1021
0057601400999991950042612004+34033-004983FM-12+041499999V0209991C00001012001CN0080001N9+01501+01111101661ADDAY151999GF108991081081008001999999MD1010071+9999MW1031
0057601400999991950042712004+34033-004983FM-12+041499999V0209991C00001220001CN0160001N9+01891+00721101791ADDAY101999GF101991011011012501001001MD1710061+9999MW1021
0057601400999991950042812004+34033-004983FM-12+041499999V0200601N01031220001CN0200001N9+02001+00501101791ADDAY111999GF103991031011012501001001MD1010001+9999MW1031
0057601400999991950043012004+34033-004983FM-12+041499999V0200901N01031220001CN0160001N9+02001+00721101661ADDAY101999GF100991001001999999001001MD1710081+9999MW1021
0057601400999991950050112004+34033-004983FM-12+041499999V0200901N00721220001CN0200001N9+02281+00781101581ADDAY101999GF100991001001999999001001MD1710041+9999MW1021
0076601400999991950050612004+34033-004983FM-12+041499999V0202001N00621001201CN0040001N9+02001+01281101611ADDAY161999GF108991999071001501021999MD1710021+9999MW1021EQDQ01+000082SCOTLC
0057601400999991950050712004+34033-004983FM-12+041499999V0209991C00001220001CN0100001N9+02001+01111101681ADDAY111999GF104991031011012501001021MD1810111+9999MW1031
0057601400999991950050812004+34033-004983FM-12+041499999V0203601N00211220001CN0200001N9+02281+01111101341ADDAY101999GF101991011011012501001001MD1710081+9999MW1021
0057601400999991950050912004+34033-004983FM-12+041499999V0202701N00411220001CN0150001N9+02111+01221101201ADDAY111999GF101991011011012501001001MD1810041+9999MW1031
0057601400999991950051012004+34033-004983FM-12+041499999V0200401N002119999999N0090001N9+02281+01221100721ADDAY111999GF105991001001999999081021MD1610171+9999MW1051
0057601400999991950051112004+34033-004983FM-12+041499999V0209991C00001001201CN0090001N9+01891+01391100761ADDAY121999GF108991061071001501001021MD1210091+9999MW1021
0043601400999991950051212004+34033-004983FM-12+041499999V0202501N00621012001CN0150001N9+01721+01221101151ADDAY181999GF108991081081008001999999MW1021
0076601400999991950051312004+34033-004983FM-12+041499999V0209991C000019999999N0090001N9+02221+01221101141ADDAY111999GF106991999081008001001001MD1810111+9999MW1051EQDQ01+000042SCOTLC
0057601400999991950051412004+34033-004983FM-12+041499999V0203001N00211036001CN0150001N9+02111+01221100861ADDAY111999GF106991031011012501081011MD1810071+9999MW1031
0057601400999991950051512004+34033-004983FM-12+041499999V0202701N00511012001CN0400001N9+02281+01281101251ADDAY111999GF105991051021012501001001MD1710041+9999MW1021
0057601400999991950051612004+34033-004983FM-12+041499999V0209991C000019999999N0400001N9+02111+01391101101ADDAY121999GF108991001001999999051041MD1810041+9999MW1031
0057601400999991950051812004+34033-004983FM-12+041499999V0203201N00211220001CN0150001N9+02001+01391101281ADDAY121999GF104991041081008001001001MD1810061+9999MW1011
0057601400999991950051912004+34033-004983FM-12+041499999V0209991C00001220001CN0600001N9+02781+01391100841ADDAY101999GF100991001001999999001001MD1810071+9999MW1021
0057601400999991950052012004+34033-004983FM-12+041499999V0203001N00721220001CN0400001N9+02781+01391100951ADDAY101999GF100991001001999999001001MD1310101+9999MW1021
0057601400999991950052212004+34033-004983FM-12+041499999V0209991C00001036001CN0160001N9+02221+01111102031ADDAY121999GF106991011021012501051021MD1710101+9999MW1031
0057601400999991950052512004+34033-004983FM-12+041499999V0202701N00311220001CN0200001N9+02391+01221101991ADDAY101999GF101991011011017501001001MD1810031+9999MW1031
0043601400999991950052612004+34033-004983FM-12+041499999V0209991C00001015001CN9999999N9+02111+00781102301ADDGF199999071999017501001041MD1710021+9999
0057601400999991950052712004+34033-004983FM-12+041499999V0209991C00001220001CN0200001N9+02281+01111101841ADDAY111999GF104991001001999999001021MD1810121+9999MW1031
0057601400999991950052812004+34033-004983FM-12+041499999V0200201N01491220001CN0100001N9+02611+00611101301ADDAY131999GF104991001001999999091021MD1710111+9999MW1011
0057601400999991950052912004+34033-004983FM-12+041499999V0209991C000019999999N0100001N9+02281+01391101601ADDAY121999GF108991001001999999071999MD1210071+9999MW1021
0057601400999991950053112004+34033-004983FM-12+041499999V0209991C00001220001CN0100001N9+02501+01611101661ADDAY101999GF100991001001999999001001MD1710081+9999MW1021
0057601400999991950060212004+34033-004983FM-12+041499999V0209991C00001220001CN0150001N9+02781+01611101351ADDAY111999GF102991001001999999001021MD1810081+9999MW1011
0057601400999991950060312004+34033-004983FM-12+041499999V0200201N00411220001CN0600001N9+03221+01391101261ADDAY101999GF102991001001999999001021MD1710031+9999MW1031
0057601400999991950060412004+34033-004983FM-12+041499999V0209991C00001220001CN0200001N9+99999+99999999999ADDAY101999GF100991001001999999001001MD1810031+9999MW1021
0057601400999991950060612004+34033-004983FM-12+041499999V0209991C00001220001CN0100001N9+02221+01721101821ADDAY121999GF102991001001999999001021MD1710061+9999MW1011
0057601400999991950060712004+34033-004983FM-12+041499999V0209991C00001007501CN0100001N9+01891+01501101171ADDAY121999GF108991081051008001999999MD1710051+9999MW1021
0078601400999991950060812004+34033-004983FM-12+041499999V0209991C000019999999N0080001N9+02001+01501101341ADDAY121999GF108991081999004501999999MW1021EQDQ01+000022APCTENQ02+000002APC3  
0057601400999991950060912004+34033-004983FM-12+041499999V0209991C00001036001CN0400001N9+02281+01391101051ADDAY121999GF106991031011012501081021MD1710081+9999MW1021
0057601400999991950061012004+34033-004983FM-12+041499999V0203401N00211220001CN0200001N9+02391+01281101401ADDAY111999GF102991021011012501001001MD1810041+9999MW1021
0057601400999991950061212004+34033-004983FM-12+041499999V0209991C000019999999N0200001N9+02501+01391101931ADDAY121999GF107991001001999999081021MD1810101+9999MW1031
0057601400999991950061312004+34033-004983FM-12+041499999V0200601N00211220001CN0400001N9+02781+01391101851ADDAY101999GF100991001001999999001001MD1810091+9999MW1021
0076601400999991950061412004+34033-004983FM-12+041499999V0203201N00621220001CN0400001N9+01281+99999101351ADDAY101999GF101991001001999999001021MD1710011+9999MW1021EQDQ01+028702ATOD  
0057601400999991950061512004+34033-004983FM-12+041499999V0203201N00311220001CN0400001N9+02611+01781101611ADDAY101999GF100991001001999999001001MD1210041+9999MW1021
0057601400999991950061712004+34033-004983FM-12+041499999V0200401N00211220001CN0400001N9+02501+01391102051ADDAY101999GF101991011011012501001001MD1810091+9999MW1021
0057601400999991950061812004+34033-004983FM-12+041499999V0209991C00001220001CN0400001N9+02611+01001101471ADDAY101999GF100991001001999999001001MD1710111+9999MW1021
0057601400999991950061912004+34033-004983FM-12+041499999V0209991C00001220001CN0160001N9+02501+01781101321ADDAY101999GF103991001001999999081021MD1710081+9999MW1031
0057601400999991950062012004+34033-004983FM-12+041499999V0203201N001519999999N0150001N9+01891+01611101901ADDAY121999GF108991081051999999999999MD1210011+9999MW1021
0057601400999991950062212004+34033-004983FM-12+041499999V0209991C00001220001CN0400001N9+02611+01501101461ADDAY101999GF100991001001999999001001MD1810071+9999MW1021
0057601400999991950062312004+34033-004983FM-12+041499999V0209991C00001220001CN0400001N9+02781+01721101401ADDAY101999GF100991001001999999001001MD1710021+9999MW1021
0057601400999991950062412004+34033-004983FM-12+041499999V0209991C00001220001CN0200001N9+02611+01781101841ADDAY101999GF100991001001999999001001MD1810031+9999MW1061
0057601400999991950062512004+34033-004983FM-12+041499999V0209991C000019999999N0400001N9+02721+01781101811ADDAY101999GF106991001001999999081021MD1710101+9999MW1001
0070601400999991950062712004+34033-004983FM-12+041499999V0200901N01031220001CN0150001N9+03721+01891101111ADDAY101999GF102991999091017501001001MD1710021+9999EQDQ01+000012SCOTLC
0043601400999991950062812004+34033-004983FM-12+041499999V0200901N01131220001CN0160001N9+02781+02111101351ADDAY101999GF102991011021017501001021MW1001
0057601400999991950062912004+34033-004983FM-12+041499999V0200901N00821220001CN0200001N9+03891+00781101401ADDAY101999GF101991011011017501001001MD1710111+9999MW1031
0076601400999991950070412004+34033-004983FM-12+041499999V0203401N003119999999N0200001N9+02721+00611101601ADDAY111999GF105991999011017501001001MD1810041+9999MW1011EQDQ01+000022SCOTLC
0057601400999991950070512004+34033-004983FM-12+041499999V0203001N00051220001CN0400001N9+02611+00721101751ADDAY101999GF100991001001999999001001MD1710121+9999MW1021
0057601400999991950070612004+34033-004983FM-12+041499999V0201201N00211220001CN0200001N9+02781+01721101271ADDAY101999GF100991001001999999001001MD1710141+9999MW1021
0076601400999991950070712004+34033-004983FM-12+041499999V0209991C00001220001CN0400001N9+02221+01611100931ADDAY121999GF100991001001999999001001MD1710091+9999MW1001EQDQ01+000092SCOMCG
0057601400999991950070812004+34033-004983FM-12+041499999V0203401N00211220001CN0200001N9+03611+01611100981ADDAY101999GF100991001001999999001001MD1310031+9999MW1021
0057601400999991950071112004+34033-004983FM-12+041499999V0200901N00211220001CN0200001N9+03391+01221101411ADDAY101999GF100991001001999999001001MD1710091+9999MW1021
0062601400999991950071212004+34033-004983FM-12+041499999V0209991C00001220001CN0200001N9+03221+01891101321ADDGF102991999001999999081001MD1810081+9999EQDQ01+000002SCOTLC
0057601400999991950071312004+34033-004983FM-12+041499999V0209991C000019999999N0160001N9+02891+01891101391ADDAY101999GF199999001001999999081001MD1810031+9999MW1061
0057601400999991950071612004+34033-004983FM-12+041499999V0209991C00001090001CN0024001N9+03501+01611101091ADDAY101999GF105991001001999999001021MD1710101+9999MW1061
0057601400999991950071712004+34033-004983FM-12+041499999V0209991C00001220001CN0160001N9+03501+01781100961ADDAY111999GF102991001001999999001021MD1810041+9999MW1061
0057601400999991950071812004+34033-004983FM-12+041499999V0200401N00311220001CN0150001N9+03721+01391101201ADDAY101999GF100991001001999999001001MD1810031+9999MW1021
0057601400999991950071912004+34033-004983FM-12+041499999V0200501N00511220001CN0160001N9+03721+02001101431ADDAY101999GF101991011011017501001001MD1810041+9999MW1031
0057601400999991950072012004+34033-004983FM-12+041499999V0209991C00001220001CN0160001N9+03501+01611101321ADDAY101999GF100991001001999999001001MD1710121+9999MW1021
0057601400999991950072112004+34033-004983FM-12+041499999V0203401N004119999999N0200001N9+03391+01501101291ADDAY121999GF105991999091017501081001MD1810041+9999MW1031
0057601400999991950072212004+34033-004983FM-12+041499999V0202701N00311220001CN0200001N9+03221+01611101451ADDAY101999GF101991011021017501001001MD1810041+9999MW1021
0078601400999991950072312004+34033-004983FM-12+041499999V0202701N00101220001CN0400001N9+03281+01111101591ADDAY101999GF100991001001999999001001MW1021EQDQ01+000032APCTENQ02+000002APC3  
0057601400999991950072412004+34033-004983FM-12+041499999V0200601N00211220001CN0400001N9+03501+01391101421ADDAY101999GF100991001001999999001001MD1310081+9999MW1021
0057601400999991950072512004+34033-004983FM-12+041499999V0200601N00211220001CN0400001N9+03501+01391101421ADDAY101999GF100991001001999999001001MD1310081+9999MW1021
0057601400999991950072612004+34033-004983FM-12+041499999V0209991C00001220001CN0200001N9+03501+01391101011ADDAY101999GF100991001001999999001001MD1810041+9999MW1021
0057601400999991950072712004+34033-004983FM-12+041499999V0200601N00511220001CN0200001N9+99999+99999100961ADDAY101999GF101991011021017501001001MD1710071+9999MW1031
0057601400999991950072812004+34033-004983FM-12+041499999V0200601N00311220001CN0200001N9+03891+01611101051ADDAY101999GF101991011011017501001001MD1710051+9999MW1031
0057601400999991950072912004+34033-004983FM-12+041499999V0200201N00211220001CN0160001N9+03781+01781101101ADDAY111999GF102991021091012501001001MD1710101+9999MW1031
0057601400999991950080112004+34033-004983FM-12+041499999V0200201N00211220001CN0200001N9+03501+01891100941ADDAY101999GF101991011021017501001001MD1810051+9999MW1031
0057601400999991950080212004+34033-004983FM-12+041499999V0209991C00001220001CN0200001N9+03001+01501101231ADDAY101999GF100991001001999999001001MD1810011+9999MW1021
0057601400999991950080612004+34033-004983FM-12+041499999V0202701N00211220001CN0160001N9+02781+01891101051ADDAY101999GF101991011021017501001001MD1710081+9999MW1031
0057601400999991950080812004+34033-004983FM-12+041499999V0209991C00001220001CN0200001N9+03281+01281100921ADDAY101999GF100991001001999999001001MD1710111+9999MW1021
0057601400999991950080912004+34033-004983FM-12+041499999V0209991C000019999999N0200001N9+03111+01611100941ADDAY111999GF107991001001999999081021MD1810041+9999MW1031
0057601400999991950081012004+34033-004983FM-12+041499999V0209991C000019999999N0200001N9+03111+02001101191ADDAY121999GF107991001001999999081021MD1010011+9999MW1021
0057601400999991950081212004+34033-004983FM-12+041499999V0203401N00211220001CN0200001N9+03221+02001101301ADDAY101999GF101991011021017501001001MD1810091+9999MW1021
0049601400999991950081312004+34033-004983FM-12+041499999V0200601N00931220001CN0200001N9+03721+02111100911ADDGF101991011021017501001001MD1710141+9999MW1031
0076601400999991950081412004+34033-004983FM-12+041499999V0203001N00211220001CN0120001N9+03221+02111100981ADDAY111999GF104991999091017501001001MD1810071+9999MW1171EQDQ01+000032SCOTLC
0057601400999991950081512004+34033-004983FM-12+041499999V0209991C00001220001CN0100001N9+02501+01611101541ADDAY121999GF104991041081012501001001MD1810051+9999MW1051
0057601400999991950081612004+34033-004983FM-12+041499999V0209991C00001220001CN0200001N9+03391+01501100981ADDAY101999GF100991001001999999001001MD1710061+9999MW1021
0057601400999991950081912004+34033-004983FM-12+041499999V0200201N00821220001CN0400001N9+03281+00611100691ADDAY101999GF100991001001999999001001MD1710211+9999MW1021
0057601400999991950082012004+34033-004983FM-12+041499999V02099999999999999999N0160001N9+03111+01391100841ADDAY101999GF199999011071999999001999MD1110101+9999MW1031
0057601400999991950082112004+34033-004983FM-12+041499999V0200601N01441036001CN0200001N9+03111+01781101191ADDAY181999GF107991031021012501081001MD1210031+9999MW1251
0057601400999991950082212004+34033-004983FM-12+041499999V0209991C00001220001CN0160001N9+04111+01611101091ADDAY111999GF103991021021017501091001MD1810081+9999MW1021
0057601400999991950082412004+34033-004983FM-12+041499999V0209991C00001220001CN0200001N9+03281+01721101331ADDAY101999GF102991011021017501081001MD1710151+9999MW1021
0057601400999991950082512004+34033-004983FM-12+041499999V0209991C00001220001CN0200001N9+02611+01611101471ADDAY101999GF101991011011017501001001MD1810111+9999MW1031
0057601400999991950082612004+34033-004983FM-12+041499999V0202701N00211220001CN0400001N9+02721+01391101481ADDAY101999GF101991011011017501001001MD1810071+9999MW1001
0057601400999991950082812004+34033-004983FM-12+041499999V0202701N00211036001CN0200001N9+02501+01721101261ADDAY121999GF107991011081012501071021MD1710031+9999MW1011
0057601400999991950082912004+34033-004983FM-12+041499999V0203201N00311220001CN0200001N9+02721+01501101481ADDAY101999GF100991001001999999001001MD1810071+9999MW1021
0057601400999991950083012004+34033-004983FM-12+041499999V0209991C00001220001CN0200001N9+03281+01781101411ADDAY101999GF102991021091017501001001MD1010041+9999MW1011
0057601400999991950083112004+34033-004983FM-12+041499999V0209991C000019999999N0200001N9+02611+01781101911ADDAY121999GF107991001001999999021021MD1710041+9999MW1031
0043601400999991950090112004+34033-004983FM-12+041499999V0209991C00001220001CN0160001N9+02501+01391101721ADDAY101999GF100991001001999999001001MW1021
0057601400999991950090212004+34033-004983FM-12+041499999V0200401N00211220001CN0600001N9+02781+01391101231ADDAY101999GF100991001001999999001001MD1810101+9999MW1011
0051601400999991950090312004+34033-004983FM-12+041499999V0209991C00001015001CN0200001N9+02221+01611101591ADDAY191999GF108991071091017501001031MD1210121+9999
0057601400999991950090412004+34033-004983FM-12+041499999V0209991C00001220001CN0200001N9+03001+01721101271ADDAY101999GF103991011021017501001021MD1810031+9999MW1031
0043601400999991950090512004+34033-004983FM-12+041499999V0209991C000019999999N0200001N9+02611+01781101661ADDAY111999GF106991001001999999071021MW1031
0057601400999991950090612004+34033-004983FM-12+041499999V0202401N00211220001CN0200001N9+02611+01611101761ADDAY111999GF100991001001999999001001MD1810101+9999MW1021
0057601400999991950090712004+34033-004983FM-12+041499999V0200201N00211220001CN0150001N9+02721+01721101671ADDAY101999GF100991001001999999001001MD1810091+9999MW1061
0057601400999991950090812004+34033-004983FM-12+041499999V0200901N01081220001CN0400001N9+03221+01611101511ADDAY101999GF101991011011017501001001MD1810051+9999MW1031
0057601400999991950090912004+34033-004983FM-12+041499999V0209991C00001220001CN0200001N9+03001+01611101331ADDAY111999GF102991021021017501001001MD1810051+9999MW1001
0076601400999991950091012004+34033-004983FM-12+041499999V0200601N00311220001CN0200001N9+03281+01891101441ADDAY111999GF104991011031999999071081MD1810081+9999MW1031EQDQ01+000992SCOLCB
0057601400999991950091112004+34033-004983FM-12+041499999V0209991C00001220001CN0160001N9+02891+01721101841ADDAY101999GF101991011021017501061001MD1810091+9999MW1031
0057601400999991950091212004+34033-004983FM-12+041499999V0200401N00211220001CN0400001N9+03111+01611101821ADDAY101999GF100991001001999999001001MD1810061+9999MW1021
0057601400999991950091312004+34033-004983FM-12+041499999V0209991C00001220001CN0160001N9+03001+01391101521ADDAY101999GF101991011021017501081001MD1710111+9999MW1021
0057601400999991950091412004+34033-004983FM-12+041499999V0209991C00001220001CN0400001N9+02781+01281101541ADDAY101999GF100991001001999999001001MD1810061+9999MW1021
0057601400999991950091512004+34033-004983FM-12+041499999V0209991C00001220001CN0200001N9+02721+01281101581ADDAY101999GF101991011011017501001001MD1810081+9999MW1021
0057601400999991950091612004+34033-004983FM-12+041499999V0200401N00311220001CN0160001N9+03221+01221101191ADDAY101999GF101991011021017501001001MD1810111+9999MW1031
0057601400999991950091712004+34033-004983FM-12+041499999V0209991C00001220001CN0200001N9+03391+01111101371ADDAY101999GF101991011081017501001021MD1710111+9999MW1031
0057601400999991950091812004+34033-004983FM-12+041499999V0209991C00001220001CN0200001N9+03001+01721101481ADDAY111999GF103991021081022501081031MD1810101+9999MW1031
0043601400999991950091912004+34033-004983FM-12+041499999V0200401N00211220001CN0700001N9+03221+01611101371ADDAY101999GF102991011011017501041001MW1031
0057601400999991950092012004+34033-004983FM-12+041499999V0200601N00311220001CN0200001N9+03281+01391101251ADDAY101999GF101991011011017501001001MD1810061+9999MW1031
0057601400999991950092212004+34033-004983FM-12+041499999V0200601N005119999999N0200001N9+02611+01501101611ADDAY121999GF107991001001999999081999MD1710061+9999MW1011
0057601400999991950092312004+34033-004983FM-12+041499999V0200701N009319999999N0200001N9+02721+01781101671ADDAY101999GF107991001001999999081071MD1010041+9999MW1021
0062601400999991950092412004+34033-004983FM-12+041499999V0200201N003119999999N0200001N9+03281+01891102271ADDAY121999GF107991061081999999011021MW1031EQDQ01+000992SCOLCB
0057601400999991950092512004+34033-004983FM-12+041499999V0209991C00001036001CN0200001N9+02891+01721101431ADDAY101999GF107991011021017501081021MD1810091+9999MW1031
0057601400999991950092612004+34033-004983FM-12+041499999V0202701N00311012001CN0200001N9+02391+01781101471ADDAY121999GF107991061021012501061001MD1810051+9999MW1151
0078601400999991950092712004+34033-004983FM-12+041499999V0209991C00001220001CN0100001N9+01721+00501101711ADDAY121999GF100991999999999999999999MW1021EQDQ01+000012APCTENQ02+000002APC3  
0057601400999991950092812004+34033-004983FM-12+041499999V0200101N00411036001CN0200001N9+02001+01611101471ADDAY121999GF108991031051008001071999MD1810141+9999MW1031
0057601400999991950092912004+34033-004983FM-12+041499999V0209991C00001007501CN0200001N9+02501+01611101681ADDAY121999GF108991071051008001071999MD1010001+9999MW1021
0057601400999991950093012004+34033-004983FM-12+041499999V0202701N00311220001CN0200001N9+02111+01111101941ADDAY111999GF104991021051012501051001MD1810011+9999MW1011
0057601400999991950100112004+34033-004983FM-12+041499999V0200201N002119999999N0200001N9+02111+01501102221ADDAY121999GF108991001001999999071071MD1010041+9999MW1031
0057601400999991950100312004+34033-004983FM-12+041499999V0203601N00311220001CN0200001N9+02391+01611101081ADDAY101999GF100991001001999999001001MD1810071+9999MW1021
0078601400999991950100512004+34033-004983FM-12+041499999V0209991C00001220001CN0200001N9+02391+01501101571ADDAY111999GF103991021021017501081021MW1031EQDQ01+000072APCTENQ02+000002APC3  
0057601400999991950100612004+34033-004983FM-12+041499999V0209991C00001036001CN0700001N9+02281+01721101591ADDAY121999GF108991011021017501081071MD1810011+9999MW1061
0057601400999991950100712004+34033-004983FM-12+041499999V0202501N00411036001CN0150001N9+02001+01721101661ADDAY121999GF108991011061004501071999MD1010101+9999MW1031
0057601400999991950100912004+34033-004983FM-12+041499999V0200401N00211220001CN0160001N9+02221+01781101431ADDAY111999GF104991041011000751001001MD1610171+9999MW1011
0057601400999991950101212004+34033-004983FM-12+041499999V0200901N00931220001CN0200001N9+02611+01611102201ADDAY101999GF101991011011017501001001MD1810081+9999MW1021
0057601400999991950101312004+34033-004983FM-12+041499999V0209991C00001220001CN0200001N9+02611+01611101821ADDAY101999GF102991999999999999999999MD1810131+9999MW1021
0057601400999991950101412004+34033-004983FM-12+041499999V0209999999999220001CN0200001N9+02391+01781101511ADDAY101999GF199999021021012501001001MD1810101+9999MW1031
0057601400999991950101512004+34033-004983FM-12+041499999V0209991C00001015001CN0200001N9+02281+01721101401ADDAY111999GF105991051021017501001001MD1810041+9999MW1031
0057601400999991950101612004+34033-004983FM-12+041499999V0209991C00001036001CN0200001N9+01611+01391101261ADDAY121999GF108991021051017501071999MD1010061+9999MW1011
0057601400999991950101712004+34033-004983FM-12+041499999V0209991C00001220001CN0200001N9+02001+01611101381ADDAY101999GF102991021011012501001001MD1210061+9999MW1031
0057601400999991950101912004+34033-004983FM-12+041499999V0209991C000019999999N0200001N9+02281+01501101641ADDAY101999GF105991001001999999081021MD1810131+9999MW1031
0057601400999991950102012004+34033-004983FM-12+041499999V0209991C00001220001CN0200001N9+02111+01611101801ADDAY101999GF102991021021012501001001MD1810081+9999MW1031
0057601400999991950102212004+34033-004983FM-12+041499999V0209991C00001220001CN0200001N9+02001+01281101641ADDAY101999GF102991011091012501061011MD1810061+9999MW1021
0057601400999991950102312004+34033-004983FM-12+041499999V0209991C00001220001CN0200001N9+02111+01221101521ADDAY101999GF101991011021017501001001MD1710111+9999MW1031
0057601400999991950102512004+34033-004983FM-12+041499999V0209991C00001220001CN0160001N9+01891+01281101641ADDAY101999GF101991011021012501001011MD1810041+9999MW1021
0078601400999991950102612004+34033-004983FM-12+041499999V0202901N00411007501CN0100001N9+01891+01501101811ADDAY121999GF106991061051008001001001MW1011EQDQ01+000022APCTENQ02+000002APC3  
0057601400999991950102712004+34033-004983FM-12+041499999V0209991C00001220001CN0200001N9+01891+01001102031ADDAY101999GF101991001001999999001011MD1210091+9999MW1021
0057601400999991950102812004+34033-004983FM-12+041499999V0209991C00001220001CN0160001N9+01781+01111101971ADDAY101999GF100991001001999999001001MD1710091+9999MW1061
0057601400999991950102912004+34033-004983FM-12+041499999V0209991C00001220001CN0200001N9+01891+00891101891ADDAY111999GF105991011011012501001041MD1810021+9999MW1031
0057601400999991950103012004+34033-004983FM-12+041499999V0200901N00311220001CN0200001N9+01891+00891101791ADDAY101999GF100991001001999999001001MD1810051+9999MW1021
0057601400999991950103112004+34033-004983FM-12+041499999V0200401N00101220001CN0400001N9+02281+01111101911ADDAY111999GF106991001001999999001061MD1810071+9999MW1031
0057601400999991950110112004+34033-004983FM-12+041499999V0200201N00211220001CN0200001N9+02221+00891101971ADDAY101999GF101991011061999999041011MD1810011+9999MW1031
0057601400999991950110212004+34033-004983FM-12+041499999V0200201N00101220001CN0200001N9+02001+01281101951ADDAY101999GF101991011011017501001001MD1710091+9999MW1011
0057601400999991950110312004+34033-004983FM-12+041499999V0209991C00001220001CN0160001N9+02111+01221101811ADDAY101999GF101991001001999999001011MD1810081+9999MW1061
0057601400999991950110412004+34033-004983FM-12+041499999V0209991C00001220001CN0160001N9+02501+01221101541ADDAY111999GF103991001001999999001021MD1810081+9999MW1061
0057601400999991950110512004+34033-004983FM-12+041499999V0209991C00001220001CN0200001N9+01891+01111101551ADDAY111999GF104991999999999999999999MD1710121+9999MW1021
0057601400999991950110812004+34033-004983FM-12+041499999V0200401N00511090001CN0600001N9+02501+00891101801ADDAY121999GF107991001001999999001021MD1010041+9999MW1021
0057601400999991950110912004+34033-004983FM-12+041499999V0209991C00001220001CN0600001N9+02611+00611102051ADDAY111999GF103991001001999999001021MD1810111+9999MW1021
0057601400999991950111012004+34033-004983FM-12+041499999V0200401N002119999999N0200001N9+02221+00721101881ADDAY121999GF108991001001999999071999MD1710041+9999MW1021
0057601400999991950111212004+34033-004983FM-12+041499999V0203001N00621015001CN0160001N9+01501+01111102571ADDAY121999GF107991061021017501001021MD1210081+9999MW1031
0057601400999991950111312004+34033-004983FM-12+041499999V0209991C00001220001CN0600001N9+01501+00721102501ADDAY101999GF101991001001999999001021MD1810071+9999MW1021
0057601400999991950111412004+34033-004983FM-12+041499999V0203201N00211220001CN0200001N9+01891+00781102461ADDAY101999GF100991001001999999001001MD1810021+9999MW1021
0057601400999991950111612004+34033-004983FM-12+041499999V0209991C00001220001CN0200001N9+01781+01001102101ADDAY101999GF101991001001999999001021MD1810111+9999MW1031
0057601400999991950111712004+34033-004983FM-12+041499999V0209991C00001220001CN0200001N9+01891+01221101921ADDAY101999GF103991001001999999081021MD1810071+9999MW1021
0076601400999991950111912004+34033-004983FM-12+041499999V0203201N00311220001CN0200001N9+01721+01221102021ADDAY101999GF101991999001999999081001MD1810011+9999MW1021EQDQ01+000002SCOTLC
0057601400999991950112112004+34033-004983FM-12+041499999V0209991C00001220001CN0400001N9+02111+00611100211ADDAY101999GF101991001001999999001021MD1810111+9999MW1021
0057601400999991950112212004+34033-004983FM-12+041499999V0209991C00001220001CN0200001N9+01781+00221101771ADDAY101999GF100991001001999999001001MD1810101+9999MW1021
0057601400999991950112312004+34033-004983FM-12+041499999V0200201N00411220001CN0600001N9+01721+00891101791ADDAY101999GF101991001001999999001011MD1110021+9999MW1021
0057601400999991950112412004+34033-004983FM-12+041499999V0209999999999220001CN0200001N9+01721+99999101971ADDAY101999GF101991001001999999001011MD1810021+9999MW1021
0062601400999991950112512004+34033-004983FM-12+041499999V0209999999999220001CN9999999N9+02111+00221101861ADDGF100991001001999999001001MD1710071+9999EQDQ01    993SCOTCV
0057601400999991950112612004+34033-004983FM-12+041499999V0200601N00311090001CN0200001N9+02001+00501102221ADDAY121999GF107991001001999999001021MD1810041+9999MW1021
0043601400999991950112712004+34033-004983FM-12+041499999V0200601N00621090001CN0400001N9+02281+00221098151ADDAY121999GF105991001001999999001021MW1021
0057601400999991950113012004+34033-004983FM-12+041499999V0209991C00001090001CN0400001N9+02001+00221102331ADDAY121999GF107991001001999999001021MD1810091+9999MW1031
0043601400999991950120112004+34033-004983FM-12+041499999V0200901N00821090001CN0400001N9+01891+00501102051ADDAY111999GF106991001001999999001021MW1011
0057601400999991950120312004+34033-004983FM-12+041499999V0209991C00001220001CN0400001N9+02111+00501101781ADDAY111999GF104991001001999999001021MD1810081+9999MW1011
0057601400999991950120412004+34033-004983FM-12+041499999V02099999999999999999N0200001N9+02391+00001101341ADDAY111999GF105991001001999999041021MD1810131+9999MW1021
0057601400999991950120512004+34033-004983FM-12+041499999V0202701N01541090001CN0200001N9+02391+00111100551ADDAY111999GF105991001001999999001021MD1810231+9999MW1031
0057601400999991950120612004+34033-004983FM-12+041499999V0203001N00621009001CN0150001N9+00781+00611100711ADDAY181999GF108991081081004501999999MD1510051+9999MW1801
0057601400999991950120712004+34033-004983FM-12+041499999V0203201N01801012001CN0100001N9+00501+00501101431ADDAY121999GF108991081081008001999999MD1210121+9999MW1801
0057601400999991950120812004+34033-004983FM-12+041499999V0203001N01231012001CN0160001N9+01221+00221102331ADDAY111999GF106991061081008001001001MD1810051+9999MW1031
0057601400999991950121112004+34033-004983FM-12+041499999V0209991C00001220001CN0200001N9+01281+00781102831ADDAY111999GF104991001001999999001021MD1810041+9999MW1021
0057601400999991950121212004+34033-004983FM-12+041499999V0203001N00211007501CN0100001N9+01221+00721102621ADDAY121999GF107991071051008001001001MD1010081+9999MW1021
0057601400999991950121312004+34033-004983FM-12+041499999V0202701N00821015001CN0200001N9+01281+00501102261ADDAY121999GF106991061081012501001001MD1710051+9999MW1021
0043601400999991950121412004+34033-004983FM-12+041499999V0202501N01651021001CN0160001N9+01391+00721101961ADDAY121999GF107991071051022501001001MW1021
0078601400999991950121512004+34033-004983FM-12+041499999V0203001N00211015001CN0150001N9+01281+00891102251ADDAY121999GF107991071081012501001001MW1021EQDQ01+000082APCTENQ02+000002APC3  
0057601400999991950121612004+34033-004983FM-12+041499999V0209991C00001220001CN0200001N9+01391+00781101961ADDAY111999GF101991011051012501001001MD1810071+9999MW1031
0057601400999991950121712004+34033-004983FM-12+041499999V0209991C00001012001CN0200001N9+01221+00721102201ADDAY111999GF105991051021012501001001MD1010061+9999MW1021
0057601400999991950121812004+34033-004983FM-12+041499999V0200901N00411220001CN0400001N9+01001+00501102481ADDAY101999GF100991001001999999001001MD1810041+9999MW1021
0057601400999991950121912004+34033-004983FM-12+041499999V0209991C00001220001CN0090001N9+01281+00501102571ADDAY101999GF100991001001999999001001MD1010041+9999MW1021
0057601400999991950122012004+34033-004983FM-12+041499999V0202501N00211220001CN0700001N9+01391+00721102381ADDAY101999GF100991001001999999001001MD1810081+9999MW1021
0057601400999991950122312004+34033-004983FM-12+041499999V0202701N02061009001CN0050001N9+00891+00721100881ADDAY181999GF108991081081004501999999MD1310161+9999MW1801
0057601400999991950122412004+34033-004983FM-12+041499999V0202501N00511012001CN0150001N9+01221+00781101781ADDAY181999GF107991071081008001001001MD1010051+9999MW1151
0057601400999991950122512004+34033-004983FM-12+041499999V0202201N00311012001CN0100001N9+01221+00891101711ADDAY121999GF107991071081008001001001MD1710011+9999MW1021
0057601400999991950122712004+34033-004983FM-12+041499999V0202901N00511018001CN0150001N9+01001+00501101981ADDAY121999GF108991081081017501999999MD1010231+9999MW1031
0057601400999991950122812004+34033-004983FM-12+041499999V0202701N01851007501CN0160001N9+01221+00501101321ADDAY161999GF108991051051008001071999MD1810031+9999MW1211
0057601400999991950123012004+34033-004983FM-12+041499999V0202101N00211004201CN0160001N9+01111+01111101231ADDAY161999GF108991081071004501999999MD1010051+9999MW1211
