0057601400999991951010212004+34033-004983FM-12+041499999V0202701N02061012001CN0400001N9+01281+00611101341ADDAY121999GF107991071051012501041001MD1810341+9999MW1021
0057601400999991951010412004+34033-004983FM-12+041499999V0200501N00621220001CN0700001N9+01001+00611101931ADDAY101999GF100991001001999999001001MD1710181+9999MW1021
0051601400999991951010512004+34033-004983FM-12+041499999V0200901N00311220001CN0700001N9+01221+00111101761ADDAY101999GF103991001001999999001021MD1810091+9999
0057601400999991951010612004+34033-004983FM-12+041499999V0200601N00411090001CN0200001N9+01111+00391101671ADDAY121999GF107991001001999999001021MD1710151+9999MW1021
0057601400999991951010712004+34033-004983FM-12+041499999V0200901N004119999999N0200001N9+01001+00391101731ADDAY111999GF107991001001999999081021MD1810051+9999MW1031
0057601400999991951010812004+34033-004983FM-12+041499999V0209991C00001036001CN0200001N9+01221+00891101851ADDAY121999GF108991021051012501051999MD1310041+9999MW1031
0057601400999991951011012004+34033-004983FM-12+041499999V0202401N00511004201CN0100001N9+01111+00501101191ADDAY161999GF108991061011004501999999MD1010011+9999MW1601
0057601400999991951011112004+34033-004983FM-12+041499999V0209991C00001220001CN0200001N9+00891+00501101991ADDAY101999GF101991011011012501001001MD1810031+9999MW1031
0057601400999991951011212004+34033-004983FM-12+041499999V0209991C000019999999N0200001N9+01281+00611102011ADDAY121999GF107991999999999999999999MD1810121+9999MW1021
0049601400999991951011312004+34033-004983FM-12+041499999V0202701N00411012001CN0150001N9+01221+00891102401ADDGF108991081081008001999999MD1010041+9999MW1031
0057601400999991951011512004+34033-004983FM-12+041499999V0209991C00001220001CN0200001N9+01391+00891103051ADDAY101999GF101991001001999999001021MD1010201+9999MW1011
0057601400999991951011612004+34033-004983FM-12+041499999V0200901N00211220001CN0200001N9+01281+00721102981ADDAY111999GF100991001001999999001001MD1810031+9999MW1021
0057601400999991951011812004+34033-004983FM-12+041499999V0209991C00001220001CN0400001N9+01721+00721102891ADDAY101999GF100991001001999999001001MD1810081+9999MW1021
0057601400999991951011912004+34033-004983FM-12+041499999V0209991C00001220001CN0200001N9+01391+00611102751ADDAY101999GF100991001001999999001001MD1810031+9999MW1011
0057601400999991951012012004+34033-004983FM-12+041499999V0200901N00311220001CN0400001N9+01281+00721102511ADDAY101999GF100991001001999999001001MD1810031+9999MW1021
0057601400999991951012112004+34033-004983FM-12+041499999V0209991C00001220001CN0400001N9+01611+00891102581ADDAY101999GF100991001001999999001001MD1010041+9999MW1021
0057601400999991951012212004+34033-004983FM-12+041499999V0209991C00001000601CN0014001N9+00721+00721102571ADDAY121999GF108991081061000751999999MD1810021+9999MW1021
0057601400999991951012412004+34033-004983FM-12+041499999V0202701N00721012001CN0100001N9+00781+00721102481ADDAY181999GF108991081081008001999999MD1210101+9999MW1801
0057601400999991951012512004+34033-004983FM-12+041499999V0203101N00101012001CN0150001N9+01001+00611102141ADDAY121999GF105991051081008001001001MD1010191+9999MW1001
0057601400999991951012612004+34033-004983FM-12+041499999V0202701N00211220001CN0400001N9+01221+00391102991ADDAY101999GF100991001001999999001001MD1810021+9999MW1021
0057601400999991951012912004+34033-004983FM-12+041499999V0203101N005119999999N0150001N9+00891+00281101851ADDAY121999GF106991999999999999999999MD1510001+9999MW1031
0057601400999991951013012004+34033-004983FM-12+041499999V0209991C00001220001CN0200001N9+01111+00111101951ADDAY101999GF100991001001999999001001MD1010011+9999MW1021
0057601400999991951013112004+34033-004983FM-12+041499999V0202701N00411220001CN0200001N9+01111+00281102381ADDAY101999GF102991021051012501001001MD1010021+9999MW1031
0057601400999991951020112004+34033-004983FM-12+041499999V0202901N00311220001CN0200001N9+01221+00611102281ADDAY101999GF102991021011008001001001MD1810041+9999MW1031
0057601400999991951020212004+34033-004983FM-12+041499999V0202901N00311220001CN0150001N9+01221+00611102121ADDAY111999GF104991041011012501001001MD1010001+9999MW1011
0057601400999991951020612004+34033-004983FM-12+041499999V0202701N00621001201CN0050001N9+00781+00611101821ADDAY181999GF108991081071001501999999MD1010091+9999MW1801
0057601400999991951020812004+34033-004983FM-12+041499999V0209991C00001220001CN0200001N9+01281+01001102711ADDAY101999GF100991001001999999001001MD1810061+9999MW1021
0057601400999991951020912004+34033-004983FM-12+041499999V0209999999999004201CN0100001N9+01391+00891101911ADDAY121999GF199999071051004501001021MD1710121+9999MW1011
0078601400999991951021012004+34033-004983FM-12+041499999V0202501N00511007501CN0150001N9+01001+00781101041ADDAY121999GF108991081051008001999999MW1021EQDQ01+000062APCTENQ02+000002APC3  
0043601400999991951021112004+34033-004983FM-12+041499999V0202301N00821012001CN9999999N9+01281+00281100191ADDGF105991051081008001001001MD1810121+9999
0057601400999991951021212004+34033-004983FM-12+041499999V0203301N01031012001CN0150001N9+01111+00391101371ADDAY121999GF108991081081008001999999MD1210101+9999MW1021
0057601400999991951021312004+34033-004983FM-12+041499999V0209991C00001220001CN0600001N9+01111+00391102141ADDAY101999GF101991011011008001001001MD1710061+9999MW1031
0057601400999991951021512004+34033-004983FM-12+041499999V0203601N003119999999N0400001N9+01001+00721101361ADDAY121999GF108991001001999999071999MD1710071+9999MW1021
0057601400999991951021712004+34033-004983FM-12+041499999V0200901N00211012001CN0150001N9+01221+01001103231ADDAY141999GF106991061081008001001001MD1110131+9999MW1011
0057601400999991951021912004+34033-004983FM-12+041499999V0209991C00001220001CN0090001N9+01391+01001102831ADDAY121999GF103991999999999999999999MD1810051+9999MW1011
0076601400999991951022012004+34033-004983FM-12+041499999V0209991C00001220001CN0160001N9+01391+00891102551ADDAY111999GF103991999051012501001001MD1810041+9999MW1021EQDQ01+000022SCOTLC
0043601400999991951022112004+34033-004983FM-12+041499999V0202701N00211220001CN9999999N9+01501+00891102451ADDGF104991041011008001001001MD1010041+9999
0057601400999991951022312004+34033-004983FM-12+041499999V0203201N00211220001CN0200001N9+01891+01111102091ADDAY101999GF102991001001999999041021MD1810031+9999MW1021
0057601400999991951022412004+34033-004983FM-12+041499999V0202901N00211004201CN0150001N9+01501+01001102001ADDAY121999GF107991071051004501001001MD1010021+9999MW1021
0057601400999991951022512004+34033-004983FM-12+041499999V0202501N00411004201CN0080001N9+01111+00781102151ADDAY121999GF108991081051004501999999MD1110081+9999MW1021
0057601400999991951022612004+34033-004983FM-12+041499999V0200201N00511220001CN0200001N9+01111+00391102331ADDAY101999GF100991001001999999001001MD1810101+9999MW1021
0057601400999991951022712004+34033-004983FM-12+041499999V0200601N00311220001CN0700001N9+01221+00391102241ADDAY101999GF100991001001999999001001MD1010011+9999MW1011
0057601400999991951030112004+34033-004983FM-12+041499999V0201101N004119999999N0200001N9+01611+00721101371ADDAY121999GF107991001001999999081021MD1210011+9999MW1031
0057601400999991951030212004+34033-004983FM-12+041499999V0200401N009319999999N0150001N9+01221+00721101051ADDAY111999GF108991001001999999091021MD1710051+9999MW1021
0076601400999991951030412004+34033-004983FM-12+041499999V0202701N00411021001CN0160001N9+01501+01001100681ADDAY181999GF108991081081022501999999MD1810562+9999MW1201EQDQ01+000562APC3  
0057601400999991951030512004+34033-004983FM-12+041499999V0202701N00511015001CN0200001N9+00721+00501100591ADDAY191999GF107991071081012501001061MD1310101+9999MW1021
0057601400999991951030712004+34033-004983FM-12+041499999V0202501N00511012001CN0150001N9+01281+00501101731ADDAY111999GF105991051021012501001001MD1810121+9999MW1021
0057601400999991951030912004+34033-004983FM-12+041499999V0202701N00621009001CN0160001N9+01281+00781101671ADDAY121999GF107991071081004501001001MD1010021+9999MW1021
0076601400999991951031012004+34033-004983FM-12+041499999V0209991C00001220001CN0200001N9+01611+01001101041ADDAY111999GF103991999001999999081001MD1810111+9999MW1011EQDQ01+000002SCOTLC
0057601400999991951031112004+34033-004983FM-12+041499999V0202501N00821220001CN0200001N9+01891+00781100801ADDAY101999GF104991041081008001001001MD1010021+9999MW1031
0043601400999991951031212004+34033-004983FM-12+041499999V0202901N00411090001CN0200001N9+01501+01221101071ADDAY121999GF105991031001017501071071MW1011
0078601400999991951031312004+34033-004983FM-12+041499999V0202901N00411090001CN0200001N9+01891+01111101281ADDAY111999GF106991011051012501001021MW1031EQDQ01+000022APCTENQ02+000002APC3  
0057601400999991951031612004+34033-004983FM-12+041499999V0200401N002119999999N0200001N9+02221+01501101661ADDAY121999GF105991001001999999081021MD1810031+9999MW1021
0057601400999991951031712004+34033-004983FM-12+041499999V0200901N00311090001CN0600001N9+02391+01501101341ADDAY121999GF107991001001999999001021MD1810101+9999MW1021
0057601400999991951031812004+34033-004983FM-12+041499999V0202501N00311012001CN0160001N9+01781+01281102041ADDAY121999GF108991081081008001999999MD1010101+9999MW1031
0057601400999991951031912004+34033-004983FM-12+041499999V0200901N00211220001CN0200001N9+01781+00781102271ADDAY101999GF100991001001999999001001MD1810031+9999MW1021
0076601400999991951032012004+34033-004983FM-12+041499999V0200901N00311220001CN0600001N9+02001+00891101971ADDAY101999GF100991001001999999001001MD1810051+9999MW1021EQDQ01+000092SCOMCG
0057601400999991951032112004+34033-004983FM-12+041499999V0200901N00411220001CN0600001N9+02391+01111101811ADDAY101999GF100991001001999999001001MD1810081+9999MW1021
0057601400999991951032212004+34033-004983FM-12+041499999V0200901N00621220001CN0600001N9+02501+01281101771ADDAY101999GF100991001001999999001001MD1810031+9999MW1021
0057601400999991951032312004+34033-004983FM-12+041499999V0200901N00621220001CN0600001N9+02391+01391101911ADDAY101999GF100991001001999999001001MD1810021+9999MW1021
0057601400999991951032612004+34033-004983FM-12+041499999V0201101N00411220001CN0200001N9+02221+01001101221ADDAY101999GF100991001001999999001001MD1110011+9999MW1021
0057601400999991951032812004+34033-004983FM-12+041499999V0202901N00311007501CN0100001N9+01781+01281101761ADDAY121999GF107991071051008001001001MD1810041+9999MW1021
0057601400999991951032912004+34033-004983FM-12+041499999V0200901N00411220001CN0200001N9+02001+01281101181ADDAY101999GF103991021021008001081021MD1810141+9999MW1031
0057601400999991951033012004+34033-004983FM-12+041499999V0203001N00411090001CN0200001N9+01781+01001101031ADDAY111999GF105991021021012501001021MD1010021+9999MW1021
0057601400999991951040112004+34033-004983FM-12+041499999V0209991C00001220001CN0150001N9+01391+00611101701ADDAY101999GF100991001001999999001001MD1810041+9999MW1021
0057601400999991951040212004+34033-004983FM-12+041499999V0209991C00001220001CN0200001N9+01721+00721101621ADDAY101999GF100991001001999999001001MD1710031+9999MW1021
0057601400999991951040312004+34033-004983FM-12+041499999V0209991C00001220001CN0090001N9+01721+00891101421ADDAY101999GF100991001001999999001001MD1810081+9999MW1051
0057601400999991951040412004+34033-004983FM-12+041499999V0209991C00001220001CN0150001N9+01611+01221101151ADDAY121999GF104991041051008001001001MD1010021+9999MW1021
0057601400999991951040512004+34033-004983FM-12+041499999V0209991C00001220001CN0120001N9+01781+01281100971ADDAY101999GF100991001001999999001001MD1810061+9999MW1021
0057601400999991951040612004+34033-004983FM-12+041499999V0209991C00001012001CN0150001N9+01781+01281100901ADDAY121999GF107991071081008001001001MD1810081+9999MW1031
0043601400999991951040712004+34033-004983FM-12+041499999V0200901N00511220001CN0150001N9+02001+01281100781ADDAY101999GF101991011021012501001001MW1031
0057601400999991951040812004+34033-004983FM-12+041499999V0200701N00721220001CN0160001N9+02281+01221101471ADDAY101999GF102991001001999999001021MD1810021+9999MW1021
0057601400999991951040912004+34033-004983FM-12+041499999V0200601N00411220001CN0200001N9+02721+01111101681ADDAY101999GF100991001001999999001001MD1010011+9999MW1021
0057601400999991951041012004+34033-004983FM-12+041499999V0209991C00001220001CN0150001N9+03001+01221101601ADDAY101999GF100991001001999999001001MD1810041+9999MW1021
0057601400999991951041112004+34033-004983FM-12+041499999V0209991C00001036001CN0200001N9+02281+01721101841ADDAY121999GF108991021051008001071999MD1710061+9999MW1021
0057601400999991951041212004+34033-004983FM-12+041499999V0209991C00001036001CN0160001N9+02111+01781100891ADDAY121999GF107991021021012501081001MD1810061+9999MW1031
0057601400999991951041312004+34033-004983FM-12+041499999V0202701N00211009001CN0150001N9+02001+01391101101ADDAY121999GF106991061081004501001001MD1810041+9999MW1021
0057601400999991951041412004+34033-004983FM-12+041499999V0203001N00511004201CN0100001N9+01391+01001101571ADDAY121999GF108991081051004501999999MD1810011+9999MW1021
0057601400999991951041512004+34033-004983FM-12+041499999V0202901N00411012001CN0160001N9+01721+00721101671ADDAY121999GF106991061081008001001001MD1010031+9999MW1021
0057601400999991951041612004+34033-004983FM-12+041499999V0209991C00001220001CN0400001N9+01721+00611101801ADDAY101999GF101991011011022501001001MD1810031+9999MW1021
0057601400999991951041712004+34033-004983FM-12+041499999V0209991C00001036001CN0200001N9+01781+00781102161ADDAY111999GF105991011021012501051001MD1810041+9999MW1021
0057601400999991951041812004+34033-004983FM-12+041499999V0202701N00411220001CN0200001N9+01891+01001102101ADDAY111999GF101991011011012501001001MD1810131+9999MW1031
0057601400999991951041912004+34033-004983FM-12+041499999V0202701N00721002101CN0080001N9+01111+01001101441ADDAY121999GF108991081071002501999999MD1010011+9999MW1021
0057601400999991951042012004+34033-004983FM-12+041499999V0209991C00001220001CN0200001N9+01611+00611101321ADDAY111999GF104991041021012501001001MD1810011+9999MW1021
0057601400999991951042112004+34033-004983FM-12+041499999V0200901N00211220001CN0200001N9+01721+00221101591ADDAY101999GF101991011021012501001001MD1810011+9999MW1021
0057601400999991951042212004+34033-004983FM-12+041499999V0203601N00411220001CN0200001N9+01891+00611101791ADDAY101999GF103991031011012501001001MD1810031+9999MW1031
0057601400999991951042312004+34033-004983FM-12+041499999V0209991C00001220001CN0200001N9+02001+00391101631ADDAY101999GF101991011021017501001001MD1810081+9999MW1031
0057601400999991951042412004+34033-004983FM-12+041499999V0209991C00001220001CN0160001N9+02001+00281101411ADDAY101999GF100991001001999999001001MD1810021+9999MW1021
0057601400999991951042512004+34033-004983FM-12+041499999V0209991C00001220001CN0200001N9+02281+00391101171ADDAY101999GF100991001001999999001001MD1810071+9999MW1021
0057601400999991951042612004+34033-004983FM-12+041499999V0209991C00001012001CN0080001N9+01501+01111101661ADDAY151999GF108991081081008001999999MD1010071+9999MW1031
0057601400999991951042712004+34033-004983FM-12+041499999V0209991C00001220001CN0200001N9+01891+00721101791ADDAY101999GF101991011011012501001001MD1710061+9999MW1021
0043601400999991951042812004+34033-004983FM-12+041499999V0200601N01031220001CN0200001N9+02001+00501101791ADDAY111999GF103991031011012501001001MW1031
0057601400999991951042912004+34033-004983FM-12+041499999V0200901N01651220001CN0200001N9+01891+00221101951ADDAY101999GF100991001001999999001001MD1810081+9999MW1021
0057601400999991951043012004+34033-004983FM-12+041499999V0200901N01031220001CN0160001N9+02001+00721101661ADDAY101999GF100991001001999999001001MD1710081+9999MW1021
0057601400999991951050112004+34033-004983FM-12+041499999V0203201N00311012001CN0160001N9+01891+01391101431ADDAY121999GF105991051081008001001001MD1810021+9999MW1011
0057601400999991951050212004+34033-004983FM-12+041499999V0203201N00211009001CN0080001N9+01391+01221101601ADDAY181999GF108991081081004501999999MD1010101+9999MW1021
0057601400999991951050412004+34033-004983FM-12+041499999V0200801N00311015001CN0200001N9+01721+01001101971ADDAY121999GF105991051081012501001001MD1010031+9999MW1021
0057601400999991951052712004+34033-004983FM-12+041499999V0202901N00311220001CN0400001N9+02111+01111101321ADDAY101999GF102991001001999999001021MD1810101+9999MW1031
0057601400999991951053012004+34033-004983FM-12+041499999V0202701N00621015001CN0200001N9+02001+01221101371ADDAY121999GF107991071081012501001001MD1710021+9999MW1031
0057601400999991951053112004+34033-004983FM-12+041499999V0203401N00311220001CN0200001N9+02111+01001101641ADDAY111999GF103991001001999999001011MD1810071+9999MW1011
0057601400999991951060212004+34033-004983FM-12+041499999V0200501N00211220001CN0200001N9+02781+01221100921ADDAY101999GF103991001001999999001011MD1710171+9999MW1021
0057601400999991951060312004+34033-004983FM-12+041499999V0202901N00511012001CN0400001N9+02391+01001101141ADDAY111999GF106991061061012501001001MD1010011+9999MW1031
0057601400999991951060412004+34033-004983FM-12+041499999V0202301N00311220001CN0200001N9+02391+01001101821ADDAY111999GF104991041081008001001001MD1110021+9999MW1031
0057601400999991951060512004+34033-004983FM-12+041499999V0203201N00311220001CN0200001N9+02391+01111101691ADDAY101999GF100991001001999999001001MD1710081+9999MW1021
0057601400999991951060612004+34033-004983FM-12+041499999V0202701N00101220001CN0200001N9+02501+01111101331ADDAY101999GF100991001001999999001001MD1810011+9999MW1001
0057601400999991951060912004+34033-004983FM-12+041499999V0209991C00001220001CN0200001N9+02391+01001101501ADDAY101999GF100991001001999999001001MD1810111+9999MW1021
0057601400999991951061012004+34033-004983FM-12+041499999V0200201N00211220001CN0200001N9+02721+00891101451ADDAY101999GF100991001001999999001001MD1810061+9999MW1021
0057601400999991951061112004+34033-004983FM-12+041499999V0200901N00411220001CN0200001N9+03111+00781101371ADDAY101999GF100991001001999999001001MD1710071+9999MW1021
0057601400999991951061212004+34033-004983FM-12+041499999V0200701N00511220001CN0200001N9+03501+00281101461ADDAY101999GF100991001001999999001001MD1810041+9999MW1021
0057601400999991951061312004+34033-004983FM-12+041499999V0203601N00621220001CN0200001N9+03721+00721101391ADDAY101999GF100991001001999999001001MD1010091+9999MW1021
0057601400999991951061412004+34033-004983FM-12+041499999V0200901N00311220001CN0200001N9+03781+01111101231ADDAY111999GF104991041091017501001001MD1810111+9999MW1031
0057601400999991951061512004+34033-004983FM-12+041499999V0201401N00311220001CN0200001N9+03781+00891101181ADDAY101999GF102991021091012501001001MD1710101+9999MW1011
0043601400999991951061612004+34033-004983FM-12+041499999V0200901N00621220001CN0200001N9+03721+00781101191ADDAY101999GF101991999999999999999999MW1031
0057601400999991951061712004+34033-004983FM-12+041499999V0202901N00311220001CN0200001N9+03391+01001101121ADDAY101999GF101991011021017501001001MD1810051+9999MW1031
0057601400999991951061812004+34033-004983FM-12+041499999V0209991C00001220001CN0160001N9+02611+01611101301ADDAY101999GF102991021011012501001001MD1710071+9999MW1021
0057601400999991951061912004+34033-004983FM-12+041499999V0200901N00211036001CN0200001N9+03111+01501100921ADDAY111999GF105991021011012501081001MD1010121+9999MW1031
0057601400999991951062012004+34033-004983FM-12+041499999V0201201N008219999999N0200001N9+04001+00611100291ADDAY121999GF106991001001999999081021MD1710121+9999MW1071
0057601400999991951062112004+34033-004983FM-12+041499999V0202501N00311220001CN0100001N9+02611+01721101631ADDAY141999GF100991001001999999001001MD1010041+9999MW1051
0057601400999991951062212004+34033-004983FM-12+041499999V0202901N00311220001CN0150001N9+02721+01721101821ADDAY141999GF100991001001999999001001MD1810041+9999MW1021
0057601400999991951062312004+34033-004983FM-12+041499999V0209991C00001220001CN0200001N9+02611+01281101641ADDAY101999GF100991001001999999001001MD1710151+9999MW1021
0057601400999991951062512004+34033-004983FM-12+041499999V0209991C00001220001CN0200001N9+03111+01111101051ADDAY101999GF100991001001999999001001MD1810021+9999MW1021
0043601400999991951062612004+34033-004983FM-12+041499999V0200901N00721220001CN0160001N9+03221+01001101231ADDAY111999GF103991999999999999999999MW1301
0057601400999991951062712004+34033-004983FM-12+041499999V0200701N00621220001CN0200001N9+03221+01391101361ADDAY101999GF100991001001999999001001MD1810071+9999MW1021
0057601400999991951062812004+34033-004983FM-12+041499999V0200901N00511220001CN0200001N9+03111+01391101421ADDAY101999GF101991011021012501001001MD1710081+9999MW1031
0057601400999991951062912004+34033-004983FM-12+041499999V0200801N00411220001CN0200001N9+03281+01611101211ADDAY101999GF100991001001999999001001MD1710121+9999MW1021
0057601400999991951063012004+34033-004983FM-12+041499999V0203401N00311220001CN0400001N9+03221+01391101061ADDAY101999GF101991011021012501001001MD1710241+9999MW1031
0057601400999991951070112004+34033-004983FM-12+041499999V0200201N00211220001CN0200001N9+02781+01721101341ADDAY101999GF100991001001999999001001MD1810081+9999MW1021
0057601400999991951070212004+34033-004983FM-12+041499999V0203401N00311220001CN0200001N9+03001+01721101221ADDAY101999GF103991001001999999001021MD1710081+9999MW1021
0057601400999991951070312004+34033-004983FM-12+041499999V0203201N00411004201CN0100001N9+02391+01721101781ADDAY121999GF107991071051004501031031MD1210081+9999MW1061
0057601400999991951070412004+34033-004983FM-12+041499999V0203401N00211007501CN0100001N9+02281+01611101901ADDAY121999GF107991071051008001001001MD1810031+9999MW1011
0057601400999991951070512004+34033-004983FM-12+041499999V0202701N00721220001CN0400001N9+02501+01391101451ADDAY101999GF100991001001999999001001MD1710101+9999MW1021
0057601400999991951070612004+34033-004983FM-12+041499999V0209991C00001220001CN0200001N9+02611+01281101451ADDAY101999GF100991001001999999001001MD1710101+9999MW1021
0057601400999991951070712004+34033-004983FM-12+041499999V0203401N00211220001CN0200001N9+02501+01391101441ADDAY101999GF100991001001999999001001MD1710071+9999MW1021
0057601400999991951070812004+34033-004983FM-12+041499999V0200201N00311220001CN0150001N9+02391+01391101391ADDAY111999GF101991011051008001001001MD1710041+9999MW1061
0057601400999991951070912004+34033-004983FM-12+041499999V0209991C00001220001CN0200001N9+02781+01611101431ADDAY101999GF100991001001999999001001MD1610011+9999MW1021
0076601400999991951071112004+34033-004983FM-12+041499999V0209991C00001220001CN0200001N9+03001+01111101691ADDAY101999GF101991999001999999081001MD1810061+9999MW1021EQDQ01+000002SCOTLC
0057601400999991951071212004+34033-004983FM-12+041499999V0202901N00211220001CN0200001N9+02781+01501101471ADDAY101999GF104991001001999999001021MD1710121+9999MW1021
0057601400999991951071312004+34033-004983FM-12+041499999V0209991C00001220001CN0200001N9+02781+01391101501ADDAY101999GF100991001001999999001001MD1810041+9999MW1021
0057601400999991951071412004+34033-004983FM-12+041499999V0203101N00311220001CN0160001N9+02781+01501101561ADDAY101999GF100991001001999999001001MD1710101+9999MW1021
0057601400999991951071512004+34033-004983FM-12+041499999V0209991C00001220001CN0200001N9+02781+01501102001ADDAY111999GF103991021091017501081001MD1610041+9999MW1031
0057601400999991951071612004+34033-004983FM-12+041499999V0200901N00151220001CN0200001N9+02781+01501101891ADDAY101999GF100991001001999999001001MD1710051+9999MW1011
0057601400999991951071712004+34033-004983FM-12+041499999V0202901N00311007501CN0200001N9+02391+01611101751ADDAY121999GF105991051051008001001001MD1810041+9999MW1031
0057601400999991951071812004+34033-004983FM-12+041499999V0209991C00001220001CN0200001N9+02611+01281101461ADDAY101999GF101991001001999999001021MD1710121+9999MW1021
0057601400999991951071912004+34033-004983FM-12+041499999V0200701N00311220001CN0200001N9+02781+01721101431ADDAY101999GF101991011021017501001001MD1710041+9999MW1031
0057601400999991951072012004+34033-004983FM-12+041499999V0200901N00771220001CN0150001N9+03281+01781101381ADDAY101999GF100991001001999999001001MD1010021+9999MW1021
0057601400999991951072112004+34033-004983FM-12+041499999V0209991C00001220001CN0150001N9+03221+02001101741ADDAY101999GF100991001001999999001001MD1710101+9999MW1021
0076601400999991951072212004+34033-004983FM-12+041499999V0202701N00211220001CN0200001N9+03221+01501101851ADDAY121999GF104991999001999999081001MD1810031+9999MW1031EQDQ01+000002SCOTLC
0057601400999991951072312004+34033-004983FM-12+041499999V0202901N00311220001CN0200001N9+03281+00281101761ADDAY101999GF100991001001999999001001MD1610011+9999MW1021
0057601400999991951072412004+34033-004983FM-12+041499999V0200901N00211220001CN0600001N9+03281+00611101431ADDAY101999GF100991001001999999001001MD1710071+9999MW1021
0057601400999991951072512004+34033-004983FM-12+041499999V0203601N00311220001CN0600001N9+03391+00781101151ADDAY101999GF100991001001999999001001MD1710091+9999MW1021
0057601400999991951072612004+34033-004983FM-12+041499999V0200601N00411220001CN0200001N9+03281+01611101121ADDAY101999GF101991011021017501001001MD1810081+9999MW1031
0057601400999991951072712004+34033-004983FM-12+041499999V0200701N00411220001CN0200001N9+03891+01391101251ADDAY101999GF101991011011017501001001MD1710071+9999MW1031
0057601400999991951072812004+34033-004983FM-12+041499999V0200401N00621220001CN0200001N9+04281+01001101151ADDAY111999GF103991031021017501001001MD1810101+9999MW1031
0076601400999991951072912004+34033-004983FM-12+041499999V0203401N00311220001CN0200001N9+03111+02001101441ADDAY101999GF101991999001999999081001MD1810091+9999MW1021EQDQ01+000002SCOTLC
0057601400999991951073012004+34033-004983FM-12+041499999V0201701N01031007501CN0150001N9+02221+01721101341ADDAY121999GF108991081051008001999999MD1210021+9999MW1161
0057601400999991951073112004+34033-004983FM-12+041499999V0203401N00311220001CN0150001N9+03611+01611101371ADDAY101999GF100991001001999999001001MD1810091+9999MW1021
0057601400999991951080112004+34033-004983FM-12+041499999V0209991C00001220001CN0200001N9+02891+01501101461ADDAY101999GF101991011021017501001001MD1810021+9999MW1031
0057601400999991951080212004+34033-004983FM-12+041499999V0209991C00001220001CN0200001N9+02721+01221101681ADDAY101999GF100991001001999999001001MD1810041+9999MW1021
0057601400999991951080312004+34033-004983FM-12+041499999V0200201N00311220001CN0200001N9+02781+01111101431ADDAY101999GF100991001001999999001001MD1710111+9999MW1021
0076601400999991951080512004+34033-004983FM-12+041499999V0209991C00001220001CN0200001N9+03221+01781101211ADDAY101999GF101991999001999999071001MD1710081+9999MW1031EQDQ01+000002SCOTLC
0057601400999991951080612004+34033-004983FM-12+041499999V0203201N00411220001CN0200001N9+03001+01611100801ADDAY111999GF104991001001999999081021MD1710111+9999MW1011
0057601400999991951080712004+34033-004983FM-12+041499999V0202901N003119999999N0200001N9+02611+01221101121ADDAY121999GF106991001001999999081021MD1210051+9999MW1031
0057601400999991951080812004+34033-004983FM-12+041499999V0203201N00311220001CN0200001N9+02611+01391101631ADDAY101999GF100991001001999999001001MD1810021+9999MW1021
0057601400999991951080912004+34033-004983FM-12+041499999V0202901N00211220001CN0200001N9+02781+01281101651ADDAY101999GF100991001001999999001001MD1810111+9999MW1021
0057601400999991951081012004+34033-004983FM-12+041499999V0200501N00311220001CN0200001N9+02501+01501101551ADDAY101999GF100991001001999999001001MD1810111+9999MW1021
0057601400999991951081112004+34033-004983FM-12+041499999V0200201N00621220001CN0200001N9+03391+01281100991ADDAY101999GF100991001001999999001001MD1710131+9999MW1021
0057601400999991951081212004+34033-004983FM-12+041499999V0209991C00001220001CN0200001N9+03001+01611101211ADDAY101999GF102991011021017501081001MD1710121+9999MW1031
0051601400999991951081312004+34033-004983FM-12+041499999V0203401N00211220001CN0150001N9+02781+01781101341ADDAY101999GF100991001001999999001001MD1710111+9999
0057601400999991951081412004+34033-004983FM-12+041499999V0209991C00001220001CN0200001N9+02891+01721101191ADDAY101999GF100991001001999999001001MD1710091+9999MW1021
0076601400999991951081612004+34033-004983FM-12+041499999V0209991C00001220001CN0200001N9+03111+01721101281ADDAY101999GF102991999001999999081001MD1710091+9999MW1021EQDQ01+000002SCOTLC
0076601400999991951081712004+34033-004983FM-12+041499999V0203201N003119999999N0200001N9+03221+01781101391ADDAY121999GF105991999001999999081001MD1710041+9999MW1021EQDQ01+000002SCOTLC
0076601400999991951081812004+34033-004983FM-12+041499999V0200201N00311220001CN0200001N9+03391+01781101301ADDAY101999GF103991999001999999081001MD1810071+9999MW1031EQDQ01+000002SCOTLC
0057601400999991951081912004+34033-004983FM-12+041499999V0209991C00001220001CN0200001N9+03501+02001101091ADDAY101999GF102991011091017501081001MD1810081+9999MW1031
0057601400999991951082012004+34033-004983FM-12+041499999V0203201N00411220001CN0200001N9+03221+01611101261ADDAY101999GF102991011091017501001031MD1810031+9999MW1021
0057601400999991951082112004+34033-004983FM-12+041499999V0200201N00311220001CN0200001N9+03221+01221101451ADDAY101999GF101991011021017501001001MD1810051+9999MW1031
0057601400999991951082312004+34033-004983FM-12+041499999V0200701N00511220001CN0200001N9+03221+01281101181ADDAY101999GF100991001001999999001001MD1710081+9999MW1021
0076601400999991951082412004+34033-004983FM-12+041499999V0209991C000019999999N0200001N9+03221+01221101121ADDAY121999GF107991999001999999081001MD1810031+9999MW1021EQDQ01+000002SCOTLC
0057601400999991951082512004+34033-004983FM-12+041499999V0209991C00001220001CN0200001N9+02891+01721101451ADDAY101999GF100991001001999999001001MD1010001+9999MW1021
0057601400999991951082612004+34033-004983FM-12+041499999V0203101N00311220001CN0200001N9+03001+01781101431ADDAY101999GF101991001001999999001021MD1310011+9999MW1031
0057601400999991951083012004+34033-004983FM-12+041499999V0203401N00311220001CN0200001N9+02781+01281101691ADDAY101999GF100991001001999999001001MD1310111+9999MW1021
0057601400999991951083112004+34033-004983FM-12+041499999V0200201N00211220001CN0200001N9+02781+01501101851ADDAY101999GF100991001001999999001001MD1810081+9999MW1021
0057601400999991951090212004+34033-004983FM-12+041499999V0200401N00211220001CN0200001N9+03221+01281101561ADDAY111999GF103991001001999999001021MD1810081+9999MW1011
0057601400999991951090312004+34033-004983FM-12+041499999V0200501N00511220001CN0200001N9+03721+01111101431ADDAY111999GF103991001001999999081021MD1810041+9999MW1031
0057601400999991951090412004+34033-004983FM-12+041499999V0203401N00211220001CN0200001N9+03391+01501101461ADDAY101999GF102991021091017501001001MD1810061+9999MW1031
0057601400999991951090612004+34033-004983FM-12+041499999V0202201N00311220001CN0200001N9+02721+01781101241ADDAY101999GF100991001001999999001001MD1810121+9999MW1021
0057601400999991951090712004+34033-004983FM-12+041499999V0209991C00001220001CN0200001N9+02891+01611101341ADDAY101999GF101991011021017501001001MD1810061+9999MW1031
0057601400999991951090812004+34033-004983FM-12+041499999V0202901N00411036001CN0400001N9+02891+01721101051ADDAY111999GF105991021021012501081001MD1210011+9999MW1061
0057601400999991951090912004+34033-004983FM-12+041499999V0203401N00211012001CN0080001N9+02391+01611101151ADDAY111999GF106991061081008001001001MD1810071+9999MW1111
0057601400999991951091012004+34033-004983FM-12+041499999V0209991C000019999999N0200001N9+02391+01221100981ADDAY111999GF106991001001999999091021MD1810031+9999MW1011
0057601400999991951091112004+34033-004983FM-12+041499999V0202701N00311015001CN0200001N9+02221+01281101211ADDAY111999GF106991061081012501061001MD1010031+9999MW1021
0076601400999991951091212004+34033-004983FM-12+041499999V0202501N002119999999N0200001N9+02281+01391101541ADDAY121999GF106991999061022501999999MD1810051+9999MW1021EQDQ01+000082SCOTLC
0057601400999991951091412004+34033-004983FM-12+041499999V0203201N00211220001CN0200001N9+02611+01391101891ADDAY111999GF103991001001999999001011MD1810041+9999MW1021
0057601400999991951091512004+34033-004983FM-12+041499999V0203601N00211220001CN0200001N9+02781+01221101891ADDAY101999GF100991001001999999001001MD1710111+9999MW1011
0057601400999991951091612004+34033-004983FM-12+041499999V0203601N00821220001CN0200001N9+03221+00721101601ADDAY101999GF100991001001999999001001MD1810081+9999MW1021
0057601400999991951091812004+34033-004983FM-12+041499999V0202401N00211015001CN0200001N9+02391+01111101011ADDAY121999GF106991061051017501001001MD1810031+9999MW1031
0057601400999991951091912004+34033-004983FM-12+041499999V0201101N01031220001CN0200001N9+03111+01221101401ADDAY101999GF100991001001999999001001MD1810041+9999MW1021
0076601400999991951092012004+34033-004983FM-12+041499999V0200901N00721220001CN0600001N9+03111+01111101121ADDAY101999GF102991999001999999081001MD1810041+9999MW1031EQDQ01+000002SCOTLC
0057601400999991951092112004+34033-004983FM-12+041499999V0200601N00211220001CN0200001N9+03221+01501999999ADDAY101999GF103991001001999999001021MD1810031+9999MW1021
0057601400999991951092212004+34033-004983FM-12+041499999V0202701N003119999999N0200001N9+02891+01891101661ADDAY121999GF107991001001999999091021MD1810041+9999MW1031
0057601400999991951092312004+34033-004983FM-12+041499999V0203401N00211012001CN0200001N9+02391+01891101571ADDAY121999GF108991081081008001999999MD1810041+9999MW1031
0057601400999991951092412004+34033-004983FM-12+041499999V0200601N00311220001CN0200001N9+02781+99999101271ADDAY101999GF100991001001999999001001MD1710081+9999MW1021
0057601400999991951092512004+34033-004983FM-12+041499999V0209991C00001220001CN0200001N9+02721+01501101691ADDAY101999GF100991001001999999001001MD1010041+9999MW1021
0057601400999991951092612004+34033-004983FM-12+041499999V0209991C00001220001CN0200001N9+02391+01391101971ADDAY101999GF100991001001999999001001MD1810121+9999MW1021
0057601400999991951092712004+34033-004983FM-12+041499999V0209991C00001220001CN0200001N9+02611+01281101741ADDAY101999GF100991001001999999001001MD1810091+9999MW1021
0057601400999991951092812004+34033-004983FM-12+041499999V0202001N00211220001CN0200001N9+02391+01111101621ADDAY101999GF100991001001999999001001MD1810051+9999MW1021
0057601400999991951092912004+34033-004983FM-12+041499999V0209991C000019999999N0200001N9+02721+00891101241ADDAY121999GF107991001001999999091021MD1810111+9999MW1031
0057601400999991951093012004+34033-004983FM-12+041499999V0202901N00211220001CN0200001N9+02611+01281101401ADDAY111999GF104991001001999999081999MD1810021+9999MW1021
0057601400999991951100212004+34033-004983FM-12+041499999V0202901N00211015001CN0150001N9+01891+01111101511ADDAY121999GF107991071081012501001001MD1810081+9999MW1021
0043601400999991951100312004+34033-004983FM-12+041499999V0202901N00311015001CN0150001N9+01781+01391101591ADDAY181999GF107991071081012501001001MW1251
0057601400999991951100512004+34033-004983FM-12+041499999V0200901N00311220001CN0700001N9+02501+00721101151ADDAY101999GF100991001001999999001001MD1810141+9999MW1021
0057601400999991951100612004+34033-004983FM-12+041499999V0200201N00511220001CN0400001N9+02501+00891101311ADDAY101999GF100991001001999999001001MD1110071+9999MW1021
0057601400999991951100712004+34033-004983FM-12+041499999V0209991C00001220001CN0700001N9+02501+01001101421ADDAY121999GF104991001001999999001021MD1110081+9999MW1021
0076601400999991951100812004+34033-004983FM-12+041499999V0209991C00001220001CN0200001N9+02281+01111101421ADDAY101999GF102991999001999999081001MD1810061+9999MW1031EQDQ01+000002SCOTLC
0057601400999991951100912004+34033-004983FM-12+041499999V0209991C00001004201CN0100001N9+01891+01611101381ADDAY161999GF108991081021004501999999MD1710041+9999MW1031
0057601400999991951101012004+34033-004983FM-12+041499999V0200901N00311220001CN0200001N9+02281+00721101361ADDAY101999GF102991011021017501001011MD1710091+9999MW1031
0057601400999991951101112004+34033-004983FM-12+041499999V0200901N00211036001CN0200001N9+02221+01221101271ADDAY121999GF107991011011017501081021MD1810031+9999MW1031
0057601400999991951101212004+34033-004983FM-12+041499999V0200901N00101220001CN0400001N9+02391+01501101201ADDAY101999GF103991021011017501081001MD1810071+9999MW1021
0057601400999991951101312004+34033-004983FM-12+041499999V0209991C00001036001CN0160001N9+01891+01721101681ADDAY121999GF107991031061002501071001MD1710091+9999MW1011
0057601400999991951101412004+34033-004983FM-12+041499999V0202901N00151012001CN0150001N9+02001+01281102231ADDAY121999GF107991071081008001001001MD1010021+9999MW1021
0057601400999991951101512004+34033-004983FM-12+041499999V0202901N00311012001CN0200001N9+01891+01221102081ADDAY121999GF106991061081008001001001MD1710011+9999MW1021
0057601400999991951101612004+34033-004983FM-12+041499999V0200501N00211220001CN0400001N9+02001+00891101761ADDAY101999GF102991021011008001001001MD1810071+9999MW1031
0057601400999991951101812004+34033-004983FM-12+041499999V0209991C00001220001CN0400001N9+02001+00721101381ADDAY101999GF101991001001999999001021MD1710181+9999MW1031
0057601400999991951101912004+34033-004983FM-12+041499999V0209991C00001220001CN0400001N9+02111+00781101211ADDAY101999GF100991001001999999001001MD1810061+9999MW1021
0057601400999991951102012004+34033-004983FM-12+041499999V0203201N00411012001CN0100001N9+01391+01221101351ADDAY181999GF108991081081008001999999MD1210111+9999MW1811
0057601400999991951102112004+34033-004983FM-12+041499999V0209991C00001220001CN0400001N9+01721+00781101801ADDAY101999GF102991021081012501001001MD1010071+9999MW1021
0057601400999991951102212004+34033-004983FM-12+041499999V0209991C00001220001CN0400001N9+01781+00891101791ADDAY101999GF102991011011017501001021MD1810061+9999MW1021
0057601400999991951102312004+34033-004983FM-12+041499999V0201901N00411220001CN0200001N9+02221+00391098671ADDAY121999GF104991001001999999999999MD1810081+9999MW1011
0057601400999991951102412004+34033-004983FM-12+041499999V0203201N00211220001CN0600001N9+01611+00111101881ADDAY101999GF100991001001999999001001MD1810101+9999MW1021
0057601400999991951102612004+34033-004983FM-12+041499999V0200601N00211220001CN0600001N9+01781+00111101511ADDAY111999GF104991001001999999041041MD1810081+9999MW1011
0057601400999991951102712004+34033-004983FM-12+041499999V0209991C00001220001CN0700001N9+02001+00001101621ADDAY101999GF100991001001999999001001MD1710081+9999MW1021
0057601400999991951102812004+34033-004983FM-12+041499999V0209991C00001220001CN0600001N9+02001+00501102141ADDAY101999GF100991001001999999001001MD1810031+9999MW1021
0057601400999991951102912004+34033-004983FM-12+041499999V0200401N00211090001CN0400001N9+01781+00891102081ADDAY121999GF106991001001999999001021MD1810081+9999MW1011
0057601400999991951103012004+34033-004983FM-12+041499999V0209991C00001220001CN0600001N9+01891+00891101781ADDAY101999GF100991001001999999001001MD1810111+9999MW1021
0057601400999991951103112004+34033-004983FM-12+041499999V0209991C00001220001CN0400001N9+01891+01001101661ADDAY111999GF104991011011012501051091MD1810111+9999MW1031
0057601400999991951110112004+34033-004983FM-12+041499999V0200901N00511220001CN0200001N9+02221+01001101441ADDAY101999GF104991001001999999001021MD1710141+9999MW1021
0057601400999991951110212004+34033-004983FM-12+041499999V0200401N00211220001CN0600001N9+02111+00891101751ADDAY101999GF100991001001999999001001MD1810041+9999MW1021
0057601400999991951110312004+34033-004983FM-12+041499999V0209991C00001220001CN0150001N9+01781+01001101911ADDAY121999GF104991041051008001001001MD1810091+9999MW1021
0057601400999991951110412004+34033-004983FM-12+041499999V0209991C00001220001CN0200001N9+01721+00891101421ADDAY101999GF102991021051012501001001MD1810131+9999MW1021
0057601400999991951110512004+34033-004983FM-12+041499999V0200901N00211220001CN0200001N9+02001+01781100491ADDAY101999GF101991001001999999001021MD1710091+9999MW1021
0057601400999991951110612004+34033-004983FM-12+041499999V0209991C00001036001CN0100001N9+01781+01221101031ADDAY181999GF107991011081008001051001MD1010081+9999MW1801
0057601400999991951110712004+34033-004983FM-12+041499999V0200901N00211090001CN0200001N9+02001+01391100891ADDAY121999GF107991041051012501001021MD1810151+9999MW1031
0057601400999991951110812004+34033-004983FM-12+041499999V0202701N00511012001CN0160001N9+01721+00891101301ADDAY181999GF107991071081008001001001MD1810051+9999MW1251
0057601400999991951110912004+34033-004983FM-12+041499999V0202401N00621012001CN0200001N9+01721+01221100301ADDAY121999GF108991081081008001999999MD1210101+9999MW1021
0057601400999991951111012004+34033-004983FM-12+041499999V0202401N00411004201CN0100001N9+01281+00611100231ADDAY181999GF108991081071004501999999MD1810051+9999MW1251
0057601400999991951111112004+34033-004983FM-12+041499999V0202901N00511015001CN0160001N9+01281+01001101341ADDAY181999GF107991071081012501001021MD1110301+9999MW1801
0057601400999991951111212004+34033-004983FM-12+041499999V0202701N00411015001CN0160001N9+01781+00891102171ADDAY111999GF106991061081012501001001MD1010011+9999MW1031
0076601400999991951111312004+34033-004983FM-12+041499999V0209991C000019999999N0100001N9+01391+01111102411ADDAY121999GF107991999071004501001001MD1810131+9999MW1011EQDQ01+000022SCOTLC
0076601400999991951111412004+34033-004983FM-12+041499999V0209991C00001220001CN0160001N9+01611+00891102411ADDAY101999GF103991999081008001001001MD1810031+9999MW1021EQDQ01+000012SCOTLC
0057601400999991951111512004+34033-004983FM-12+041499999V0200401N00411220001CN0700001N9+01781+00611101881ADDAY101999GF100991001001999999001001MD1810131+9999MW1021
0057601400999991951111612004+34033-004983FM-12+041499999V0209991C00001220001CN0700001N9+01721+00721101091ADDAY101999GF102991001001999999001021MD1710181+9999MW1021
0057601400999991951111712004+34033-004983FM-12+041499999V0203401N00211090001CN0200001N9+02001+01281101431ADDAY121999GF107991011051012501001021MD1810151+9999MW1011
0076601400999991951111812004+34033-004983FM-12+041499999V0202701N004119999999N0200001N9+02001+00891101621ADDAY121999GF106991999001999999031001MD1710051+9999MW1021EQDQ01+000002SCOTLC
0057601400999991951111912004+34033-004983FM-12+041499999V0202401N01651012001CN0200001N9+01781+00891100991ADDAY121999GF107991071081008001001001MD1710181+9999MW1021
0043601400999991951112012004+34033-004983FM-12+041499999V0202401N00411012001CN0150001N9+01391+00721101821ADDAY121999GF107991061081008001001021MW1021
0057601400999991951112112004+34033-004983FM-12+041499999V0202401N00511009001CN0060001N9+01281+01221102121ADDAY181999GF108991081081004501999999MD1810041+9999MW1251
0057601400999991951112212004+34033-004983FM-12+041499999V0209991C00001007501CN0160001N9+01721+01501102181ADDAY121999GF107991071051008001001001MD1810011+9999MW1021
0057601400999991951112312004+34033-004983FM-12+041499999V0209991C00001007501CN0160001N9+01501+01111102301ADDAY121999GF106991061051008001001001MD1110011+9999MW1021
0057601400999991951112412004+34033-004983FM-12+041499999V0209991C00001220001CN0600001N9+01721+01221102021ADDAY101999GF100991001001999999001001MD1810071+9999MW1021
0057601400999991951112512004+34033-004983FM-12+041499999V0200601N00211220001CN0700001N9+01721+01281102251ADDAY141999GF101991001001999999001021MD1010041+9999MW1021
0057601400999991951112612004+34033-004983FM-12+041499999V0209991C00001220001CN0700001N9+01781+01001102391ADDAY101999GF101991001001999999001021MD1210031+9999MW1031
0043601400999991951112712004+34033-004983FM-12+041499999V0200601N006219999999N0600001N9+01611+01001102551ADDAY101999GF108991001001999999081021MW1021
0076601400999991951112812004+34033-004983FM-12+041499999V0200601N00821220001CN0600001N9+01501+00891102341ADDAY101999GF104991999001999999051001MD1010101+9999MW1021EQDQ01+000002SCOTLC
0057601400999991951112912004+34033-004983FM-12+041499999V0200601N00821220001CN0400001N9+01781+00891102291ADDAY111999GF103991001001999999081021MD1810051+9999MW1011
0057601400999991951113012004+34033-004983FM-12+041499999V0200601N00821220001CN0400001N9+01781+00781102191ADDAY101999GF100991001001999999001001MD1810101+9999MW1021
0057601400999991951120112004+34033-004983FM-12+041499999V0209991C00001220001CN0400001N9+01611+00721102121ADDAY111999GF101991011011017501001001MD1810031+9999MW1031
0076601400999991951120212004+34033-004983FM-12+041499999V0209991C00001220001CN0200001N9+01501+00781101921ADDAY111999GF104991999001999999011001MD1810021+9999MW1021EQDQ01+000002SCOTLC
0057601400999991951120312004+34033-004983FM-12+041499999V0200601N002119999999N0400001N9+01611+00781101531ADDAY121999GF107991001001999999071021MD1810051+9999MW1021
0057601400999991951120412004+34033-004983FM-12+041499999V0200601N00931220001CN0200001N9+01721+00781101841ADDAY101999GF100991001001999999001001MD1810081+9999MW1021
0057601400999991951120512004+34033-004983FM-12+041499999V0200601N00211036001CN0200001N9+01721+00891102011ADDAY111999GF105991011021017501051001MD1010011+9999MW1031
0094601400999991951120612004+34033-004983FM-12+041499999V0209991C00001220001CN0200001N9+01721+00891102231ADDAY101999GF102991999001999999041001MW1021EQDQ01+000002SCOTLCQ02+000072APCTENQ03+000002APC3  
0057601400999991951120712004+34033-004983FM-12+041499999V0202701N00411002101CN0030001N9+01281+01111102311ADDAY181999GF108991081071002501999999MD1510021+9999MW1251
0057601400999991951120812004+34033-004983FM-12+041499999V0209991C00001220001CN0400001N9+01501+01001102531ADDAY101999GF104991041011008001001001MD1810051+9999MW1021
0057601400999991951120912004+34033-004983FM-12+041499999V0209991C00001220001CN0400001N9+01281+00721102391ADDAY101999GF102991001001999999001011MD1010001+9999MW1031
0057601400999991951121012004+34033-004983FM-12+041499999V0209991C000019999999N0200001N9+01611+00891102461ADDAY121999GF107991001001999999051021MD1110011+9999MW1021
0057601400999991951121112004+34033-004983FM-12+041499999V0200401N00211220001CN0200001N9+01501+00781102091ADDAY111999GF104991001001999999001021MD1810141+9999MW1021
0076601400999991951121212004+34033-004983FM-12+041499999V0200401N00511220001CN0200001N9+01391+01001102081ADDAY121999GF104991999001999999071001MD1810011+9999MW1021EQDQ01+000002SCOTLC
0057601400999991951121312004+34033-004983FM-12+041499999V0200401N002119999999N0200001N9+01721+01001101801ADDAY111999GF106991001001999999041041MD1810101+9999MW1031
0057601400999991951121412004+34033-004983FM-12+041499999V0200601N00211012001CN0160001N9+01281+01001101991ADDAY121999GF108991081081008001999999MD1810061+9999MW1021
0057601400999991951121512004+34033-004983FM-12+041499999V0200401N007219999999N0200001N9+01391+00611101951ADDAY121999GF107991001001999999031021MD1810071+9999MW1031
0076601400999991951121612004+34033-004983FM-12+041499999V0200401N004119999999N0200001N9+01391+00611101581ADDAY121999GF106991999001999999051001MD1010021+9999MW1021EQDQ01+000002SCOTLC
0057601400999991951121712004+34033-004983FM-12+041499999V0200601N005119999999N0200001N9+01611+00781101501ADDAY121999GF107991001001999999071021MD1810061+9999MW1011
0076601400999991951121812004+34033-004983FM-12+041499999V0200601N00821220001CN0200001N9+01501+00281101511ADDAY101999GF102991999001999999051001MD1010011+9999MW1021EQDQ01+000002SCOTLC
0057601400999991951121912004+34033-004983FM-12+041499999V0200601N00211090001CN0150001N9+01391+00221102091ADDAY121999GF105991001001999999001021MD1010011+9999MW1061
0057601400999991951122012004+34033-004983FM-12+041499999V0209991C00001220001CN0150001N9+01391+00721102171ADDAY101999GF102991001001999999001021MD1810041+9999MW1061
0057601400999991951122112004+34033-004983FM-12+041499999V0200901N00311012001CN0150001N9+00781+00611101481ADDAY181999GF107991071081008001001021MD1710071+9999MW1251
0057601400999991951122212004+34033-004983FM-12+041499999V0202701N002119999999N0200001N9+00891+00391101431ADDAY121999GF107991001001999999071021MD1810011+9999MW1011
0057601400999991951122312004+34033-004983FM-12+041499999V0209991C00001007501CN0200001N9+01001+00501101781ADDAY121999GF106991061051008001001001MD1810011+9999MW1021
0057601400999991951122412004+34033-004983FM-12+041499999V0209991C00001220001CN0200001N9+01281+00781102341ADDAY101999GF104991041051008001001001MD1810041+9999MW1021
0057601400999991951122512004+34033-004983FM-12+041499999V0202701N00211220001CN0200001N9+01501+00781102651ADDAY101999GF100991001001999999001001MD1010021+9999MW1021
0076601400999991951122612004+34033-004983FM-12+041499999V0203201N003119999999N0200001N9+01501+00611102981ADDAY121999GF106991999001999999051001MD1010081+9999MW1021EQDQ01+000002SCOTLC
0057601400999991951122712004+34033-004983FM-12+041499999V0202001N00211220001CN0200001N9+01281+01221102951ADDAY141999GF101991011061000751001001MD1810051+9999MW1281
0057601400999991951122812004+34033-004983FM-12+041499999V0202401N00721001201CN0050001N9+01221+00721103081ADDAY161999GF108991061071001501051001MD1310021+9999MW1611
0057601400999991951122912004+34033-004983FM-12+041499999V0203001N00821007501CN0200001N9+01281+00781102671ADDAY121999GF107991061051008001001021MD1810201+9999MW1031
0057601400999991951123012004+34033-004983FM-12+041499999V0209991C00001220001CN0200001N9+01391+00891102801ADDAY101999GF102991021021008001001001MD1810011+9999MW1031
0057601400999991951123112004+34033-004983FM-12+041499999V0200901N00511220001CN0700001N9+01611+00721102361ADDAY101999GF100991001001999999001001MD1810021+9999MW1021
