0057601400999991952010112004+34033-004983FM-12+041499999V0209991C00001220001CN0600001N9+01781+00891102581ADDAY101999GF100991001001999999001001MD1810061+9999MW1021
0057601400999991952010212004+34033-004983FM-12+041499999V0200901N00211220001CN0600001N9+01281+00611102341ADDAY101999GF104991001001999999001021MD1810111+9999MW1021
0043601400999991952010312004+34033-004983FM-12+041499999V0202501N00101015001CN0100001N9+01281+01001102511ADDAY121999GF108991081081012501999999MW1061
0043601400999991952010412004+34033-004983FM-12+041499999V0209991C00001220001CN0200001N9+01281+00721102751ADDAY101999GF101991011011012501001001MW1031
0057601400999991952010512004+34033-004983FM-12+041499999V0200901N00511220001CN0400001N9+01281+00391102881ADDAY101999GF100991001001999999001001MD1810061+9999MW1021
0076601400999991952010612004+34033-004983FM-12+041499999V0200601N00311220001CN0200001N9+01221+00501102731ADDAY101999GF101991999001999999041001MD1810091+9999MW1031EQDQ01+000002SCOTLC
0057601400999991952010712004+34033-004983FM-12+041499999V0200601N01131220001CN0400001N9+01281+00221103011ADDAY101999GF100991001001999999001001MD1010011+9999MW1021
0057601400999991952010812004+34033-004983FM-12+041499999V0201101N00931220001CN0200001N9+01281+00221103351ADDAY101999GF100991001001999999001001MD1810011+9999MW1021
0057601400999991952010912004+34033-004983FM-12+041499999V0209991C00001220001CN0200001N9+01221+00281102921ADDAY101999GF102991021051012501001001MD1810141+9999MW1021
0057601400999991952011012004+34033-004983FM-12+041499999V0200901N00211220001CN0200001N9+01281+00721102591ADDAY101999GF102991011011012501001021MD1010011+9999MW1021
0057601400999991952011112004+34033-004983FM-12+041499999V0209991C00001220001CN0200001N9+01221+00721102711ADDAY101999GF102991021051012501001001MD1010061+9999MW1011
0057601400999991952011212004+34033-004983FM-12+041499999V0200401N00311220001CN0200001N9+01281+00721101981ADDAY101999GF103991021011008001001011MD1810161+9999MW1031
0057601400999991952011312004+34033-004983FM-12+041499999V0202201N00311004201CN0050001N9+00721+00611101901ADDAY161999GF108991081071004501999999MD1310051+9999MW1631
0057601400999991952011412004+34033-004983FM-12+041499999V0200901N01231012001CN0200001N9+01221+00611102501ADDAY111999GF106991061081008001001001MD1010051+9999MW1031
0057601400999991952011512004+34033-004983FM-12+041499999V0200901N01031220001CN0200001N9+01001+00281102861ADDAY101999GF102991021011012501001001MD1810041+9999MW1031
0057601400999991952011612004+34033-004983FM-12+041499999V0200901N00211220001CN0700001N9+01001+00281102811ADDAY101999GF100991001001999999001001MD1810041+9999MW1021
0076601400999991952011712004+34033-004983FM-12+041499999V0209991C000019999999N0200001N9+01221+00391102871ADDAY111999GF106991999001999999051001MD1810021+9999MW1021EQDQ01+000002SCOTLC
0057601400999991952011812004+34033-004983FM-12+041499999V0202901N00311009001CN0100001N9+01221+00721102831ADDAY161999GF108991081081004501999999MD1010021+9999MW1021
0057601400999991952011912004+34033-004983FM-12+041499999V0209991C00001220001CN0200001N9+01001+00501102811ADDAY101999GF102991021011017501001001MD1810061+9999MW1021
0057601400999991952012012004+34033-004983FM-12+041499999V0209991C00001220001CN0700001N9+01111+00501102571ADDAY101999GF100991001001999999001001MD1810071+9999MW1021
0057601400999991952012112004+34033-004983FM-12+041499999V0202501N00621004201CN0050001N9+00891+00721101911ADDAY161999GF108991061051004501071999MD1810041+9999MW1211
0057601400999991952012212004+34033-004983FM-12+041499999V0203201N00721220001CN0150001N9+00611-00111102081ADDAY111999GF103991031021008001001001MD1210151+9999MW1031
0057601400999991952012312004+34033-004983FM-12+041499999V0203101N00311007501CN0200001N9+00891+00221102261ADDAY121999GF106991061051008001001001MD1810011+9999MW1021
0057601400999991952012412004+34033-004983FM-12+041499999V0202701N01851007501CN0150001N9+01221+00391101101ADDAY121999GF107991071051008001001001MD1810051+9999MW1031
0057601400999991952012512004+34033-004983FM-12+041499999V0209991C00001009001CN0150001N9+01001+00781101131ADDAY181999GF108991081081004501999999MD1010041+9999MW1031
0057601400999991952012612004+34033-004983FM-12+041499999V0200901N00211090001CN0700001N9+01221+00281100541ADDAY121999GF107991001001999999001021MD1810081+9999MW1021
0057601400999991952012712004+34033-004983FM-12+041499999V0202501N01541012001CN0700001N9+01391+00611100511ADDAY121999GF106991061051012501001001MD1210151+9999MW1031
0057601400999991952012812004+34033-004983FM-12+041499999V0202701N00411012001CN0150001N9+01111+00501101831ADDAY111999GF107991071081008001001001MD1010091+9999MW1031
0057601400999991952012912004+34033-004983FM-12+041499999V0203101N00211015001CN0160001N9+01111+00501102291ADDAY121999GF106991061051017501001001MD1010071+9999MW1011
0057601400999991952013012004+34033-004983FM-12+041499999V0202501N00621012001CN0150001N9+01111+00611101761ADDAY161999GF108991081081008001999999MD1810061+9999MW1801
0057601400999991952013112004+34033-004983FM-12+041499999V0209991C00001012001CN0160001N9+01221+00891102351ADDAY121999GF108991081081008001999999MD1010111+9999MW1031
0057601400999991952020112004+34033-004983FM-12+041499999V0202501N00411004201CN0100001N9+01281+01001102581ADDAY151999GF108991081051004501999999MD1010131+9999MW1021
0057601400999991952020212004+34033-004983FM-12+041499999V0209991C00001220001CN0400001N9+01501+01111102701ADDAY101999GF102991021051008001001001MD1010051+9999MW1021
0057601400999991952020312004+34033-004983FM-12+041499999V0209991C00001090001CN0700001N9+01281+00781102371ADDAY121999GF106991001001999999001021MD1810101+9999MW1021
0076601400999991952020412004+34033-004983FM-12+041499999V0209991C000019999999N0150001N9+01391+01001102131ADDAY121999GF106991999001999999081001MD1810041+9999MW1021EQDQ01+000002SCOTLC
0057601400999991952020512004+34033-004983FM-12+041499999V0200601N00931220001CN0700001N9+01501+00781102301ADDAY101999GF100991001001999999001001MD1810031+9999MW1021
0057601400999991952020612004+34033-004983FM-12+041499999V0200501N01231220001CN0700001N9+01221+00001102561ADDAY101999GF100991001001999999001001MD1110051+9999MW1021
0057601400999991952020712004+34033-004983FM-12+041499999V0200401N00511220001CN0700001N9+01111+00221102641ADDAY101999GF100991001001999999001001MD1810021+9999MW1021
0057601400999991952020812004+34033-004983FM-12+041499999V0202501N00311220001CN0700001N9+01611+00281102631ADDAY101999GF100991001001999999001001MD1010001+9999MW1021
0057601400999991952020912004+34033-004983FM-12+041499999V0209991C00001220001CN0400001N9+01501+00611102581ADDAY101999GF103991001001999999001011MD1810041+9999MW1021
0057601400999991952021012004+34033-004983FM-12+041499999V0209991C000019999999N0700001N9+01501+00281102341ADDAY111999GF106991001001999999091021MD1110041+9999MW1021
0076601400999991952021112004+34033-004983FM-12+041499999V0200601N00211220001CN0700001N9+01501+00281101961ADDAY101999GF101991999001999999041001MD1810031+9999MW1031EQDQ01+000002SCOTLC
0057601400999991952021212004+34033-004983FM-12+041499999V0203601N00211220001CN0600001N9+01781+00891101171ADDAY101999GF100991001001999999001001MD1710121+9999MW1021
0057601400999991952021312004+34033-004983FM-12+041499999V0202701N01951012001CN0150001N9+01391+01001100941ADDAY181999GF106991061081008001001001MD1010011+9999MW1251
0076601400999991952021412004+34033-004983FM-12+041499999V0202501N003119999999N0160001N9+01391+00891101771ADDAY111999GF106991999081008001001001MD1110121+9999MW1021EQDQ01+000022SCOTLC
0057601400999991952021512004+34033-004983FM-12+041499999V0203401N00411220001CN0150001N9+01111+00391102351ADDAY111999GF103991031051008001001001MD1010031+9999MW1011
0057601400999991952021612004+34033-004983FM-12+041499999V0209991C00001220001CN0700001N9+01221+00391102081ADDAY101999GF100991001001999999001001MD1010011+9999MW1021
0057601400999991952021712004+34033-004983FM-12+041499999V0209991C00001012001CN0150001N9+01111+00501101951ADDAY121999GF106991061081008001001001MD1010031+9999MW1031
0057601400999991952021812004+34033-004983FM-12+041499999V0209991C00001220001CN0200001N9+01221+00391101911ADDAY101999GF102991021011008001001001MD1810041+9999MW1031
0057601400999991952021912004+34033-004983FM-12+041499999V0202201N00211220001CN0200001N9+01221+00501101771ADDAY101999GF102991021011012501001001MD1810011+9999MW1011
0057601400999991952022012004+34033-004983FM-12+041499999V0200901N01441220001CN0200001N9+01281+00781101541ADDAY101999GF100991001001999999001001MD1810031+9999MW1021
0078601400999991952022112004+34033-004983FM-12+041499999V0200901N009319999999N0150001N9+01611+01111101501ADDAY121999GF107991001001999999051021MW1031EQDQ01+000022APCTENQ02+000002APC3  
0057601400999991952022212004+34033-004983FM-12+041499999V0200901N00211220001CN0200001N9+01391+00221101761ADDAY101999GF100991001001999999001001MD1810011+9999MW1021
0057601400999991952022312004+34033-004983FM-12+041499999V0200601N00211220001CN0100001N9+01611+00221101871ADDAY101999GF100991001001999999001001MD1810051+9999MW1061
0057601400999991952022412004+34033-004983FM-12+041499999V0200701N00311220001CN0160001N9+01611+00611101751ADDAY101999GF102991001001999999001021MD1810041+9999MW1021
0057601400999991952022512004+34033-004983FM-12+041499999V0200601N00311090001CN0150001N9+01721+00721101801ADDAY111999GF105991011021017501081011MD1810041+9999MW1061
0057601400999991952022612004+34033-004983FM-12+041499999V0209991C00001220001CN0150001N9+01611+00721102041ADDAY101999GF102991001001999999001021MD1010041+9999MW1021
0057601400999991952022712004+34033-004983FM-12+041499999V0200901N00101220001CN0200001N9+01391+00391102501ADDAY111999GF104991021021012501001011MD1110081+9999MW1031
0057601400999991952022812004+34033-004983FM-12+041499999V0200901N00621220001CN0400001N9+01721+00611102221ADDAY101999GF100991001001999999001001MD1810041+9999MW1021
0057601400999991952022912004+34033-004983FM-12+041499999V0200601N00311220001CN0200001N9+01781+00391101981ADDAY101999GF102991001001999999041021MD1010001+9999MW1031
0057601400999991952030112004+34033-004983FM-12+041499999V0200901N00411220001CN0160001N9+02001+00611101691ADDAY101999GF104991001001999999001021MD1810051+9999MW1021
0043601400999991952030212004+34033-004983FM-12+041499999V0202701N002119999999N0200001N9+02111+00781101421ADDAY121999GF107991001001999999081021MW1031
0057601400999991952030312004+34033-004983FM-12+041499999V0200901N00211220001CN0200001N9+01781+00721101341ADDAY121999GF104991001001999999001021MD1710051+9999MW1021
0057601400999991952030412004+34033-004983FM-12+041499999V0209991C00001220001CN0100001N9+01781+00891101561ADDAY101999GF102991001001999999001021MD1110081+9999MW1061
0057601400999991952030512004+34033-004983FM-12+041499999V0201201N00211004201CN0100001N9+01721+01111101981ADDAY121999GF106991061051004501001001MD1810081+9999MW1021
0057601400999991952030612004+34033-004983FM-12+041499999V0200901N00721220001CN0150001N9+02001+00391101871ADDAY101999GF100991001001999999001001MD1810051+9999MW1061
0057601400999991952030712004+34033-004983FM-12+041499999V0209991C00001220001CN0100001N9+02221+00721101951ADDAY101999GF102991001001999999001021MD1110021+9999MW1061
0057601400999991952030812004+34033-004983FM-12+041499999V0200901N00101090001CN0100001N9+02221+00391101851ADDAY121999GF105991001001999999001021MD1810071+9999MW1061
0057601400999991952030912004+34033-004983FM-12+041499999V0209991C00001220001CN0100001N9+02111+00891101901ADDAY111999GF100991001001999999001001MD1210031+9999MW1061
0057601400999991952031012004+34033-004983FM-12+041499999V0209991C00001090001CN0150001N9+01891+01111101901ADDAY111999GF105991011021017501081021MD1810031+9999MW1061
0057601400999991952031112004+34033-004983FM-12+041499999V0203201N003119999999N0100001N9+02111+01221101401ADDAY111999GF106991001001999999081061MD1810081+9999MW1061
0043601400999991952031212004+34033-004983FM-12+041499999V0203201N00311007501CN0150001N9+01721+00781102131ADDAY121999GF105991051021008001001001MW1021
0057601400999991952031312004+34033-004983FM-12+041499999V0209991C00001220001CN0160001N9+01501+00891102031ADDAY101999GF102991001001999999001021MD1810101+9999MW1031
0057601400999991952031412004+34033-004983FM-12+041499999V0202701N00511220001CN0600001N9+02221+00501101611ADDAY101999GF102991001001999999001021MD1010121+9999MW1011
0057601400999991952031512004+34033-004983FM-12+041499999V0202701N00211012001CN0150001N9+01611+01001101791ADDAY121999GF108991081081008001999999MD1810011+9999MW1021
0057601400999991952031612004+34033-004983FM-12+041499999V0209991C00001220001CN0200001N9+01391+00391102021ADDAY101999GF100991001001999999001001MD1810041+9999MW1011
0057601400999991952031712004+34033-004983FM-12+041499999V0209991C00001012001CN0200001N9+01611+00781102051ADDAY111999GF105991051011012501001001MD1610021+9999MW1011
0057601400999991952031812004+34033-004983FM-12+041499999V0202901N00211015001CN0150001N9+01501+00781102281ADDAY121999GF105991051081012501001001MD1810021+9999MW1011
0057601400999991952031912004+34033-004983FM-12+041499999V0202501N00311012001CN0200001N9+01721+00781102281ADDAY121999GF106991061081008001001001MD1810051+9999MW1031
0057601400999991952032012004+34033-004983FM-12+041499999V0201101N00211220001CN0400001N9+01781+00611102271ADDAY101999GF102991001001999999001021MD1810031+9999MW1031
0043601400999991952032112004+34033-004983FM-12+041499999V0200401N00511220001CN0400001N9+02221+00501102021ADDAY101999GF100991001001999999001001MW1021
0043601400999991952032212004+34033-004983FM-12+041499999V0203601N00101220001CN0700001N9+02391+01001102081ADDAY101999GF100991001001999999001001MW1021
0057601400999991952032312004+34033-004983FM-12+041499999V0209991C00001220001CN0600001N9+02391+01221101891ADDAY101999GF100991001001999999001001MD1810131+9999MW1021
0057601400999991952032412004+34033-004983FM-12+041499999V0209991C00001220001CN0150001N9+01891+01221101851ADDAY141999GF101991001001999999001021MD1810101+9999MW1031
0057601400999991952032512004+34033-004983FM-12+041499999V0200701N00211220001CN0600001N9+02281+00721101291ADDAY101999GF102991001001999999001041MD1810121+9999MW1021
0057601400999991952032612004+34033-004983FM-12+041499999V0200401N00211090001CN0700001N9+02781+00721100351ADDAY121999GF107991001001999999001021MD1710161+9999MW1031
0057601400999991952032712004+34033-004983FM-12+041499999V0209991C00001220001CN0150001N9+02001+01221100451ADDAY121999GF104991011021017501081001MD1810031+9999MW1021
0057601400999991952032812004+34033-004983FM-12+041499999V0200901N002119999999N0200001N9+02001+01221099811ADDAY121999GF108991001001999999071021MD1810131+9999MW1031
0057601400999991952032912004+34033-004983FM-12+041499999V0202501N01031012001CN0100001N9+01281+01111099921ADDAY181999GF108991081081008001999999MD1210051+9999MW1801
0057601400999991952033012004+34033-004983FM-12+041499999V0202201N00721220001CN0700001N9+01891+00611100631ADDAY111999GF104991021021012501041001MD1810061+9999MW1031
0078601400999991952033112004+34033-004983FM-12+041499999V0209991C00001220001CN0600001N9+02001+01001100451ADDAY101999GF104991041011008001001001MW1031EQDQ01+000022APCTENQ02+000002APC3  
0057601400999991952040112004+34033-004983FM-12+041499999V0202901N01131015001CN0150001N9+01501+00501101381ADDAY121999GF107991071081012501001001MD1010061+9999MW1021
0057601400999991952040212004+34033-004983FM-12+041499999V0202901N00931012001CN0100001N9+01001+00891101861ADDAY181999GF108991081081008001999999MD1210041+9999MW1801
0057601400999991952040312004+34033-004983FM-12+041499999V0202901N00821015001CN0100001N9+01001+00721102621ADDAY181999GF108991081081012501999999MD1810021+9999MW1801
0057601400999991952040412004+34033-004983FM-12+041499999V0202701N00211220001CN0700001N9+01281+00501102811ADDAY101999GF102991021011008001001001MD1810031+9999MW1031
0057601400999991952040512004+34033-004983FM-12+041499999V0203601N00311220001CN0200001N9+01501+00391102751ADDAY101999GF102991011011017501001021MD1810071+9999MW1021
0057601400999991952040612004+34033-004983FM-12+041499999V0201101N00211220001CN0700001N9+01611+00721102411ADDAY101999GF100991001001999999001001MD1810081+9999MW1021
0057601400999991952040712004+34033-004983FM-12+041499999V0201101N00211220001CN0700001N9+02221+01001102061ADDAY111999GF104991001001999999001041MD1010001+9999MW1031
0057601400999991952040812004+34033-004983FM-12+041499999V0200901N00411220001CN0160001N9+02391+00891101951ADDAY121999GF103991001001999999001021MD1810071+9999MW1011
0057601400999991952040912004+34033-004983FM-12+041499999V0203201N002119999999N0200001N9+01891+01001101751ADDAY121999GF107991001001999999081021MD1810021+9999MW1021
0057601400999991952041012004+34033-004983FM-12+041499999V0202701N00211004201CN0100001N9+01611+01221101411ADDAY121999GF108991081051004501999999MD1710061+9999MW1021
0057601400999991952041112004+34033-004983FM-12+041499999V0200901N00101012001CN0150001N9+01611+01111101251ADDAY161999GF107991071081008001001021MD1010011+9999MW1021
0078601400999991952041212004+34033-004983FM-12+041499999V0209991C00001012001CN0150001N9+01281+00891101461ADDAY121999GF108991081081008001999999MW1021EQDQ01+000032APCTENQ02+000002APC3  
0057601400999991952041312004+34033-004983FM-12+041499999V0202001N00101007501CN0080001N9+01221+01001101591ADDAY161999GF108991081051008001999999MD1010061+9999MW1611
0057601400999991952041412004+34033-004983FM-12+041499999V0202201N00511012001CN0150001N9+01281+00891101641ADDAY121999GF107991071081008001001001MD1010021+9999MW1021
0057601400999991952041612004+34033-004983FM-12+041499999V0200701N00411220001CN0200001N9+02111+00891101421ADDAY101999GF101991011011012501001001MD1810041+9999MW1021
0057601400999991952041712004+34033-004983FM-12+041499999V0209991C00001090001CN0200001N9+02221+01111101191ADDAY111999GF105991011091017501081031MD1810041+9999MW1031
0057601400999991952041812004+34033-004983FM-12+041499999V0200901N005119999999N0160001N9+02221+01221100911ADDAY121999GF108991001001999999081021MD1810121+9999MW1021
0057601400999991952041912004+34033-004983FM-12+041499999V0200901N010319999999N0200001N9+02501+00391100831ADDAY121999GF108991001001999999081021MD1010011+9999MW1021
0057601400999991952042012004+34033-004983FM-12+041499999V0200901N00721220001CN0150001N9+02501+01001100721ADDAY101999GF102991021051012501001001MD1810081+9999MW1061
0057601400999991952042112004+34033-004983FM-12+041499999V0209991C00001007501CN0080001N9+01891+01501100881ADDAY141999GF107991071051008001001001MD1210021+9999MW1021
0057601400999991952042212004+34033-004983FM-12+041499999V0202701N00511012001CN0080001N9+01891+01391101141ADDAY121999GF108991081081008001999999MD1010031+9999MW1021
0057601400999991952042312004+34033-004983FM-12+041499999V0202501N00411009001CN0080001N9+01221+01001101721ADDAY181999GF108991081081004501999999MD1810011+9999MW1801
0057601400999991952042412004+34033-004983FM-12+041499999V0203201N00411007501CN0150001N9+01781+00611102051ADDAY121999GF105991051021008001001001MD1110011+9999MW1021
0057601400999991952042512004+34033-004983FM-12+041499999V0202901N00211220001CN0700001N9+01891+00001102101ADDAY101999GF100991001001999999001001MD1810081+9999MW1021
0057601400999991952042612004+34033-004983FM-12+041499999V0201601N00511007501CN0150001N9+01611+01001101671ADDAY121999GF108991081051008001999999MD1810061+9999MW1021
0057601400999991952042712004+34033-004983FM-12+041499999V0200901N00101220001CN0400001N9+01781+00501101591ADDAY101999GF101991011011008001001001MD1810081+9999MW1021
0057601400999991952042812004+34033-004983FM-12+041499999V0202501N00311090001CN0600001N9+02001+00891101161ADDAY121999GF107991001001999999001061MD1810021+9999MW1061
0078601400999991952042912004+34033-004983FM-12+041499999V0202701N01031012001CN0200001N9+01611+00891101481ADDAY181999GF107991071081008001001001MW1021EQDQ01+000022APCTENQ02+000002APC3  
0057601400999991952043012004+34033-004983FM-12+041499999V0200901N00311007501CN0200001N9+01721+01221101611ADDAY121999GF107991061021008001001021MD1810071+9999MW1021
0057601400999991952050112004+34033-004983FM-12+041499999V0200901N00211001201CN0060001N9+01281+01221101341ADDAY161999GF108991081071001501999999MD1710091+9999MW1611
0057601400999991952050212004+34033-004983FM-12+041499999V0203201N00311220001CN0400001N9+01781+01001101331ADDAY121999GF106991041011012501001011MD1810071+9999MW1031
0057601400999991952050312004+34033-004983FM-12+041499999V0202201N00511012001CN0200001N9+02001+01111100921ADDAY121999GF108991081051012501999999MD1710121+9999MW1021
0057601400999991952050412004+34033-004983FM-12+041499999V0203201N00511012001CN0160001N9+02221+01221101061ADDAY121999GF107991071061012501001021MD1210011+9999MW1021
0078601400999991952050512004+34033-004983FM-12+041499999V0203401N00311012001CN0200001N9+02111+01391101241ADDAY121999GF107991071081008001081021MW1031EQDQ01+000022APCTENQ02+000002APC3  
0057601400999991952050612004+34033-004983FM-12+041499999V0202901N00411012001CN0100001N9+01611+01281101671ADDAY181999GF108991081081008001999999MD1110101+9999MW1021
0057601400999991952050712004+34033-004983FM-12+041499999V0202701N00211012001CN0150001N9+01391+00891101661ADDAY181999GF108991081081008001999999MD1110011+9999MW1801
0057601400999991952050812004+34033-004983FM-12+041499999V0201101N00311007501CN0150001N9+01611+01221101871ADDAY121999GF108991081021008001999999MD1810031+9999MW1031
0057601400999991952050912004+34033-004983FM-12+041499999V0200601N00211012001CN0200001N9+01781+00891101831ADDAY121999GF105991051011012501001001MD1810051+9999MW1011
0057601400999991952051012004+34033-004983FM-12+041499999V0209991C00001012001CN0200001N9+01891+01001101931ADDAY121999GF108991081051012501999999MD1810021+9999MW1021
0057601400999991952051112004+34033-004983FM-12+041499999V0201101N00211220001CN0700001N9+02001+01001102141ADDAY101999GF101991011011012501001001MD1810011+9999MW1021
0057601400999991952051212004+34033-004983FM-12+041499999V0201201N00411220001CN0700001N9+02501+01281101761ADDAY101999GF102991011011012501001021MD1710111+9999MW1031
0057601400999991952051312004+34033-004983FM-12+041499999V0201101N00511220001CN0150001N9+02891+01111101331ADDAY101999GF100991001001999999001001MD1810061+9999MW1061
0057601400999991952051412004+34033-004983FM-12+041499999V0201201N00411220001CN0400001N9+02891+01281100991ADDAY101999GF102991011031012501001021MD1710091+9999MW1031
0057601400999991952051512004+34033-004983FM-12+041499999V0200901N00411220001CN0200001N9+02611+01281100841ADDAY101999GF100991001001999999001001MD1810031+9999MW1021
0057601400999991952051612004+34033-004983FM-12+041499999V0209991C00001009001CN0080001N9+01611+01281101691ADDAY121999GF108991081081004501999999MD1010041+9999MW1021
0057601400999991952051712004+34033-004983FM-12+041499999V0203201N00411007501CN0150001N9+01891+01001101871ADDAY111999GF106991061011008001001001MD1810031+9999MW1021
0057601400999991952051812004+34033-004983FM-12+041499999V0200701N00101220001CN0400001N9+02001+01111101711ADDAY101999GF102991021011012501001001MD1710101+9999MW1011
0057601400999991952051912004+34033-004983FM-12+041499999V0200901N00211007501CN0200001N9+01891+01221101671ADDAY121999GF106991061051008001001001MD1810051+9999MW1021
0057601400999991952052012004+34033-004983FM-12+041499999V0209991C00001012001CN0160001N9+02001+01281101491ADDAY121999GF105991051011012501001001MD1710141+9999MW1021
0057601400999991952052112004+34033-004983FM-12+041499999V0200901N00411220001CN0200001N9+02391+01221101321ADDAY101999GF101991011021012501001001MD1810071+9999MW1021
0057601400999991952052212004+34033-004983FM-12+041499999V0201101N00311220001CN0200001N9+02501+01221101281ADDAY101999GF101991011021017501001001MD1810081+9999MW1021
0057601400999991952052312004+34033-004983FM-12+041499999V0200401N00311220001CN0160001N9+02501+01391101371ADDAY101999GF101991011011012501001001MD1710061+9999MW1031
0057601400999991952052412004+34033-004983FM-12+041499999V0200901N00821220001CN0200001N9+02501+01281101461ADDAY111999GF104991001001999999001021MD1810071+9999MW1031
0057601400999991952052512004+34033-004983FM-12+041499999V0200901N01131090001CN0150001N9+02611+01281101031ADDAY121999GF106991001001999999001021MD1710101+9999MW1061
0057601400999991952052612004+34033-004983FM-12+041499999V0202201N00311004201CN0150001N9+02221+01611100981ADDAY151999GF108991081051004501999999MD1810121+9999MW1031
0057601400999991952052712004+34033-004983FM-12+041499999V0202701N00411220001CN0150001N9+02721+01501100711ADDAY101999GF100991001001999999001001MD1810121+9999MW1021
0057601400999991952052812004+34033-004983FM-12+041499999V0202701N00311009001CN0100001N9+01721+01501101491ADDAY181999GF108991081081004501999999MD1210091+9999MW1211
0057601400999991952052912004+34033-004983FM-12+041499999V0200601N00211012001CN0200001N9+02221+01391101761ADDAY121999GF107991071011012501001001MD1010041+9999MW1021
0057601400999991952053012004+34033-004983FM-12+041499999V0203601N00311220001CN0400001N9+02891+01111101401ADDAY101999GF102991001001999999001021MD1810071+9999MW1031
0057601400999991952053112004+34033-004983FM-12+041499999V0203201N00411220001CN0400001N9+02891+01611101491ADDAY121999GF104991001001999999001021MD1110071+9999MW1031
0057601400999991952060112004+34033-004983FM-12+041499999V0209991C00001007501CN0150001N9+02221+01501102031ADDAY121999GF106991061011008001001021MD1810041+9999MW1011
0057601400999991952060212004+34033-004983FM-12+041499999V0209991C00001220001CN0200001N9+02721+01391101701ADDAY101999GF102991001001999999001021MD1810141+9999MW1021
0057601400999991952060312004+34033-004983FM-12+041499999V0200901N00211220001CN0200001N9+02721+01501101901ADDAY101999GF101991001001999999001021MD1710111+9999MW1021
0057601400999991952060412004+34033-004983FM-12+041499999V0209991C00001220001CN0400001N9+03001+01611101721ADDAY101999GF100991001001999999001001MD1810091+9999MW1021
0057601400999991952060512004+34033-004983FM-12+041499999V0209991C00001220001CN0400001N9+03001+01891101691ADDAY101999GF101991011081012501001001MD1810031+9999MW1031
0057601400999991952060612004+34033-004983FM-12+041499999V0203401N00101220001CN0400001N9+03001+01891101751ADDAY101999GF100991001001999999001001MD1810041+9999MW1021
0057601400999991952060712004+34033-004983FM-12+041499999V0209991C00001220001CN0200001N9+03221+01721101971ADDAY101999GF100991001001999999001001MD1810021+9999MW1021
0057601400999991952060812004+34033-004983FM-12+041499999V0200401N00411220001CN0200001N9+03281+01611101751ADDAY111999GF104991011021017501081001MD1710101+9999MW1011
0057601400999991952060912004+34033-004983FM-12+041499999V0200601N00211090001CN0200001N9+03391+01391101331ADDAY111999GF105991011021017501081021MD1810111+9999MW1031
0057601400999991952061012004+34033-004983FM-12+041499999V0201101N006219999999N0200001N9+03221+01501101041ADDAY121999GF107991001001999999091021MD1610111+9999MW1021
0057601400999991952061112004+34033-004983FM-12+041499999V0203401N00311220001CN0160001N9+03001+01781101141ADDAY111999GF101991011021017501001001MD1210081+9999MW1031
0057601400999991952061212004+34033-004983FM-12+041499999V0202701N00211007501CN0100001N9+02221+01721101971ADDAY121999GF108991081051008001999999MD1210111+9999MW1021
0057601400999991952061312004+34033-004983FM-12+041499999V0209991C00001220001CN0200001N9+02611+01611101741ADDAY101999GF100991001001999999001001MD1710131+9999MW1021
0057601400999991952061412004+34033-004983FM-12+041499999V0203401N00211220001CN0200001N9+02501+01391101311ADDAY101999GF101991011021017501001001MD1710161+9999MW1031
0057601400999991952061512004+34033-004983FM-12+041499999V0200201N00101220001CN0400001N9+02721+01281101081ADDAY101999GF100991001001999999001001MD1810021+9999MW1021
0057601400999991952061612004+34033-004983FM-12+041499999V0201201N002119999999N0600001N9+02611+01221101281ADDAY121999GF107991001001999999091021MD1810091+9999MW1031
0057601400999991952061712004+34033-004983FM-12+041499999V0202701N00511220001CN0200001N9+02781+01391101551ADDAY101999GF103991031011012501001001MD1810061+9999MW1031
0057601400999991952061812004+34033-004983FM-12+041499999V0202901N00211220001CN0600001N9+02611+01391101791ADDAY101999GF101991011011017501001001MD1810011+9999MW1031
0057601400999991952061912004+34033-004983FM-12+041499999V0200901N00101220001CN0600001N9+02391+01391101921ADDAY101999GF100991001001999999001001MD1710101+9999MW1021
0057601400999991952062012004+34033-004983FM-12+041499999V0209991C00001220001CN0400001N9+02891+01281101741ADDAY101999GF100991001001999999001001MD1810121+9999MW1021
0057601400999991952062112004+34033-004983FM-12+041499999V0200901N00311090001CN0200001N9+03111+01221101341ADDAY121999GF106991001001999999001021MD1810081+9999MW1021
0057601400999991952062212004+34033-004983FM-12+041499999V0200901N001019999999N0400001N9+02611+01721101431ADDAY121999GF107991001001999999081021MD1010021+9999MW1021
0057601400999991952062312004+34033-004983FM-12+041499999V0202901N00211220001CN0150001N9+02781+01891101331ADDAY111999GF101991011021017501001001MD1610061+9999MW1061
0057601400999991952062412004+34033-004983FM-12+041499999V0200601N00311220001CN0200001N9+03611+01111101381ADDAY101999GF101991011021017501001001MD1810061+9999MW1031
0057601400999991952062512004+34033-004983FM-12+041499999V0209991C000019999999N0200001N9+03391+01281101661ADDAY121999GF106991001001999999081021MD1710151+9999MW1021
0057601400999991952062612004+34033-004983FM-12+041499999V0209991C00001007501CN0150001N9+02501+01611101821ADDAY121999GF108991081051008001999999MD1810071+9999MW1021
0057601400999991952062712004+34033-004983FM-12+041499999V0202501N00211007501CN0150001N9+02111+01281101571ADDAY121999GF107991071051008001001001MD1710031+9999MW1011
0057601400999991952062812004+34033-004983FM-12+041499999V0202701N00101220001CN0200001N9+02501+01391101261ADDAY101999GF101991011011012501001001MD1610051+9999MW1011
0076601400999991952063012004+34033-004983FM-12+041499999V0200201N00211220001CN0200001N9+02891+01501101591ADDAY101999GF101991999001999999081001MD1610071+9999MW1031EQDQ01+000002SCOTLC
0057601400999991952070112004+34033-004983FM-12+041499999V0200901N00101220001CN0200001N9+02891+01501101691ADDAY101999GF100991001001999999001001MD1710041+9999MW1021
0057601400999991952070212004+34033-004983FM-12+041499999V0202701N00211220001CN0200001N9+03001+01781101601ADDAY101999GF100991001001999999001001MD1710111+9999MW1021
0057601400999991952070312004+34033-004983FM-12+041499999V0203201N00311220001CN0150001N9+03111+01891101331ADDAY101999GF101991001001999999001021MD1710091+9999MW1061
0057601400999991952070412004+34033-004983FM-12+041499999V0203401N00211220001CN0150001N9+02611+01501101661ADDAY111999GF103991031051008001001001MD1810081+9999MW1011
0057601400999991952070512004+34033-004983FM-12+041499999V0202901N00101220001CN0400001N9+02611+01391101891ADDAY101999GF100991001001999999001001MD1810061+9999MW1021
0076601400999991952070612004+34033-004983FM-12+041499999V0209991C00001220001CN0200001N9+02781+01281101691ADDAY101999GF101991999001999999041001MD1710081+9999MW1031EQDQ01+000002SCOTLC
0057601400999991952070712004+34033-004983FM-12+041499999V0209991C00001220001CN0200001N9+03221+01611101451ADDAY101999GF101991011011012501001001MD1710181+9999MW1031
0057601400999991952070812004+34033-004983FM-12+041499999V0203401N00721220001CN0200001N9+03281+01111101661ADDAY101999GF101991011021017501001001MD1810051+9999MW1031
0057601400999991952070912004+34033-004983FM-12+041499999V0200901N00101036001CN0400001N9+03391+01001101291ADDAY111999GF107991011011012501091001MD1710081+9999MW1021
0057601400999991952071012004+34033-004983FM-12+041499999V0200401N00621220001CN0200001N9+04111+01001101451ADDAY101999GF100991001001999999001001MD1710121+9999MW1021
0057601400999991952071112004+34033-004983FM-12+041499999V0209991C00001220001CN0400001N9+04111+01501101501ADDAY101999GF100991001001999999001001MD1810041+9999MW1021
0057601400999991952071212004+34033-004983FM-12+041499999V0203201N00311220001CN0200001N9+03721+01281101551ADDAY101999GF101991011021017501001001MD1710091+9999MW1031
0057601400999991952071312004+34033-004983FM-12+041499999V0203201N00511220001CN0200001N9+03501+01391101571ADDAY101999GF100991001001999999001001MD1810101+9999MW1021
0057601400999991952071412004+34033-004983FM-12+041499999V0202901N00311220001CN0200001N9+03281+00891101401ADDAY101999GF101991011021017501001001MD1710101+9999MW1031
0076601400999991952071512004+34033-004983FM-12+041499999V0200901N001019999999N0400001N9+03281+01611101271ADDAY111999GF105991999001999999081001MD1710011+9999MW1031EQDQ01+000002SCOTLC
0076601400999991952071612004+34033-004983FM-12+041499999V0202701N00311220001CN0200001N9+03221+01721101431ADDAY101999GF101991999001999999081001MD1710061+9999MW1021EQDQ01+000002SCOTLC
0057601400999991952071712004+34033-004983FM-12+041499999V0209991C00001220001CN0150001N9+02781+02001101451ADDAY101999GF100991001001999999001001MD1710041+9999MW1021
0057601400999991952071812004+34033-004983FM-12+041499999V0209991C00001220001CN0160001N9+02721+02001101571ADDAY101999GF100991001001999999001001MD1710071+9999MW1011
0076601400999991952071912004+34033-004983FM-12+041499999V0209991C00001220001CN0200001N9+02781+02001101341ADDAY111999GF103991999001999999081001MD1710081+9999MW1021EQDQ01+000002SCOTLC
0057601400999991952072012004+34033-004983FM-12+041499999V0209991C00001220001CN0200001N9+03281+01781101231ADDAY111999GF101991011021017501001001MD1710071+9999MW1031
0057601400999991952072112004+34033-004983FM-12+041499999V0209991C00001004201CN0100001N9+02391+02001101651ADDAY101999GF107991071061004501001001MD1010041+9999MW1011
0057601400999991952072212004+34033-004983FM-12+041499999V0209991C00001220001CN0150001N9+02781+01891101521ADDAY101999GF100991001001999999001001MD1710121+9999MW1011
0057601400999991952072312004+34033-004983FM-12+041499999V0202901N00211220001CN0100001N9+02611+01891101251ADDAY101999GF100991001001999999001001MD1710101+9999MW1061
0057601400999991952072412004+34033-004983FM-12+041499999V0209991C00001220001CN0160001N9+02611+01781101121ADDAY101999GF100991001001999999001001MD1710041+9999MW1021
0057601400999991952072512004+34033-004983FM-12+041499999V0202901N00211220001CN0160001N9+02891+02001101021ADDAY101999GF100991001001999999001001MD1810051+9999MW1021
0076601400999991952072612004+34033-004983FM-12+041499999V0209991C000019999999N0150001N9+02501+01891101461ADDAY121999GF105991999001999999081001MD1710031+9999MW1011EQDQ01+000002SCOTLC
0057601400999991952072712004+34033-004983FM-12+041499999V0209991C00001220001CN0150001N9+02721+02001101301ADDAY101999GF100991001001999999001001MD1710051+9999MW1021
0057601400999991952072812004+34033-004983FM-12+041499999V0202901N00211007501CN0150001N9+02391+01781101401ADDAY121999GF106991061051008001001001MD1810061+9999MW1011
0057601400999991952072912004+34033-004983FM-12+041499999V0209991C00001220001CN0200001N9+02611+02001101341ADDAY101999GF100991001001999999001001MD1810041+9999MW1021
0057601400999991952073012004+34033-004983FM-12+041499999V0209991C00001220001CN0160001N9+02781+01721101381ADDAY101999GF100991001001999999001001MD1310081+9999MW1021
0057601400999991952073112004+34033-004983FM-12+041499999V0209991C00001220001CN0160001N9+02891+01781101511ADDAY101999GF100991001001999999001001MD1810041+9999MW1021
0057601400999991952080112004+34033-004983FM-12+041499999V0209991C00001220001CN0150001N9+02781+02001101381ADDAY101999GF100991001001999999001001MD1810071+9999MW1021
0057601400999991952080212004+34033-004983FM-12+041499999V0202501N00211220001CN0150001N9+02781+01891101401ADDAY101999GF100991001001999999001001MD1810031+9999MW1061
0076601400999991952080312004+34033-004983FM-12+041499999V0209991C00001220001CN0200001N9+02721+01501101381ADDAY101999GF101991999001999999041001MD1710041+9999MW1021EQDQ01+000002SCOTLC
0057601400999991952080412004+34033-004983FM-12+041499999V0209991C00001220001CN0200001N9+03111+01111101251ADDAY101999GF100991001001999999001001MD1710141+9999MW1021
0057601400999991952080512004+34033-004983FM-12+041499999V0209991C00001220001CN0200001N9+03111+01611101241ADDAY101999GF100991001001999999001001MD1810081+9999MW1021
0057601400999991952080612004+34033-004983FM-12+041499999V0202701N00101220001CN0150001N9+02781+01891101521ADDAY121999GF104991001001999999081021MD1810021+9999MW1061
0057601400999991952080712004+34033-004983FM-12+041499999V0209991C00001220001CN0200001N9+03111+01721101551ADDAY101999GF100991001001999999001001MD1710061+9999MW1021
0057601400999991952080812004+34033-004983FM-12+041499999V0200201N00101220001CN0200001N9+03001+01111101571ADDAY101999GF100991001001999999001001MD1810031+9999MW1021
0057601400999991952080912004+34033-004983FM-12+041499999V0203201N00101220001CN0400001N9+03221+01281101671ADDAY101999GF100991001001999999001001MD1810041+9999MW1021
0057601400999991952081012004+34033-004983FM-12+041499999V0209991C00001220001CN0600001N9+03001+01391101521ADDAY101999GF100991001001999999001001MD1710101+9999MW1021
0057601400999991952081112004+34033-004983FM-12+041499999V0209991C00001220001CN0200001N9+03111+01391101351ADDAY101999GF101991011021017501001001MD1810041+9999MW1031
0076601400999991952081212004+34033-004983FM-12+041499999V0201101N00411220001CN0200001N9+04001+01111101141ADDAY101999GF102991999001999999091001MD1810081+9999MW1031EQDQ01+000002SCOTLC
0057601400999991952081312004+34033-004983FM-12+041499999V0200901N00311220001CN0600001N9+04111+01001100911ADDAY101999GF104991031021017501081001MD1710131+9999MW1031
0057601400999991952081412004+34033-004983FM-12+041499999V0200201N00211220001CN0200001N9+03611+01611101071ADDAY101999GF103991011021017501081021MD1810101+9999MW1031
0057601400999991952081512004+34033-004983FM-12+041499999V0202901N00101220001CN0400001N9+03281+01501101221ADDAY101999GF103991011021012501001021MD1810041+9999MW1011
0076601400999991952081612004+34033-004983FM-12+041499999V0209991C00001220001CN0400001N9+03111+01501101411ADDAY101999GF103991999001999999081001MD1810031+9999MW1021EQDQ01+000002SCOTLC
0057601400999991952081712004+34033-004983FM-12+041499999V0203601N00101220001CN0200001N9+03281+01501101531ADDAY101999GF100991001001999999001001MD1810061+9999MW1021
0057601400999991952081812004+34033-004983FM-12+041499999V0209991C00001220001CN0200001N9+03221+01001101321ADDAY101999GF100991001001999999001001MD1810091+9999MW1021
0057601400999991952081912004+34033-004983FM-12+041499999V0209991C00001220001CN0400001N9+03001+01391101191ADDAY101999GF100991001001999999001001MD1010061+9999MW1021
0057601400999991952082012004+34033-004983FM-12+041499999V0203201N00311220001CN0200001N9+02501+01391101341ADDAY121999GF102991021051008001001001MD1810081+9999MW1011
0057601400999991952082112004+34033-004983FM-12+041499999V0209991C00001220001CN0200001N9+02391+01281101211ADDAY101999GF101991001001999999001021MD1810121+9999MW1021
0057601400999991952082212004+34033-004983FM-12+041499999V0200901N00211220001CN0200001N9+03111+01501100711ADDAY101999GF100991001001999999001001MD1810111+9999MW1021
0057601400999991952082312004+34033-004983FM-12+041499999V0200901N00411220001CN0200001N9+03281+01781101011ADDAY101999GF100991001001999999001001MD1010031+9999MW1021
0057601400999991952082412004+34033-004983FM-12+041499999V0201401N00101220001CN0400001N9+03611+01111101191ADDAY101999GF101991011011017501001001MD1810011+9999MW1021
0057601400999991952082512004+34033-004983FM-12+041499999V0209991C00001220001CN0400001N9+03611+01111101131ADDAY111999GF104991021031017501081001MD1710101+9999MW1001
0057601400999991952082612004+34033-004983FM-12+041499999V0200401N00211036001CN0200001N9+03221+01111101231ADDAY111999GF105991011021017501081001MD1810191+9999MW1031
0057601400999991952082712004+34033-004983FM-12+041499999V0209991C00001015001CN0150001N9+01781+01611101711ADDAY121999GF108991051031017501081011MD1210191+9999MW1811
0057601400999991952082812004+34033-004983FM-12+041499999V0202701N00311036001CN0150001N9+02111+01611101481ADDAY121999GF106991041021012501081001MD1310021+9999MW1011
0057601400999991952082912004+34033-004983FM-12+041499999V0209991C00001220001CN0200001N9+02501+01501101581ADDAY101999GF101991011061004501001001MD1810051+9999MW1021
0057601400999991952083012004+34033-004983FM-12+041499999V0200901N00211220001CN0200001N9+02611+01501101391ADDAY101999GF100991001001999999001001MD1810101+9999MW1021
0057601400999991952083112004+34033-004983FM-12+041499999V0209991C00001220001CN0400001N9+03001+01281101081ADDAY101999GF101991011021017501001001MD1810041+9999MW1031
0057601400999991952090112004+34033-004983FM-12+041499999V0202901N00211220001CN0200001N9+03221+01891101141ADDAY101999GF103991021091017501081001MD1010001+9999MW1031
0078601400999991952090212004+34033-004983FM-12+041499999V0200901N00311015001CN0200001N9+02611+02001101401ADDAY121999GF107991061091017501081001MW1151EQDQ01+000022APCTENQ02+000002APC3  
0076601400999991952090312004+34033-004983FM-12+041499999V0201101N00821220001CN0200001N9+03281+01721101271ADDAY111999GF103991999001999999081001MD1010011+9999MW1021EQDQ01+000002SCOTLC
0057601400999991952090412004+34033-004983FM-12+041499999V0200401N00211220001CN0200001N9+03281+01501100981ADDAY101999GF102991011021017501081001MD1810121+9999MW1031
0057601400999991952090512004+34033-004983FM-12+041499999V0209991C00001036001CN0160001N9+02611+02001100881ADDAY121999GF106991021031017501081001MD1810041+9999MW1021
0057601400999991952090612004+34033-004983FM-12+041499999V0209991C00001220001CN0150001N9+02391+01611101211ADDAY121999GF102991021021017501001001MD1110031+9999MW1011
0057601400999991952090712004+34033-004983FM-12+041499999V0209991C00001220001CN0600001N9+02391+01391101401ADDAY101999GF102991001001999999001021MD1610061+9999MW1031
0094601400999991952090812004+34033-004983FM-12+041499999V0209991C000019999999N0600001N9+02501+01391101681ADDAY121999GF107991999001999999081001MW1021EQDQ01+000002SCOTLCQ02+000022APCTENQ03+000002APC3  
0057601400999991952090912004+34033-004983FM-12+041499999V0209991C00001220001CN0600001N9+03221+01391101541ADDAY121999GF103991001001999999001021MD1710051+9999MW1011
0057601400999991952091012004+34033-004983FM-12+041499999V0202701N00211036001CN0200001N9+02281+02001101961ADDAY191999GF108991031031012501081011MD1210371+9999MW1251
0076601400999991952091112004+34033-004983FM-12+041499999V0203201N003119999999N0400001N9+02501+01721101481ADDAY121999GF106991999021008001001001MD1810031+9999MW1021EQDQ01+000032SCOTLC
0057601400999991952091212004+34033-004983FM-12+041499999V0209991C00001220001CN0200001N9+02721+01781101231ADDAY101999GF103991031021017501001001MD1810081+9999MW1031
0057601400999991952091312004+34033-004983FM-12+041499999V0203201N00621220001CN0200001N9+02501+01501101551ADDAY101999GF104991031011017501081001MD1010001+9999MW1031
0057601400999991952091412004+34033-004983FM-12+041499999V0209991C000019999999N0200001N9+02281+01111101901ADDAY121999GF107991001001999999041021MD1810071+9999MW1021
0057601400999991952091512004+34033-004983FM-12+041499999V0200401N00211220001CN0200001N9+02111+00891101941ADDAY101999GF101991011011012501001001MD1810111+9999MW1021
0057601400999991952091612004+34033-004983FM-12+041499999V0209991C00001220001CN0400001N9+02221+00891101441ADDAY101999GF100991001001999999001001MD1710141+9999MW1021
0057601400999991952091712004+34033-004983FM-12+041499999V0209991C00001220001CN0200001N9+02281+00721101301ADDAY101999GF100991001001999999001001MD1810061+9999MW1021
0057601400999991952091812004+34033-004983FM-12+041499999V0209991C00001090001CN0200001N9+02221+01001101521ADDAY121999GF105991001001999999001021MD1010011+9999MW1011
0057601400999991952091912004+34033-004983FM-12+041499999V0202901N00211220001CN0200001N9+02281+01221101741ADDAY121999GF103991031051012501001001MD1810161+9999MW1011
0057601400999991952092012004+34033-004983FM-12+041499999V0202901N00101220001CN0200001N9+02281+00721101481ADDAY101999GF100991001001999999001001MD1810121+9999MW1021
0057601400999991952092112004+34033-004983FM-12+041499999V0200601N00511220001CN0200001N9+02611+00781101551ADDAY101999GF100991001001999999001001MD1810081+9999MW1021
0057601400999991952092212004+34033-004983FM-12+041499999V0200901N00621220001CN0400001N9+02781+01111101721ADDAY101999GF100991001001999999001001MD1810041+9999MW1021
0057601400999991952092312004+34033-004983FM-12+041499999V0200901N00931220001CN0400001N9+02891+01111101881ADDAY101999GF100991001001999999001001MD1710101+9999MW1021
0057601400999991952092412004+34033-004983FM-12+041499999V0200401N00101220001CN0200001N9+02891+01111101811ADDAY101999GF100991001001999999001001MD1810131+9999MW1021
0057601400999991952092512004+34033-004983FM-12+041499999V0209991C00001220001CN0200001N9+02611+01111101891ADDAY101999GF100991001001999999001001MD1810081+9999MW1021
0057601400999991952092612004+34033-004983FM-12+041499999V0209991C00001220001CN0200001N9+02611+01001101721ADDAY101999GF102991001001999999001011MD1810071+9999MW1021
0057601400999991952092712004+34033-004983FM-12+041499999V0209991C00001220001CN0200001N9+02501+01111101761ADDAY101999GF100991001001999999001001MD1810081+9999MW1021
0057601400999991952092812004+34033-004983FM-12+041499999V0209991C00001220001CN0600001N9+02221+01501101751ADDAY121999GF108991001001999999001041MD1810111+9999MW1021
0057601400999991952092912004+34033-004983FM-12+041499999V0209991C00001012001CN0160001N9+02281+01501101621ADDAY121999GF105991051021012501001001MD1810051+9999MW1011
0057601400999991952093012004+34033-004983FM-12+041499999V0203201N00211220001CN0200001N9+02221+01111101491ADDAY111999GF104991011051012501001011MD1810121+9999MW1021
0057601400999991952100112004+34033-004983FM-12+041499999V0202901N005119999999N0400001N9+02221+01391101741ADDAY121999GF106991001001999999051021MD1010051+9999MW1011
0057601400999991952100212004+34033-004983FM-12+041499999V0209991C00001220001CN0400001N9+02281+01111101911ADDAY101999GF100991001001999999001001MD1810041+9999MW1021
0057601400999991952100312004+34033-004983FM-12+041499999V0200901N00511220001CN0400001N9+02611+00781101881ADDAY101999GF101991001001999999001041MD1810111+9999MW1021
0057601400999991952100412004+34033-004983FM-12+041499999V0209991C00001220001CN0700001N9+03001+00891101651ADDAY101999GF101991001001999999001011MD1810071+9999MW1021
0057601400999991952100512004+34033-004983FM-12+041499999V0209991C00001220001CN0700001N9+03001+00721101571ADDAY101999GF100991001001999999001001MD1710111+9999MW1031
0057601400999991952100612004+34033-004983FM-12+041499999V0209991C00001090001CN0600001N9+03001+00611101651ADDAY121999GF105991001001999999001051MD1810021+9999MW1021
0057601400999991952100712004+34033-004983FM-12+041499999V0209991C00001220001CN0400001N9+02891+01111101921ADDAY101999GF100991001001999999001001MD1810051+9999MW1031
0057601400999991952100812004+34033-004983FM-12+041499999V0200201N00211220001CN0600001N9+03001+00891101851ADDAY101999GF103991021021017501001021MD1810051+9999MW1031
0057601400999991952100912004+34033-004983FM-12+041499999V0200601N00101220001CN0400001N9+03001+01111102021ADDAY101999GF103991011011017501001021MD1810031+9999MW1031
0057601400999991952101012004+34033-004983FM-12+041499999V0209991C00001220001CN0400001N9+03001+00891101991ADDAY101999GF101991001001999999001021MD1810061+9999MW1021
0057601400999991952101112004+34033-004983FM-12+041499999V0203201N00211220001CN0200001N9+03221+00891101621ADDAY101999GF100991001001999999001001MD1710141+9999MW1021
0057601400999991952101212004+34033-004983FM-12+041499999V0203201N00101220001CN0400001N9+02781+01001101811ADDAY101999GF102991001001999999001021MD1810031+9999MW1021
0057601400999991952101312004+34033-004983FM-12+041499999V0209991C00001220001CN0400001N9+02781+01111101641ADDAY101999GF102991001001999999001021MD1810151+9999MW1021
0076601400999991952101412004+34033-004983FM-12+041499999V0209991C00001220001CN0200001N9+02391+01221101481ADDAY101999GF103991999001999999081001MD1810071+9999MW1021EQDQ01+000002SCOTLC
0057601400999991952101512004+34033-004983FM-12+041499999V0209991C00001220001CN0400001N9+02781+01221101031ADDAY101999GF101991011011017501001001MD1710111+9999MW1021
0076601400999991952101612004+34033-004983FM-12+041499999V0209991C000019999999N0200001N9+02391+01221101401ADDAY111999GF105991999001999999041001MD1010021+9999MW1021EQDQ01+000002SCOTLC
0057601400999991952101712004+34033-004983FM-12+041499999V0200401N00101220001CN0400001N9+02721+01501101651ADDAY101999GF100991001001999999001001MD1010031+9999MW1011
0057601400999991952101812004+34033-004983FM-12+041499999V0209991C000019999999N0200001N9+02221+01501101811ADDAY121999GF108991001001999999081021MD1810031+9999MW1021
0057601400999991952101912004+34033-004983FM-12+041499999V0209991C00001036001CN0100001N9+01721+01501101441ADDAY181999GF108991041061002501051999MD1710131+9999MW1251
0057601400999991952102012004+34033-004983FM-12+041499999V0202201N00311090001CN0200001N9+02111+01391101151ADDAY121999GF105991041021008001001021MD1710051+9999MW1031
0057601400999991952102112004+34033-004983FM-12+041499999V0202901N00621012001CN0600001N9+02111+01391101201ADDAY121999GF108991071081008001081999MD1710031+9999MW1031
0057601400999991952102212004+34033-004983FM-12+041499999V0202501N00311007501CN0200001N9+02001+01281102441ADDAY121999GF105991051051008001001001MD1310121+9999MW1021
0057601400999991952102312004+34033-004983FM-12+041499999V0209991C00001220001CN0600001N9+01891+01391102371ADDAY111999GF102991001001999999001021MD1810071+9999MW1011
0057601400999991952102412004+34033-004983FM-12+041499999V0209991C00001220001CN0600001N9+02391+01281101661ADDAY101999GF100991001001999999001001MD1710131+9999MW1021
0057601400999991952102512004+34033-004983FM-12+041499999V0202901N00211007501CN0100001N9+01781+01501101971ADDAY121999GF108991081051008001999999MD1010001+9999MW1021
0057601400999991952102612004+34033-004983FM-12+041499999V0209991C00001220001CN0200001N9+02221+01501101841ADDAY101999GF102991001001999999001041MD1810061+9999MW1021
0057601400999991952102712004+34033-004983FM-12+041499999V0209991C00001220001CN0600001N9+02391+01391101981ADDAY101999GF101991011011017501001001MD1810071+9999MW1021
0057601400999991952102812004+34033-004983FM-12+041499999V0200201N00411220001CN0600001N9+02611+01221101971ADDAY101999GF100991001001999999001001MD1810101+9999MW1021
0057601400999991952102912004+34033-004983FM-12+041499999V0200401N00101220001CN0700001N9+02391+01221102011ADDAY101999GF100991001001999999001001MD1810081+9999MW1021
0057601400999991952103012004+34033-004983FM-12+041499999V0209991C00001220001CN0400001N9+02391+01281102131ADDAY101999GF103991001001999999001021MD1810031+9999MW1031
0057601400999991952103112004+34033-004983FM-12+041499999V0209991C00001220001CN0700001N9+02391+01221102161ADDAY101999GF101991001001999999001021MD1810041+9999MW1011
0057601400999991952110112004+34033-004983FM-12+041499999V0200901N00101090001CN0400001N9+02111+01221102221ADDAY121999GF105991001001999999001021MD1810041+9999MW1021
0057601400999991952110212004+34033-004983FM-12+041499999V0200901N00211220001CN0700001N9+02221+00721102071ADDAY101999GF102991001001999999001021MD1810101+9999MW1021
0057601400999991952110312004+34033-004983FM-12+041499999V0209991C00001220001CN0200001N9+02221+00391101921ADDAY111999GF103991001001999999001021MD1810041+9999MW1011
0057601400999991952110412004+34033-004983FM-12+041499999V0200901N00621220001CN0400001N9+02501+00501101671ADDAY101999GF102991001001999999001021MD1810081+9999MW1011
0057601400999991952110512004+34033-004983FM-12+041499999V0201101N00101220001CN0400001N9+02281+00891102031ADDAY101999GF102991001001999999001021MD1810071+9999MW1021
0057601400999991952110612004+34033-004983FM-12+041499999V0209991C00001220001CN0200001N9+02111+01001102341ADDAY101999GF100991001001999999001001MD1810071+9999MW1021
0057601400999991952110712004+34033-004983FM-12+041499999V0201201N00211220001CN0400001N9+02001+00781102351ADDAY101999GF103991001001999999001021MD1810111+9999MW1031
0057601400999991952110812004+34033-004983FM-12+041499999V0209991C00001220001CN0600001N9+02001+00281101821ADDAY111999GF102991001001999999001021MD1810121+9999MW1011
0057601400999991952110912004+34033-004983FM-12+041499999V0200901N00211220001CN0200001N9+02001+00281101721ADDAY101999GF100991001001999999001001MD1810011+9999MW1021
0057601400999991952111012004+34033-004983FM-12+041499999V0200901N00621090001CN0700001N9+01891+00501102021ADDAY121999GF106991001001999999001021MD1810101+9999MW1021
0057601400999991952111112004+34033-004983FM-12+041499999V0209991C00001220001CN0400001N9+02111+00501101831ADDAY101999GF101991001001999999001021MD1810111+9999MW1021
0076601400999991952111212004+34033-004983FM-12+041499999V0209991C00001220001CN0060001N9+02001+00721101601ADDAY111999GF103991999001999999081001MD1810111+9999MW1011EQDQ01+000002SCOTLC
0057601400999991952111312004+34033-004983FM-12+041499999V0203201N004119999999N0200001N9+02001+01001101591ADDAY121999GF107991001001999999051021MD1210051+9999MW1151
0057601400999991952111412004+34033-004983FM-12+041499999V0200401N004119999999N0060001N9+02001+01281101331ADDAY121999GF106991001001999999031021MD1710091+9999MW1031
0057601400999991952111512004+34033-004983FM-12+041499999V0200901N005119999999N0400001N9+01721+01391101051ADDAY121999GF108991001001999999081011MD1710201+9999MW1031
0057601400999991952111612004+34033-004983FM-12+041499999V0202601N00311012001CN0200001N9+01781+01281101171ADDAY121999GF107991071091012501001001MD1810041+9999MW1031
0057601400999991952111712004+34033-004983FM-12+041499999V0202701N00821012001CN0200001N9+01781+01281101071ADDAY181999GF107991071081008001001001MD1810051+9999MW1021
0057601400999991952111812004+34033-004983FM-12+041499999V0203201N00311015001CN0200001N9+01781+01281101161ADDAY121999GF106991061081012501001001MD1810041+9999MW1031
0057601400999991952111912004+34033-004983FM-12+041499999V0209991C00001007501CN0150001N9+01281+00891101831ADDAY121999GF107991061051008001001021MD1010001+9999MW1011
0076601400999991952112012004+34033-004983FM-12+041499999V0202901N00211220001CN0200001N9+01391+00611102241ADDAY101999GF101991999001999999041001MD1010111+9999MW1021EQDQ01+000002SCOTLC
0057601400999991952112112004+34033-004983FM-12+041499999V0209991C00001220001CN0400001N9+01391+00781102341ADDAY101999GF100991001001999999001001MD1810071+9999MW1021
0057601400999991952112212004+34033-004983FM-12+041499999V0200901N00101220001CN0700001N9+01391+00721102421ADDAY101999GF100991001001999999001001MD1810071+9999MW1011
0057601400999991952112312004+34033-004983FM-12+041499999V0209991C00001220001CN0700001N9+01721+00781102411ADDAY101999GF100991001001999999001001MD1010001+9999MW1021
0057601400999991952112412004+34033-004983FM-12+041499999V0202901N00311220001CN0400001N9+02391+01221102101ADDAY111999GF104991001001999999081021MD1810051+9999MW1031
0057601400999991952112512004+34033-004983FM-12+041499999V0200401N00101220001CN0400001N9+02221+01281101631ADDAY111999GF104991001001999999081021MD1810061+9999MW1011
0057601400999991952112612004+34033-004983FM-12+041499999V0209991C000019999999N0200001N9+02001+01281101451ADDAY121999GF107991001001999999051021MD1010071+9999MW1021
0057601400999991952112712004+34033-004983FM-12+041499999V0201601N00101036001CN0150001N9+01611+01501101421ADDAY121999GF108991021051004501021011MD1810011+9999MW1021
0057601400999991952112812004+34033-004983FM-12+041499999V0200401N002119999999N0200001N9+01721+01611101501ADDAY141999GF107991001001999999081021MD1810101+9999MW1021
0057601400999991952112912004+34033-004983FM-12+041499999V0200901N00311090001CN0200001N9+01891+01611101121ADDAY161999GF106991031051008001001021MD1810141+9999MW1021
0057601400999991952113012004+34033-004983FM-12+041499999V0209991C000019999999N0200001N9+01721+01501101481ADDAY121999GF107991001001999999071021MD1810071+9999MW1021
0057601400999991952120112004+34033-004983FM-12+041499999V0209991C000019999999N0200001N9+02001+01501101911ADDAY121999GF105991001001999999081021MD1010031+9999MW1011
0057601400999991952120212004+34033-004983FM-12+041499999V0209991C00001007501CN0200001N9+01721+01501102111ADDAY161999GF108991051051008001999999MD1010081+9999MW1021
0057601400999991952120312004+34033-004983FM-12+041499999V0202901N00411036001CN0200001N9+01721+01001102021ADDAY111999GF105991041021008001081001MD1810041+9999MW1021
0057601400999991952120412004+34033-004983FM-12+041499999V0202901N00211220001CN0200001N9+01611+00891102111ADDAY101999GF104991041021012501001001MD1810021+9999MW1031
0057601400999991952120512004+34033-004983FM-12+041499999V0209991C00001220001CN0200001N9+01281+00721102301ADDAY101999GF100991001001999999001001MD1810031+9999MW1021
0057601400999991952120612004+34033-004983FM-12+041499999V0209991C00001220001CN0600001N9+01501+00501102611ADDAY101999GF100991001001999999001001MD1010001+9999MW1021
0057601400999991952120712004+34033-004983FM-12+041499999V0202701N00311220001CN0200001N9+01721+01111102431ADDAY111999GF103991031011012501001001MD1810071+9999MW1011
0057601400999991952120812004+34033-004983FM-12+041499999V0202701N00411220001CN0400001N9+01501+00721102311ADDAY101999GF100991001001999999001001MD1810051+9999MW1021
0057601400999991952120912004+34033-004983FM-12+041499999V0209991C00001220001CN0400001N9+01221+00501102561ADDAY101999GF100991001001999999001001MD1810011+9999MW1021
0057601400999991952121012004+34033-004983FM-12+041499999V0209991C00001220001CN0400001N9+01221+00391102571ADDAY101999GF100991001001999999001001MD1810011+9999MW1021
0057601400999991952121112004+34033-004983FM-12+041499999V0203201N00101220001CN0700001N9+01281+00111102691ADDAY101999GF100991001001999999001001MD1010001+9999MW1011
0057601400999991952121212004+34033-004983FM-12+041499999V0209991C00001220001CN0400001N9+01391+00611102701ADDAY111999GF103991001001999999001011MD1810051+9999MW1011
0057601400999991952121312004+34033-004983FM-12+041499999V0202901N00101220001CN0200001N9+01281+00721102341ADDAY101999GF101991011011017501001001MD1010001+9999MW1021
0057601400999991952121412004+34033-004983FM-12+041499999V0203201N00931220001CN0600001N9+01781+00501101641ADDAY101999GF102991011051008001041021MD1810161+9999MW1031
0057601400999991952121612004+34033-004983FM-12+041499999V0209991C00001220001CN0600001N9+01001+00281103151ADDAY101999GF100991001001999999001001MD1010031+9999MW1021
0057601400999991952121712004+34033-004983FM-12+041499999V0202901N00411220001CN0400001N9+01221+00611103031ADDAY101999GF103991001001999999001021MD1010041+9999MW1021
0057601400999991952121812004+34033-004983FM-12+041499999V0202901N00411012001CN0150001N9+01111+01001102671ADDAY181999GF108991081081008001999999MD1310071+9999MW1251
0057601400999991952121912004+34033-004983FM-12+041499999V0209991C00001220001CN0200001N9+01611+00781102631ADDAY101999GF101991001001999999001011MD1010011+9999MW1021
0057601400999991952122012004+34033-004983FM-12+041499999V0209991C00001220001CN0400001N9+01221+00781102661ADDAY101999GF100991001001999999001001MD1810061+9999MW1021
0057601400999991952122112004+34033-004983FM-12+041499999V0200201N00211220001CN0400001N9+01391+00891102701ADDAY101999GF100991001001999999001001MD1010021+9999MW1021
0057601400999991952122212004+34033-004983FM-12+041499999V0200601N00211220001CN0400001N9+01501+00891102581ADDAY101999GF100991001001999999001001MD1810051+9999MW1021
0057601400999991952122312004+34033-004983FM-12+041499999V0201101N00101220001CN0700001N9+01611+00781102281ADDAY101999GF100991001001999999001001MD1810021+9999MW1011
0057601400999991952122412004+34033-004983FM-12+041499999V0209991C00001220001CN0200001N9+01391+00721102421ADDAY141999GF100991001001999999001001MD1810031+9999MW1021
0057601400999991952122512004+34033-004983FM-12+041499999V0209991C00001000301CN0002001N9+01001+00891102661ADDAY141999GF109991091999000251999999MD1010051+9999MW1951
0057601400999991952122612004+34033-004983FM-12+041499999V0202901N00311220001CN0200001N9+01391+00781102611ADDAY121999GF104991031061008001001021MD1810021+9999MW1011
0057601400999991952122712004+34033-004983FM-12+041499999V0202901N00211007501CN0150001N9+01221+00501102421ADDAY121999GF107991071051008001001001MD1010011+9999MW1021
0057601400999991952122812004+34033-004983FM-12+041499999V0202701N00411012001CN0100001N9+00891+00781101461ADDAY181999GF108991081081008001999999MD1810081+9999MW1811
0057601400999991952122912004+34033-004983FM-12+041499999V0202501N02471036001CN0400001N9+01221+00281100701ADDAY111999GF105991031061008001041021MD1710291+9999MW1021
0057601400999991952123012004+34033-004983FM-12+041499999V0202701N01031009001CN0100001N9+01001+00611100791ADDAY181999GF108991081081004501999999MD1010021+9999MW1251
0057601400999991952123112004+34033-004983FM-12+041499999V0202701N01031012001CN0160001N9+00891+00391101231ADDAY181999GF105991051081008001001001MD1810021+9999MW1021
